
SDCARD_SPI_F103.elf:     file format elf32-littlearm

Sections:
Idx Name          Size      VMA       LMA       File off  Algn
  0 .isr_vector   0000010c  08000000  08000000  00010000  2**0
                  CONTENTS, ALLOC, LOAD, READONLY, DATA
  1 .text         00007a5c  0800010c  0800010c  0001010c  2**2
                  CONTENTS, ALLOC, LOAD, READONLY, CODE
  2 .rodata       00000948  08007b68  08007b68  00017b68  2**2
                  CONTENTS, ALLOC, LOAD, READONLY, DATA
  3 .ARM.extab    00000000  080084b0  080084b0  00020090  2**0
                  CONTENTS
  4 .ARM          00000000  080084b0  080084b0  00020090  2**0
                  CONTENTS
  5 .preinit_array 00000000  080084b0  080084b0  00020090  2**0
                  CONTENTS, ALLOC, LOAD, DATA
  6 .init_array   00000004  080084b0  080084b0  000184b0  2**2
                  CONTENTS, ALLOC, LOAD, DATA
  7 .fini_array   00000004  080084b4  080084b4  000184b4  2**2
                  CONTENTS, ALLOC, LOAD, DATA
  8 .data         00000090  20000000  080084b8  00020000  2**2
                  CONTENTS, ALLOC, LOAD, DATA
  9 .bss          00004508  20000090  08008548  00020090  2**2
                  ALLOC
 10 ._user_heap_stack 00000600  20004598  08008548  00024598  2**0
                  ALLOC
 11 .ARM.attributes 00000029  00000000  00000000  00020090  2**0
                  CONTENTS, READONLY
 12 .debug_info   0000ead7  00000000  00000000  000200b9  2**0
                  CONTENTS, READONLY, DEBUGGING, OCTETS
 13 .debug_abbrev 00002804  00000000  00000000  0002eb90  2**0
                  CONTENTS, READONLY, DEBUGGING, OCTETS
 14 .debug_aranges 00000c68  00000000  00000000  00031398  2**3
                  CONTENTS, READONLY, DEBUGGING, OCTETS
 15 .debug_ranges 00000b30  00000000  00000000  00032000  2**3
                  CONTENTS, READONLY, DEBUGGING, OCTETS
 16 .debug_macro  0001541b  00000000  00000000  00032b30  2**0
                  CONTENTS, READONLY, DEBUGGING, OCTETS
 17 .debug_line   0000f836  00000000  00000000  00047f4b  2**0
                  CONTENTS, READONLY, DEBUGGING, OCTETS
 18 .debug_str    0006e0b4  00000000  00000000  00057781  2**0
                  CONTENTS, READONLY, DEBUGGING, OCTETS
 19 .comment      00000053  00000000  00000000  000c5835  2**0
                  CONTENTS, READONLY
 20 .debug_frame  00003590  00000000  00000000  000c5888  2**2
                  CONTENTS, READONLY, DEBUGGING, OCTETS

Disassembly of section .text:

0800010c <__do_global_dtors_aux>:
 800010c:	b510      	push	{r4, lr}
 800010e:	4c05      	ldr	r4, [pc, #20]	; (8000124 <__do_global_dtors_aux+0x18>)
 8000110:	7823      	ldrb	r3, [r4, #0]
 8000112:	b933      	cbnz	r3, 8000122 <__do_global_dtors_aux+0x16>
 8000114:	4b04      	ldr	r3, [pc, #16]	; (8000128 <__do_global_dtors_aux+0x1c>)
 8000116:	b113      	cbz	r3, 800011e <__do_global_dtors_aux+0x12>
 8000118:	4804      	ldr	r0, [pc, #16]	; (800012c <__do_global_dtors_aux+0x20>)
 800011a:	f3af 8000 	nop.w
 800011e:	2301      	movs	r3, #1
 8000120:	7023      	strb	r3, [r4, #0]
 8000122:	bd10      	pop	{r4, pc}
 8000124:	20000090 	.word	0x20000090
 8000128:	00000000 	.word	0x00000000
 800012c:	08007b50 	.word	0x08007b50

08000130 <frame_dummy>:
 8000130:	b508      	push	{r3, lr}
 8000132:	4b03      	ldr	r3, [pc, #12]	; (8000140 <frame_dummy+0x10>)
 8000134:	b11b      	cbz	r3, 800013e <frame_dummy+0xe>
 8000136:	4903      	ldr	r1, [pc, #12]	; (8000144 <frame_dummy+0x14>)
 8000138:	4803      	ldr	r0, [pc, #12]	; (8000148 <frame_dummy+0x18>)
 800013a:	f3af 8000 	nop.w
 800013e:	bd08      	pop	{r3, pc}
 8000140:	00000000 	.word	0x00000000
 8000144:	20000094 	.word	0x20000094
 8000148:	08007b50 	.word	0x08007b50

0800014c <strlen>:
 800014c:	4603      	mov	r3, r0
 800014e:	f813 2b01 	ldrb.w	r2, [r3], #1
 8000152:	2a00      	cmp	r2, #0
 8000154:	d1fb      	bne.n	800014e <strlen+0x2>
 8000156:	1a18      	subs	r0, r3, r0
 8000158:	3801      	subs	r0, #1
 800015a:	4770      	bx	lr

0800015c <SELECT>:
 * SPI functions
 **************************************/

/* slave select */
static void SELECT(void)
{
 800015c:	b580      	push	{r7, lr}
 800015e:	af00      	add	r7, sp, #0
	HAL_GPIO_WritePin(SD_CS_PORT, SD_CS_PIN, GPIO_PIN_RESET);
 8000160:	2200      	movs	r2, #0
 8000162:	2110      	movs	r1, #16
 8000164:	4803      	ldr	r0, [pc, #12]	; (8000174 <SELECT+0x18>)
 8000166:	f001 fc8d 	bl	8001a84 <HAL_GPIO_WritePin>
	HAL_Delay(1);
 800016a:	2001      	movs	r0, #1
 800016c:	f001 f95e 	bl	800142c <HAL_Delay>
}
 8000170:	bf00      	nop
 8000172:	bd80      	pop	{r7, pc}
 8000174:	40010800 	.word	0x40010800

08000178 <DESELECT>:

/* slave deselect */
static void DESELECT(void)
{
 8000178:	b580      	push	{r7, lr}
 800017a:	af00      	add	r7, sp, #0
	HAL_GPIO_WritePin(SD_CS_PORT, SD_CS_PIN, GPIO_PIN_SET);
 800017c:	2201      	movs	r2, #1
 800017e:	2110      	movs	r1, #16
 8000180:	4803      	ldr	r0, [pc, #12]	; (8000190 <DESELECT+0x18>)
 8000182:	f001 fc7f 	bl	8001a84 <HAL_GPIO_WritePin>
	HAL_Delay(1);
 8000186:	2001      	movs	r0, #1
 8000188:	f001 f950 	bl	800142c <HAL_Delay>
}
 800018c:	bf00      	nop
 800018e:	bd80      	pop	{r7, pc}
 8000190:	40010800 	.word	0x40010800

08000194 <SPI_TxByte>:

/* SPI transmit a byte */
static void SPI_TxByte(uint8_t data)
{
 8000194:	b580      	push	{r7, lr}
 8000196:	b082      	sub	sp, #8
 8000198:	af00      	add	r7, sp, #0
 800019a:	4603      	mov	r3, r0
 800019c:	71fb      	strb	r3, [r7, #7]
	while(!__HAL_SPI_GET_FLAG(HSPI_SDCARD, SPI_FLAG_TXE));
 800019e:	bf00      	nop
 80001a0:	4b08      	ldr	r3, [pc, #32]	; (80001c4 <SPI_TxByte+0x30>)
 80001a2:	681b      	ldr	r3, [r3, #0]
 80001a4:	689b      	ldr	r3, [r3, #8]
 80001a6:	f003 0302 	and.w	r3, r3, #2
 80001aa:	2b02      	cmp	r3, #2
 80001ac:	d1f8      	bne.n	80001a0 <SPI_TxByte+0xc>
	HAL_SPI_Transmit(HSPI_SDCARD, &data, 1, SPI_TIMEOUT);
 80001ae:	1df9      	adds	r1, r7, #7
 80001b0:	2364      	movs	r3, #100	; 0x64
 80001b2:	2201      	movs	r2, #1
 80001b4:	4803      	ldr	r0, [pc, #12]	; (80001c4 <SPI_TxByte+0x30>)
 80001b6:	f002 f8f8 	bl	80023aa <HAL_SPI_Transmit>
}
 80001ba:	bf00      	nop
 80001bc:	3708      	adds	r7, #8
 80001be:	46bd      	mov	sp, r7
 80001c0:	bd80      	pop	{r7, pc}
 80001c2:	bf00      	nop
 80001c4:	20001418 	.word	0x20001418

080001c8 <SPI_TxBuffer>:

/* SPI transmit buffer */
static void SPI_TxBuffer(uint8_t *buffer, uint16_t len)
{
 80001c8:	b580      	push	{r7, lr}
 80001ca:	b082      	sub	sp, #8
 80001cc:	af00      	add	r7, sp, #0
 80001ce:	6078      	str	r0, [r7, #4]
 80001d0:	460b      	mov	r3, r1
 80001d2:	807b      	strh	r3, [r7, #2]
	while(!__HAL_SPI_GET_FLAG(HSPI_SDCARD, SPI_FLAG_TXE));
 80001d4:	bf00      	nop
 80001d6:	4b08      	ldr	r3, [pc, #32]	; (80001f8 <SPI_TxBuffer+0x30>)
 80001d8:	681b      	ldr	r3, [r3, #0]
 80001da:	689b      	ldr	r3, [r3, #8]
 80001dc:	f003 0302 	and.w	r3, r3, #2
 80001e0:	2b02      	cmp	r3, #2
 80001e2:	d1f8      	bne.n	80001d6 <SPI_TxBuffer+0xe>
	HAL_SPI_Transmit(HSPI_SDCARD, buffer, len, SPI_TIMEOUT);
 80001e4:	887a      	ldrh	r2, [r7, #2]
 80001e6:	2364      	movs	r3, #100	; 0x64
 80001e8:	6879      	ldr	r1, [r7, #4]
 80001ea:	4803      	ldr	r0, [pc, #12]	; (80001f8 <SPI_TxBuffer+0x30>)
 80001ec:	f002 f8dd 	bl	80023aa <HAL_SPI_Transmit>
}
 80001f0:	bf00      	nop
 80001f2:	3708      	adds	r7, #8
 80001f4:	46bd      	mov	sp, r7
 80001f6:	bd80      	pop	{r7, pc}
 80001f8:	20001418 	.word	0x20001418

080001fc <SPI_RxByte>:

/* SPI receive a byte */
static uint8_t SPI_RxByte(void)
{
 80001fc:	b580      	push	{r7, lr}
 80001fe:	b084      	sub	sp, #16
 8000200:	af02      	add	r7, sp, #8
	uint8_t dummy, data;
	dummy = 0xFF;
 8000202:	23ff      	movs	r3, #255	; 0xff
 8000204:	71fb      	strb	r3, [r7, #7]

	while(!__HAL_SPI_GET_FLAG(HSPI_SDCARD, SPI_FLAG_TXE));
 8000206:	bf00      	nop
 8000208:	4b09      	ldr	r3, [pc, #36]	; (8000230 <SPI_RxByte+0x34>)
 800020a:	681b      	ldr	r3, [r3, #0]
 800020c:	689b      	ldr	r3, [r3, #8]
 800020e:	f003 0302 	and.w	r3, r3, #2
 8000212:	2b02      	cmp	r3, #2
 8000214:	d1f8      	bne.n	8000208 <SPI_RxByte+0xc>
	HAL_SPI_TransmitReceive(HSPI_SDCARD, &dummy, &data, 1, SPI_TIMEOUT);
 8000216:	1dba      	adds	r2, r7, #6
 8000218:	1df9      	adds	r1, r7, #7
 800021a:	2364      	movs	r3, #100	; 0x64
 800021c:	9300      	str	r3, [sp, #0]
 800021e:	2301      	movs	r3, #1
 8000220:	4803      	ldr	r0, [pc, #12]	; (8000230 <SPI_RxByte+0x34>)
 8000222:	f002 f9f6 	bl	8002612 <HAL_SPI_TransmitReceive>

	return data;
 8000226:	79bb      	ldrb	r3, [r7, #6]
}
 8000228:	4618      	mov	r0, r3
 800022a:	3708      	adds	r7, #8
 800022c:	46bd      	mov	sp, r7
 800022e:	bd80      	pop	{r7, pc}
 8000230:	20001418 	.word	0x20001418

08000234 <SPI_RxBytePtr>:

/* SPI receive a byte via pointer */
static void SPI_RxBytePtr(uint8_t *buff) 
{
 8000234:	b580      	push	{r7, lr}
 8000236:	b082      	sub	sp, #8
 8000238:	af00      	add	r7, sp, #0
 800023a:	6078      	str	r0, [r7, #4]
	*buff = SPI_RxByte();
 800023c:	f7ff ffde 	bl	80001fc <SPI_RxByte>
 8000240:	4603      	mov	r3, r0
 8000242:	461a      	mov	r2, r3
 8000244:	687b      	ldr	r3, [r7, #4]
 8000246:	701a      	strb	r2, [r3, #0]
}
 8000248:	bf00      	nop
 800024a:	3708      	adds	r7, #8
 800024c:	46bd      	mov	sp, r7
 800024e:	bd80      	pop	{r7, pc}

08000250 <SD_ReadyWait>:
 * SD functions
 **************************************/

/* wait SD ready */
static uint8_t SD_ReadyWait(void)
{
 8000250:	b580      	push	{r7, lr}
 8000252:	b082      	sub	sp, #8
 8000254:	af00      	add	r7, sp, #0
	uint8_t res;

	/* timeout 500ms */
	Timer2 = 500;
 8000256:	4b0a      	ldr	r3, [pc, #40]	; (8000280 <SD_ReadyWait+0x30>)
 8000258:	f44f 72fa 	mov.w	r2, #500	; 0x1f4
 800025c:	801a      	strh	r2, [r3, #0]

	/* if SD goes ready, receives 0xFF */
	do {
		res = SPI_RxByte();
 800025e:	f7ff ffcd 	bl	80001fc <SPI_RxByte>
 8000262:	4603      	mov	r3, r0
 8000264:	71fb      	strb	r3, [r7, #7]
	} while ((res != 0xFF) && Timer2);
 8000266:	79fb      	ldrb	r3, [r7, #7]
 8000268:	2bff      	cmp	r3, #255	; 0xff
 800026a:	d003      	beq.n	8000274 <SD_ReadyWait+0x24>
 800026c:	4b04      	ldr	r3, [pc, #16]	; (8000280 <SD_ReadyWait+0x30>)
 800026e:	881b      	ldrh	r3, [r3, #0]
 8000270:	2b00      	cmp	r3, #0
 8000272:	d1f4      	bne.n	800025e <SD_ReadyWait+0xe>

	return res;
 8000274:	79fb      	ldrb	r3, [r7, #7]
}
 8000276:	4618      	mov	r0, r3
 8000278:	3708      	adds	r7, #8
 800027a:	46bd      	mov	sp, r7
 800027c:	bd80      	pop	{r7, pc}
 800027e:	bf00      	nop
 8000280:	200002ec 	.word	0x200002ec

08000284 <SD_PowerOn>:

/* power on */
static void SD_PowerOn(void) 
{
 8000284:	b580      	push	{r7, lr}
 8000286:	b084      	sub	sp, #16
 8000288:	af00      	add	r7, sp, #0
	uint8_t args[6];
	uint32_t cnt = 0x1FFF;
 800028a:	f641 73ff 	movw	r3, #8191	; 0x1fff
 800028e:	60fb      	str	r3, [r7, #12]

	/* transmit bytes to wake up */
	DESELECT();
 8000290:	f7ff ff72 	bl	8000178 <DESELECT>
	for(int i = 0; i < 10; i++)
 8000294:	2300      	movs	r3, #0
 8000296:	60bb      	str	r3, [r7, #8]
 8000298:	e005      	b.n	80002a6 <SD_PowerOn+0x22>
	{
		SPI_TxByte(0xFF);
 800029a:	20ff      	movs	r0, #255	; 0xff
 800029c:	f7ff ff7a 	bl	8000194 <SPI_TxByte>
	for(int i = 0; i < 10; i++)
 80002a0:	68bb      	ldr	r3, [r7, #8]
 80002a2:	3301      	adds	r3, #1
 80002a4:	60bb      	str	r3, [r7, #8]
 80002a6:	68bb      	ldr	r3, [r7, #8]
 80002a8:	2b09      	cmp	r3, #9
 80002aa:	ddf6      	ble.n	800029a <SD_PowerOn+0x16>
	}

	/* slave select */
	SELECT();
 80002ac:	f7ff ff56 	bl	800015c <SELECT>

	/* make idle state */
	args[0] = CMD0;		/* CMD0:GO_IDLE_STATE */
 80002b0:	2340      	movs	r3, #64	; 0x40
 80002b2:	703b      	strb	r3, [r7, #0]
	args[1] = 0;
 80002b4:	2300      	movs	r3, #0
 80002b6:	707b      	strb	r3, [r7, #1]
	args[2] = 0;
 80002b8:	2300      	movs	r3, #0
 80002ba:	70bb      	strb	r3, [r7, #2]
	args[3] = 0;
 80002bc:	2300      	movs	r3, #0
 80002be:	70fb      	strb	r3, [r7, #3]
	args[4] = 0;
 80002c0:	2300      	movs	r3, #0
 80002c2:	713b      	strb	r3, [r7, #4]
	args[5] = 0x95;		/* CRC */
 80002c4:	2395      	movs	r3, #149	; 0x95
 80002c6:	717b      	strb	r3, [r7, #5]

	SPI_TxBuffer(args, sizeof(args));
 80002c8:	463b      	mov	r3, r7
 80002ca:	2106      	movs	r1, #6
 80002cc:	4618      	mov	r0, r3
 80002ce:	f7ff ff7b 	bl	80001c8 <SPI_TxBuffer>

	/* wait response */
	while ((SPI_RxByte() != 0x01) && cnt)
 80002d2:	e002      	b.n	80002da <SD_PowerOn+0x56>
	{
		cnt--;
 80002d4:	68fb      	ldr	r3, [r7, #12]
 80002d6:	3b01      	subs	r3, #1
 80002d8:	60fb      	str	r3, [r7, #12]
	while ((SPI_RxByte() != 0x01) && cnt)
 80002da:	f7ff ff8f 	bl	80001fc <SPI_RxByte>
 80002de:	4603      	mov	r3, r0
 80002e0:	2b01      	cmp	r3, #1
 80002e2:	d002      	beq.n	80002ea <SD_PowerOn+0x66>
 80002e4:	68fb      	ldr	r3, [r7, #12]
 80002e6:	2b00      	cmp	r3, #0
 80002e8:	d1f4      	bne.n	80002d4 <SD_PowerOn+0x50>
	}

	DESELECT();
 80002ea:	f7ff ff45 	bl	8000178 <DESELECT>
	SPI_TxByte(0XFF);
 80002ee:	20ff      	movs	r0, #255	; 0xff
 80002f0:	f7ff ff50 	bl	8000194 <SPI_TxByte>

	PowerFlag = 1;
 80002f4:	4b03      	ldr	r3, [pc, #12]	; (8000304 <SD_PowerOn+0x80>)
 80002f6:	2201      	movs	r2, #1
 80002f8:	701a      	strb	r2, [r3, #0]
}
 80002fa:	bf00      	nop
 80002fc:	3710      	adds	r7, #16
 80002fe:	46bd      	mov	sp, r7
 8000300:	bd80      	pop	{r7, pc}
 8000302:	bf00      	nop
 8000304:	200000ad 	.word	0x200000ad

08000308 <SD_PowerOff>:

/* power off */
static void SD_PowerOff(void) 
{
 8000308:	b480      	push	{r7}
 800030a:	af00      	add	r7, sp, #0
	PowerFlag = 0;
 800030c:	4b03      	ldr	r3, [pc, #12]	; (800031c <SD_PowerOff+0x14>)
 800030e:	2200      	movs	r2, #0
 8000310:	701a      	strb	r2, [r3, #0]
}
 8000312:	bf00      	nop
 8000314:	46bd      	mov	sp, r7
 8000316:	bc80      	pop	{r7}
 8000318:	4770      	bx	lr
 800031a:	bf00      	nop
 800031c:	200000ad 	.word	0x200000ad

08000320 <SD_CheckPower>:

/* check power flag */
static uint8_t SD_CheckPower(void) 
{
 8000320:	b480      	push	{r7}
 8000322:	af00      	add	r7, sp, #0
	return PowerFlag;
 8000324:	4b02      	ldr	r3, [pc, #8]	; (8000330 <SD_CheckPower+0x10>)
 8000326:	781b      	ldrb	r3, [r3, #0]
}
 8000328:	4618      	mov	r0, r3
 800032a:	46bd      	mov	sp, r7
 800032c:	bc80      	pop	{r7}
 800032e:	4770      	bx	lr
 8000330:	200000ad 	.word	0x200000ad

08000334 <SD_RxDataBlock>:

/* receive data block */
static bool SD_RxDataBlock(BYTE *buff, UINT len)
{
 8000334:	b580      	push	{r7, lr}
 8000336:	b084      	sub	sp, #16
 8000338:	af00      	add	r7, sp, #0
 800033a:	6078      	str	r0, [r7, #4]
 800033c:	6039      	str	r1, [r7, #0]
	uint8_t token;

	/* timeout 200ms */
	Timer1 = 200;
 800033e:	4b13      	ldr	r3, [pc, #76]	; (800038c <SD_RxDataBlock+0x58>)
 8000340:	22c8      	movs	r2, #200	; 0xc8
 8000342:	801a      	strh	r2, [r3, #0]

	/* loop until receive a response or timeout */
	do {
		token = SPI_RxByte();
 8000344:	f7ff ff5a 	bl	80001fc <SPI_RxByte>
 8000348:	4603      	mov	r3, r0
 800034a:	73fb      	strb	r3, [r7, #15]
	} while((token == 0xFF) && Timer1);
 800034c:	7bfb      	ldrb	r3, [r7, #15]
 800034e:	2bff      	cmp	r3, #255	; 0xff
 8000350:	d103      	bne.n	800035a <SD_RxDataBlock+0x26>
 8000352:	4b0e      	ldr	r3, [pc, #56]	; (800038c <SD_RxDataBlock+0x58>)
 8000354:	881b      	ldrh	r3, [r3, #0]
 8000356:	2b00      	cmp	r3, #0
 8000358:	d1f4      	bne.n	8000344 <SD_RxDataBlock+0x10>

	/* invalid response */
	if(token != 0xFE) return FALSE;
 800035a:	7bfb      	ldrb	r3, [r7, #15]
 800035c:	2bfe      	cmp	r3, #254	; 0xfe
 800035e:	d001      	beq.n	8000364 <SD_RxDataBlock+0x30>
 8000360:	2300      	movs	r3, #0
 8000362:	e00f      	b.n	8000384 <SD_RxDataBlock+0x50>

	/* receive data */
	do {
		SPI_RxBytePtr(buff++);
 8000364:	687b      	ldr	r3, [r7, #4]
 8000366:	1c5a      	adds	r2, r3, #1
 8000368:	607a      	str	r2, [r7, #4]
 800036a:	4618      	mov	r0, r3
 800036c:	f7ff ff62 	bl	8000234 <SPI_RxBytePtr>
	} while(len--);
 8000370:	683b      	ldr	r3, [r7, #0]
 8000372:	1e5a      	subs	r2, r3, #1
 8000374:	603a      	str	r2, [r7, #0]
 8000376:	2b00      	cmp	r3, #0
 8000378:	d1f4      	bne.n	8000364 <SD_RxDataBlock+0x30>

	/* discard CRC */
	SPI_RxByte();
 800037a:	f7ff ff3f 	bl	80001fc <SPI_RxByte>
	SPI_RxByte();
 800037e:	f7ff ff3d 	bl	80001fc <SPI_RxByte>

	return TRUE;
 8000382:	2301      	movs	r3, #1
}
 8000384:	4618      	mov	r0, r3
 8000386:	3710      	adds	r7, #16
 8000388:	46bd      	mov	sp, r7
 800038a:	bd80      	pop	{r7, pc}
 800038c:	200002ee 	.word	0x200002ee

08000390 <SD_TxDataBlock>:

/* transmit data block */
#if _USE_WRITE == 1
static bool SD_TxDataBlock(const uint8_t *buff, BYTE token)
{
 8000390:	b580      	push	{r7, lr}
 8000392:	b084      	sub	sp, #16
 8000394:	af00      	add	r7, sp, #0
 8000396:	6078      	str	r0, [r7, #4]
 8000398:	460b      	mov	r3, r1
 800039a:	70fb      	strb	r3, [r7, #3]
	uint8_t resp;
	uint8_t i = 0;
 800039c:	2300      	movs	r3, #0
 800039e:	73bb      	strb	r3, [r7, #14]

	/* wait SD ready */
	if (SD_ReadyWait() != 0xFF) return FALSE;
 80003a0:	f7ff ff56 	bl	8000250 <SD_ReadyWait>
 80003a4:	4603      	mov	r3, r0
 80003a6:	2bff      	cmp	r3, #255	; 0xff
 80003a8:	d001      	beq.n	80003ae <SD_TxDataBlock+0x1e>
 80003aa:	2300      	movs	r3, #0
 80003ac:	e02f      	b.n	800040e <SD_TxDataBlock+0x7e>

	/* transmit token */
	SPI_TxByte(token);
 80003ae:	78fb      	ldrb	r3, [r7, #3]
 80003b0:	4618      	mov	r0, r3
 80003b2:	f7ff feef 	bl	8000194 <SPI_TxByte>

	/* if it's not STOP token, transmit data */
	if (token != 0xFD)
 80003b6:	78fb      	ldrb	r3, [r7, #3]
 80003b8:	2bfd      	cmp	r3, #253	; 0xfd
 80003ba:	d020      	beq.n	80003fe <SD_TxDataBlock+0x6e>
	{
		SPI_TxBuffer((uint8_t*)buff, 512);
 80003bc:	f44f 7100 	mov.w	r1, #512	; 0x200
 80003c0:	6878      	ldr	r0, [r7, #4]
 80003c2:	f7ff ff01 	bl	80001c8 <SPI_TxBuffer>

		/* discard CRC */
		SPI_RxByte();
 80003c6:	f7ff ff19 	bl	80001fc <SPI_RxByte>
		SPI_RxByte();
 80003ca:	f7ff ff17 	bl	80001fc <SPI_RxByte>

		/* receive response */
		while (i <= 64)
 80003ce:	e00b      	b.n	80003e8 <SD_TxDataBlock+0x58>
		{
			resp = SPI_RxByte();
 80003d0:	f7ff ff14 	bl	80001fc <SPI_RxByte>
 80003d4:	4603      	mov	r3, r0
 80003d6:	73fb      	strb	r3, [r7, #15]

			/* transmit 0x05 accepted */
			if ((resp & 0x1F) == 0x05) break;
 80003d8:	7bfb      	ldrb	r3, [r7, #15]
 80003da:	f003 031f 	and.w	r3, r3, #31
 80003de:	2b05      	cmp	r3, #5
 80003e0:	d006      	beq.n	80003f0 <SD_TxDataBlock+0x60>
			i++;
 80003e2:	7bbb      	ldrb	r3, [r7, #14]
 80003e4:	3301      	adds	r3, #1
 80003e6:	73bb      	strb	r3, [r7, #14]
		while (i <= 64)
 80003e8:	7bbb      	ldrb	r3, [r7, #14]
 80003ea:	2b40      	cmp	r3, #64	; 0x40
 80003ec:	d9f0      	bls.n	80003d0 <SD_TxDataBlock+0x40>
 80003ee:	e000      	b.n	80003f2 <SD_TxDataBlock+0x62>
			if ((resp & 0x1F) == 0x05) break;
 80003f0:	bf00      	nop
		}

		/* recv buffer clear */
		while (SPI_RxByte() == 0);
 80003f2:	bf00      	nop
 80003f4:	f7ff ff02 	bl	80001fc <SPI_RxByte>
 80003f8:	4603      	mov	r3, r0
 80003fa:	2b00      	cmp	r3, #0
 80003fc:	d0fa      	beq.n	80003f4 <SD_TxDataBlock+0x64>
	}

	/* transmit 0x05 accepted */
	if ((resp & 0x1F) == 0x05) return TRUE;
 80003fe:	7bfb      	ldrb	r3, [r7, #15]
 8000400:	f003 031f 	and.w	r3, r3, #31
 8000404:	2b05      	cmp	r3, #5
 8000406:	d101      	bne.n	800040c <SD_TxDataBlock+0x7c>
 8000408:	2301      	movs	r3, #1
 800040a:	e000      	b.n	800040e <SD_TxDataBlock+0x7e>

	return FALSE;
 800040c:	2300      	movs	r3, #0
}
 800040e:	4618      	mov	r0, r3
 8000410:	3710      	adds	r7, #16
 8000412:	46bd      	mov	sp, r7
 8000414:	bd80      	pop	{r7, pc}

08000416 <SD_SendCmd>:
#endif /* _USE_WRITE */

/* transmit command */
static BYTE SD_SendCmd(BYTE cmd, uint32_t arg)
{
 8000416:	b580      	push	{r7, lr}
 8000418:	b084      	sub	sp, #16
 800041a:	af00      	add	r7, sp, #0
 800041c:	4603      	mov	r3, r0
 800041e:	6039      	str	r1, [r7, #0]
 8000420:	71fb      	strb	r3, [r7, #7]
	uint8_t crc, res;

	/* wait SD ready */
	if (SD_ReadyWait() != 0xFF) return 0xFF;
 8000422:	f7ff ff15 	bl	8000250 <SD_ReadyWait>
 8000426:	4603      	mov	r3, r0
 8000428:	2bff      	cmp	r3, #255	; 0xff
 800042a:	d001      	beq.n	8000430 <SD_SendCmd+0x1a>
 800042c:	23ff      	movs	r3, #255	; 0xff
 800042e:	e042      	b.n	80004b6 <SD_SendCmd+0xa0>

	/* transmit command */
	SPI_TxByte(cmd); 					/* Command */
 8000430:	79fb      	ldrb	r3, [r7, #7]
 8000432:	4618      	mov	r0, r3
 8000434:	f7ff feae 	bl	8000194 <SPI_TxByte>
	SPI_TxByte((uint8_t)(arg >> 24)); 	/* Argument[31..24] */
 8000438:	683b      	ldr	r3, [r7, #0]
 800043a:	0e1b      	lsrs	r3, r3, #24
 800043c:	b2db      	uxtb	r3, r3
 800043e:	4618      	mov	r0, r3
 8000440:	f7ff fea8 	bl	8000194 <SPI_TxByte>
	SPI_TxByte((uint8_t)(arg >> 16)); 	/* Argument[23..16] */
 8000444:	683b      	ldr	r3, [r7, #0]
 8000446:	0c1b      	lsrs	r3, r3, #16
 8000448:	b2db      	uxtb	r3, r3
 800044a:	4618      	mov	r0, r3
 800044c:	f7ff fea2 	bl	8000194 <SPI_TxByte>
	SPI_TxByte((uint8_t)(arg >> 8)); 	/* Argument[15..8] */
 8000450:	683b      	ldr	r3, [r7, #0]
 8000452:	0a1b      	lsrs	r3, r3, #8
 8000454:	b2db      	uxtb	r3, r3
 8000456:	4618      	mov	r0, r3
 8000458:	f7ff fe9c 	bl	8000194 <SPI_TxByte>
	SPI_TxByte((uint8_t)arg); 			/* Argument[7..0] */
 800045c:	683b      	ldr	r3, [r7, #0]
 800045e:	b2db      	uxtb	r3, r3
 8000460:	4618      	mov	r0, r3
 8000462:	f7ff fe97 	bl	8000194 <SPI_TxByte>

	/* prepare CRC */
	if(cmd == CMD0) crc = 0x95;	/* CRC for CMD0(0) */
 8000466:	79fb      	ldrb	r3, [r7, #7]
 8000468:	2b40      	cmp	r3, #64	; 0x40
 800046a:	d102      	bne.n	8000472 <SD_SendCmd+0x5c>
 800046c:	2395      	movs	r3, #149	; 0x95
 800046e:	73fb      	strb	r3, [r7, #15]
 8000470:	e007      	b.n	8000482 <SD_SendCmd+0x6c>
	else if(cmd == CMD8) crc = 0x87;	/* CRC for CMD8(0x1AA) */
 8000472:	79fb      	ldrb	r3, [r7, #7]
 8000474:	2b48      	cmp	r3, #72	; 0x48
 8000476:	d102      	bne.n	800047e <SD_SendCmd+0x68>
 8000478:	2387      	movs	r3, #135	; 0x87
 800047a:	73fb      	strb	r3, [r7, #15]
 800047c:	e001      	b.n	8000482 <SD_SendCmd+0x6c>
	else crc = 1;
 800047e:	2301      	movs	r3, #1
 8000480:	73fb      	strb	r3, [r7, #15]

	/* transmit CRC */
	SPI_TxByte(crc);
 8000482:	7bfb      	ldrb	r3, [r7, #15]
 8000484:	4618      	mov	r0, r3
 8000486:	f7ff fe85 	bl	8000194 <SPI_TxByte>

	/* Skip a stuff byte when STOP_TRANSMISSION */
	if (cmd == CMD12) SPI_RxByte();
 800048a:	79fb      	ldrb	r3, [r7, #7]
 800048c:	2b4c      	cmp	r3, #76	; 0x4c
 800048e:	d101      	bne.n	8000494 <SD_SendCmd+0x7e>
 8000490:	f7ff feb4 	bl	80001fc <SPI_RxByte>

	/* receive response */
	uint8_t n = 10;
 8000494:	230a      	movs	r3, #10
 8000496:	73bb      	strb	r3, [r7, #14]
	do {
		res = SPI_RxByte();
 8000498:	f7ff feb0 	bl	80001fc <SPI_RxByte>
 800049c:	4603      	mov	r3, r0
 800049e:	737b      	strb	r3, [r7, #13]
	} while ((res & 0x80) && --n);
 80004a0:	f997 300d 	ldrsb.w	r3, [r7, #13]
 80004a4:	2b00      	cmp	r3, #0
 80004a6:	da05      	bge.n	80004b4 <SD_SendCmd+0x9e>
 80004a8:	7bbb      	ldrb	r3, [r7, #14]
 80004aa:	3b01      	subs	r3, #1
 80004ac:	73bb      	strb	r3, [r7, #14]
 80004ae:	7bbb      	ldrb	r3, [r7, #14]
 80004b0:	2b00      	cmp	r3, #0
 80004b2:	d1f1      	bne.n	8000498 <SD_SendCmd+0x82>

	return res;
 80004b4:	7b7b      	ldrb	r3, [r7, #13]
}
 80004b6:	4618      	mov	r0, r3
 80004b8:	3710      	adds	r7, #16
 80004ba:	46bd      	mov	sp, r7
 80004bc:	bd80      	pop	{r7, pc}
	...

080004c0 <SD_disk_initialize>:
 * user_diskio.c functions
 **************************************/

/* initialize SD */
DSTATUS SD_disk_initialize(BYTE drv) 
{
 80004c0:	b590      	push	{r4, r7, lr}
 80004c2:	b085      	sub	sp, #20
 80004c4:	af00      	add	r7, sp, #0
 80004c6:	4603      	mov	r3, r0
 80004c8:	71fb      	strb	r3, [r7, #7]
	uint8_t n, type, ocr[4];

	/* single drive, drv should be 0 */
	if(drv) return STA_NOINIT;
 80004ca:	79fb      	ldrb	r3, [r7, #7]
 80004cc:	2b00      	cmp	r3, #0
 80004ce:	d001      	beq.n	80004d4 <SD_disk_initialize+0x14>
 80004d0:	2301      	movs	r3, #1
 80004d2:	e0d1      	b.n	8000678 <SD_disk_initialize+0x1b8>

	/* no disk */
	if(Stat & STA_NODISK) return Stat;
 80004d4:	4b6a      	ldr	r3, [pc, #424]	; (8000680 <SD_disk_initialize+0x1c0>)
 80004d6:	781b      	ldrb	r3, [r3, #0]
 80004d8:	b2db      	uxtb	r3, r3
 80004da:	f003 0302 	and.w	r3, r3, #2
 80004de:	2b00      	cmp	r3, #0
 80004e0:	d003      	beq.n	80004ea <SD_disk_initialize+0x2a>
 80004e2:	4b67      	ldr	r3, [pc, #412]	; (8000680 <SD_disk_initialize+0x1c0>)
 80004e4:	781b      	ldrb	r3, [r3, #0]
 80004e6:	b2db      	uxtb	r3, r3
 80004e8:	e0c6      	b.n	8000678 <SD_disk_initialize+0x1b8>

	/* power on */
	SD_PowerOn();
 80004ea:	f7ff fecb 	bl	8000284 <SD_PowerOn>

	/* slave select */
	SELECT();
 80004ee:	f7ff fe35 	bl	800015c <SELECT>

	/* check disk type */
	type = 0;
 80004f2:	2300      	movs	r3, #0
 80004f4:	73bb      	strb	r3, [r7, #14]

	/* send GO_IDLE_STATE command */
	if (SD_SendCmd(CMD0, 0) == 1)
 80004f6:	2100      	movs	r1, #0
 80004f8:	2040      	movs	r0, #64	; 0x40
 80004fa:	f7ff ff8c 	bl	8000416 <SD_SendCmd>
 80004fe:	4603      	mov	r3, r0
 8000500:	2b01      	cmp	r3, #1
 8000502:	f040 80a1 	bne.w	8000648 <SD_disk_initialize+0x188>
	{
		/* timeout 1 sec */
		Timer1 = 1000;
 8000506:	4b5f      	ldr	r3, [pc, #380]	; (8000684 <SD_disk_initialize+0x1c4>)
 8000508:	f44f 727a 	mov.w	r2, #1000	; 0x3e8
 800050c:	801a      	strh	r2, [r3, #0]

		/* SDC V2+ accept CMD8 command, http://elm-chan.org/docs/mmc/mmc_e.html */
		if (SD_SendCmd(CMD8, 0x1AA) == 1)
 800050e:	f44f 71d5 	mov.w	r1, #426	; 0x1aa
 8000512:	2048      	movs	r0, #72	; 0x48
 8000514:	f7ff ff7f 	bl	8000416 <SD_SendCmd>
 8000518:	4603      	mov	r3, r0
 800051a:	2b01      	cmp	r3, #1
 800051c:	d155      	bne.n	80005ca <SD_disk_initialize+0x10a>
		{
			/* operation condition register */
			for (n = 0; n < 4; n++)
 800051e:	2300      	movs	r3, #0
 8000520:	73fb      	strb	r3, [r7, #15]
 8000522:	e00c      	b.n	800053e <SD_disk_initialize+0x7e>
			{
				ocr[n] = SPI_RxByte();
 8000524:	7bfc      	ldrb	r4, [r7, #15]
 8000526:	f7ff fe69 	bl	80001fc <SPI_RxByte>
 800052a:	4603      	mov	r3, r0
 800052c:	461a      	mov	r2, r3
 800052e:	f107 0310 	add.w	r3, r7, #16
 8000532:	4423      	add	r3, r4
 8000534:	f803 2c08 	strb.w	r2, [r3, #-8]
			for (n = 0; n < 4; n++)
 8000538:	7bfb      	ldrb	r3, [r7, #15]
 800053a:	3301      	adds	r3, #1
 800053c:	73fb      	strb	r3, [r7, #15]
 800053e:	7bfb      	ldrb	r3, [r7, #15]
 8000540:	2b03      	cmp	r3, #3
 8000542:	d9ef      	bls.n	8000524 <SD_disk_initialize+0x64>
			}

			/* voltage range 2.7-3.6V */
			if (ocr[2] == 0x01 && ocr[3] == 0xAA)
 8000544:	7abb      	ldrb	r3, [r7, #10]
 8000546:	2b01      	cmp	r3, #1
 8000548:	d17e      	bne.n	8000648 <SD_disk_initialize+0x188>
 800054a:	7afb      	ldrb	r3, [r7, #11]
 800054c:	2baa      	cmp	r3, #170	; 0xaa
 800054e:	d17b      	bne.n	8000648 <SD_disk_initialize+0x188>
			{
				/* ACMD41 with HCS bit */
				do {
					if (SD_SendCmd(CMD55, 0) <= 1 && SD_SendCmd(CMD41, 1UL << 30) == 0) break;
 8000550:	2100      	movs	r1, #0
 8000552:	2077      	movs	r0, #119	; 0x77
 8000554:	f7ff ff5f 	bl	8000416 <SD_SendCmd>
 8000558:	4603      	mov	r3, r0
 800055a:	2b01      	cmp	r3, #1
 800055c:	d807      	bhi.n	800056e <SD_disk_initialize+0xae>
 800055e:	f04f 4180 	mov.w	r1, #1073741824	; 0x40000000
 8000562:	2069      	movs	r0, #105	; 0x69
 8000564:	f7ff ff57 	bl	8000416 <SD_SendCmd>
 8000568:	4603      	mov	r3, r0
 800056a:	2b00      	cmp	r3, #0
 800056c:	d004      	beq.n	8000578 <SD_disk_initialize+0xb8>
				} while (Timer1);
 800056e:	4b45      	ldr	r3, [pc, #276]	; (8000684 <SD_disk_initialize+0x1c4>)
 8000570:	881b      	ldrh	r3, [r3, #0]
 8000572:	2b00      	cmp	r3, #0
 8000574:	d1ec      	bne.n	8000550 <SD_disk_initialize+0x90>
 8000576:	e000      	b.n	800057a <SD_disk_initialize+0xba>
					if (SD_SendCmd(CMD55, 0) <= 1 && SD_SendCmd(CMD41, 1UL << 30) == 0) break;
 8000578:	bf00      	nop

				/* READ_OCR */
				if (Timer1 && SD_SendCmd(CMD58, 0) == 0)
 800057a:	4b42      	ldr	r3, [pc, #264]	; (8000684 <SD_disk_initialize+0x1c4>)
 800057c:	881b      	ldrh	r3, [r3, #0]
 800057e:	2b00      	cmp	r3, #0
 8000580:	d062      	beq.n	8000648 <SD_disk_initialize+0x188>
 8000582:	2100      	movs	r1, #0
 8000584:	207a      	movs	r0, #122	; 0x7a
 8000586:	f7ff ff46 	bl	8000416 <SD_SendCmd>
 800058a:	4603      	mov	r3, r0
 800058c:	2b00      	cmp	r3, #0
 800058e:	d15b      	bne.n	8000648 <SD_disk_initialize+0x188>
				{
					/* Check CCS bit */
					for (n = 0; n < 4; n++)
 8000590:	2300      	movs	r3, #0
 8000592:	73fb      	strb	r3, [r7, #15]
 8000594:	e00c      	b.n	80005b0 <SD_disk_initialize+0xf0>
					{
						ocr[n] = SPI_RxByte();
 8000596:	7bfc      	ldrb	r4, [r7, #15]
 8000598:	f7ff fe30 	bl	80001fc <SPI_RxByte>
 800059c:	4603      	mov	r3, r0
 800059e:	461a      	mov	r2, r3
 80005a0:	f107 0310 	add.w	r3, r7, #16
 80005a4:	4423      	add	r3, r4
 80005a6:	f803 2c08 	strb.w	r2, [r3, #-8]
					for (n = 0; n < 4; n++)
 80005aa:	7bfb      	ldrb	r3, [r7, #15]
 80005ac:	3301      	adds	r3, #1
 80005ae:	73fb      	strb	r3, [r7, #15]
 80005b0:	7bfb      	ldrb	r3, [r7, #15]
 80005b2:	2b03      	cmp	r3, #3
 80005b4:	d9ef      	bls.n	8000596 <SD_disk_initialize+0xd6>
					}

					/* SDv2 (HC or SC) */
					type = (ocr[0] & 0x40) ? CT_SD2 | CT_BLOCK : CT_SD2;
 80005b6:	7a3b      	ldrb	r3, [r7, #8]
 80005b8:	f003 0340 	and.w	r3, r3, #64	; 0x40
 80005bc:	2b00      	cmp	r3, #0
 80005be:	d001      	beq.n	80005c4 <SD_disk_initialize+0x104>
 80005c0:	230c      	movs	r3, #12
 80005c2:	e000      	b.n	80005c6 <SD_disk_initialize+0x106>
 80005c4:	2304      	movs	r3, #4
 80005c6:	73bb      	strb	r3, [r7, #14]
 80005c8:	e03e      	b.n	8000648 <SD_disk_initialize+0x188>
			}
		}
		else
		{
			/* SDC V1 or MMC */
			type = (SD_SendCmd(CMD55, 0) <= 1 && SD_SendCmd(CMD41, 0) <= 1) ? CT_SD1 : CT_MMC;
 80005ca:	2100      	movs	r1, #0
 80005cc:	2077      	movs	r0, #119	; 0x77
 80005ce:	f7ff ff22 	bl	8000416 <SD_SendCmd>
 80005d2:	4603      	mov	r3, r0
 80005d4:	2b01      	cmp	r3, #1
 80005d6:	d808      	bhi.n	80005ea <SD_disk_initialize+0x12a>
 80005d8:	2100      	movs	r1, #0
 80005da:	2069      	movs	r0, #105	; 0x69
 80005dc:	f7ff ff1b 	bl	8000416 <SD_SendCmd>
 80005e0:	4603      	mov	r3, r0
 80005e2:	2b01      	cmp	r3, #1
 80005e4:	d801      	bhi.n	80005ea <SD_disk_initialize+0x12a>
 80005e6:	2302      	movs	r3, #2
 80005e8:	e000      	b.n	80005ec <SD_disk_initialize+0x12c>
 80005ea:	2301      	movs	r3, #1
 80005ec:	73bb      	strb	r3, [r7, #14]

			do
			{
				if (type == CT_SD1)
 80005ee:	7bbb      	ldrb	r3, [r7, #14]
 80005f0:	2b02      	cmp	r3, #2
 80005f2:	d10e      	bne.n	8000612 <SD_disk_initialize+0x152>
				{
					if (SD_SendCmd(CMD55, 0) <= 1 && SD_SendCmd(CMD41, 0) == 0) break; /* ACMD41 */
 80005f4:	2100      	movs	r1, #0
 80005f6:	2077      	movs	r0, #119	; 0x77
 80005f8:	f7ff ff0d 	bl	8000416 <SD_SendCmd>
 80005fc:	4603      	mov	r3, r0
 80005fe:	2b01      	cmp	r3, #1
 8000600:	d80e      	bhi.n	8000620 <SD_disk_initialize+0x160>
 8000602:	2100      	movs	r1, #0
 8000604:	2069      	movs	r0, #105	; 0x69
 8000606:	f7ff ff06 	bl	8000416 <SD_SendCmd>
 800060a:	4603      	mov	r3, r0
 800060c:	2b00      	cmp	r3, #0
 800060e:	d107      	bne.n	8000620 <SD_disk_initialize+0x160>
 8000610:	e00c      	b.n	800062c <SD_disk_initialize+0x16c>
				}
				else
				{
					if (SD_SendCmd(CMD1, 0) == 0) break; /* CMD1 */
 8000612:	2100      	movs	r1, #0
 8000614:	2041      	movs	r0, #65	; 0x41
 8000616:	f7ff fefe 	bl	8000416 <SD_SendCmd>
 800061a:	4603      	mov	r3, r0
 800061c:	2b00      	cmp	r3, #0
 800061e:	d004      	beq.n	800062a <SD_disk_initialize+0x16a>
				}

			} while (Timer1);
 8000620:	4b18      	ldr	r3, [pc, #96]	; (8000684 <SD_disk_initialize+0x1c4>)
 8000622:	881b      	ldrh	r3, [r3, #0]
 8000624:	2b00      	cmp	r3, #0
 8000626:	d1e2      	bne.n	80005ee <SD_disk_initialize+0x12e>
 8000628:	e000      	b.n	800062c <SD_disk_initialize+0x16c>
					if (SD_SendCmd(CMD1, 0) == 0) break; /* CMD1 */
 800062a:	bf00      	nop

			/* SET_BLOCKLEN */
			if (!Timer1 || SD_SendCmd(CMD16, 512) != 0) type = 0;
 800062c:	4b15      	ldr	r3, [pc, #84]	; (8000684 <SD_disk_initialize+0x1c4>)
 800062e:	881b      	ldrh	r3, [r3, #0]
 8000630:	2b00      	cmp	r3, #0
 8000632:	d007      	beq.n	8000644 <SD_disk_initialize+0x184>
 8000634:	f44f 7100 	mov.w	r1, #512	; 0x200
 8000638:	2050      	movs	r0, #80	; 0x50
 800063a:	f7ff feec 	bl	8000416 <SD_SendCmd>
 800063e:	4603      	mov	r3, r0
 8000640:	2b00      	cmp	r3, #0
 8000642:	d001      	beq.n	8000648 <SD_disk_initialize+0x188>
 8000644:	2300      	movs	r3, #0
 8000646:	73bb      	strb	r3, [r7, #14]
		}
	}

	CardType = type;
 8000648:	4a0f      	ldr	r2, [pc, #60]	; (8000688 <SD_disk_initialize+0x1c8>)
 800064a:	7bbb      	ldrb	r3, [r7, #14]
 800064c:	7013      	strb	r3, [r2, #0]

	/* Idle */
	DESELECT();
 800064e:	f7ff fd93 	bl	8000178 <DESELECT>
	SPI_RxByte();
 8000652:	f7ff fdd3 	bl	80001fc <SPI_RxByte>

	/* Clear STA_NOINIT */
	if (type)
 8000656:	7bbb      	ldrb	r3, [r7, #14]
 8000658:	2b00      	cmp	r3, #0
 800065a:	d008      	beq.n	800066e <SD_disk_initialize+0x1ae>
	{
		Stat &= ~STA_NOINIT;
 800065c:	4b08      	ldr	r3, [pc, #32]	; (8000680 <SD_disk_initialize+0x1c0>)
 800065e:	781b      	ldrb	r3, [r3, #0]
 8000660:	b2db      	uxtb	r3, r3
 8000662:	f023 0301 	bic.w	r3, r3, #1
 8000666:	b2da      	uxtb	r2, r3
 8000668:	4b05      	ldr	r3, [pc, #20]	; (8000680 <SD_disk_initialize+0x1c0>)
 800066a:	701a      	strb	r2, [r3, #0]
 800066c:	e001      	b.n	8000672 <SD_disk_initialize+0x1b2>
	}
	else
	{
		/* Initialization failed */
		SD_PowerOff();
 800066e:	f7ff fe4b 	bl	8000308 <SD_PowerOff>
	}

	return Stat;
 8000672:	4b03      	ldr	r3, [pc, #12]	; (8000680 <SD_disk_initialize+0x1c0>)
 8000674:	781b      	ldrb	r3, [r3, #0]
 8000676:	b2db      	uxtb	r3, r3
}
 8000678:	4618      	mov	r0, r3
 800067a:	3714      	adds	r7, #20
 800067c:	46bd      	mov	sp, r7
 800067e:	bd90      	pop	{r4, r7, pc}
 8000680:	20000000 	.word	0x20000000
 8000684:	200002ee 	.word	0x200002ee
 8000688:	200000ac 	.word	0x200000ac

0800068c <SD_disk_status>:

/* return disk status */
DSTATUS SD_disk_status(BYTE drv) 
{
 800068c:	b480      	push	{r7}
 800068e:	b083      	sub	sp, #12
 8000690:	af00      	add	r7, sp, #0
 8000692:	4603      	mov	r3, r0
 8000694:	71fb      	strb	r3, [r7, #7]
	if (drv) return STA_NOINIT;
 8000696:	79fb      	ldrb	r3, [r7, #7]
 8000698:	2b00      	cmp	r3, #0
 800069a:	d001      	beq.n	80006a0 <SD_disk_status+0x14>
 800069c:	2301      	movs	r3, #1
 800069e:	e002      	b.n	80006a6 <SD_disk_status+0x1a>
	return Stat;
 80006a0:	4b03      	ldr	r3, [pc, #12]	; (80006b0 <SD_disk_status+0x24>)
 80006a2:	781b      	ldrb	r3, [r3, #0]
 80006a4:	b2db      	uxtb	r3, r3
}
 80006a6:	4618      	mov	r0, r3
 80006a8:	370c      	adds	r7, #12
 80006aa:	46bd      	mov	sp, r7
 80006ac:	bc80      	pop	{r7}
 80006ae:	4770      	bx	lr
 80006b0:	20000000 	.word	0x20000000

080006b4 <SD_disk_read>:

/* read sector */
DRESULT SD_disk_read(BYTE pdrv, BYTE* buff, DWORD sector, UINT count) 
{
 80006b4:	b580      	push	{r7, lr}
 80006b6:	b084      	sub	sp, #16
 80006b8:	af00      	add	r7, sp, #0
 80006ba:	60b9      	str	r1, [r7, #8]
 80006bc:	607a      	str	r2, [r7, #4]
 80006be:	603b      	str	r3, [r7, #0]
 80006c0:	4603      	mov	r3, r0
 80006c2:	73fb      	strb	r3, [r7, #15]
	/* pdrv should be 0 */
	if (pdrv || !count) return RES_PARERR;
 80006c4:	7bfb      	ldrb	r3, [r7, #15]
 80006c6:	2b00      	cmp	r3, #0
 80006c8:	d102      	bne.n	80006d0 <SD_disk_read+0x1c>
 80006ca:	683b      	ldr	r3, [r7, #0]
 80006cc:	2b00      	cmp	r3, #0
 80006ce:	d101      	bne.n	80006d4 <SD_disk_read+0x20>
 80006d0:	2304      	movs	r3, #4
 80006d2:	e051      	b.n	8000778 <SD_disk_read+0xc4>

	/* no disk */
	if (Stat & STA_NOINIT) return RES_NOTRDY;
 80006d4:	4b2a      	ldr	r3, [pc, #168]	; (8000780 <SD_disk_read+0xcc>)
 80006d6:	781b      	ldrb	r3, [r3, #0]
 80006d8:	b2db      	uxtb	r3, r3
 80006da:	f003 0301 	and.w	r3, r3, #1
 80006de:	2b00      	cmp	r3, #0
 80006e0:	d001      	beq.n	80006e6 <SD_disk_read+0x32>
 80006e2:	2303      	movs	r3, #3
 80006e4:	e048      	b.n	8000778 <SD_disk_read+0xc4>

	/* convert to byte address */
	if (!(CardType & CT_SD2)) sector *= 512;
 80006e6:	4b27      	ldr	r3, [pc, #156]	; (8000784 <SD_disk_read+0xd0>)
 80006e8:	781b      	ldrb	r3, [r3, #0]
 80006ea:	f003 0304 	and.w	r3, r3, #4
 80006ee:	2b00      	cmp	r3, #0
 80006f0:	d102      	bne.n	80006f8 <SD_disk_read+0x44>
 80006f2:	687b      	ldr	r3, [r7, #4]
 80006f4:	025b      	lsls	r3, r3, #9
 80006f6:	607b      	str	r3, [r7, #4]

	SELECT();
 80006f8:	f7ff fd30 	bl	800015c <SELECT>

	if (count == 1)
 80006fc:	683b      	ldr	r3, [r7, #0]
 80006fe:	2b01      	cmp	r3, #1
 8000700:	d111      	bne.n	8000726 <SD_disk_read+0x72>
	{
		/* READ_SINGLE_BLOCK */
		if ((SD_SendCmd(CMD17, sector) == 0) && SD_RxDataBlock(buff, 512)) count = 0;
 8000702:	6879      	ldr	r1, [r7, #4]
 8000704:	2051      	movs	r0, #81	; 0x51
 8000706:	f7ff fe86 	bl	8000416 <SD_SendCmd>
 800070a:	4603      	mov	r3, r0
 800070c:	2b00      	cmp	r3, #0
 800070e:	d129      	bne.n	8000764 <SD_disk_read+0xb0>
 8000710:	f44f 7100 	mov.w	r1, #512	; 0x200
 8000714:	68b8      	ldr	r0, [r7, #8]
 8000716:	f7ff fe0d 	bl	8000334 <SD_RxDataBlock>
 800071a:	4603      	mov	r3, r0
 800071c:	2b00      	cmp	r3, #0
 800071e:	d021      	beq.n	8000764 <SD_disk_read+0xb0>
 8000720:	2300      	movs	r3, #0
 8000722:	603b      	str	r3, [r7, #0]
 8000724:	e01e      	b.n	8000764 <SD_disk_read+0xb0>
	}
	else
	{
		/* READ_MULTIPLE_BLOCK */
		if (SD_SendCmd(CMD18, sector) == 0)
 8000726:	6879      	ldr	r1, [r7, #4]
 8000728:	2052      	movs	r0, #82	; 0x52
 800072a:	f7ff fe74 	bl	8000416 <SD_SendCmd>
 800072e:	4603      	mov	r3, r0
 8000730:	2b00      	cmp	r3, #0
 8000732:	d117      	bne.n	8000764 <SD_disk_read+0xb0>
		{
			do {
				if (!SD_RxDataBlock(buff, 512)) break;
 8000734:	f44f 7100 	mov.w	r1, #512	; 0x200
 8000738:	68b8      	ldr	r0, [r7, #8]
 800073a:	f7ff fdfb 	bl	8000334 <SD_RxDataBlock>
 800073e:	4603      	mov	r3, r0
 8000740:	2b00      	cmp	r3, #0
 8000742:	d00a      	beq.n	800075a <SD_disk_read+0xa6>
				buff += 512;
 8000744:	68bb      	ldr	r3, [r7, #8]
 8000746:	f503 7300 	add.w	r3, r3, #512	; 0x200
 800074a:	60bb      	str	r3, [r7, #8]
			} while (--count);
 800074c:	683b      	ldr	r3, [r7, #0]
 800074e:	3b01      	subs	r3, #1
 8000750:	603b      	str	r3, [r7, #0]
 8000752:	683b      	ldr	r3, [r7, #0]
 8000754:	2b00      	cmp	r3, #0
 8000756:	d1ed      	bne.n	8000734 <SD_disk_read+0x80>
 8000758:	e000      	b.n	800075c <SD_disk_read+0xa8>
				if (!SD_RxDataBlock(buff, 512)) break;
 800075a:	bf00      	nop

			/* STOP_TRANSMISSION */
			SD_SendCmd(CMD12, 0);
 800075c:	2100      	movs	r1, #0
 800075e:	204c      	movs	r0, #76	; 0x4c
 8000760:	f7ff fe59 	bl	8000416 <SD_SendCmd>
		}
	}

	/* Idle */
	DESELECT();
 8000764:	f7ff fd08 	bl	8000178 <DESELECT>
	SPI_RxByte();
 8000768:	f7ff fd48 	bl	80001fc <SPI_RxByte>

	return count ? RES_ERROR : RES_OK;
 800076c:	683b      	ldr	r3, [r7, #0]
 800076e:	2b00      	cmp	r3, #0
 8000770:	bf14      	ite	ne
 8000772:	2301      	movne	r3, #1
 8000774:	2300      	moveq	r3, #0
 8000776:	b2db      	uxtb	r3, r3
}
 8000778:	4618      	mov	r0, r3
 800077a:	3710      	adds	r7, #16
 800077c:	46bd      	mov	sp, r7
 800077e:	bd80      	pop	{r7, pc}
 8000780:	20000000 	.word	0x20000000
 8000784:	200000ac 	.word	0x200000ac

08000788 <SD_disk_write>:

/* write sector */
#if _USE_WRITE == 1
DRESULT SD_disk_write(BYTE pdrv, const BYTE* buff, DWORD sector, UINT count) 
{
 8000788:	b580      	push	{r7, lr}
 800078a:	b084      	sub	sp, #16
 800078c:	af00      	add	r7, sp, #0
 800078e:	60b9      	str	r1, [r7, #8]
 8000790:	607a      	str	r2, [r7, #4]
 8000792:	603b      	str	r3, [r7, #0]
 8000794:	4603      	mov	r3, r0
 8000796:	73fb      	strb	r3, [r7, #15]
	/* pdrv should be 0 */
	if (pdrv || !count) return RES_PARERR;
 8000798:	7bfb      	ldrb	r3, [r7, #15]
 800079a:	2b00      	cmp	r3, #0
 800079c:	d102      	bne.n	80007a4 <SD_disk_write+0x1c>
 800079e:	683b      	ldr	r3, [r7, #0]
 80007a0:	2b00      	cmp	r3, #0
 80007a2:	d101      	bne.n	80007a8 <SD_disk_write+0x20>
 80007a4:	2304      	movs	r3, #4
 80007a6:	e06b      	b.n	8000880 <SD_disk_write+0xf8>

	/* no disk */
	if (Stat & STA_NOINIT) return RES_NOTRDY;
 80007a8:	4b37      	ldr	r3, [pc, #220]	; (8000888 <SD_disk_write+0x100>)
 80007aa:	781b      	ldrb	r3, [r3, #0]
 80007ac:	b2db      	uxtb	r3, r3
 80007ae:	f003 0301 	and.w	r3, r3, #1
 80007b2:	2b00      	cmp	r3, #0
 80007b4:	d001      	beq.n	80007ba <SD_disk_write+0x32>
 80007b6:	2303      	movs	r3, #3
 80007b8:	e062      	b.n	8000880 <SD_disk_write+0xf8>

	/* write protection */
	if (Stat & STA_PROTECT) return RES_WRPRT;
 80007ba:	4b33      	ldr	r3, [pc, #204]	; (8000888 <SD_disk_write+0x100>)
 80007bc:	781b      	ldrb	r3, [r3, #0]
 80007be:	b2db      	uxtb	r3, r3
 80007c0:	f003 0304 	and.w	r3, r3, #4
 80007c4:	2b00      	cmp	r3, #0
 80007c6:	d001      	beq.n	80007cc <SD_disk_write+0x44>
 80007c8:	2302      	movs	r3, #2
 80007ca:	e059      	b.n	8000880 <SD_disk_write+0xf8>

	/* convert to byte address */
	if (!(CardType & CT_SD2)) sector *= 512;
 80007cc:	4b2f      	ldr	r3, [pc, #188]	; (800088c <SD_disk_write+0x104>)
 80007ce:	781b      	ldrb	r3, [r3, #0]
 80007d0:	f003 0304 	and.w	r3, r3, #4
 80007d4:	2b00      	cmp	r3, #0
 80007d6:	d102      	bne.n	80007de <SD_disk_write+0x56>
 80007d8:	687b      	ldr	r3, [r7, #4]
 80007da:	025b      	lsls	r3, r3, #9
 80007dc:	607b      	str	r3, [r7, #4]

	SELECT();
 80007de:	f7ff fcbd 	bl	800015c <SELECT>

	if (count == 1)
 80007e2:	683b      	ldr	r3, [r7, #0]
 80007e4:	2b01      	cmp	r3, #1
 80007e6:	d110      	bne.n	800080a <SD_disk_write+0x82>
	{
		/* WRITE_BLOCK */
		if ((SD_SendCmd(CMD24, sector) == 0) && SD_TxDataBlock(buff, 0xFE))
 80007e8:	6879      	ldr	r1, [r7, #4]
 80007ea:	2058      	movs	r0, #88	; 0x58
 80007ec:	f7ff fe13 	bl	8000416 <SD_SendCmd>
 80007f0:	4603      	mov	r3, r0
 80007f2:	2b00      	cmp	r3, #0
 80007f4:	d13a      	bne.n	800086c <SD_disk_write+0xe4>
 80007f6:	21fe      	movs	r1, #254	; 0xfe
 80007f8:	68b8      	ldr	r0, [r7, #8]
 80007fa:	f7ff fdc9 	bl	8000390 <SD_TxDataBlock>
 80007fe:	4603      	mov	r3, r0
 8000800:	2b00      	cmp	r3, #0
 8000802:	d033      	beq.n	800086c <SD_disk_write+0xe4>
			count = 0;
 8000804:	2300      	movs	r3, #0
 8000806:	603b      	str	r3, [r7, #0]
 8000808:	e030      	b.n	800086c <SD_disk_write+0xe4>
	}
	else
	{
		/* WRITE_MULTIPLE_BLOCK */
		if (CardType & CT_SD1)
 800080a:	4b20      	ldr	r3, [pc, #128]	; (800088c <SD_disk_write+0x104>)
 800080c:	781b      	ldrb	r3, [r3, #0]
 800080e:	f003 0302 	and.w	r3, r3, #2
 8000812:	2b00      	cmp	r3, #0
 8000814:	d007      	beq.n	8000826 <SD_disk_write+0x9e>
		{
			SD_SendCmd(CMD55, 0);
 8000816:	2100      	movs	r1, #0
 8000818:	2077      	movs	r0, #119	; 0x77
 800081a:	f7ff fdfc 	bl	8000416 <SD_SendCmd>
			SD_SendCmd(CMD23, count); /* ACMD23 */
 800081e:	6839      	ldr	r1, [r7, #0]
 8000820:	2057      	movs	r0, #87	; 0x57
 8000822:	f7ff fdf8 	bl	8000416 <SD_SendCmd>
		}

		if (SD_SendCmd(CMD25, sector) == 0)
 8000826:	6879      	ldr	r1, [r7, #4]
 8000828:	2059      	movs	r0, #89	; 0x59
 800082a:	f7ff fdf4 	bl	8000416 <SD_SendCmd>
 800082e:	4603      	mov	r3, r0
 8000830:	2b00      	cmp	r3, #0
 8000832:	d11b      	bne.n	800086c <SD_disk_write+0xe4>
		{
			do {
				if(!SD_TxDataBlock(buff, 0xFC)) break;
 8000834:	21fc      	movs	r1, #252	; 0xfc
 8000836:	68b8      	ldr	r0, [r7, #8]
 8000838:	f7ff fdaa 	bl	8000390 <SD_TxDataBlock>
 800083c:	4603      	mov	r3, r0
 800083e:	2b00      	cmp	r3, #0
 8000840:	d00a      	beq.n	8000858 <SD_disk_write+0xd0>
				buff += 512;
 8000842:	68bb      	ldr	r3, [r7, #8]
 8000844:	f503 7300 	add.w	r3, r3, #512	; 0x200
 8000848:	60bb      	str	r3, [r7, #8]
			} while (--count);
 800084a:	683b      	ldr	r3, [r7, #0]
 800084c:	3b01      	subs	r3, #1
 800084e:	603b      	str	r3, [r7, #0]
 8000850:	683b      	ldr	r3, [r7, #0]
 8000852:	2b00      	cmp	r3, #0
 8000854:	d1ee      	bne.n	8000834 <SD_disk_write+0xac>
 8000856:	e000      	b.n	800085a <SD_disk_write+0xd2>
				if(!SD_TxDataBlock(buff, 0xFC)) break;
 8000858:	bf00      	nop

			/* STOP_TRAN token */
			if(!SD_TxDataBlock(0, 0xFD))
 800085a:	21fd      	movs	r1, #253	; 0xfd
 800085c:	2000      	movs	r0, #0
 800085e:	f7ff fd97 	bl	8000390 <SD_TxDataBlock>
 8000862:	4603      	mov	r3, r0
 8000864:	2b00      	cmp	r3, #0
 8000866:	d101      	bne.n	800086c <SD_disk_write+0xe4>
			{
				count = 1;
 8000868:	2301      	movs	r3, #1
 800086a:	603b      	str	r3, [r7, #0]
			}
		}
	}

	/* Idle */
	DESELECT();
 800086c:	f7ff fc84 	bl	8000178 <DESELECT>
	SPI_RxByte();
 8000870:	f7ff fcc4 	bl	80001fc <SPI_RxByte>

	return count ? RES_ERROR : RES_OK;
 8000874:	683b      	ldr	r3, [r7, #0]
 8000876:	2b00      	cmp	r3, #0
 8000878:	bf14      	ite	ne
 800087a:	2301      	movne	r3, #1
 800087c:	2300      	moveq	r3, #0
 800087e:	b2db      	uxtb	r3, r3
}
 8000880:	4618      	mov	r0, r3
 8000882:	3710      	adds	r7, #16
 8000884:	46bd      	mov	sp, r7
 8000886:	bd80      	pop	{r7, pc}
 8000888:	20000000 	.word	0x20000000
 800088c:	200000ac 	.word	0x200000ac

08000890 <SD_disk_ioctl>:
#endif /* _USE_WRITE */

/* ioctl */
DRESULT SD_disk_ioctl(BYTE drv, BYTE ctrl, void *buff) 
{
 8000890:	b590      	push	{r4, r7, lr}
 8000892:	b08b      	sub	sp, #44	; 0x2c
 8000894:	af00      	add	r7, sp, #0
 8000896:	4603      	mov	r3, r0
 8000898:	603a      	str	r2, [r7, #0]
 800089a:	71fb      	strb	r3, [r7, #7]
 800089c:	460b      	mov	r3, r1
 800089e:	71bb      	strb	r3, [r7, #6]
	DRESULT res;
	uint8_t n, csd[16], *ptr = buff;
 80008a0:	683b      	ldr	r3, [r7, #0]
 80008a2:	623b      	str	r3, [r7, #32]
	WORD csize;

	/* pdrv should be 0 */
	if (drv) return RES_PARERR;
 80008a4:	79fb      	ldrb	r3, [r7, #7]
 80008a6:	2b00      	cmp	r3, #0
 80008a8:	d001      	beq.n	80008ae <SD_disk_ioctl+0x1e>
 80008aa:	2304      	movs	r3, #4
 80008ac:	e115      	b.n	8000ada <SD_disk_ioctl+0x24a>
	res = RES_ERROR;
 80008ae:	2301      	movs	r3, #1
 80008b0:	f887 3027 	strb.w	r3, [r7, #39]	; 0x27

	if (ctrl == CTRL_POWER)
 80008b4:	79bb      	ldrb	r3, [r7, #6]
 80008b6:	2b05      	cmp	r3, #5
 80008b8:	d124      	bne.n	8000904 <SD_disk_ioctl+0x74>
	{
		switch (*ptr)
 80008ba:	6a3b      	ldr	r3, [r7, #32]
 80008bc:	781b      	ldrb	r3, [r3, #0]
 80008be:	2b02      	cmp	r3, #2
 80008c0:	d012      	beq.n	80008e8 <SD_disk_ioctl+0x58>
 80008c2:	2b02      	cmp	r3, #2
 80008c4:	dc1a      	bgt.n	80008fc <SD_disk_ioctl+0x6c>
 80008c6:	2b00      	cmp	r3, #0
 80008c8:	d002      	beq.n	80008d0 <SD_disk_ioctl+0x40>
 80008ca:	2b01      	cmp	r3, #1
 80008cc:	d006      	beq.n	80008dc <SD_disk_ioctl+0x4c>
 80008ce:	e015      	b.n	80008fc <SD_disk_ioctl+0x6c>
		{
		case 0:
			SD_PowerOff();		/* Power Off */
 80008d0:	f7ff fd1a 	bl	8000308 <SD_PowerOff>
			res = RES_OK;
 80008d4:	2300      	movs	r3, #0
 80008d6:	f887 3027 	strb.w	r3, [r7, #39]	; 0x27
			break;
 80008da:	e0fc      	b.n	8000ad6 <SD_disk_ioctl+0x246>
		case 1:
			SD_PowerOn();		/* Power On */
 80008dc:	f7ff fcd2 	bl	8000284 <SD_PowerOn>
			res = RES_OK;
 80008e0:	2300      	movs	r3, #0
 80008e2:	f887 3027 	strb.w	r3, [r7, #39]	; 0x27
			break;
 80008e6:	e0f6      	b.n	8000ad6 <SD_disk_ioctl+0x246>
		case 2:
			*(ptr + 1) = SD_CheckPower();
 80008e8:	6a3b      	ldr	r3, [r7, #32]
 80008ea:	1c5c      	adds	r4, r3, #1
 80008ec:	f7ff fd18 	bl	8000320 <SD_CheckPower>
 80008f0:	4603      	mov	r3, r0
 80008f2:	7023      	strb	r3, [r4, #0]
			res = RES_OK;		/* Power Check */
 80008f4:	2300      	movs	r3, #0
 80008f6:	f887 3027 	strb.w	r3, [r7, #39]	; 0x27
			break;
 80008fa:	e0ec      	b.n	8000ad6 <SD_disk_ioctl+0x246>
		default:
			res = RES_PARERR;
 80008fc:	2304      	movs	r3, #4
 80008fe:	f887 3027 	strb.w	r3, [r7, #39]	; 0x27
 8000902:	e0e8      	b.n	8000ad6 <SD_disk_ioctl+0x246>
		}
	}
	else
	{
		/* no disk */
		if (Stat & STA_NOINIT) return RES_NOTRDY;
 8000904:	4b77      	ldr	r3, [pc, #476]	; (8000ae4 <SD_disk_ioctl+0x254>)
 8000906:	781b      	ldrb	r3, [r3, #0]
 8000908:	b2db      	uxtb	r3, r3
 800090a:	f003 0301 	and.w	r3, r3, #1
 800090e:	2b00      	cmp	r3, #0
 8000910:	d001      	beq.n	8000916 <SD_disk_ioctl+0x86>
 8000912:	2303      	movs	r3, #3
 8000914:	e0e1      	b.n	8000ada <SD_disk_ioctl+0x24a>

		SELECT();
 8000916:	f7ff fc21 	bl	800015c <SELECT>

		switch (ctrl)
 800091a:	79bb      	ldrb	r3, [r7, #6]
 800091c:	2b0d      	cmp	r3, #13
 800091e:	f200 80cb 	bhi.w	8000ab8 <SD_disk_ioctl+0x228>
 8000922:	a201      	add	r2, pc, #4	; (adr r2, 8000928 <SD_disk_ioctl+0x98>)
 8000924:	f852 f023 	ldr.w	pc, [r2, r3, lsl #2]
 8000928:	08000a23 	.word	0x08000a23
 800092c:	08000961 	.word	0x08000961
 8000930:	08000a13 	.word	0x08000a13
 8000934:	08000ab9 	.word	0x08000ab9
 8000938:	08000ab9 	.word	0x08000ab9
 800093c:	08000ab9 	.word	0x08000ab9
 8000940:	08000ab9 	.word	0x08000ab9
 8000944:	08000ab9 	.word	0x08000ab9
 8000948:	08000ab9 	.word	0x08000ab9
 800094c:	08000ab9 	.word	0x08000ab9
 8000950:	08000ab9 	.word	0x08000ab9
 8000954:	08000a35 	.word	0x08000a35
 8000958:	08000a59 	.word	0x08000a59
 800095c:	08000a7d 	.word	0x08000a7d
		{
		case GET_SECTOR_COUNT:
			/* SEND_CSD */
			if ((SD_SendCmd(CMD9, 0) == 0) && SD_RxDataBlock(csd, 16))
 8000960:	2100      	movs	r1, #0
 8000962:	2049      	movs	r0, #73	; 0x49
 8000964:	f7ff fd57 	bl	8000416 <SD_SendCmd>
 8000968:	4603      	mov	r3, r0
 800096a:	2b00      	cmp	r3, #0
 800096c:	f040 80a8 	bne.w	8000ac0 <SD_disk_ioctl+0x230>
 8000970:	f107 030c 	add.w	r3, r7, #12
 8000974:	2110      	movs	r1, #16
 8000976:	4618      	mov	r0, r3
 8000978:	f7ff fcdc 	bl	8000334 <SD_RxDataBlock>
 800097c:	4603      	mov	r3, r0
 800097e:	2b00      	cmp	r3, #0
 8000980:	f000 809e 	beq.w	8000ac0 <SD_disk_ioctl+0x230>
			{
				if ((csd[0] >> 6) == 1)
 8000984:	7b3b      	ldrb	r3, [r7, #12]
 8000986:	099b      	lsrs	r3, r3, #6
 8000988:	b2db      	uxtb	r3, r3
 800098a:	2b01      	cmp	r3, #1
 800098c:	d10e      	bne.n	80009ac <SD_disk_ioctl+0x11c>
				{
					/* SDC V2 */
					csize = csd[9] + ((WORD) csd[8] << 8) + 1;
 800098e:	7d7b      	ldrb	r3, [r7, #21]
 8000990:	b29a      	uxth	r2, r3
 8000992:	7d3b      	ldrb	r3, [r7, #20]
 8000994:	b29b      	uxth	r3, r3
 8000996:	021b      	lsls	r3, r3, #8
 8000998:	b29b      	uxth	r3, r3
 800099a:	4413      	add	r3, r2
 800099c:	b29b      	uxth	r3, r3
 800099e:	3301      	adds	r3, #1
 80009a0:	83fb      	strh	r3, [r7, #30]
					*(DWORD*) buff = (DWORD) csize << 10;
 80009a2:	8bfb      	ldrh	r3, [r7, #30]
 80009a4:	029a      	lsls	r2, r3, #10
 80009a6:	683b      	ldr	r3, [r7, #0]
 80009a8:	601a      	str	r2, [r3, #0]
 80009aa:	e02e      	b.n	8000a0a <SD_disk_ioctl+0x17a>
				}
				else
				{
					/* MMC or SDC V1 */
					n = (csd[5] & 15) + ((csd[10] & 128) >> 7) + ((csd[9] & 3) << 1) + 2;
 80009ac:	7c7b      	ldrb	r3, [r7, #17]
 80009ae:	f003 030f 	and.w	r3, r3, #15
 80009b2:	b2da      	uxtb	r2, r3
 80009b4:	7dbb      	ldrb	r3, [r7, #22]
 80009b6:	09db      	lsrs	r3, r3, #7
 80009b8:	b2db      	uxtb	r3, r3
 80009ba:	4413      	add	r3, r2
 80009bc:	b2da      	uxtb	r2, r3
 80009be:	7d7b      	ldrb	r3, [r7, #21]
 80009c0:	005b      	lsls	r3, r3, #1
 80009c2:	b2db      	uxtb	r3, r3
 80009c4:	f003 0306 	and.w	r3, r3, #6
 80009c8:	b2db      	uxtb	r3, r3
 80009ca:	4413      	add	r3, r2
 80009cc:	b2db      	uxtb	r3, r3
 80009ce:	3302      	adds	r3, #2
 80009d0:	f887 3026 	strb.w	r3, [r7, #38]	; 0x26
					csize = (csd[8] >> 6) + ((WORD) csd[7] << 2) + ((WORD) (csd[6] & 3) << 10) + 1;
 80009d4:	7d3b      	ldrb	r3, [r7, #20]
 80009d6:	099b      	lsrs	r3, r3, #6
 80009d8:	b2db      	uxtb	r3, r3
 80009da:	b29a      	uxth	r2, r3
 80009dc:	7cfb      	ldrb	r3, [r7, #19]
 80009de:	b29b      	uxth	r3, r3
 80009e0:	009b      	lsls	r3, r3, #2
 80009e2:	b29b      	uxth	r3, r3
 80009e4:	4413      	add	r3, r2
 80009e6:	b29a      	uxth	r2, r3
 80009e8:	7cbb      	ldrb	r3, [r7, #18]
 80009ea:	029b      	lsls	r3, r3, #10
 80009ec:	b29b      	uxth	r3, r3
 80009ee:	f403 6340 	and.w	r3, r3, #3072	; 0xc00
 80009f2:	b29b      	uxth	r3, r3
 80009f4:	4413      	add	r3, r2
 80009f6:	b29b      	uxth	r3, r3
 80009f8:	3301      	adds	r3, #1
 80009fa:	83fb      	strh	r3, [r7, #30]
					*(DWORD*) buff = (DWORD) csize << (n - 9);
 80009fc:	8bfa      	ldrh	r2, [r7, #30]
 80009fe:	f897 3026 	ldrb.w	r3, [r7, #38]	; 0x26
 8000a02:	3b09      	subs	r3, #9
 8000a04:	409a      	lsls	r2, r3
 8000a06:	683b      	ldr	r3, [r7, #0]
 8000a08:	601a      	str	r2, [r3, #0]
				}
				res = RES_OK;
 8000a0a:	2300      	movs	r3, #0
 8000a0c:	f887 3027 	strb.w	r3, [r7, #39]	; 0x27
			}
			break;
 8000a10:	e056      	b.n	8000ac0 <SD_disk_ioctl+0x230>
		case GET_SECTOR_SIZE:
			*(WORD*) buff = 512;
 8000a12:	683b      	ldr	r3, [r7, #0]
 8000a14:	f44f 7200 	mov.w	r2, #512	; 0x200
 8000a18:	801a      	strh	r2, [r3, #0]
			res = RES_OK;
 8000a1a:	2300      	movs	r3, #0
 8000a1c:	f887 3027 	strb.w	r3, [r7, #39]	; 0x27
			break;
 8000a20:	e055      	b.n	8000ace <SD_disk_ioctl+0x23e>
		case CTRL_SYNC:
			if (SD_ReadyWait() == 0xFF) res = RES_OK;
 8000a22:	f7ff fc15 	bl	8000250 <SD_ReadyWait>
 8000a26:	4603      	mov	r3, r0
 8000a28:	2bff      	cmp	r3, #255	; 0xff
 8000a2a:	d14b      	bne.n	8000ac4 <SD_disk_ioctl+0x234>
 8000a2c:	2300      	movs	r3, #0
 8000a2e:	f887 3027 	strb.w	r3, [r7, #39]	; 0x27
			break;
 8000a32:	e047      	b.n	8000ac4 <SD_disk_ioctl+0x234>
		case MMC_GET_CSD:
			/* SEND_CSD */
			if (SD_SendCmd(CMD9, 0) == 0 && SD_RxDataBlock(ptr, 16)) res = RES_OK;
 8000a34:	2100      	movs	r1, #0
 8000a36:	2049      	movs	r0, #73	; 0x49
 8000a38:	f7ff fced 	bl	8000416 <SD_SendCmd>
 8000a3c:	4603      	mov	r3, r0
 8000a3e:	2b00      	cmp	r3, #0
 8000a40:	d142      	bne.n	8000ac8 <SD_disk_ioctl+0x238>
 8000a42:	2110      	movs	r1, #16
 8000a44:	6a38      	ldr	r0, [r7, #32]
 8000a46:	f7ff fc75 	bl	8000334 <SD_RxDataBlock>
 8000a4a:	4603      	mov	r3, r0
 8000a4c:	2b00      	cmp	r3, #0
 8000a4e:	d03b      	beq.n	8000ac8 <SD_disk_ioctl+0x238>
 8000a50:	2300      	movs	r3, #0
 8000a52:	f887 3027 	strb.w	r3, [r7, #39]	; 0x27
			break;
 8000a56:	e037      	b.n	8000ac8 <SD_disk_ioctl+0x238>
		case MMC_GET_CID:
			/* SEND_CID */
			if (SD_SendCmd(CMD10, 0) == 0 && SD_RxDataBlock(ptr, 16)) res = RES_OK;
 8000a58:	2100      	movs	r1, #0
 8000a5a:	204a      	movs	r0, #74	; 0x4a
 8000a5c:	f7ff fcdb 	bl	8000416 <SD_SendCmd>
 8000a60:	4603      	mov	r3, r0
 8000a62:	2b00      	cmp	r3, #0
 8000a64:	d132      	bne.n	8000acc <SD_disk_ioctl+0x23c>
 8000a66:	2110      	movs	r1, #16
 8000a68:	6a38      	ldr	r0, [r7, #32]
 8000a6a:	f7ff fc63 	bl	8000334 <SD_RxDataBlock>
 8000a6e:	4603      	mov	r3, r0
 8000a70:	2b00      	cmp	r3, #0
 8000a72:	d02b      	beq.n	8000acc <SD_disk_ioctl+0x23c>
 8000a74:	2300      	movs	r3, #0
 8000a76:	f887 3027 	strb.w	r3, [r7, #39]	; 0x27
			break;
 8000a7a:	e027      	b.n	8000acc <SD_disk_ioctl+0x23c>
		case MMC_GET_OCR:
			/* READ_OCR */
			if (SD_SendCmd(CMD58, 0) == 0)
 8000a7c:	2100      	movs	r1, #0
 8000a7e:	207a      	movs	r0, #122	; 0x7a
 8000a80:	f7ff fcc9 	bl	8000416 <SD_SendCmd>
 8000a84:	4603      	mov	r3, r0
 8000a86:	2b00      	cmp	r3, #0
 8000a88:	d116      	bne.n	8000ab8 <SD_disk_ioctl+0x228>
			{
				for (n = 0; n < 4; n++)
 8000a8a:	2300      	movs	r3, #0
 8000a8c:	f887 3026 	strb.w	r3, [r7, #38]	; 0x26
 8000a90:	e00b      	b.n	8000aaa <SD_disk_ioctl+0x21a>
				{
					*ptr++ = SPI_RxByte();
 8000a92:	6a3c      	ldr	r4, [r7, #32]
 8000a94:	1c63      	adds	r3, r4, #1
 8000a96:	623b      	str	r3, [r7, #32]
 8000a98:	f7ff fbb0 	bl	80001fc <SPI_RxByte>
 8000a9c:	4603      	mov	r3, r0
 8000a9e:	7023      	strb	r3, [r4, #0]
				for (n = 0; n < 4; n++)
 8000aa0:	f897 3026 	ldrb.w	r3, [r7, #38]	; 0x26
 8000aa4:	3301      	adds	r3, #1
 8000aa6:	f887 3026 	strb.w	r3, [r7, #38]	; 0x26
 8000aaa:	f897 3026 	ldrb.w	r3, [r7, #38]	; 0x26
 8000aae:	2b03      	cmp	r3, #3
 8000ab0:	d9ef      	bls.n	8000a92 <SD_disk_ioctl+0x202>
				}
				res = RES_OK;
 8000ab2:	2300      	movs	r3, #0
 8000ab4:	f887 3027 	strb.w	r3, [r7, #39]	; 0x27
			}
		default:
			res = RES_PARERR;
 8000ab8:	2304      	movs	r3, #4
 8000aba:	f887 3027 	strb.w	r3, [r7, #39]	; 0x27
 8000abe:	e006      	b.n	8000ace <SD_disk_ioctl+0x23e>
			break;
 8000ac0:	bf00      	nop
 8000ac2:	e004      	b.n	8000ace <SD_disk_ioctl+0x23e>
			break;
 8000ac4:	bf00      	nop
 8000ac6:	e002      	b.n	8000ace <SD_disk_ioctl+0x23e>
			break;
 8000ac8:	bf00      	nop
 8000aca:	e000      	b.n	8000ace <SD_disk_ioctl+0x23e>
			break;
 8000acc:	bf00      	nop
		}

		DESELECT();
 8000ace:	f7ff fb53 	bl	8000178 <DESELECT>
		SPI_RxByte();
 8000ad2:	f7ff fb93 	bl	80001fc <SPI_RxByte>
	}

	return res;
 8000ad6:	f897 3027 	ldrb.w	r3, [r7, #39]	; 0x27
}
 8000ada:	4618      	mov	r0, r3
 8000adc:	372c      	adds	r7, #44	; 0x2c
 8000ade:	46bd      	mov	sp, r7
 8000ae0:	bd90      	pop	{r4, r7, pc}
 8000ae2:	bf00      	nop
 8000ae4:	20000000 	.word	0x20000000

08000ae8 <clear_buffer>:
	while (*buf++ != '\0') i++;
	return i;
}

void clear_buffer (void)
{
 8000ae8:	b480      	push	{r7}
 8000aea:	b083      	sub	sp, #12
 8000aec:	af00      	add	r7, sp, #0
	for (int i=0; i<BUFFER_SIZE; i++) buffer[i] = '\0';
 8000aee:	2300      	movs	r3, #0
 8000af0:	607b      	str	r3, [r7, #4]
 8000af2:	e007      	b.n	8000b04 <clear_buffer+0x1c>
 8000af4:	4a08      	ldr	r2, [pc, #32]	; (8000b18 <clear_buffer+0x30>)
 8000af6:	687b      	ldr	r3, [r7, #4]
 8000af8:	4413      	add	r3, r2
 8000afa:	2200      	movs	r2, #0
 8000afc:	701a      	strb	r2, [r3, #0]
 8000afe:	687b      	ldr	r3, [r7, #4]
 8000b00:	3301      	adds	r3, #1
 8000b02:	607b      	str	r3, [r7, #4]
 8000b04:	687b      	ldr	r3, [r7, #4]
 8000b06:	2b7f      	cmp	r3, #127	; 0x7f
 8000b08:	ddf4      	ble.n	8000af4 <clear_buffer+0xc>
}
 8000b0a:	bf00      	nop
 8000b0c:	bf00      	nop
 8000b0e:	370c      	adds	r7, #12
 8000b10:	46bd      	mov	sp, r7
 8000b12:	bc80      	pop	{r7}
 8000b14:	4770      	bx	lr
 8000b16:	bf00      	nop
 8000b18:	2000138c 	.word	0x2000138c

08000b1c <send_uart>:

void send_uart (char *string)
{
 8000b1c:	b580      	push	{r7, lr}
 8000b1e:	b084      	sub	sp, #16
 8000b20:	af00      	add	r7, sp, #0
 8000b22:	6078      	str	r0, [r7, #4]
	uint8_t len = strlen (string);
 8000b24:	6878      	ldr	r0, [r7, #4]
 8000b26:	f7ff fb11 	bl	800014c <strlen>
 8000b2a:	4603      	mov	r3, r0
 8000b2c:	73fb      	strb	r3, [r7, #15]
	HAL_UART_Transmit(&huart1, (uint8_t *) string, len, Timeout);  // transmit in blocking mode
 8000b2e:	7bfb      	ldrb	r3, [r7, #15]
 8000b30:	b29a      	uxth	r2, r3
 8000b32:	4b05      	ldr	r3, [pc, #20]	; (8000b48 <send_uart+0x2c>)
 8000b34:	681b      	ldr	r3, [r3, #0]
 8000b36:	6879      	ldr	r1, [r7, #4]
 8000b38:	4804      	ldr	r0, [pc, #16]	; (8000b4c <send_uart+0x30>)
 8000b3a:	f002 f8e5 	bl	8002d08 <HAL_UART_Transmit>
}
 8000b3e:	bf00      	nop
 8000b40:	3710      	adds	r7, #16
 8000b42:	46bd      	mov	sp, r7
 8000b44:	bd80      	pop	{r7, pc}
 8000b46:	bf00      	nop
 8000b48:	20000008 	.word	0x20000008
 8000b4c:	2000134c 	.word	0x2000134c

08000b50 <MakeFileUsingPutsAndGets>:
	sprintf (buffer, "SD CARD Free Space: \t%lu\n\r",free_space);
	send_uart(buffer);
	clear_buffer();
}

void MakeFileUsingPutsAndGets(char *FileName){
 8000b50:	b580      	push	{r7, lr}
 8000b52:	b090      	sub	sp, #64	; 0x40
 8000b54:	af00      	add	r7, sp, #0
 8000b56:	6078      	str	r0, [r7, #4]
	/************* The following operation is using PUTS and GETS *********************/
	fresult = f_mount(&fs, "/", 1);
 8000b58:	2201      	movs	r2, #1
 8000b5a:	493f      	ldr	r1, [pc, #252]	; (8000c58 <MakeFileUsingPutsAndGets+0x108>)
 8000b5c:	483f      	ldr	r0, [pc, #252]	; (8000c5c <MakeFileUsingPutsAndGets+0x10c>)
 8000b5e:	f005 f81f 	bl	8005ba0 <f_mount>
 8000b62:	4603      	mov	r3, r0
 8000b64:	461a      	mov	r2, r3
 8000b66:	4b3e      	ldr	r3, [pc, #248]	; (8000c60 <MakeFileUsingPutsAndGets+0x110>)
 8000b68:	701a      	strb	r2, [r3, #0]
	if (fresult != FR_OK) send_uart ("ERROR!: Mounting SD CARD went wrong!\r\n");
 8000b6a:	4b3d      	ldr	r3, [pc, #244]	; (8000c60 <MakeFileUsingPutsAndGets+0x110>)
 8000b6c:	781b      	ldrb	r3, [r3, #0]
 8000b6e:	2b00      	cmp	r3, #0
 8000b70:	d002      	beq.n	8000b78 <MakeFileUsingPutsAndGets+0x28>
 8000b72:	483c      	ldr	r0, [pc, #240]	; (8000c64 <MakeFileUsingPutsAndGets+0x114>)
 8000b74:	f7ff ffd2 	bl	8000b1c <send_uart>
//	else send_uart("SD CARD mounted successfully...\r\n");

	char GetFileName[50] = {0};
 8000b78:	2300      	movs	r3, #0
 8000b7a:	60fb      	str	r3, [r7, #12]
 8000b7c:	f107 0310 	add.w	r3, r7, #16
 8000b80:	222e      	movs	r2, #46	; 0x2e
 8000b82:	2100      	movs	r1, #0
 8000b84:	4618      	mov	r0, r3
 8000b86:	f006 fbaf 	bl	80072e8 <memset>
	sprintf(GetFileName, "%s.txt", FileName);
 8000b8a:	f107 030c 	add.w	r3, r7, #12
 8000b8e:	687a      	ldr	r2, [r7, #4]
 8000b90:	4935      	ldr	r1, [pc, #212]	; (8000c68 <MakeFileUsingPutsAndGets+0x118>)
 8000b92:	4618      	mov	r0, r3
 8000b94:	f006 fbb0 	bl	80072f8 <siprintf>

	/* Open file to write/ create a file if it doesn't exist */
	  //fresult = f_open(&fil, "CaliperToolData.txt", FA_OPEN_ALWAYS | FA_READ | FA_WRITE);
	fresult = f_open(&fil, GetFileName , FA_OPEN_ALWAYS | FA_READ | FA_WRITE);
 8000b98:	f107 030c 	add.w	r3, r7, #12
 8000b9c:	2213      	movs	r2, #19
 8000b9e:	4619      	mov	r1, r3
 8000ba0:	4832      	ldr	r0, [pc, #200]	; (8000c6c <MakeFileUsingPutsAndGets+0x11c>)
 8000ba2:	f005 f847 	bl	8005c34 <f_open>
 8000ba6:	4603      	mov	r3, r0
 8000ba8:	461a      	mov	r2, r3
 8000baa:	4b2d      	ldr	r3, [pc, #180]	; (8000c60 <MakeFileUsingPutsAndGets+0x110>)
 8000bac:	701a      	strb	r2, [r3, #0]

	if (fresult != FR_OK){
 8000bae:	4b2c      	ldr	r3, [pc, #176]	; (8000c60 <MakeFileUsingPutsAndGets+0x110>)
 8000bb0:	781b      	ldrb	r3, [r3, #0]
 8000bb2:	2b00      	cmp	r3, #0
 8000bb4:	d00a      	beq.n	8000bcc <MakeFileUsingPutsAndGets+0x7c>
		send_uart ("ERROR!: Could not open the file: ");
 8000bb6:	482e      	ldr	r0, [pc, #184]	; (8000c70 <MakeFileUsingPutsAndGets+0x120>)
 8000bb8:	f7ff ffb0 	bl	8000b1c <send_uart>
		send_uart(GetFileName);
 8000bbc:	f107 030c 	add.w	r3, r7, #12
 8000bc0:	4618      	mov	r0, r3
 8000bc2:	f7ff ffab 	bl	8000b1c <send_uart>
		send_uart("\r\n");
 8000bc6:	482b      	ldr	r0, [pc, #172]	; (8000c74 <MakeFileUsingPutsAndGets+0x124>)
 8000bc8:	f7ff ffa8 	bl	8000b1c <send_uart>
	}

	/* Writing text */
	f_puts("This files contains data from the unit ", &fil);
 8000bcc:	4927      	ldr	r1, [pc, #156]	; (8000c6c <MakeFileUsingPutsAndGets+0x11c>)
 8000bce:	482a      	ldr	r0, [pc, #168]	; (8000c78 <MakeFileUsingPutsAndGets+0x128>)
 8000bd0:	f006 fa57 	bl	8007082 <f_puts>
	f_puts(FileName, &fil);
 8000bd4:	4925      	ldr	r1, [pc, #148]	; (8000c6c <MakeFileUsingPutsAndGets+0x11c>)
 8000bd6:	6878      	ldr	r0, [r7, #4]
 8000bd8:	f006 fa53 	bl	8007082 <f_puts>
	f_puts("\r\n", &fil);
 8000bdc:	4923      	ldr	r1, [pc, #140]	; (8000c6c <MakeFileUsingPutsAndGets+0x11c>)
 8000bde:	4825      	ldr	r0, [pc, #148]	; (8000c74 <MakeFileUsingPutsAndGets+0x124>)
 8000be0:	f006 fa4f 	bl	8007082 <f_puts>

	/* Close file */
	fresult = f_close(&fil);
 8000be4:	4821      	ldr	r0, [pc, #132]	; (8000c6c <MakeFileUsingPutsAndGets+0x11c>)
 8000be6:	f005 feb0 	bl	800694a <f_close>
 8000bea:	4603      	mov	r3, r0
 8000bec:	461a      	mov	r2, r3
 8000bee:	4b1c      	ldr	r3, [pc, #112]	; (8000c60 <MakeFileUsingPutsAndGets+0x110>)
 8000bf0:	701a      	strb	r2, [r3, #0]

	if (fresult != FR_OK){
 8000bf2:	4b1b      	ldr	r3, [pc, #108]	; (8000c60 <MakeFileUsingPutsAndGets+0x110>)
 8000bf4:	781b      	ldrb	r3, [r3, #0]
 8000bf6:	2b00      	cmp	r3, #0
 8000bf8:	d00a      	beq.n	8000c10 <MakeFileUsingPutsAndGets+0xc0>
		send_uart ("ERROR!: Could not create the file: ");
 8000bfa:	4820      	ldr	r0, [pc, #128]	; (8000c7c <MakeFileUsingPutsAndGets+0x12c>)
 8000bfc:	f7ff ff8e 	bl	8000b1c <send_uart>
		send_uart(GetFileName);
 8000c00:	f107 030c 	add.w	r3, r7, #12
 8000c04:	4618      	mov	r0, r3
 8000c06:	f7ff ff89 	bl	8000b1c <send_uart>
		send_uart("\r\n");
 8000c0a:	481a      	ldr	r0, [pc, #104]	; (8000c74 <MakeFileUsingPutsAndGets+0x124>)
 8000c0c:	f7ff ff86 	bl	8000b1c <send_uart>
	}

	/* Open file to read */
//	fresult = f_open(&fil, "CaliperToolData.txt", FA_READ);
	fresult = f_open(&fil, GetFileName, FA_READ);
 8000c10:	f107 030c 	add.w	r3, r7, #12
 8000c14:	2201      	movs	r2, #1
 8000c16:	4619      	mov	r1, r3
 8000c18:	4814      	ldr	r0, [pc, #80]	; (8000c6c <MakeFileUsingPutsAndGets+0x11c>)
 8000c1a:	f005 f80b 	bl	8005c34 <f_open>
 8000c1e:	4603      	mov	r3, r0
 8000c20:	461a      	mov	r2, r3
 8000c22:	4b0f      	ldr	r3, [pc, #60]	; (8000c60 <MakeFileUsingPutsAndGets+0x110>)
 8000c24:	701a      	strb	r2, [r3, #0]

	if (fresult != FR_OK){
 8000c26:	4b0e      	ldr	r3, [pc, #56]	; (8000c60 <MakeFileUsingPutsAndGets+0x110>)
 8000c28:	781b      	ldrb	r3, [r3, #0]
 8000c2a:	2b00      	cmp	r3, #0
 8000c2c:	d00a      	beq.n	8000c44 <MakeFileUsingPutsAndGets+0xf4>
		send_uart ("ERROR: It was not possible to open the file: ");
 8000c2e:	4814      	ldr	r0, [pc, #80]	; (8000c80 <MakeFileUsingPutsAndGets+0x130>)
 8000c30:	f7ff ff74 	bl	8000b1c <send_uart>
		send_uart(GetFileName);
 8000c34:	f107 030c 	add.w	r3, r7, #12
 8000c38:	4618      	mov	r0, r3
 8000c3a:	f7ff ff6f 	bl	8000b1c <send_uart>
		send_uart("\r\n");
 8000c3e:	480d      	ldr	r0, [pc, #52]	; (8000c74 <MakeFileUsingPutsAndGets+0x124>)
 8000c40:	f7ff ff6c 	bl	8000b1c <send_uart>
	}

	/* Close file */
	f_close(&fil);
 8000c44:	4809      	ldr	r0, [pc, #36]	; (8000c6c <MakeFileUsingPutsAndGets+0x11c>)
 8000c46:	f005 fe80 	bl	800694a <f_close>

	clear_buffer();
 8000c4a:	f7ff ff4d 	bl	8000ae8 <clear_buffer>
}
 8000c4e:	bf00      	nop
 8000c50:	3740      	adds	r7, #64	; 0x40
 8000c52:	46bd      	mov	sp, r7
 8000c54:	bd80      	pop	{r7, pc}
 8000c56:	bf00      	nop
 8000c58:	08007b68 	.word	0x08007b68
 8000c5c:	20000314 	.word	0x20000314
 8000c60:	20001414 	.word	0x20001414
 8000c64:	08007b6c 	.word	0x08007b6c
 8000c68:	08007bf4 	.word	0x08007bf4
 8000c6c:	200014f4 	.word	0x200014f4
 8000c70:	08007bfc 	.word	0x08007bfc
 8000c74:	08007c20 	.word	0x08007c20
 8000c78:	08007c24 	.word	0x08007c24
 8000c7c:	08007c4c 	.word	0x08007c4c
 8000c80:	08007c70 	.word	0x08007c70

08000c84 <UpdateFile>:
	f_close(&fil);

	clear_buffer();
}

void UpdateFile(char *FileName, char *Data){
 8000c84:	b580      	push	{r7, lr}
 8000c86:	b090      	sub	sp, #64	; 0x40
 8000c88:	af00      	add	r7, sp, #0
 8000c8a:	6078      	str	r0, [r7, #4]
 8000c8c:	6039      	str	r1, [r7, #0]
  	/*********************UPDATING an existing file ***************************/

	fresult = f_mount(&fs, "/", 1);
 8000c8e:	2201      	movs	r2, #1
 8000c90:	4930      	ldr	r1, [pc, #192]	; (8000d54 <UpdateFile+0xd0>)
 8000c92:	4831      	ldr	r0, [pc, #196]	; (8000d58 <UpdateFile+0xd4>)
 8000c94:	f004 ff84 	bl	8005ba0 <f_mount>
 8000c98:	4603      	mov	r3, r0
 8000c9a:	461a      	mov	r2, r3
 8000c9c:	4b2f      	ldr	r3, [pc, #188]	; (8000d5c <UpdateFile+0xd8>)
 8000c9e:	701a      	strb	r2, [r3, #0]
	if (fresult != FR_OK) send_uart ("ERROR!: Mounting SD CARD went wrong!\r\n");
 8000ca0:	4b2e      	ldr	r3, [pc, #184]	; (8000d5c <UpdateFile+0xd8>)
 8000ca2:	781b      	ldrb	r3, [r3, #0]
 8000ca4:	2b00      	cmp	r3, #0
 8000ca6:	d002      	beq.n	8000cae <UpdateFile+0x2a>
 8000ca8:	482d      	ldr	r0, [pc, #180]	; (8000d60 <UpdateFile+0xdc>)
 8000caa:	f7ff ff37 	bl	8000b1c <send_uart>

	char GetFileName[50] = {0};
 8000cae:	2300      	movs	r3, #0
 8000cb0:	60fb      	str	r3, [r7, #12]
 8000cb2:	f107 0310 	add.w	r3, r7, #16
 8000cb6:	222e      	movs	r2, #46	; 0x2e
 8000cb8:	2100      	movs	r1, #0
 8000cba:	4618      	mov	r0, r3
 8000cbc:	f006 fb14 	bl	80072e8 <memset>
	sprintf(GetFileName, "%s.txt", FileName);
 8000cc0:	f107 030c 	add.w	r3, r7, #12
 8000cc4:	687a      	ldr	r2, [r7, #4]
 8000cc6:	4927      	ldr	r1, [pc, #156]	; (8000d64 <UpdateFile+0xe0>)
 8000cc8:	4618      	mov	r0, r3
 8000cca:	f006 fb15 	bl	80072f8 <siprintf>

  	/* Open the file with write access */
  	fresult = f_open(&fil, GetFileName, FA_OPEN_EXISTING | FA_READ | FA_WRITE);
 8000cce:	f107 030c 	add.w	r3, r7, #12
 8000cd2:	2203      	movs	r2, #3
 8000cd4:	4619      	mov	r1, r3
 8000cd6:	4824      	ldr	r0, [pc, #144]	; (8000d68 <UpdateFile+0xe4>)
 8000cd8:	f004 ffac 	bl	8005c34 <f_open>
 8000cdc:	4603      	mov	r3, r0
 8000cde:	461a      	mov	r2, r3
 8000ce0:	4b1e      	ldr	r3, [pc, #120]	; (8000d5c <UpdateFile+0xd8>)
 8000ce2:	701a      	strb	r2, [r3, #0]

  	/* Move to offset to the end of the file */
  	fresult = f_lseek(&fil, f_size(&fil));
 8000ce4:	4b20      	ldr	r3, [pc, #128]	; (8000d68 <UpdateFile+0xe4>)
 8000ce6:	f503 5380 	add.w	r3, r3, #4096	; 0x1000
 8000cea:	330c      	adds	r3, #12
 8000cec:	681b      	ldr	r3, [r3, #0]
 8000cee:	4619      	mov	r1, r3
 8000cf0:	481d      	ldr	r0, [pc, #116]	; (8000d68 <UpdateFile+0xe4>)
 8000cf2:	f005 fe55 	bl	80069a0 <f_lseek>
 8000cf6:	4603      	mov	r3, r0
 8000cf8:	461a      	mov	r2, r3
 8000cfa:	4b18      	ldr	r3, [pc, #96]	; (8000d5c <UpdateFile+0xd8>)
 8000cfc:	701a      	strb	r2, [r3, #0]

  	if (fresult != FR_OK){
 8000cfe:	4b17      	ldr	r3, [pc, #92]	; (8000d5c <UpdateFile+0xd8>)
 8000d00:	781b      	ldrb	r3, [r3, #0]
 8000d02:	2b00      	cmp	r3, #0
 8000d04:	d00a      	beq.n	8000d1c <UpdateFile+0x98>
  		send_uart ("ERROR!: Could not open the file: ");
 8000d06:	4819      	ldr	r0, [pc, #100]	; (8000d6c <UpdateFile+0xe8>)
 8000d08:	f7ff ff08 	bl	8000b1c <send_uart>
  		send_uart(GetFileName);
 8000d0c:	f107 030c 	add.w	r3, r7, #12
 8000d10:	4618      	mov	r0, r3
 8000d12:	f7ff ff03 	bl	8000b1c <send_uart>
  		send_uart("\r\n");
 8000d16:	4816      	ldr	r0, [pc, #88]	; (8000d70 <UpdateFile+0xec>)
 8000d18:	f7ff ff00 	bl	8000b1c <send_uart>
	//fresult = f_puts("\r\nThis is updated data and it should be in the end\r\n", &fil);
//	a++;
//	sprintf(buffer, "Counted a: %d", a);
//	fresult = f_puts(buffer, &fil);
//	fresult = f_puts("\r\n", &fil);
  	sprintf(buffer, "%s", Data);
 8000d1c:	683a      	ldr	r2, [r7, #0]
 8000d1e:	4915      	ldr	r1, [pc, #84]	; (8000d74 <UpdateFile+0xf0>)
 8000d20:	4815      	ldr	r0, [pc, #84]	; (8000d78 <UpdateFile+0xf4>)
 8000d22:	f006 fae9 	bl	80072f8 <siprintf>
  	fresult = f_puts(buffer, &fil);
 8000d26:	4910      	ldr	r1, [pc, #64]	; (8000d68 <UpdateFile+0xe4>)
 8000d28:	4813      	ldr	r0, [pc, #76]	; (8000d78 <UpdateFile+0xf4>)
 8000d2a:	f006 f9aa 	bl	8007082 <f_puts>
 8000d2e:	4603      	mov	r3, r0
 8000d30:	b2da      	uxtb	r2, r3
 8000d32:	4b0a      	ldr	r3, [pc, #40]	; (8000d5c <UpdateFile+0xd8>)
 8000d34:	701a      	strb	r2, [r3, #0]

  	f_close (&fil);
 8000d36:	480c      	ldr	r0, [pc, #48]	; (8000d68 <UpdateFile+0xe4>)
 8000d38:	f005 fe07 	bl	800694a <f_close>

  	clear_buffer();
 8000d3c:	f7ff fed4 	bl	8000ae8 <clear_buffer>

  	/* Close file */
  	f_close(&fil);
 8000d40:	4809      	ldr	r0, [pc, #36]	; (8000d68 <UpdateFile+0xe4>)
 8000d42:	f005 fe02 	bl	800694a <f_close>

  	clear_buffer();
 8000d46:	f7ff fecf 	bl	8000ae8 <clear_buffer>
}
 8000d4a:	bf00      	nop
 8000d4c:	3740      	adds	r7, #64	; 0x40
 8000d4e:	46bd      	mov	sp, r7
 8000d50:	bd80      	pop	{r7, pc}
 8000d52:	bf00      	nop
 8000d54:	08007b68 	.word	0x08007b68
 8000d58:	20000314 	.word	0x20000314
 8000d5c:	20001414 	.word	0x20001414
 8000d60:	08007b6c 	.word	0x08007b6c
 8000d64:	08007bf4 	.word	0x08007bf4
 8000d68:	200014f4 	.word	0x200014f4
 8000d6c:	08007bfc 	.word	0x08007bfc
 8000d70:	08007c20 	.word	0x08007c20
 8000d74:	08007d4c 	.word	0x08007d4c
 8000d78:	2000138c 	.word	0x2000138c

08000d7c <main>:
/**
  * @brief  The application entry point.
  * @retval int
  */
int main(void)
{
 8000d7c:	b580      	push	{r7, lr}
 8000d7e:	b08a      	sub	sp, #40	; 0x28
 8000d80:	af00      	add	r7, sp, #0
  /* USER CODE BEGIN 1 */
	x=0;
 8000d82:	4b24      	ldr	r3, [pc, #144]	; (8000e14 <main+0x98>)
 8000d84:	2200      	movs	r2, #0
 8000d86:	601a      	str	r2, [r3, #0]
  /* USER CODE END 1 */

  /* MCU Configuration--------------------------------------------------------*/

  /* Reset of all peripherals, Initializes the Flash interface and the Systick. */
  HAL_Init();
 8000d88:	f000 faee 	bl	8001368 <HAL_Init>
  /* USER CODE BEGIN Init */

  /* USER CODE END Init */

  /* Configure the system clock */
  SystemClock_Config();
 8000d8c:	f000 f858 	bl	8000e40 <SystemClock_Config>
  /* USER CODE BEGIN SysInit */

  /* USER CODE END SysInit */

  /* Initialize all configured peripherals */
  MX_GPIO_Init();
 8000d90:	f000 f8fc 	bl	8000f8c <MX_GPIO_Init>
  MX_SPI1_Init();
 8000d94:	f000 f89a 	bl	8000ecc <MX_SPI1_Init>
  MX_USART1_UART_Init();
 8000d98:	f000 f8ce 	bl	8000f38 <MX_USART1_UART_Init>
  MX_FATFS_Init();
 8000d9c:	f002 f972 	bl	8003084 <MX_FATFS_Init>
  /* USER CODE BEGIN 2 */
  send_uart("Unit SDcard started!\r\n");
 8000da0:	481d      	ldr	r0, [pc, #116]	; (8000e18 <main+0x9c>)
 8000da2:	f7ff febb 	bl	8000b1c <send_uart>
  MakeFileUsingPutsAndGets("GyroAndAccelData");
 8000da6:	481d      	ldr	r0, [pc, #116]	; (8000e1c <main+0xa0>)
 8000da8:	f7ff fed2 	bl	8000b50 <MakeFileUsingPutsAndGets>
  MakeFileUsingPutsAndGets("CaliperToolData");
 8000dac:	481c      	ldr	r0, [pc, #112]	; (8000e20 <main+0xa4>)
 8000dae:	f7ff fecf 	bl	8000b50 <MakeFileUsingPutsAndGets>
  MakeFileUsingPutsAndGets("PressureSensorData");
 8000db2:	481c      	ldr	r0, [pc, #112]	; (8000e24 <main+0xa8>)
 8000db4:	f7ff fecc 	bl	8000b50 <MakeFileUsingPutsAndGets>
  MakeFileUsingPutsAndGets("TempData");
 8000db8:	481b      	ldr	r0, [pc, #108]	; (8000e28 <main+0xac>)
 8000dba:	f7ff fec9 	bl	8000b50 <MakeFileUsingPutsAndGets>

  /* Infinite loop */
  /* USER CODE BEGIN WHILE */
  while (1)
  {
	  char data[40] = {0};
 8000dbe:	2300      	movs	r3, #0
 8000dc0:	603b      	str	r3, [r7, #0]
 8000dc2:	1d3b      	adds	r3, r7, #4
 8000dc4:	2224      	movs	r2, #36	; 0x24
 8000dc6:	2100      	movs	r1, #0
 8000dc8:	4618      	mov	r0, r3
 8000dca:	f006 fa8d 	bl	80072e8 <memset>
	  x++;
 8000dce:	4b11      	ldr	r3, [pc, #68]	; (8000e14 <main+0x98>)
 8000dd0:	681b      	ldr	r3, [r3, #0]
 8000dd2:	3301      	adds	r3, #1
 8000dd4:	4a0f      	ldr	r2, [pc, #60]	; (8000e14 <main+0x98>)
 8000dd6:	6013      	str	r3, [r2, #0]
	  sprintf(data, "New data to updated!: %d\r\n", x);
 8000dd8:	4b0e      	ldr	r3, [pc, #56]	; (8000e14 <main+0x98>)
 8000dda:	681a      	ldr	r2, [r3, #0]
 8000ddc:	463b      	mov	r3, r7
 8000dde:	4913      	ldr	r1, [pc, #76]	; (8000e2c <main+0xb0>)
 8000de0:	4618      	mov	r0, r3
 8000de2:	f006 fa89 	bl	80072f8 <siprintf>
	  //SaveData();
	  UpdateFile("GyroAndAccelData", "Updated data for gyroscope and accelerometer\r\n");
 8000de6:	4912      	ldr	r1, [pc, #72]	; (8000e30 <main+0xb4>)
 8000de8:	480c      	ldr	r0, [pc, #48]	; (8000e1c <main+0xa0>)
 8000dea:	f7ff ff4b 	bl	8000c84 <UpdateFile>
	  UpdateFile("CaliperToolData", "Updated data for caliper tool\r\n");
 8000dee:	4911      	ldr	r1, [pc, #68]	; (8000e34 <main+0xb8>)
 8000df0:	480b      	ldr	r0, [pc, #44]	; (8000e20 <main+0xa4>)
 8000df2:	f7ff ff47 	bl	8000c84 <UpdateFile>
	  UpdateFile("PressureSensorData", data);
 8000df6:	463b      	mov	r3, r7
 8000df8:	4619      	mov	r1, r3
 8000dfa:	480a      	ldr	r0, [pc, #40]	; (8000e24 <main+0xa8>)
 8000dfc:	f7ff ff42 	bl	8000c84 <UpdateFile>
	  UpdateFile("TempData", "Updated data for temperature\r\n");
 8000e00:	490d      	ldr	r1, [pc, #52]	; (8000e38 <main+0xbc>)
 8000e02:	4809      	ldr	r0, [pc, #36]	; (8000e28 <main+0xac>)
 8000e04:	f7ff ff3e 	bl	8000c84 <UpdateFile>
    /* USER CODE END WHILE */

    /* USER CODE BEGIN 3 */
	  HAL_Delay(Delay);
 8000e08:	4b0c      	ldr	r3, [pc, #48]	; (8000e3c <main+0xc0>)
 8000e0a:	681b      	ldr	r3, [r3, #0]
 8000e0c:	4618      	mov	r0, r3
 8000e0e:	f000 fb0d 	bl	800142c <HAL_Delay>
  {
 8000e12:	e7d4      	b.n	8000dbe <main+0x42>
 8000e14:	200000b0 	.word	0x200000b0
 8000e18:	08007dd4 	.word	0x08007dd4
 8000e1c:	08007dec 	.word	0x08007dec
 8000e20:	08007e00 	.word	0x08007e00
 8000e24:	08007e10 	.word	0x08007e10
 8000e28:	08007e24 	.word	0x08007e24
 8000e2c:	08007e30 	.word	0x08007e30
 8000e30:	08007e4c 	.word	0x08007e4c
 8000e34:	08007e7c 	.word	0x08007e7c
 8000e38:	08007e9c 	.word	0x08007e9c
 8000e3c:	20000004 	.word	0x20000004

08000e40 <SystemClock_Config>:
/**
  * @brief System Clock Configuration
  * @retval None
  */
void SystemClock_Config(void)
{
 8000e40:	b580      	push	{r7, lr}
 8000e42:	b090      	sub	sp, #64	; 0x40
 8000e44:	af00      	add	r7, sp, #0
  RCC_OscInitTypeDef RCC_OscInitStruct = {0};
 8000e46:	f107 0318 	add.w	r3, r7, #24
 8000e4a:	2228      	movs	r2, #40	; 0x28
 8000e4c:	2100      	movs	r1, #0
 8000e4e:	4618      	mov	r0, r3
 8000e50:	f006 fa4a 	bl	80072e8 <memset>
  RCC_ClkInitTypeDef RCC_ClkInitStruct = {0};
 8000e54:	1d3b      	adds	r3, r7, #4
 8000e56:	2200      	movs	r2, #0
 8000e58:	601a      	str	r2, [r3, #0]
 8000e5a:	605a      	str	r2, [r3, #4]
 8000e5c:	609a      	str	r2, [r3, #8]
 8000e5e:	60da      	str	r2, [r3, #12]
 8000e60:	611a      	str	r2, [r3, #16]

  /** Initializes the CPU, AHB and APB busses clocks
  */
  RCC_OscInitStruct.OscillatorType = RCC_OSCILLATORTYPE_HSE;
 8000e62:	2301      	movs	r3, #1
 8000e64:	61bb      	str	r3, [r7, #24]
  RCC_OscInitStruct.HSEState = RCC_HSE_ON;
 8000e66:	f44f 3380 	mov.w	r3, #65536	; 0x10000
 8000e6a:	61fb      	str	r3, [r7, #28]
  RCC_OscInitStruct.HSEPredivValue = RCC_HSE_PREDIV_DIV1;
 8000e6c:	2300      	movs	r3, #0
 8000e6e:	623b      	str	r3, [r7, #32]
  RCC_OscInitStruct.HSIState = RCC_HSI_ON;
 8000e70:	2301      	movs	r3, #1
 8000e72:	62bb      	str	r3, [r7, #40]	; 0x28
  RCC_OscInitStruct.PLL.PLLState = RCC_PLL_ON;
 8000e74:	2302      	movs	r3, #2
 8000e76:	637b      	str	r3, [r7, #52]	; 0x34
  RCC_OscInitStruct.PLL.PLLSource = RCC_PLLSOURCE_HSE;
 8000e78:	f44f 3380 	mov.w	r3, #65536	; 0x10000
 8000e7c:	63bb      	str	r3, [r7, #56]	; 0x38
  RCC_OscInitStruct.PLL.PLLMUL = RCC_PLL_MUL9;
 8000e7e:	f44f 13e0 	mov.w	r3, #1835008	; 0x1c0000
 8000e82:	63fb      	str	r3, [r7, #60]	; 0x3c
  if (HAL_RCC_OscConfig(&RCC_OscInitStruct) != HAL_OK)
 8000e84:	f107 0318 	add.w	r3, r7, #24
 8000e88:	4618      	mov	r0, r3
 8000e8a:	f000 fe13 	bl	8001ab4 <HAL_RCC_OscConfig>
 8000e8e:	4603      	mov	r3, r0
 8000e90:	2b00      	cmp	r3, #0
 8000e92:	d001      	beq.n	8000e98 <SystemClock_Config+0x58>
  {
    Error_Handler();
 8000e94:	f000 f8b8 	bl	8001008 <Error_Handler>
  }
  /** Initializes the CPU, AHB and APB busses clocks
  */
  RCC_ClkInitStruct.ClockType = RCC_CLOCKTYPE_HCLK|RCC_CLOCKTYPE_SYSCLK
 8000e98:	230f      	movs	r3, #15
 8000e9a:	607b      	str	r3, [r7, #4]
                              |RCC_CLOCKTYPE_PCLK1|RCC_CLOCKTYPE_PCLK2;
  RCC_ClkInitStruct.SYSCLKSource = RCC_SYSCLKSOURCE_PLLCLK;
 8000e9c:	2302      	movs	r3, #2
 8000e9e:	60bb      	str	r3, [r7, #8]
  RCC_ClkInitStruct.AHBCLKDivider = RCC_SYSCLK_DIV1;
 8000ea0:	2300      	movs	r3, #0
 8000ea2:	60fb      	str	r3, [r7, #12]
  RCC_ClkInitStruct.APB1CLKDivider = RCC_HCLK_DIV2;
 8000ea4:	f44f 6380 	mov.w	r3, #1024	; 0x400
 8000ea8:	613b      	str	r3, [r7, #16]
  RCC_ClkInitStruct.APB2CLKDivider = RCC_HCLK_DIV1;
 8000eaa:	2300      	movs	r3, #0
 8000eac:	617b      	str	r3, [r7, #20]

  if (HAL_RCC_ClockConfig(&RCC_ClkInitStruct, FLASH_LATENCY_2) != HAL_OK)
 8000eae:	1d3b      	adds	r3, r7, #4
 8000eb0:	2102      	movs	r1, #2
 8000eb2:	4618      	mov	r0, r3
 8000eb4:	f001 f87e 	bl	8001fb4 <HAL_RCC_ClockConfig>
 8000eb8:	4603      	mov	r3, r0
 8000eba:	2b00      	cmp	r3, #0
 8000ebc:	d001      	beq.n	8000ec2 <SystemClock_Config+0x82>
  {
    Error_Handler();
 8000ebe:	f000 f8a3 	bl	8001008 <Error_Handler>
  }
}
 8000ec2:	bf00      	nop
 8000ec4:	3740      	adds	r7, #64	; 0x40
 8000ec6:	46bd      	mov	sp, r7
 8000ec8:	bd80      	pop	{r7, pc}
	...

08000ecc <MX_SPI1_Init>:
  * @brief SPI1 Initialization Function
  * @param None
  * @retval None
  */
static void MX_SPI1_Init(void)
{
 8000ecc:	b580      	push	{r7, lr}
 8000ece:	af00      	add	r7, sp, #0

  /* USER CODE BEGIN SPI1_Init 1 */

  /* USER CODE END SPI1_Init 1 */
  /* SPI1 parameter configuration*/
  hspi1.Instance = SPI1;
 8000ed0:	4b17      	ldr	r3, [pc, #92]	; (8000f30 <MX_SPI1_Init+0x64>)
 8000ed2:	4a18      	ldr	r2, [pc, #96]	; (8000f34 <MX_SPI1_Init+0x68>)
 8000ed4:	601a      	str	r2, [r3, #0]
  hspi1.Init.Mode = SPI_MODE_MASTER;
 8000ed6:	4b16      	ldr	r3, [pc, #88]	; (8000f30 <MX_SPI1_Init+0x64>)
 8000ed8:	f44f 7282 	mov.w	r2, #260	; 0x104
 8000edc:	605a      	str	r2, [r3, #4]
  hspi1.Init.Direction = SPI_DIRECTION_2LINES;
 8000ede:	4b14      	ldr	r3, [pc, #80]	; (8000f30 <MX_SPI1_Init+0x64>)
 8000ee0:	2200      	movs	r2, #0
 8000ee2:	609a      	str	r2, [r3, #8]
  hspi1.Init.DataSize = SPI_DATASIZE_8BIT;
 8000ee4:	4b12      	ldr	r3, [pc, #72]	; (8000f30 <MX_SPI1_Init+0x64>)
 8000ee6:	2200      	movs	r2, #0
 8000ee8:	60da      	str	r2, [r3, #12]
  hspi1.Init.CLKPolarity = SPI_POLARITY_LOW;
 8000eea:	4b11      	ldr	r3, [pc, #68]	; (8000f30 <MX_SPI1_Init+0x64>)
 8000eec:	2200      	movs	r2, #0
 8000eee:	611a      	str	r2, [r3, #16]
  hspi1.Init.CLKPhase = SPI_PHASE_1EDGE;
 8000ef0:	4b0f      	ldr	r3, [pc, #60]	; (8000f30 <MX_SPI1_Init+0x64>)
 8000ef2:	2200      	movs	r2, #0
 8000ef4:	615a      	str	r2, [r3, #20]
  hspi1.Init.NSS = SPI_NSS_SOFT;
 8000ef6:	4b0e      	ldr	r3, [pc, #56]	; (8000f30 <MX_SPI1_Init+0x64>)
 8000ef8:	f44f 7200 	mov.w	r2, #512	; 0x200
 8000efc:	619a      	str	r2, [r3, #24]
  hspi1.Init.BaudRatePrescaler = SPI_BAUDRATEPRESCALER_4;
 8000efe:	4b0c      	ldr	r3, [pc, #48]	; (8000f30 <MX_SPI1_Init+0x64>)
 8000f00:	2208      	movs	r2, #8
 8000f02:	61da      	str	r2, [r3, #28]
  hspi1.Init.FirstBit = SPI_FIRSTBIT_MSB;
 8000f04:	4b0a      	ldr	r3, [pc, #40]	; (8000f30 <MX_SPI1_Init+0x64>)
 8000f06:	2200      	movs	r2, #0
 8000f08:	621a      	str	r2, [r3, #32]
  hspi1.Init.TIMode = SPI_TIMODE_DISABLE;
 8000f0a:	4b09      	ldr	r3, [pc, #36]	; (8000f30 <MX_SPI1_Init+0x64>)
 8000f0c:	2200      	movs	r2, #0
 8000f0e:	625a      	str	r2, [r3, #36]	; 0x24
  hspi1.Init.CRCCalculation = SPI_CRCCALCULATION_DISABLE;
 8000f10:	4b07      	ldr	r3, [pc, #28]	; (8000f30 <MX_SPI1_Init+0x64>)
 8000f12:	2200      	movs	r2, #0
 8000f14:	629a      	str	r2, [r3, #40]	; 0x28
  hspi1.Init.CRCPolynomial = 10;
 8000f16:	4b06      	ldr	r3, [pc, #24]	; (8000f30 <MX_SPI1_Init+0x64>)
 8000f18:	220a      	movs	r2, #10
 8000f1a:	62da      	str	r2, [r3, #44]	; 0x2c
  if (HAL_SPI_Init(&hspi1) != HAL_OK)
 8000f1c:	4804      	ldr	r0, [pc, #16]	; (8000f30 <MX_SPI1_Init+0x64>)
 8000f1e:	f001 f9e3 	bl	80022e8 <HAL_SPI_Init>
 8000f22:	4603      	mov	r3, r0
 8000f24:	2b00      	cmp	r3, #0
 8000f26:	d001      	beq.n	8000f2c <MX_SPI1_Init+0x60>
  {
    Error_Handler();
 8000f28:	f000 f86e 	bl	8001008 <Error_Handler>
  }
  /* USER CODE BEGIN SPI1_Init 2 */

  /* USER CODE END SPI1_Init 2 */

}
 8000f2c:	bf00      	nop
 8000f2e:	bd80      	pop	{r7, pc}
 8000f30:	20001418 	.word	0x20001418
 8000f34:	40013000 	.word	0x40013000

08000f38 <MX_USART1_UART_Init>:
  * @brief USART1 Initialization Function
  * @param None
  * @retval None
  */
static void MX_USART1_UART_Init(void)
{
 8000f38:	b580      	push	{r7, lr}
 8000f3a:	af00      	add	r7, sp, #0
  /* USER CODE END USART1_Init 0 */

  /* USER CODE BEGIN USART1_Init 1 */

  /* USER CODE END USART1_Init 1 */
  huart1.Instance = USART1;
 8000f3c:	4b11      	ldr	r3, [pc, #68]	; (8000f84 <MX_USART1_UART_Init+0x4c>)
 8000f3e:	4a12      	ldr	r2, [pc, #72]	; (8000f88 <MX_USART1_UART_Init+0x50>)
 8000f40:	601a      	str	r2, [r3, #0]
  huart1.Init.BaudRate = 115200;
 8000f42:	4b10      	ldr	r3, [pc, #64]	; (8000f84 <MX_USART1_UART_Init+0x4c>)
 8000f44:	f44f 32e1 	mov.w	r2, #115200	; 0x1c200
 8000f48:	605a      	str	r2, [r3, #4]
  huart1.Init.WordLength = UART_WORDLENGTH_8B;
 8000f4a:	4b0e      	ldr	r3, [pc, #56]	; (8000f84 <MX_USART1_UART_Init+0x4c>)
 8000f4c:	2200      	movs	r2, #0
 8000f4e:	609a      	str	r2, [r3, #8]
  huart1.Init.StopBits = UART_STOPBITS_1;
 8000f50:	4b0c      	ldr	r3, [pc, #48]	; (8000f84 <MX_USART1_UART_Init+0x4c>)
 8000f52:	2200      	movs	r2, #0
 8000f54:	60da      	str	r2, [r3, #12]
  huart1.Init.Parity = UART_PARITY_NONE;
 8000f56:	4b0b      	ldr	r3, [pc, #44]	; (8000f84 <MX_USART1_UART_Init+0x4c>)
 8000f58:	2200      	movs	r2, #0
 8000f5a:	611a      	str	r2, [r3, #16]
  huart1.Init.Mode = UART_MODE_TX_RX;
 8000f5c:	4b09      	ldr	r3, [pc, #36]	; (8000f84 <MX_USART1_UART_Init+0x4c>)
 8000f5e:	220c      	movs	r2, #12
 8000f60:	615a      	str	r2, [r3, #20]
  huart1.Init.HwFlowCtl = UART_HWCONTROL_NONE;
 8000f62:	4b08      	ldr	r3, [pc, #32]	; (8000f84 <MX_USART1_UART_Init+0x4c>)
 8000f64:	2200      	movs	r2, #0
 8000f66:	619a      	str	r2, [r3, #24]
  huart1.Init.OverSampling = UART_OVERSAMPLING_16;
 8000f68:	4b06      	ldr	r3, [pc, #24]	; (8000f84 <MX_USART1_UART_Init+0x4c>)
 8000f6a:	2200      	movs	r2, #0
 8000f6c:	61da      	str	r2, [r3, #28]
  if (HAL_UART_Init(&huart1) != HAL_OK)
 8000f6e:	4805      	ldr	r0, [pc, #20]	; (8000f84 <MX_USART1_UART_Init+0x4c>)
 8000f70:	f001 fe7d 	bl	8002c6e <HAL_UART_Init>
 8000f74:	4603      	mov	r3, r0
 8000f76:	2b00      	cmp	r3, #0
 8000f78:	d001      	beq.n	8000f7e <MX_USART1_UART_Init+0x46>
  {
    Error_Handler();
 8000f7a:	f000 f845 	bl	8001008 <Error_Handler>
  }
  /* USER CODE BEGIN USART1_Init 2 */

  /* USER CODE END USART1_Init 2 */

}
 8000f7e:	bf00      	nop
 8000f80:	bd80      	pop	{r7, pc}
 8000f82:	bf00      	nop
 8000f84:	2000134c 	.word	0x2000134c
 8000f88:	40013800 	.word	0x40013800

08000f8c <MX_GPIO_Init>:
  * @brief GPIO Initialization Function
  * @param None
  * @retval None
  */
static void MX_GPIO_Init(void)
{
 8000f8c:	b580      	push	{r7, lr}
 8000f8e:	b086      	sub	sp, #24
 8000f90:	af00      	add	r7, sp, #0
  GPIO_InitTypeDef GPIO_InitStruct = {0};
 8000f92:	f107 0308 	add.w	r3, r7, #8
 8000f96:	2200      	movs	r2, #0
 8000f98:	601a      	str	r2, [r3, #0]
 8000f9a:	605a      	str	r2, [r3, #4]
 8000f9c:	609a      	str	r2, [r3, #8]
 8000f9e:	60da      	str	r2, [r3, #12]

  /* GPIO Ports Clock Enable */
  __HAL_RCC_GPIOD_CLK_ENABLE();
 8000fa0:	4b17      	ldr	r3, [pc, #92]	; (8001000 <MX_GPIO_Init+0x74>)
 8000fa2:	699b      	ldr	r3, [r3, #24]
 8000fa4:	4a16      	ldr	r2, [pc, #88]	; (8001000 <MX_GPIO_Init+0x74>)
 8000fa6:	f043 0320 	orr.w	r3, r3, #32
 8000faa:	6193      	str	r3, [r2, #24]
 8000fac:	4b14      	ldr	r3, [pc, #80]	; (8001000 <MX_GPIO_Init+0x74>)
 8000fae:	699b      	ldr	r3, [r3, #24]
 8000fb0:	f003 0320 	and.w	r3, r3, #32
 8000fb4:	607b      	str	r3, [r7, #4]
 8000fb6:	687b      	ldr	r3, [r7, #4]
  __HAL_RCC_GPIOA_CLK_ENABLE();
 8000fb8:	4b11      	ldr	r3, [pc, #68]	; (8001000 <MX_GPIO_Init+0x74>)
 8000fba:	699b      	ldr	r3, [r3, #24]
 8000fbc:	4a10      	ldr	r2, [pc, #64]	; (8001000 <MX_GPIO_Init+0x74>)
 8000fbe:	f043 0304 	orr.w	r3, r3, #4
 8000fc2:	6193      	str	r3, [r2, #24]
 8000fc4:	4b0e      	ldr	r3, [pc, #56]	; (8001000 <MX_GPIO_Init+0x74>)
 8000fc6:	699b      	ldr	r3, [r3, #24]
 8000fc8:	f003 0304 	and.w	r3, r3, #4
 8000fcc:	603b      	str	r3, [r7, #0]
 8000fce:	683b      	ldr	r3, [r7, #0]

  /*Configure GPIO pin Output Level */
  HAL_GPIO_WritePin(GPIOA, GPIO_PIN_4, GPIO_PIN_SET);
 8000fd0:	2201      	movs	r2, #1
 8000fd2:	2110      	movs	r1, #16
 8000fd4:	480b      	ldr	r0, [pc, #44]	; (8001004 <MX_GPIO_Init+0x78>)
 8000fd6:	f000 fd55 	bl	8001a84 <HAL_GPIO_WritePin>

  /*Configure GPIO pin : PA4 */
  GPIO_InitStruct.Pin = GPIO_PIN_4;
 8000fda:	2310      	movs	r3, #16
 8000fdc:	60bb      	str	r3, [r7, #8]
  GPIO_InitStruct.Mode = GPIO_MODE_OUTPUT_PP;
 8000fde:	2301      	movs	r3, #1
 8000fe0:	60fb      	str	r3, [r7, #12]
  GPIO_InitStruct.Pull = GPIO_NOPULL;
 8000fe2:	2300      	movs	r3, #0
 8000fe4:	613b      	str	r3, [r7, #16]
  GPIO_InitStruct.Speed = GPIO_SPEED_FREQ_LOW;
 8000fe6:	2302      	movs	r3, #2
 8000fe8:	617b      	str	r3, [r7, #20]
  HAL_GPIO_Init(GPIOA, &GPIO_InitStruct);
 8000fea:	f107 0308 	add.w	r3, r7, #8
 8000fee:	4619      	mov	r1, r3
 8000ff0:	4804      	ldr	r0, [pc, #16]	; (8001004 <MX_GPIO_Init+0x78>)
 8000ff2:	f000 fbc3 	bl	800177c <HAL_GPIO_Init>

}
 8000ff6:	bf00      	nop
 8000ff8:	3718      	adds	r7, #24
 8000ffa:	46bd      	mov	sp, r7
 8000ffc:	bd80      	pop	{r7, pc}
 8000ffe:	bf00      	nop
 8001000:	40021000 	.word	0x40021000
 8001004:	40010800 	.word	0x40010800

08001008 <Error_Handler>:
/**
  * @brief  This function is executed in case of error occurrence.
  * @retval None
  */
void Error_Handler(void)
{
 8001008:	b480      	push	{r7}
 800100a:	af00      	add	r7, sp, #0
  /* USER CODE BEGIN Error_Handler_Debug */
  /* User can add his own implementation to report the HAL error return state */

  /* USER CODE END Error_Handler_Debug */
}
 800100c:	bf00      	nop
 800100e:	46bd      	mov	sp, r7
 8001010:	bc80      	pop	{r7}
 8001012:	4770      	bx	lr

08001014 <HAL_MspInit>:
/* USER CODE END 0 */
/**
  * Initializes the Global MSP.
  */
void HAL_MspInit(void)
{
 8001014:	b480      	push	{r7}
 8001016:	b085      	sub	sp, #20
 8001018:	af00      	add	r7, sp, #0
  /* USER CODE BEGIN MspInit 0 */

  /* USER CODE END MspInit 0 */

  __HAL_RCC_AFIO_CLK_ENABLE();
 800101a:	4b15      	ldr	r3, [pc, #84]	; (8001070 <HAL_MspInit+0x5c>)
 800101c:	699b      	ldr	r3, [r3, #24]
 800101e:	4a14      	ldr	r2, [pc, #80]	; (8001070 <HAL_MspInit+0x5c>)
 8001020:	f043 0301 	orr.w	r3, r3, #1
 8001024:	6193      	str	r3, [r2, #24]
 8001026:	4b12      	ldr	r3, [pc, #72]	; (8001070 <HAL_MspInit+0x5c>)
 8001028:	699b      	ldr	r3, [r3, #24]
 800102a:	f003 0301 	and.w	r3, r3, #1
 800102e:	60bb      	str	r3, [r7, #8]
 8001030:	68bb      	ldr	r3, [r7, #8]
  __HAL_RCC_PWR_CLK_ENABLE();
 8001032:	4b0f      	ldr	r3, [pc, #60]	; (8001070 <HAL_MspInit+0x5c>)
 8001034:	69db      	ldr	r3, [r3, #28]
 8001036:	4a0e      	ldr	r2, [pc, #56]	; (8001070 <HAL_MspInit+0x5c>)
 8001038:	f043 5380 	orr.w	r3, r3, #268435456	; 0x10000000
 800103c:	61d3      	str	r3, [r2, #28]
 800103e:	4b0c      	ldr	r3, [pc, #48]	; (8001070 <HAL_MspInit+0x5c>)
 8001040:	69db      	ldr	r3, [r3, #28]
 8001042:	f003 5380 	and.w	r3, r3, #268435456	; 0x10000000
 8001046:	607b      	str	r3, [r7, #4]
 8001048:	687b      	ldr	r3, [r7, #4]

  /* System interrupt init*/

  /** NOJTAG: JTAG-DP Disabled and SW-DP Enabled
  */
  __HAL_AFIO_REMAP_SWJ_NOJTAG();
 800104a:	4b0a      	ldr	r3, [pc, #40]	; (8001074 <HAL_MspInit+0x60>)
 800104c:	685b      	ldr	r3, [r3, #4]
 800104e:	60fb      	str	r3, [r7, #12]
 8001050:	68fb      	ldr	r3, [r7, #12]
 8001052:	f023 63e0 	bic.w	r3, r3, #117440512	; 0x7000000
 8001056:	60fb      	str	r3, [r7, #12]
 8001058:	68fb      	ldr	r3, [r7, #12]
 800105a:	f043 7300 	orr.w	r3, r3, #33554432	; 0x2000000
 800105e:	60fb      	str	r3, [r7, #12]
 8001060:	4a04      	ldr	r2, [pc, #16]	; (8001074 <HAL_MspInit+0x60>)
 8001062:	68fb      	ldr	r3, [r7, #12]
 8001064:	6053      	str	r3, [r2, #4]

  /* USER CODE BEGIN MspInit 1 */

  /* USER CODE END MspInit 1 */
}
 8001066:	bf00      	nop
 8001068:	3714      	adds	r7, #20
 800106a:	46bd      	mov	sp, r7
 800106c:	bc80      	pop	{r7}
 800106e:	4770      	bx	lr
 8001070:	40021000 	.word	0x40021000
 8001074:	40010000 	.word	0x40010000

08001078 <HAL_SPI_MspInit>:
* This function configures the hardware resources used in this example
* @param hspi: SPI handle pointer
* @retval None
*/
void HAL_SPI_MspInit(SPI_HandleTypeDef* hspi)
{
 8001078:	b580      	push	{r7, lr}
 800107a:	b088      	sub	sp, #32
 800107c:	af00      	add	r7, sp, #0
 800107e:	6078      	str	r0, [r7, #4]
  GPIO_InitTypeDef GPIO_InitStruct = {0};
 8001080:	f107 0310 	add.w	r3, r7, #16
 8001084:	2200      	movs	r2, #0
 8001086:	601a      	str	r2, [r3, #0]
 8001088:	605a      	str	r2, [r3, #4]
 800108a:	609a      	str	r2, [r3, #8]
 800108c:	60da      	str	r2, [r3, #12]
  if(hspi->Instance==SPI1)
 800108e:	687b      	ldr	r3, [r7, #4]
 8001090:	681b      	ldr	r3, [r3, #0]
 8001092:	4a1f      	ldr	r2, [pc, #124]	; (8001110 <HAL_SPI_MspInit+0x98>)
 8001094:	4293      	cmp	r3, r2
 8001096:	d137      	bne.n	8001108 <HAL_SPI_MspInit+0x90>
  {
  /* USER CODE BEGIN SPI1_MspInit 0 */

  /* USER CODE END SPI1_MspInit 0 */
    /* Peripheral clock enable */
    __HAL_RCC_SPI1_CLK_ENABLE();
 8001098:	4b1e      	ldr	r3, [pc, #120]	; (8001114 <HAL_SPI_MspInit+0x9c>)
 800109a:	699b      	ldr	r3, [r3, #24]
 800109c:	4a1d      	ldr	r2, [pc, #116]	; (8001114 <HAL_SPI_MspInit+0x9c>)
 800109e:	f443 5380 	orr.w	r3, r3, #4096	; 0x1000
 80010a2:	6193      	str	r3, [r2, #24]
 80010a4:	4b1b      	ldr	r3, [pc, #108]	; (8001114 <HAL_SPI_MspInit+0x9c>)
 80010a6:	699b      	ldr	r3, [r3, #24]
 80010a8:	f403 5380 	and.w	r3, r3, #4096	; 0x1000
 80010ac:	60fb      	str	r3, [r7, #12]
 80010ae:	68fb      	ldr	r3, [r7, #12]

    __HAL_RCC_GPIOA_CLK_ENABLE();
 80010b0:	4b18      	ldr	r3, [pc, #96]	; (8001114 <HAL_SPI_MspInit+0x9c>)
 80010b2:	699b      	ldr	r3, [r3, #24]
 80010b4:	4a17      	ldr	r2, [pc, #92]	; (8001114 <HAL_SPI_MspInit+0x9c>)
 80010b6:	f043 0304 	orr.w	r3, r3, #4
 80010ba:	6193      	str	r3, [r2, #24]
 80010bc:	4b15      	ldr	r3, [pc, #84]	; (8001114 <HAL_SPI_MspInit+0x9c>)
 80010be:	699b      	ldr	r3, [r3, #24]
 80010c0:	f003 0304 	and.w	r3, r3, #4
 80010c4:	60bb      	str	r3, [r7, #8]
 80010c6:	68bb      	ldr	r3, [r7, #8]
    /**SPI1 GPIO Configuration
    PA5     ------> SPI1_SCK
    PA6     ------> SPI1_MISO
    PA7     ------> SPI1_MOSI
    */
    GPIO_InitStruct.Pin = GPIO_PIN_5|GPIO_PIN_7;
 80010c8:	23a0      	movs	r3, #160	; 0xa0
 80010ca:	613b      	str	r3, [r7, #16]
    GPIO_InitStruct.Mode = GPIO_MODE_AF_PP;
 80010cc:	2302      	movs	r3, #2
 80010ce:	617b      	str	r3, [r7, #20]
    GPIO_InitStruct.Speed = GPIO_SPEED_FREQ_HIGH;
 80010d0:	2303      	movs	r3, #3
 80010d2:	61fb      	str	r3, [r7, #28]
    HAL_GPIO_Init(GPIOA, &GPIO_InitStruct);
 80010d4:	f107 0310 	add.w	r3, r7, #16
 80010d8:	4619      	mov	r1, r3
 80010da:	480f      	ldr	r0, [pc, #60]	; (8001118 <HAL_SPI_MspInit+0xa0>)
 80010dc:	f000 fb4e 	bl	800177c <HAL_GPIO_Init>

    GPIO_InitStruct.Pin = GPIO_PIN_6;
 80010e0:	2340      	movs	r3, #64	; 0x40
 80010e2:	613b      	str	r3, [r7, #16]
    GPIO_InitStruct.Mode = GPIO_MODE_INPUT;
 80010e4:	2300      	movs	r3, #0
 80010e6:	617b      	str	r3, [r7, #20]
    GPIO_InitStruct.Pull = GPIO_NOPULL;
 80010e8:	2300      	movs	r3, #0
 80010ea:	61bb      	str	r3, [r7, #24]
    HAL_GPIO_Init(GPIOA, &GPIO_InitStruct);
 80010ec:	f107 0310 	add.w	r3, r7, #16
 80010f0:	4619      	mov	r1, r3
 80010f2:	4809      	ldr	r0, [pc, #36]	; (8001118 <HAL_SPI_MspInit+0xa0>)
 80010f4:	f000 fb42 	bl	800177c <HAL_GPIO_Init>

    /* SPI1 interrupt Init */
    HAL_NVIC_SetPriority(SPI1_IRQn, 0, 0);
 80010f8:	2200      	movs	r2, #0
 80010fa:	2100      	movs	r1, #0
 80010fc:	2023      	movs	r0, #35	; 0x23
 80010fe:	f000 fa90 	bl	8001622 <HAL_NVIC_SetPriority>
    HAL_NVIC_EnableIRQ(SPI1_IRQn);
 8001102:	2023      	movs	r0, #35	; 0x23
 8001104:	f000 faa9 	bl	800165a <HAL_NVIC_EnableIRQ>
  /* USER CODE BEGIN SPI1_MspInit 1 */

  /* USER CODE END SPI1_MspInit 1 */
  }

}
 8001108:	bf00      	nop
 800110a:	3720      	adds	r7, #32
 800110c:	46bd      	mov	sp, r7
 800110e:	bd80      	pop	{r7, pc}
 8001110:	40013000 	.word	0x40013000
 8001114:	40021000 	.word	0x40021000
 8001118:	40010800 	.word	0x40010800

0800111c <HAL_UART_MspInit>:
* This function configures the hardware resources used in this example
* @param huart: UART handle pointer
* @retval None
*/
void HAL_UART_MspInit(UART_HandleTypeDef* huart)
{
 800111c:	b580      	push	{r7, lr}
 800111e:	b088      	sub	sp, #32
 8001120:	af00      	add	r7, sp, #0
 8001122:	6078      	str	r0, [r7, #4]
  GPIO_InitTypeDef GPIO_InitStruct = {0};
 8001124:	f107 0310 	add.w	r3, r7, #16
 8001128:	2200      	movs	r2, #0
 800112a:	601a      	str	r2, [r3, #0]
 800112c:	605a      	str	r2, [r3, #4]
 800112e:	609a      	str	r2, [r3, #8]
 8001130:	60da      	str	r2, [r3, #12]
  if(huart->Instance==USART1)
 8001132:	687b      	ldr	r3, [r7, #4]
 8001134:	681b      	ldr	r3, [r3, #0]
 8001136:	4a1c      	ldr	r2, [pc, #112]	; (80011a8 <HAL_UART_MspInit+0x8c>)
 8001138:	4293      	cmp	r3, r2
 800113a:	d131      	bne.n	80011a0 <HAL_UART_MspInit+0x84>
  {
  /* USER CODE BEGIN USART1_MspInit 0 */

  /* USER CODE END USART1_MspInit 0 */
    /* Peripheral clock enable */
    __HAL_RCC_USART1_CLK_ENABLE();
 800113c:	4b1b      	ldr	r3, [pc, #108]	; (80011ac <HAL_UART_MspInit+0x90>)
 800113e:	699b      	ldr	r3, [r3, #24]
 8001140:	4a1a      	ldr	r2, [pc, #104]	; (80011ac <HAL_UART_MspInit+0x90>)
 8001142:	f443 4380 	orr.w	r3, r3, #16384	; 0x4000
 8001146:	6193      	str	r3, [r2, #24]
 8001148:	4b18      	ldr	r3, [pc, #96]	; (80011ac <HAL_UART_MspInit+0x90>)
 800114a:	699b      	ldr	r3, [r3, #24]
 800114c:	f403 4380 	and.w	r3, r3, #16384	; 0x4000
 8001150:	60fb      	str	r3, [r7, #12]
 8001152:	68fb      	ldr	r3, [r7, #12]

    __HAL_RCC_GPIOA_CLK_ENABLE();
 8001154:	4b15      	ldr	r3, [pc, #84]	; (80011ac <HAL_UART_MspInit+0x90>)
 8001156:	699b      	ldr	r3, [r3, #24]
 8001158:	4a14      	ldr	r2, [pc, #80]	; (80011ac <HAL_UART_MspInit+0x90>)
 800115a:	f043 0304 	orr.w	r3, r3, #4
 800115e:	6193      	str	r3, [r2, #24]
 8001160:	4b12      	ldr	r3, [pc, #72]	; (80011ac <HAL_UART_MspInit+0x90>)
 8001162:	699b      	ldr	r3, [r3, #24]
 8001164:	f003 0304 	and.w	r3, r3, #4
 8001168:	60bb      	str	r3, [r7, #8]
 800116a:	68bb      	ldr	r3, [r7, #8]
    /**USART1 GPIO Configuration
    PA9     ------> USART1_TX
    PA10     ------> USART1_RX
    */
    GPIO_InitStruct.Pin = GPIO_PIN_9;
 800116c:	f44f 7300 	mov.w	r3, #512	; 0x200
 8001170:	613b      	str	r3, [r7, #16]
    GPIO_InitStruct.Mode = GPIO_MODE_AF_PP;
 8001172:	2302      	movs	r3, #2
 8001174:	617b      	str	r3, [r7, #20]
    GPIO_InitStruct.Speed = GPIO_SPEED_FREQ_HIGH;
 8001176:	2303      	movs	r3, #3
 8001178:	61fb      	str	r3, [r7, #28]
    HAL_GPIO_Init(GPIOA, &GPIO_InitStruct);
 800117a:	f107 0310 	add.w	r3, r7, #16
 800117e:	4619      	mov	r1, r3
 8001180:	480b      	ldr	r0, [pc, #44]	; (80011b0 <HAL_UART_MspInit+0x94>)
 8001182:	f000 fafb 	bl	800177c <HAL_GPIO_Init>

    GPIO_InitStruct.Pin = GPIO_PIN_10;
 8001186:	f44f 6380 	mov.w	r3, #1024	; 0x400
 800118a:	613b      	str	r3, [r7, #16]
    GPIO_InitStruct.Mode = GPIO_MODE_INPUT;
 800118c:	2300      	movs	r3, #0
 800118e:	617b      	str	r3, [r7, #20]
    GPIO_InitStruct.Pull = GPIO_NOPULL;
 8001190:	2300      	movs	r3, #0
 8001192:	61bb      	str	r3, [r7, #24]
    HAL_GPIO_Init(GPIOA, &GPIO_InitStruct);
 8001194:	f107 0310 	add.w	r3, r7, #16
 8001198:	4619      	mov	r1, r3
 800119a:	4805      	ldr	r0, [pc, #20]	; (80011b0 <HAL_UART_MspInit+0x94>)
 800119c:	f000 faee 	bl	800177c <HAL_GPIO_Init>
  /* USER CODE BEGIN USART1_MspInit 1 */

  /* USER CODE END USART1_MspInit 1 */
  }

}
 80011a0:	bf00      	nop
 80011a2:	3720      	adds	r7, #32
 80011a4:	46bd      	mov	sp, r7
 80011a6:	bd80      	pop	{r7, pc}
 80011a8:	40013800 	.word	0x40013800
 80011ac:	40021000 	.word	0x40021000
 80011b0:	40010800 	.word	0x40010800

080011b4 <NMI_Handler>:
/******************************************************************************/
/**
  * @brief This function handles Non maskable interrupt.
  */
void NMI_Handler(void)
{
 80011b4:	b480      	push	{r7}
 80011b6:	af00      	add	r7, sp, #0
  /* USER CODE BEGIN NonMaskableInt_IRQn 0 */

  /* USER CODE END NonMaskableInt_IRQn 0 */
  /* USER CODE BEGIN NonMaskableInt_IRQn 1 */
  while (1)
 80011b8:	e7fe      	b.n	80011b8 <NMI_Handler+0x4>

080011ba <HardFault_Handler>:

/**
  * @brief This function handles Hard fault interrupt.
  */
void HardFault_Handler(void)
{
 80011ba:	b480      	push	{r7}
 80011bc:	af00      	add	r7, sp, #0
  /* USER CODE BEGIN HardFault_IRQn 0 */

  /* USER CODE END HardFault_IRQn 0 */
  while (1)
 80011be:	e7fe      	b.n	80011be <HardFault_Handler+0x4>

080011c0 <MemManage_Handler>:

/**
  * @brief This function handles Memory management fault.
  */
void MemManage_Handler(void)
{
 80011c0:	b480      	push	{r7}
 80011c2:	af00      	add	r7, sp, #0
  /* USER CODE BEGIN MemoryManagement_IRQn 0 */

  /* USER CODE END MemoryManagement_IRQn 0 */
  while (1)
 80011c4:	e7fe      	b.n	80011c4 <MemManage_Handler+0x4>

080011c6 <BusFault_Handler>:

/**
  * @brief This function handles Prefetch fault, memory access fault.
  */
void BusFault_Handler(void)
{
 80011c6:	b480      	push	{r7}
 80011c8:	af00      	add	r7, sp, #0
  /* USER CODE BEGIN BusFault_IRQn 0 */

  /* USER CODE END BusFault_IRQn 0 */
  while (1)
 80011ca:	e7fe      	b.n	80011ca <BusFault_Handler+0x4>

080011cc <UsageFault_Handler>:

/**
  * @brief This function handles Undefined instruction or illegal state.
  */
void UsageFault_Handler(void)
{
 80011cc:	b480      	push	{r7}
 80011ce:	af00      	add	r7, sp, #0
  /* USER CODE BEGIN UsageFault_IRQn 0 */

  /* USER CODE END UsageFault_IRQn 0 */
  while (1)
 80011d0:	e7fe      	b.n	80011d0 <UsageFault_Handler+0x4>

080011d2 <SVC_Handler>:

/**
  * @brief This function handles System service call via SWI instruction.
  */
void SVC_Handler(void)
{
 80011d2:	b480      	push	{r7}
 80011d4:	af00      	add	r7, sp, #0

  /* USER CODE END SVCall_IRQn 0 */
  /* USER CODE BEGIN SVCall_IRQn 1 */

  /* USER CODE END SVCall_IRQn 1 */
}
 80011d6:	bf00      	nop
 80011d8:	46bd      	mov	sp, r7
 80011da:	bc80      	pop	{r7}
 80011dc:	4770      	bx	lr

080011de <DebugMon_Handler>:

/**
  * @brief This function handles Debug monitor.
  */
void DebugMon_Handler(void)
{
 80011de:	b480      	push	{r7}
 80011e0:	af00      	add	r7, sp, #0

  /* USER CODE END DebugMonitor_IRQn 0 */
  /* USER CODE BEGIN DebugMonitor_IRQn 1 */

  /* USER CODE END DebugMonitor_IRQn 1 */
}
 80011e2:	bf00      	nop
 80011e4:	46bd      	mov	sp, r7
 80011e6:	bc80      	pop	{r7}
 80011e8:	4770      	bx	lr

080011ea <PendSV_Handler>:

/**
  * @brief This function handles Pendable request for system service.
  */
void PendSV_Handler(void)
{
 80011ea:	b480      	push	{r7}
 80011ec:	af00      	add	r7, sp, #0

  /* USER CODE END PendSV_IRQn 0 */
  /* USER CODE BEGIN PendSV_IRQn 1 */

  /* USER CODE END PendSV_IRQn 1 */
}
 80011ee:	bf00      	nop
 80011f0:	46bd      	mov	sp, r7
 80011f2:	bc80      	pop	{r7}
 80011f4:	4770      	bx	lr
	...

080011f8 <SysTick_Handler>:

/**
  * @brief This function handles System tick timer.
  */
void SysTick_Handler(void)
{
 80011f8:	b580      	push	{r7, lr}
 80011fa:	af00      	add	r7, sp, #0
  /* USER CODE BEGIN SysTick_IRQn 0 */
	if(Timer1 > 0)
 80011fc:	4b0b      	ldr	r3, [pc, #44]	; (800122c <SysTick_Handler+0x34>)
 80011fe:	881b      	ldrh	r3, [r3, #0]
 8001200:	2b00      	cmp	r3, #0
 8001202:	d005      	beq.n	8001210 <SysTick_Handler+0x18>
		Timer1--;
 8001204:	4b09      	ldr	r3, [pc, #36]	; (800122c <SysTick_Handler+0x34>)
 8001206:	881b      	ldrh	r3, [r3, #0]
 8001208:	3b01      	subs	r3, #1
 800120a:	b29a      	uxth	r2, r3
 800120c:	4b07      	ldr	r3, [pc, #28]	; (800122c <SysTick_Handler+0x34>)
 800120e:	801a      	strh	r2, [r3, #0]
	if(Timer2 > 0)
 8001210:	4b07      	ldr	r3, [pc, #28]	; (8001230 <SysTick_Handler+0x38>)
 8001212:	881b      	ldrh	r3, [r3, #0]
 8001214:	2b00      	cmp	r3, #0
 8001216:	d005      	beq.n	8001224 <SysTick_Handler+0x2c>
		Timer2--;
 8001218:	4b05      	ldr	r3, [pc, #20]	; (8001230 <SysTick_Handler+0x38>)
 800121a:	881b      	ldrh	r3, [r3, #0]
 800121c:	3b01      	subs	r3, #1
 800121e:	b29a      	uxth	r2, r3
 8001220:	4b03      	ldr	r3, [pc, #12]	; (8001230 <SysTick_Handler+0x38>)
 8001222:	801a      	strh	r2, [r3, #0]
  /* USER CODE END SysTick_IRQn 0 */
  HAL_IncTick();
 8001224:	f000 f8e6 	bl	80013f4 <HAL_IncTick>
  /* USER CODE BEGIN SysTick_IRQn 1 */

  /* USER CODE END SysTick_IRQn 1 */
}
 8001228:	bf00      	nop
 800122a:	bd80      	pop	{r7, pc}
 800122c:	200002ee 	.word	0x200002ee
 8001230:	200002ec 	.word	0x200002ec

08001234 <SPI1_IRQHandler>:

/**
  * @brief This function handles SPI1 global interrupt.
  */
void SPI1_IRQHandler(void)
{
 8001234:	b580      	push	{r7, lr}
 8001236:	af00      	add	r7, sp, #0
  /* USER CODE BEGIN SPI1_IRQn 0 */

  /* USER CODE END SPI1_IRQn 0 */
  HAL_SPI_IRQHandler(&hspi1);
 8001238:	4802      	ldr	r0, [pc, #8]	; (8001244 <SPI1_IRQHandler+0x10>)
 800123a:	f001 fb8d 	bl	8002958 <HAL_SPI_IRQHandler>
  /* USER CODE BEGIN SPI1_IRQn 1 */

  /* USER CODE END SPI1_IRQn 1 */
}
 800123e:	bf00      	nop
 8001240:	bd80      	pop	{r7, pc}
 8001242:	bf00      	nop
 8001244:	20001418 	.word	0x20001418

08001248 <_sbrk>:
 *
 * @param incr Memory size
 * @return Pointer to allocated memory
 */
void *_sbrk(ptrdiff_t incr)
{
 8001248:	b580      	push	{r7, lr}
 800124a:	b086      	sub	sp, #24
 800124c:	af00      	add	r7, sp, #0
 800124e:	6078      	str	r0, [r7, #4]
  extern uint8_t _end; /* Symbol defined in the linker script */
  extern uint8_t _estack; /* Symbol defined in the linker script */
  extern uint32_t _Min_Stack_Size; /* Symbol defined in the linker script */
  const uint32_t stack_limit = (uint32_t)&_estack - (uint32_t)&_Min_Stack_Size;
 8001250:	4a14      	ldr	r2, [pc, #80]	; (80012a4 <_sbrk+0x5c>)
 8001252:	4b15      	ldr	r3, [pc, #84]	; (80012a8 <_sbrk+0x60>)
 8001254:	1ad3      	subs	r3, r2, r3
 8001256:	617b      	str	r3, [r7, #20]
  const uint8_t *max_heap = (uint8_t *)stack_limit;
 8001258:	697b      	ldr	r3, [r7, #20]
 800125a:	613b      	str	r3, [r7, #16]
  uint8_t *prev_heap_end;

  /* Initialize heap end at first call */
  if (NULL == __sbrk_heap_end)
 800125c:	4b13      	ldr	r3, [pc, #76]	; (80012ac <_sbrk+0x64>)
 800125e:	681b      	ldr	r3, [r3, #0]
 8001260:	2b00      	cmp	r3, #0
 8001262:	d102      	bne.n	800126a <_sbrk+0x22>
  {
    __sbrk_heap_end = &_end;
 8001264:	4b11      	ldr	r3, [pc, #68]	; (80012ac <_sbrk+0x64>)
 8001266:	4a12      	ldr	r2, [pc, #72]	; (80012b0 <_sbrk+0x68>)
 8001268:	601a      	str	r2, [r3, #0]
  }

  /* Protect heap from growing into the reserved MSP stack */
  if (__sbrk_heap_end + incr > max_heap)
 800126a:	4b10      	ldr	r3, [pc, #64]	; (80012ac <_sbrk+0x64>)
 800126c:	681a      	ldr	r2, [r3, #0]
 800126e:	687b      	ldr	r3, [r7, #4]
 8001270:	4413      	add	r3, r2
 8001272:	693a      	ldr	r2, [r7, #16]
 8001274:	429a      	cmp	r2, r3
 8001276:	d207      	bcs.n	8001288 <_sbrk+0x40>
  {
    errno = ENOMEM;
 8001278:	f005 fffe 	bl	8007278 <__errno>
 800127c:	4603      	mov	r3, r0
 800127e:	220c      	movs	r2, #12
 8001280:	601a      	str	r2, [r3, #0]
    return (void *)-1;
 8001282:	f04f 33ff 	mov.w	r3, #4294967295
 8001286:	e009      	b.n	800129c <_sbrk+0x54>
  }

  prev_heap_end = __sbrk_heap_end;
 8001288:	4b08      	ldr	r3, [pc, #32]	; (80012ac <_sbrk+0x64>)
 800128a:	681b      	ldr	r3, [r3, #0]
 800128c:	60fb      	str	r3, [r7, #12]
  __sbrk_heap_end += incr;
 800128e:	4b07      	ldr	r3, [pc, #28]	; (80012ac <_sbrk+0x64>)
 8001290:	681a      	ldr	r2, [r3, #0]
 8001292:	687b      	ldr	r3, [r7, #4]
 8001294:	4413      	add	r3, r2
 8001296:	4a05      	ldr	r2, [pc, #20]	; (80012ac <_sbrk+0x64>)
 8001298:	6013      	str	r3, [r2, #0]

  return (void *)prev_heap_end;
 800129a:	68fb      	ldr	r3, [r7, #12]
}
 800129c:	4618      	mov	r0, r3
 800129e:	3718      	adds	r7, #24
 80012a0:	46bd      	mov	sp, r7
 80012a2:	bd80      	pop	{r7, pc}
 80012a4:	20005000 	.word	0x20005000
 80012a8:	00000400 	.word	0x00000400
 80012ac:	200000b4 	.word	0x200000b4
 80012b0:	20004598 	.word	0x20004598

080012b4 <SystemInit>:
  * @note   This function should be used only after reset.
  * @param  None
  * @retval None
  */
void SystemInit (void)
{
 80012b4:	b480      	push	{r7}
 80012b6:	af00      	add	r7, sp, #0
  /* Reset the RCC clock configuration to the default reset state(for debug purpose) */
  /* Set HSION bit */
  RCC->CR |= 0x00000001U;
 80012b8:	4b15      	ldr	r3, [pc, #84]	; (8001310 <SystemInit+0x5c>)
 80012ba:	681b      	ldr	r3, [r3, #0]
 80012bc:	4a14      	ldr	r2, [pc, #80]	; (8001310 <SystemInit+0x5c>)
 80012be:	f043 0301 	orr.w	r3, r3, #1
 80012c2:	6013      	str	r3, [r2, #0]

  /* Reset SW, HPRE, PPRE1, PPRE2, ADCPRE and MCO bits */
#if !defined(STM32F105xC) && !defined(STM32F107xC)
  RCC->CFGR &= 0xF8FF0000U;
 80012c4:	4b12      	ldr	r3, [pc, #72]	; (8001310 <SystemInit+0x5c>)
 80012c6:	685a      	ldr	r2, [r3, #4]
 80012c8:	4911      	ldr	r1, [pc, #68]	; (8001310 <SystemInit+0x5c>)
 80012ca:	4b12      	ldr	r3, [pc, #72]	; (8001314 <SystemInit+0x60>)
 80012cc:	4013      	ands	r3, r2
 80012ce:	604b      	str	r3, [r1, #4]
#else
  RCC->CFGR &= 0xF0FF0000U;
#endif /* STM32F105xC */   
  
  /* Reset HSEON, CSSON and PLLON bits */
  RCC->CR &= 0xFEF6FFFFU;
 80012d0:	4b0f      	ldr	r3, [pc, #60]	; (8001310 <SystemInit+0x5c>)
 80012d2:	681b      	ldr	r3, [r3, #0]
 80012d4:	4a0e      	ldr	r2, [pc, #56]	; (8001310 <SystemInit+0x5c>)
 80012d6:	f023 7384 	bic.w	r3, r3, #17301504	; 0x1080000
 80012da:	f423 3380 	bic.w	r3, r3, #65536	; 0x10000
 80012de:	6013      	str	r3, [r2, #0]

  /* Reset HSEBYP bit */
  RCC->CR &= 0xFFFBFFFFU;
 80012e0:	4b0b      	ldr	r3, [pc, #44]	; (8001310 <SystemInit+0x5c>)
 80012e2:	681b      	ldr	r3, [r3, #0]
 80012e4:	4a0a      	ldr	r2, [pc, #40]	; (8001310 <SystemInit+0x5c>)
 80012e6:	f423 2380 	bic.w	r3, r3, #262144	; 0x40000
 80012ea:	6013      	str	r3, [r2, #0]

  /* Reset PLLSRC, PLLXTPRE, PLLMUL and USBPRE/OTGFSPRE bits */
  RCC->CFGR &= 0xFF80FFFFU;
 80012ec:	4b08      	ldr	r3, [pc, #32]	; (8001310 <SystemInit+0x5c>)
 80012ee:	685b      	ldr	r3, [r3, #4]
 80012f0:	4a07      	ldr	r2, [pc, #28]	; (8001310 <SystemInit+0x5c>)
 80012f2:	f423 03fe 	bic.w	r3, r3, #8323072	; 0x7f0000
 80012f6:	6053      	str	r3, [r2, #4]

  /* Reset CFGR2 register */
  RCC->CFGR2 = 0x00000000U;      
#else
  /* Disable all interrupts and clear pending bits  */
  RCC->CIR = 0x009F0000U;
 80012f8:	4b05      	ldr	r3, [pc, #20]	; (8001310 <SystemInit+0x5c>)
 80012fa:	f44f 021f 	mov.w	r2, #10420224	; 0x9f0000
 80012fe:	609a      	str	r2, [r3, #8]
#endif 

#ifdef VECT_TAB_SRAM
  SCB->VTOR = SRAM_BASE | VECT_TAB_OFFSET; /* Vector Table Relocation in Internal SRAM. */
#else
  SCB->VTOR = FLASH_BASE | VECT_TAB_OFFSET; /* Vector Table Relocation in Internal FLASH. */
 8001300:	4b05      	ldr	r3, [pc, #20]	; (8001318 <SystemInit+0x64>)
 8001302:	f04f 6200 	mov.w	r2, #134217728	; 0x8000000
 8001306:	609a      	str	r2, [r3, #8]
#endif 
}
 8001308:	bf00      	nop
 800130a:	46bd      	mov	sp, r7
 800130c:	bc80      	pop	{r7}
 800130e:	4770      	bx	lr
 8001310:	40021000 	.word	0x40021000
 8001314:	f8ff0000 	.word	0xf8ff0000
 8001318:	e000ed00 	.word	0xe000ed00

0800131c <Reset_Handler>:
  .weak Reset_Handler
  .type Reset_Handler, %function
Reset_Handler:

/* Copy the data segment initializers from flash to SRAM */
  movs r1, #0
 800131c:	2100      	movs	r1, #0
  b LoopCopyDataInit
 800131e:	e003      	b.n	8001328 <LoopCopyDataInit>

08001320 <CopyDataInit>:

CopyDataInit:
  ldr r3, =_sidata
 8001320:	4b0b      	ldr	r3, [pc, #44]	; (8001350 <LoopFillZerobss+0x14>)
  ldr r3, [r3, r1]
 8001322:	585b      	ldr	r3, [r3, r1]
  str r3, [r0, r1]
 8001324:	5043      	str	r3, [r0, r1]
  adds r1, r1, #4
 8001326:	3104      	adds	r1, #4

08001328 <LoopCopyDataInit>:

LoopCopyDataInit:
  ldr r0, =_sdata
 8001328:	480a      	ldr	r0, [pc, #40]	; (8001354 <LoopFillZerobss+0x18>)
  ldr r3, =_edata
 800132a:	4b0b      	ldr	r3, [pc, #44]	; (8001358 <LoopFillZerobss+0x1c>)
  adds r2, r0, r1
 800132c:	1842      	adds	r2, r0, r1
  cmp r2, r3
 800132e:	429a      	cmp	r2, r3
  bcc CopyDataInit
 8001330:	d3f6      	bcc.n	8001320 <CopyDataInit>
  ldr r2, =_sbss
 8001332:	4a0a      	ldr	r2, [pc, #40]	; (800135c <LoopFillZerobss+0x20>)
  b LoopFillZerobss
 8001334:	e002      	b.n	800133c <LoopFillZerobss>

08001336 <FillZerobss>:
/* Zero fill the bss segment. */
FillZerobss:
  movs r3, #0
 8001336:	2300      	movs	r3, #0
  str r3, [r2], #4
 8001338:	f842 3b04 	str.w	r3, [r2], #4

0800133c <LoopFillZerobss>:

LoopFillZerobss:
  ldr r3, = _ebss
 800133c:	4b08      	ldr	r3, [pc, #32]	; (8001360 <LoopFillZerobss+0x24>)
  cmp r2, r3
 800133e:	429a      	cmp	r2, r3
  bcc FillZerobss
 8001340:	d3f9      	bcc.n	8001336 <FillZerobss>

/* Call the clock system intitialization function.*/
    bl  SystemInit
 8001342:	f7ff ffb7 	bl	80012b4 <SystemInit>
/* Call static constructors */
    bl __libc_init_array
 8001346:	f005 ff9d 	bl	8007284 <__libc_init_array>
/* Call the application's entry point.*/
  bl main
 800134a:	f7ff fd17 	bl	8000d7c <main>
  bx lr
 800134e:	4770      	bx	lr
  ldr r3, =_sidata
 8001350:	080084b8 	.word	0x080084b8
  ldr r0, =_sdata
 8001354:	20000000 	.word	0x20000000
  ldr r3, =_edata
 8001358:	20000090 	.word	0x20000090
  ldr r2, =_sbss
 800135c:	20000090 	.word	0x20000090
  ldr r3, = _ebss
 8001360:	20004598 	.word	0x20004598

08001364 <ADC1_2_IRQHandler>:
 * @retval : None
*/
    .section .text.Default_Handler,"ax",%progbits
Default_Handler:
Infinite_Loop:
  b Infinite_Loop
 8001364:	e7fe      	b.n	8001364 <ADC1_2_IRQHandler>
	...

08001368 <HAL_Init>:
  *         need to ensure that the SysTick time base is always set to 1 millisecond
  *         to have correct HAL operation.
  * @retval HAL status
  */
HAL_StatusTypeDef HAL_Init(void)
{
 8001368:	b580      	push	{r7, lr}
 800136a:	af00      	add	r7, sp, #0
    defined(STM32F102x6) || defined(STM32F102xB) || \
    defined(STM32F103x6) || defined(STM32F103xB) || defined(STM32F103xE) || defined(STM32F103xG) || \
    defined(STM32F105xC) || defined(STM32F107xC)

  /* Prefetch buffer is not available on value line devices */
  __HAL_FLASH_PREFETCH_BUFFER_ENABLE();
 800136c:	4b08      	ldr	r3, [pc, #32]	; (8001390 <HAL_Init+0x28>)
 800136e:	681b      	ldr	r3, [r3, #0]
 8001370:	4a07      	ldr	r2, [pc, #28]	; (8001390 <HAL_Init+0x28>)
 8001372:	f043 0310 	orr.w	r3, r3, #16
 8001376:	6013      	str	r3, [r2, #0]
#endif
#endif /* PREFETCH_ENABLE */

  /* Set Interrupt Group Priority */
  HAL_NVIC_SetPriorityGrouping(NVIC_PRIORITYGROUP_4);
 8001378:	2003      	movs	r0, #3
 800137a:	f000 f947 	bl	800160c <HAL_NVIC_SetPriorityGrouping>

  /* Use systick as time base source and configure 1ms tick (default clock after Reset is HSI) */
  HAL_InitTick(TICK_INT_PRIORITY);
 800137e:	2000      	movs	r0, #0
 8001380:	f000 f808 	bl	8001394 <HAL_InitTick>

  /* Init the low level hardware */
  HAL_MspInit();
 8001384:	f7ff fe46 	bl	8001014 <HAL_MspInit>

  /* Return function status */
  return HAL_OK;
 8001388:	2300      	movs	r3, #0
}
 800138a:	4618      	mov	r0, r3
 800138c:	bd80      	pop	{r7, pc}
 800138e:	bf00      	nop
 8001390:	40022000 	.word	0x40022000

08001394 <HAL_InitTick>:
  *       implementation  in user file.
  * @param TickPriority Tick interrupt priority.
  * @retval HAL status
  */
__weak HAL_StatusTypeDef HAL_InitTick(uint32_t TickPriority)
{
 8001394:	b580      	push	{r7, lr}
 8001396:	b082      	sub	sp, #8
 8001398:	af00      	add	r7, sp, #0
 800139a:	6078      	str	r0, [r7, #4]
  /* Configure the SysTick to have interrupt in 1ms time basis*/
  if (HAL_SYSTICK_Config(SystemCoreClock / (1000U / uwTickFreq)) > 0U)
 800139c:	4b12      	ldr	r3, [pc, #72]	; (80013e8 <HAL_InitTick+0x54>)
 800139e:	681a      	ldr	r2, [r3, #0]
 80013a0:	4b12      	ldr	r3, [pc, #72]	; (80013ec <HAL_InitTick+0x58>)
 80013a2:	781b      	ldrb	r3, [r3, #0]
 80013a4:	4619      	mov	r1, r3
 80013a6:	f44f 737a 	mov.w	r3, #1000	; 0x3e8
 80013aa:	fbb3 f3f1 	udiv	r3, r3, r1
 80013ae:	fbb2 f3f3 	udiv	r3, r2, r3
 80013b2:	4618      	mov	r0, r3
 80013b4:	f000 f95f 	bl	8001676 <HAL_SYSTICK_Config>
 80013b8:	4603      	mov	r3, r0
 80013ba:	2b00      	cmp	r3, #0
 80013bc:	d001      	beq.n	80013c2 <HAL_InitTick+0x2e>
  {
    return HAL_ERROR;
 80013be:	2301      	movs	r3, #1
 80013c0:	e00e      	b.n	80013e0 <HAL_InitTick+0x4c>
  }

  /* Configure the SysTick IRQ priority */
  if (TickPriority < (1UL << __NVIC_PRIO_BITS))
 80013c2:	687b      	ldr	r3, [r7, #4]
 80013c4:	2b0f      	cmp	r3, #15
 80013c6:	d80a      	bhi.n	80013de <HAL_InitTick+0x4a>
  {
    HAL_NVIC_SetPriority(SysTick_IRQn, TickPriority, 0U);
 80013c8:	2200      	movs	r2, #0
 80013ca:	6879      	ldr	r1, [r7, #4]
 80013cc:	f04f 30ff 	mov.w	r0, #4294967295
 80013d0:	f000 f927 	bl	8001622 <HAL_NVIC_SetPriority>
    uwTickPrio = TickPriority;
 80013d4:	4a06      	ldr	r2, [pc, #24]	; (80013f0 <HAL_InitTick+0x5c>)
 80013d6:	687b      	ldr	r3, [r7, #4]
 80013d8:	6013      	str	r3, [r2, #0]
  {
    return HAL_ERROR;
  }

  /* Return function status */
  return HAL_OK;
 80013da:	2300      	movs	r3, #0
 80013dc:	e000      	b.n	80013e0 <HAL_InitTick+0x4c>
    return HAL_ERROR;
 80013de:	2301      	movs	r3, #1
}
 80013e0:	4618      	mov	r0, r3
 80013e2:	3708      	adds	r7, #8
 80013e4:	46bd      	mov	sp, r7
 80013e6:	bd80      	pop	{r7, pc}
 80013e8:	2000000c 	.word	0x2000000c
 80013ec:	20000014 	.word	0x20000014
 80013f0:	20000010 	.word	0x20000010

080013f4 <HAL_IncTick>:
  * @note This function is declared as __weak to be overwritten in case of other
  *      implementations in user file.
  * @retval None
  */
__weak void HAL_IncTick(void)
{
 80013f4:	b480      	push	{r7}
 80013f6:	af00      	add	r7, sp, #0
  uwTick += uwTickFreq;
 80013f8:	4b05      	ldr	r3, [pc, #20]	; (8001410 <HAL_IncTick+0x1c>)
 80013fa:	781b      	ldrb	r3, [r3, #0]
 80013fc:	461a      	mov	r2, r3
 80013fe:	4b05      	ldr	r3, [pc, #20]	; (8001414 <HAL_IncTick+0x20>)
 8001400:	681b      	ldr	r3, [r3, #0]
 8001402:	4413      	add	r3, r2
 8001404:	4a03      	ldr	r2, [pc, #12]	; (8001414 <HAL_IncTick+0x20>)
 8001406:	6013      	str	r3, [r2, #0]
}
 8001408:	bf00      	nop
 800140a:	46bd      	mov	sp, r7
 800140c:	bc80      	pop	{r7}
 800140e:	4770      	bx	lr
 8001410:	20000014 	.word	0x20000014
 8001414:	20002520 	.word	0x20002520

08001418 <HAL_GetTick>:
  * @note  This function is declared as __weak to be overwritten in case of other
  *       implementations in user file.
  * @retval tick value
  */
__weak uint32_t HAL_GetTick(void)
{
 8001418:	b480      	push	{r7}
 800141a:	af00      	add	r7, sp, #0
  return uwTick;
 800141c:	4b02      	ldr	r3, [pc, #8]	; (8001428 <HAL_GetTick+0x10>)
 800141e:	681b      	ldr	r3, [r3, #0]
}
 8001420:	4618      	mov	r0, r3
 8001422:	46bd      	mov	sp, r7
 8001424:	bc80      	pop	{r7}
 8001426:	4770      	bx	lr
 8001428:	20002520 	.word	0x20002520

0800142c <HAL_Delay>:
  *       implementations in user file.
  * @param Delay specifies the delay time length, in milliseconds.
  * @retval None
  */
__weak void HAL_Delay(uint32_t Delay)
{
 800142c:	b580      	push	{r7, lr}
 800142e:	b084      	sub	sp, #16
 8001430:	af00      	add	r7, sp, #0
 8001432:	6078      	str	r0, [r7, #4]
  uint32_t tickstart = HAL_GetTick();
 8001434:	f7ff fff0 	bl	8001418 <HAL_GetTick>
 8001438:	60b8      	str	r0, [r7, #8]
  uint32_t wait = Delay;
 800143a:	687b      	ldr	r3, [r7, #4]
 800143c:	60fb      	str	r3, [r7, #12]

  /* Add a freq to guarantee minimum wait */
  if (wait < HAL_MAX_DELAY)
 800143e:	68fb      	ldr	r3, [r7, #12]
 8001440:	f1b3 3fff 	cmp.w	r3, #4294967295
 8001444:	d005      	beq.n	8001452 <HAL_Delay+0x26>
  {
    wait += (uint32_t)(uwTickFreq);
 8001446:	4b0a      	ldr	r3, [pc, #40]	; (8001470 <HAL_Delay+0x44>)
 8001448:	781b      	ldrb	r3, [r3, #0]
 800144a:	461a      	mov	r2, r3
 800144c:	68fb      	ldr	r3, [r7, #12]
 800144e:	4413      	add	r3, r2
 8001450:	60fb      	str	r3, [r7, #12]
  }

  while ((HAL_GetTick() - tickstart) < wait)
 8001452:	bf00      	nop
 8001454:	f7ff ffe0 	bl	8001418 <HAL_GetTick>
 8001458:	4602      	mov	r2, r0
 800145a:	68bb      	ldr	r3, [r7, #8]
 800145c:	1ad3      	subs	r3, r2, r3
 800145e:	68fa      	ldr	r2, [r7, #12]
 8001460:	429a      	cmp	r2, r3
 8001462:	d8f7      	bhi.n	8001454 <HAL_Delay+0x28>
  {
  }
}
 8001464:	bf00      	nop
 8001466:	bf00      	nop
 8001468:	3710      	adds	r7, #16
 800146a:	46bd      	mov	sp, r7
 800146c:	bd80      	pop	{r7, pc}
 800146e:	bf00      	nop
 8001470:	20000014 	.word	0x20000014

08001474 <__NVIC_SetPriorityGrouping>:
           In case of a conflict between priority grouping and available
           priority bits (__NVIC_PRIO_BITS), the smallest possible priority group is set.
  \param [in]      PriorityGroup  Priority grouping field.
 */
__STATIC_INLINE void __NVIC_SetPriorityGrouping(uint32_t PriorityGroup)
{
 8001474:	b480      	push	{r7}
 8001476:	b085      	sub	sp, #20
 8001478:	af00      	add	r7, sp, #0
 800147a:	6078      	str	r0, [r7, #4]
  uint32_t reg_value;
  uint32_t PriorityGroupTmp = (PriorityGroup & (uint32_t)0x07UL);             /* only values 0..7 are used          */
 800147c:	687b      	ldr	r3, [r7, #4]
 800147e:	f003 0307 	and.w	r3, r3, #7
 8001482:	60fb      	str	r3, [r7, #12]

  reg_value  =  SCB->AIRCR;                                                   /* read old register configuration    */
 8001484:	4b0c      	ldr	r3, [pc, #48]	; (80014b8 <__NVIC_SetPriorityGrouping+0x44>)
 8001486:	68db      	ldr	r3, [r3, #12]
 8001488:	60bb      	str	r3, [r7, #8]
  reg_value &= ~((uint32_t)(SCB_AIRCR_VECTKEY_Msk | SCB_AIRCR_PRIGROUP_Msk)); /* clear bits to change               */
 800148a:	68ba      	ldr	r2, [r7, #8]
 800148c:	f64f 03ff 	movw	r3, #63743	; 0xf8ff
 8001490:	4013      	ands	r3, r2
 8001492:	60bb      	str	r3, [r7, #8]
  reg_value  =  (reg_value                                   |
                ((uint32_t)0x5FAUL << SCB_AIRCR_VECTKEY_Pos) |
                (PriorityGroupTmp << SCB_AIRCR_PRIGROUP_Pos) );               /* Insert write key and priority group */
 8001494:	68fb      	ldr	r3, [r7, #12]
 8001496:	021a      	lsls	r2, r3, #8
                ((uint32_t)0x5FAUL << SCB_AIRCR_VECTKEY_Pos) |
 8001498:	68bb      	ldr	r3, [r7, #8]
 800149a:	4313      	orrs	r3, r2
  reg_value  =  (reg_value                                   |
 800149c:	f043 63bf 	orr.w	r3, r3, #100139008	; 0x5f80000
 80014a0:	f443 3300 	orr.w	r3, r3, #131072	; 0x20000
 80014a4:	60bb      	str	r3, [r7, #8]
  SCB->AIRCR =  reg_value;
 80014a6:	4a04      	ldr	r2, [pc, #16]	; (80014b8 <__NVIC_SetPriorityGrouping+0x44>)
 80014a8:	68bb      	ldr	r3, [r7, #8]
 80014aa:	60d3      	str	r3, [r2, #12]
}
 80014ac:	bf00      	nop
 80014ae:	3714      	adds	r7, #20
 80014b0:	46bd      	mov	sp, r7
 80014b2:	bc80      	pop	{r7}
 80014b4:	4770      	bx	lr
 80014b6:	bf00      	nop
 80014b8:	e000ed00 	.word	0xe000ed00

080014bc <__NVIC_GetPriorityGrouping>:
  \brief   Get Priority Grouping
  \details Reads the priority grouping field from the NVIC Interrupt Controller.
  \return                Priority grouping field (SCB->AIRCR [10:8] PRIGROUP field).
 */
__STATIC_INLINE uint32_t __NVIC_GetPriorityGrouping(void)
{
 80014bc:	b480      	push	{r7}
 80014be:	af00      	add	r7, sp, #0
  return ((uint32_t)((SCB->AIRCR & SCB_AIRCR_PRIGROUP_Msk) >> SCB_AIRCR_PRIGROUP_Pos));
 80014c0:	4b04      	ldr	r3, [pc, #16]	; (80014d4 <__NVIC_GetPriorityGrouping+0x18>)
 80014c2:	68db      	ldr	r3, [r3, #12]
 80014c4:	0a1b      	lsrs	r3, r3, #8
 80014c6:	f003 0307 	and.w	r3, r3, #7
}
 80014ca:	4618      	mov	r0, r3
 80014cc:	46bd      	mov	sp, r7
 80014ce:	bc80      	pop	{r7}
 80014d0:	4770      	bx	lr
 80014d2:	bf00      	nop
 80014d4:	e000ed00 	.word	0xe000ed00

080014d8 <__NVIC_EnableIRQ>:
  \details Enables a device specific interrupt in the NVIC interrupt controller.
  \param [in]      IRQn  Device specific interrupt number.
  \note    IRQn must not be negative.
 */
__STATIC_INLINE void __NVIC_EnableIRQ(IRQn_Type IRQn)
{
 80014d8:	b480      	push	{r7}
 80014da:	b083      	sub	sp, #12
 80014dc:	af00      	add	r7, sp, #0
 80014de:	4603      	mov	r3, r0
 80014e0:	71fb      	strb	r3, [r7, #7]
  if ((int32_t)(IRQn) >= 0)
 80014e2:	f997 3007 	ldrsb.w	r3, [r7, #7]
 80014e6:	2b00      	cmp	r3, #0
 80014e8:	db0b      	blt.n	8001502 <__NVIC_EnableIRQ+0x2a>
  {
    NVIC->ISER[(((uint32_t)IRQn) >> 5UL)] = (uint32_t)(1UL << (((uint32_t)IRQn) & 0x1FUL));
 80014ea:	79fb      	ldrb	r3, [r7, #7]
 80014ec:	f003 021f 	and.w	r2, r3, #31
 80014f0:	4906      	ldr	r1, [pc, #24]	; (800150c <__NVIC_EnableIRQ+0x34>)
 80014f2:	f997 3007 	ldrsb.w	r3, [r7, #7]
 80014f6:	095b      	lsrs	r3, r3, #5
 80014f8:	2001      	movs	r0, #1
 80014fa:	fa00 f202 	lsl.w	r2, r0, r2
 80014fe:	f841 2023 	str.w	r2, [r1, r3, lsl #2]
  }
}
 8001502:	bf00      	nop
 8001504:	370c      	adds	r7, #12
 8001506:	46bd      	mov	sp, r7
 8001508:	bc80      	pop	{r7}
 800150a:	4770      	bx	lr
 800150c:	e000e100 	.word	0xe000e100

08001510 <__NVIC_SetPriority>:
  \param [in]      IRQn  Interrupt number.
  \param [in]  priority  Priority to set.
  \note    The priority cannot be set for every processor exception.
 */
__STATIC_INLINE void __NVIC_SetPriority(IRQn_Type IRQn, uint32_t priority)
{
 8001510:	b480      	push	{r7}
 8001512:	b083      	sub	sp, #12
 8001514:	af00      	add	r7, sp, #0
 8001516:	4603      	mov	r3, r0
 8001518:	6039      	str	r1, [r7, #0]
 800151a:	71fb      	strb	r3, [r7, #7]
  if ((int32_t)(IRQn) >= 0)
 800151c:	f997 3007 	ldrsb.w	r3, [r7, #7]
 8001520:	2b00      	cmp	r3, #0
 8001522:	db0a      	blt.n	800153a <__NVIC_SetPriority+0x2a>
  {
    NVIC->IP[((uint32_t)IRQn)]               = (uint8_t)((priority << (8U - __NVIC_PRIO_BITS)) & (uint32_t)0xFFUL);
 8001524:	683b      	ldr	r3, [r7, #0]
 8001526:	b2da      	uxtb	r2, r3
 8001528:	490c      	ldr	r1, [pc, #48]	; (800155c <__NVIC_SetPriority+0x4c>)
 800152a:	f997 3007 	ldrsb.w	r3, [r7, #7]
 800152e:	0112      	lsls	r2, r2, #4
 8001530:	b2d2      	uxtb	r2, r2
 8001532:	440b      	add	r3, r1
 8001534:	f883 2300 	strb.w	r2, [r3, #768]	; 0x300
  }
  else
  {
    SCB->SHP[(((uint32_t)IRQn) & 0xFUL)-4UL] = (uint8_t)((priority << (8U - __NVIC_PRIO_BITS)) & (uint32_t)0xFFUL);
  }
}
 8001538:	e00a      	b.n	8001550 <__NVIC_SetPriority+0x40>
    SCB->SHP[(((uint32_t)IRQn) & 0xFUL)-4UL] = (uint8_t)((priority << (8U - __NVIC_PRIO_BITS)) & (uint32_t)0xFFUL);
 800153a:	683b      	ldr	r3, [r7, #0]
 800153c:	b2da      	uxtb	r2, r3
 800153e:	4908      	ldr	r1, [pc, #32]	; (8001560 <__NVIC_SetPriority+0x50>)
 8001540:	79fb      	ldrb	r3, [r7, #7]
 8001542:	f003 030f 	and.w	r3, r3, #15
 8001546:	3b04      	subs	r3, #4
 8001548:	0112      	lsls	r2, r2, #4
 800154a:	b2d2      	uxtb	r2, r2
 800154c:	440b      	add	r3, r1
 800154e:	761a      	strb	r2, [r3, #24]
}
 8001550:	bf00      	nop
 8001552:	370c      	adds	r7, #12
 8001554:	46bd      	mov	sp, r7
 8001556:	bc80      	pop	{r7}
 8001558:	4770      	bx	lr
 800155a:	bf00      	nop
 800155c:	e000e100 	.word	0xe000e100
 8001560:	e000ed00 	.word	0xe000ed00

08001564 <NVIC_EncodePriority>:
  \param [in]   PreemptPriority  Preemptive priority value (starting from 0).
  \param [in]       SubPriority  Subpriority value (starting from 0).
  \return                        Encoded priority. Value can be used in the function \ref NVIC_SetPriority().
 */
__STATIC_INLINE uint32_t NVIC_EncodePriority (uint32_t PriorityGroup, uint32_t PreemptPriority, uint32_t SubPriority)
{
 8001564:	b480      	push	{r7}
 8001566:	b089      	sub	sp, #36	; 0x24
 8001568:	af00      	add	r7, sp, #0
 800156a:	60f8      	str	r0, [r7, #12]
 800156c:	60b9      	str	r1, [r7, #8]
 800156e:	607a      	str	r2, [r7, #4]
  uint32_t PriorityGroupTmp = (PriorityGroup & (uint32_t)0x07UL);   /* only values 0..7 are used          */
 8001570:	68fb      	ldr	r3, [r7, #12]
 8001572:	f003 0307 	and.w	r3, r3, #7
 8001576:	61fb      	str	r3, [r7, #28]
  uint32_t PreemptPriorityBits;
  uint32_t SubPriorityBits;

  PreemptPriorityBits = ((7UL - PriorityGroupTmp) > (uint32_t)(__NVIC_PRIO_BITS)) ? (uint32_t)(__NVIC_PRIO_BITS) : (uint32_t)(7UL - PriorityGroupTmp);
 8001578:	69fb      	ldr	r3, [r7, #28]
 800157a:	f1c3 0307 	rsb	r3, r3, #7
 800157e:	2b04      	cmp	r3, #4
 8001580:	bf28      	it	cs
 8001582:	2304      	movcs	r3, #4
 8001584:	61bb      	str	r3, [r7, #24]
  SubPriorityBits     = ((PriorityGroupTmp + (uint32_t)(__NVIC_PRIO_BITS)) < (uint32_t)7UL) ? (uint32_t)0UL : (uint32_t)((PriorityGroupTmp - 7UL) + (uint32_t)(__NVIC_PRIO_BITS));
 8001586:	69fb      	ldr	r3, [r7, #28]
 8001588:	3304      	adds	r3, #4
 800158a:	2b06      	cmp	r3, #6
 800158c:	d902      	bls.n	8001594 <NVIC_EncodePriority+0x30>
 800158e:	69fb      	ldr	r3, [r7, #28]
 8001590:	3b03      	subs	r3, #3
 8001592:	e000      	b.n	8001596 <NVIC_EncodePriority+0x32>
 8001594:	2300      	movs	r3, #0
 8001596:	617b      	str	r3, [r7, #20]

  return (
           ((PreemptPriority & (uint32_t)((1UL << (PreemptPriorityBits)) - 1UL)) << SubPriorityBits) |
 8001598:	f04f 32ff 	mov.w	r2, #4294967295
 800159c:	69bb      	ldr	r3, [r7, #24]
 800159e:	fa02 f303 	lsl.w	r3, r2, r3
 80015a2:	43da      	mvns	r2, r3
 80015a4:	68bb      	ldr	r3, [r7, #8]
 80015a6:	401a      	ands	r2, r3
 80015a8:	697b      	ldr	r3, [r7, #20]
 80015aa:	409a      	lsls	r2, r3
           ((SubPriority     & (uint32_t)((1UL << (SubPriorityBits    )) - 1UL)))
 80015ac:	f04f 31ff 	mov.w	r1, #4294967295
 80015b0:	697b      	ldr	r3, [r7, #20]
 80015b2:	fa01 f303 	lsl.w	r3, r1, r3
 80015b6:	43d9      	mvns	r1, r3
 80015b8:	687b      	ldr	r3, [r7, #4]
 80015ba:	400b      	ands	r3, r1
           ((PreemptPriority & (uint32_t)((1UL << (PreemptPriorityBits)) - 1UL)) << SubPriorityBits) |
 80015bc:	4313      	orrs	r3, r2
         );
}
 80015be:	4618      	mov	r0, r3
 80015c0:	3724      	adds	r7, #36	; 0x24
 80015c2:	46bd      	mov	sp, r7
 80015c4:	bc80      	pop	{r7}
 80015c6:	4770      	bx	lr

080015c8 <SysTick_Config>:
  \note    When the variable <b>__Vendor_SysTickConfig</b> is set to 1, then the
           function <b>SysTick_Config</b> is not included. In this case, the file <b><i>device</i>.h</b>
           must contain a vendor-specific implementation of this function.
 */
__STATIC_INLINE uint32_t SysTick_Config(uint32_t ticks)
{
 80015c8:	b580      	push	{r7, lr}
 80015ca:	b082      	sub	sp, #8
 80015cc:	af00      	add	r7, sp, #0
 80015ce:	6078      	str	r0, [r7, #4]
  if ((ticks - 1UL) > SysTick_LOAD_RELOAD_Msk)
 80015d0:	687b      	ldr	r3, [r7, #4]
 80015d2:	3b01      	subs	r3, #1
 80015d4:	f1b3 7f80 	cmp.w	r3, #16777216	; 0x1000000
 80015d8:	d301      	bcc.n	80015de <SysTick_Config+0x16>
  {
    return (1UL);                                                   /* Reload value impossible */
 80015da:	2301      	movs	r3, #1
 80015dc:	e00f      	b.n	80015fe <SysTick_Config+0x36>
  }

  SysTick->LOAD  = (uint32_t)(ticks - 1UL);                         /* set reload register */
 80015de:	4a0a      	ldr	r2, [pc, #40]	; (8001608 <SysTick_Config+0x40>)
 80015e0:	687b      	ldr	r3, [r7, #4]
 80015e2:	3b01      	subs	r3, #1
 80015e4:	6053      	str	r3, [r2, #4]
  NVIC_SetPriority (SysTick_IRQn, (1UL << __NVIC_PRIO_BITS) - 1UL); /* set Priority for Systick Interrupt */
 80015e6:	210f      	movs	r1, #15
 80015e8:	f04f 30ff 	mov.w	r0, #4294967295
 80015ec:	f7ff ff90 	bl	8001510 <__NVIC_SetPriority>
  SysTick->VAL   = 0UL;                                             /* Load the SysTick Counter Value */
 80015f0:	4b05      	ldr	r3, [pc, #20]	; (8001608 <SysTick_Config+0x40>)
 80015f2:	2200      	movs	r2, #0
 80015f4:	609a      	str	r2, [r3, #8]
  SysTick->CTRL  = SysTick_CTRL_CLKSOURCE_Msk |
 80015f6:	4b04      	ldr	r3, [pc, #16]	; (8001608 <SysTick_Config+0x40>)
 80015f8:	2207      	movs	r2, #7
 80015fa:	601a      	str	r2, [r3, #0]
                   SysTick_CTRL_TICKINT_Msk   |
                   SysTick_CTRL_ENABLE_Msk;                         /* Enable SysTick IRQ and SysTick Timer */
  return (0UL);                                                     /* Function successful */
 80015fc:	2300      	movs	r3, #0
}
 80015fe:	4618      	mov	r0, r3
 8001600:	3708      	adds	r7, #8
 8001602:	46bd      	mov	sp, r7
 8001604:	bd80      	pop	{r7, pc}
 8001606:	bf00      	nop
 8001608:	e000e010 	.word	0xe000e010

0800160c <HAL_NVIC_SetPriorityGrouping>:
  * @note   When the NVIC_PriorityGroup_0 is selected, IRQ preemption is no more possible. 
  *         The pending IRQ priority will be managed only by the subpriority. 
  * @retval None
  */
void HAL_NVIC_SetPriorityGrouping(uint32_t PriorityGroup)
{
 800160c:	b580      	push	{r7, lr}
 800160e:	b082      	sub	sp, #8
 8001610:	af00      	add	r7, sp, #0
 8001612:	6078      	str	r0, [r7, #4]
  /* Check the parameters */
  assert_param(IS_NVIC_PRIORITY_GROUP(PriorityGroup));
  
  /* Set the PRIGROUP[10:8] bits according to the PriorityGroup parameter value */
  NVIC_SetPriorityGrouping(PriorityGroup);
 8001614:	6878      	ldr	r0, [r7, #4]
 8001616:	f7ff ff2d 	bl	8001474 <__NVIC_SetPriorityGrouping>
}
 800161a:	bf00      	nop
 800161c:	3708      	adds	r7, #8
 800161e:	46bd      	mov	sp, r7
 8001620:	bd80      	pop	{r7, pc}

08001622 <HAL_NVIC_SetPriority>:
  *         This parameter can be a value between 0 and 15
  *         A lower priority value indicates a higher priority.          
  * @retval None
  */
void HAL_NVIC_SetPriority(IRQn_Type IRQn, uint32_t PreemptPriority, uint32_t SubPriority)
{ 
 8001622:	b580      	push	{r7, lr}
 8001624:	b086      	sub	sp, #24
 8001626:	af00      	add	r7, sp, #0
 8001628:	4603      	mov	r3, r0
 800162a:	60b9      	str	r1, [r7, #8]
 800162c:	607a      	str	r2, [r7, #4]
 800162e:	73fb      	strb	r3, [r7, #15]
  uint32_t prioritygroup = 0x00U;
 8001630:	2300      	movs	r3, #0
 8001632:	617b      	str	r3, [r7, #20]
  
  /* Check the parameters */
  assert_param(IS_NVIC_SUB_PRIORITY(SubPriority));
  assert_param(IS_NVIC_PREEMPTION_PRIORITY(PreemptPriority));
  
  prioritygroup = NVIC_GetPriorityGrouping();
 8001634:	f7ff ff42 	bl	80014bc <__NVIC_GetPriorityGrouping>
 8001638:	6178      	str	r0, [r7, #20]
  
  NVIC_SetPriority(IRQn, NVIC_EncodePriority(prioritygroup, PreemptPriority, SubPriority));
 800163a:	687a      	ldr	r2, [r7, #4]
 800163c:	68b9      	ldr	r1, [r7, #8]
 800163e:	6978      	ldr	r0, [r7, #20]
 8001640:	f7ff ff90 	bl	8001564 <NVIC_EncodePriority>
 8001644:	4602      	mov	r2, r0
 8001646:	f997 300f 	ldrsb.w	r3, [r7, #15]
 800164a:	4611      	mov	r1, r2
 800164c:	4618      	mov	r0, r3
 800164e:	f7ff ff5f 	bl	8001510 <__NVIC_SetPriority>
}
 8001652:	bf00      	nop
 8001654:	3718      	adds	r7, #24
 8001656:	46bd      	mov	sp, r7
 8001658:	bd80      	pop	{r7, pc}

0800165a <HAL_NVIC_EnableIRQ>:
  *         This parameter can be an enumerator of IRQn_Type enumeration
  *         (For the complete STM32 Devices IRQ Channels list, please refer to the appropriate CMSIS device file (stm32f10xxx.h))
  * @retval None
  */
void HAL_NVIC_EnableIRQ(IRQn_Type IRQn)
{
 800165a:	b580      	push	{r7, lr}
 800165c:	b082      	sub	sp, #8
 800165e:	af00      	add	r7, sp, #0
 8001660:	4603      	mov	r3, r0
 8001662:	71fb      	strb	r3, [r7, #7]
  /* Check the parameters */
  assert_param(IS_NVIC_DEVICE_IRQ(IRQn));

  /* Enable interrupt */
  NVIC_EnableIRQ(IRQn);
 8001664:	f997 3007 	ldrsb.w	r3, [r7, #7]
 8001668:	4618      	mov	r0, r3
 800166a:	f7ff ff35 	bl	80014d8 <__NVIC_EnableIRQ>
}
 800166e:	bf00      	nop
 8001670:	3708      	adds	r7, #8
 8001672:	46bd      	mov	sp, r7
 8001674:	bd80      	pop	{r7, pc}

08001676 <HAL_SYSTICK_Config>:
  * @param  TicksNumb: Specifies the ticks Number of ticks between two interrupts.
  * @retval status:  - 0  Function succeeded.
  *                  - 1  Function failed.
  */
uint32_t HAL_SYSTICK_Config(uint32_t TicksNumb)
{
 8001676:	b580      	push	{r7, lr}
 8001678:	b082      	sub	sp, #8
 800167a:	af00      	add	r7, sp, #0
 800167c:	6078      	str	r0, [r7, #4]
   return SysTick_Config(TicksNumb);
 800167e:	6878      	ldr	r0, [r7, #4]
 8001680:	f7ff ffa2 	bl	80015c8 <SysTick_Config>
 8001684:	4603      	mov	r3, r0
}
 8001686:	4618      	mov	r0, r3
 8001688:	3708      	adds	r7, #8
 800168a:	46bd      	mov	sp, r7
 800168c:	bd80      	pop	{r7, pc}
	...

08001690 <HAL_DMA_Abort_IT>:
  * @param  hdma  : pointer to a DMA_HandleTypeDef structure that contains
  *                 the configuration information for the specified DMA Channel.
  * @retval HAL status
  */
HAL_StatusTypeDef HAL_DMA_Abort_IT(DMA_HandleTypeDef *hdma)
{  
 8001690:	b580      	push	{r7, lr}
 8001692:	b084      	sub	sp, #16
 8001694:	af00      	add	r7, sp, #0
 8001696:	6078      	str	r0, [r7, #4]
  HAL_StatusTypeDef status = HAL_OK;
 8001698:	2300      	movs	r3, #0
 800169a:	73fb      	strb	r3, [r7, #15]
  
  if(HAL_DMA_STATE_BUSY != hdma->State)
 800169c:	687b      	ldr	r3, [r7, #4]
 800169e:	f893 3021 	ldrb.w	r3, [r3, #33]	; 0x21
 80016a2:	2b02      	cmp	r3, #2
 80016a4:	d005      	beq.n	80016b2 <HAL_DMA_Abort_IT+0x22>
  {
    /* no transfer ongoing */
    hdma->ErrorCode = HAL_DMA_ERROR_NO_XFER;
 80016a6:	687b      	ldr	r3, [r7, #4]
 80016a8:	2204      	movs	r2, #4
 80016aa:	639a      	str	r2, [r3, #56]	; 0x38
        
    status = HAL_ERROR;
 80016ac:	2301      	movs	r3, #1
 80016ae:	73fb      	strb	r3, [r7, #15]
 80016b0:	e051      	b.n	8001756 <HAL_DMA_Abort_IT+0xc6>
  }
  else
  { 
    /* Disable DMA IT */
    __HAL_DMA_DISABLE_IT(hdma, (DMA_IT_TC | DMA_IT_HT | DMA_IT_TE));
 80016b2:	687b      	ldr	r3, [r7, #4]
 80016b4:	681b      	ldr	r3, [r3, #0]
 80016b6:	681a      	ldr	r2, [r3, #0]
 80016b8:	687b      	ldr	r3, [r7, #4]
 80016ba:	681b      	ldr	r3, [r3, #0]
 80016bc:	f022 020e 	bic.w	r2, r2, #14
 80016c0:	601a      	str	r2, [r3, #0]

    /* Disable the channel */
    __HAL_DMA_DISABLE(hdma);
 80016c2:	687b      	ldr	r3, [r7, #4]
 80016c4:	681b      	ldr	r3, [r3, #0]
 80016c6:	681a      	ldr	r2, [r3, #0]
 80016c8:	687b      	ldr	r3, [r7, #4]
 80016ca:	681b      	ldr	r3, [r3, #0]
 80016cc:	f022 0201 	bic.w	r2, r2, #1
 80016d0:	601a      	str	r2, [r3, #0]

    /* Clear all flags */
    __HAL_DMA_CLEAR_FLAG(hdma, __HAL_DMA_GET_GI_FLAG_INDEX(hdma));
 80016d2:	687b      	ldr	r3, [r7, #4]
 80016d4:	681b      	ldr	r3, [r3, #0]
 80016d6:	4a22      	ldr	r2, [pc, #136]	; (8001760 <HAL_DMA_Abort_IT+0xd0>)
 80016d8:	4293      	cmp	r3, r2
 80016da:	d029      	beq.n	8001730 <HAL_DMA_Abort_IT+0xa0>
 80016dc:	687b      	ldr	r3, [r7, #4]
 80016de:	681b      	ldr	r3, [r3, #0]
 80016e0:	4a20      	ldr	r2, [pc, #128]	; (8001764 <HAL_DMA_Abort_IT+0xd4>)
 80016e2:	4293      	cmp	r3, r2
 80016e4:	d022      	beq.n	800172c <HAL_DMA_Abort_IT+0x9c>
 80016e6:	687b      	ldr	r3, [r7, #4]
 80016e8:	681b      	ldr	r3, [r3, #0]
 80016ea:	4a1f      	ldr	r2, [pc, #124]	; (8001768 <HAL_DMA_Abort_IT+0xd8>)
 80016ec:	4293      	cmp	r3, r2
 80016ee:	d01a      	beq.n	8001726 <HAL_DMA_Abort_IT+0x96>
 80016f0:	687b      	ldr	r3, [r7, #4]
 80016f2:	681b      	ldr	r3, [r3, #0]
 80016f4:	4a1d      	ldr	r2, [pc, #116]	; (800176c <HAL_DMA_Abort_IT+0xdc>)
 80016f6:	4293      	cmp	r3, r2
 80016f8:	d012      	beq.n	8001720 <HAL_DMA_Abort_IT+0x90>
 80016fa:	687b      	ldr	r3, [r7, #4]
 80016fc:	681b      	ldr	r3, [r3, #0]
 80016fe:	4a1c      	ldr	r2, [pc, #112]	; (8001770 <HAL_DMA_Abort_IT+0xe0>)
 8001700:	4293      	cmp	r3, r2
 8001702:	d00a      	beq.n	800171a <HAL_DMA_Abort_IT+0x8a>
 8001704:	687b      	ldr	r3, [r7, #4]
 8001706:	681b      	ldr	r3, [r3, #0]
 8001708:	4a1a      	ldr	r2, [pc, #104]	; (8001774 <HAL_DMA_Abort_IT+0xe4>)
 800170a:	4293      	cmp	r3, r2
 800170c:	d102      	bne.n	8001714 <HAL_DMA_Abort_IT+0x84>
 800170e:	f44f 1380 	mov.w	r3, #1048576	; 0x100000
 8001712:	e00e      	b.n	8001732 <HAL_DMA_Abort_IT+0xa2>
 8001714:	f04f 7380 	mov.w	r3, #16777216	; 0x1000000
 8001718:	e00b      	b.n	8001732 <HAL_DMA_Abort_IT+0xa2>
 800171a:	f44f 3380 	mov.w	r3, #65536	; 0x10000
 800171e:	e008      	b.n	8001732 <HAL_DMA_Abort_IT+0xa2>
 8001720:	f44f 5380 	mov.w	r3, #4096	; 0x1000
 8001724:	e005      	b.n	8001732 <HAL_DMA_Abort_IT+0xa2>
 8001726:	f44f 7380 	mov.w	r3, #256	; 0x100
 800172a:	e002      	b.n	8001732 <HAL_DMA_Abort_IT+0xa2>
 800172c:	2310      	movs	r3, #16
 800172e:	e000      	b.n	8001732 <HAL_DMA_Abort_IT+0xa2>
 8001730:	2301      	movs	r3, #1
 8001732:	4a11      	ldr	r2, [pc, #68]	; (8001778 <HAL_DMA_Abort_IT+0xe8>)
 8001734:	6053      	str	r3, [r2, #4]

    /* Change the DMA state */
    hdma->State = HAL_DMA_STATE_READY;
 8001736:	687b      	ldr	r3, [r7, #4]
 8001738:	2201      	movs	r2, #1
 800173a:	f883 2021 	strb.w	r2, [r3, #33]	; 0x21

    /* Process Unlocked */
    __HAL_UNLOCK(hdma);
 800173e:	687b      	ldr	r3, [r7, #4]
 8001740:	2200      	movs	r2, #0
 8001742:	f883 2020 	strb.w	r2, [r3, #32]

    /* Call User Abort callback */
    if(hdma->XferAbortCallback != NULL)
 8001746:	687b      	ldr	r3, [r7, #4]
 8001748:	6b5b      	ldr	r3, [r3, #52]	; 0x34
 800174a:	2b00      	cmp	r3, #0
 800174c:	d003      	beq.n	8001756 <HAL_DMA_Abort_IT+0xc6>
    {
      hdma->XferAbortCallback(hdma);
 800174e:	687b      	ldr	r3, [r7, #4]
 8001750:	6b5b      	ldr	r3, [r3, #52]	; 0x34
 8001752:	6878      	ldr	r0, [r7, #4]
 8001754:	4798      	blx	r3
    } 
  }
  return status;
 8001756:	7bfb      	ldrb	r3, [r7, #15]
}
 8001758:	4618      	mov	r0, r3
 800175a:	3710      	adds	r7, #16
 800175c:	46bd      	mov	sp, r7
 800175e:	bd80      	pop	{r7, pc}
 8001760:	40020008 	.word	0x40020008
 8001764:	4002001c 	.word	0x4002001c
 8001768:	40020030 	.word	0x40020030
 800176c:	40020044 	.word	0x40020044
 8001770:	40020058 	.word	0x40020058
 8001774:	4002006c 	.word	0x4002006c
 8001778:	40020000 	.word	0x40020000

0800177c <HAL_GPIO_Init>:
  * @param  GPIO_Init: pointer to a GPIO_InitTypeDef structure that contains
  *         the configuration information for the specified GPIO peripheral.
  * @retval None
  */
void HAL_GPIO_Init(GPIO_TypeDef  *GPIOx, GPIO_InitTypeDef *GPIO_Init)
{
 800177c:	b480      	push	{r7}
 800177e:	b08b      	sub	sp, #44	; 0x2c
 8001780:	af00      	add	r7, sp, #0
 8001782:	6078      	str	r0, [r7, #4]
 8001784:	6039      	str	r1, [r7, #0]
  uint32_t position = 0x00u;
 8001786:	2300      	movs	r3, #0
 8001788:	627b      	str	r3, [r7, #36]	; 0x24
  uint32_t ioposition;
  uint32_t iocurrent;
  uint32_t temp;
  uint32_t config = 0x00u;
 800178a:	2300      	movs	r3, #0
 800178c:	623b      	str	r3, [r7, #32]
  assert_param(IS_GPIO_ALL_INSTANCE(GPIOx));
  assert_param(IS_GPIO_PIN(GPIO_Init->Pin));
  assert_param(IS_GPIO_MODE(GPIO_Init->Mode));

  /* Configure the port pins */
  while (((GPIO_Init->Pin) >> position) != 0x00u)
 800178e:	e169      	b.n	8001a64 <HAL_GPIO_Init+0x2e8>
  {
    /* Get the IO position */
    ioposition = (0x01uL << position);
 8001790:	2201      	movs	r2, #1
 8001792:	6a7b      	ldr	r3, [r7, #36]	; 0x24
 8001794:	fa02 f303 	lsl.w	r3, r2, r3
 8001798:	61fb      	str	r3, [r7, #28]

    /* Get the current IO position */
    iocurrent = (uint32_t)(GPIO_Init->Pin) & ioposition;
 800179a:	683b      	ldr	r3, [r7, #0]
 800179c:	681b      	ldr	r3, [r3, #0]
 800179e:	69fa      	ldr	r2, [r7, #28]
 80017a0:	4013      	ands	r3, r2
 80017a2:	61bb      	str	r3, [r7, #24]

    if (iocurrent == ioposition)
 80017a4:	69ba      	ldr	r2, [r7, #24]
 80017a6:	69fb      	ldr	r3, [r7, #28]
 80017a8:	429a      	cmp	r2, r3
 80017aa:	f040 8158 	bne.w	8001a5e <HAL_GPIO_Init+0x2e2>
    {
      /* Check the Alternate function parameters */
      assert_param(IS_GPIO_AF_INSTANCE(GPIOx));

      /* Based on the required mode, filling config variable with MODEy[1:0] and CNFy[3:2] corresponding bits */
      switch (GPIO_Init->Mode)
 80017ae:	683b      	ldr	r3, [r7, #0]
 80017b0:	685b      	ldr	r3, [r3, #4]
 80017b2:	4a9a      	ldr	r2, [pc, #616]	; (8001a1c <HAL_GPIO_Init+0x2a0>)
 80017b4:	4293      	cmp	r3, r2
 80017b6:	d05e      	beq.n	8001876 <HAL_GPIO_Init+0xfa>
 80017b8:	4a98      	ldr	r2, [pc, #608]	; (8001a1c <HAL_GPIO_Init+0x2a0>)
 80017ba:	4293      	cmp	r3, r2
 80017bc:	d875      	bhi.n	80018aa <HAL_GPIO_Init+0x12e>
 80017be:	4a98      	ldr	r2, [pc, #608]	; (8001a20 <HAL_GPIO_Init+0x2a4>)
 80017c0:	4293      	cmp	r3, r2
 80017c2:	d058      	beq.n	8001876 <HAL_GPIO_Init+0xfa>
 80017c4:	4a96      	ldr	r2, [pc, #600]	; (8001a20 <HAL_GPIO_Init+0x2a4>)
 80017c6:	4293      	cmp	r3, r2
 80017c8:	d86f      	bhi.n	80018aa <HAL_GPIO_Init+0x12e>
 80017ca:	4a96      	ldr	r2, [pc, #600]	; (8001a24 <HAL_GPIO_Init+0x2a8>)
 80017cc:	4293      	cmp	r3, r2
 80017ce:	d052      	beq.n	8001876 <HAL_GPIO_Init+0xfa>
 80017d0:	4a94      	ldr	r2, [pc, #592]	; (8001a24 <HAL_GPIO_Init+0x2a8>)
 80017d2:	4293      	cmp	r3, r2
 80017d4:	d869      	bhi.n	80018aa <HAL_GPIO_Init+0x12e>
 80017d6:	4a94      	ldr	r2, [pc, #592]	; (8001a28 <HAL_GPIO_Init+0x2ac>)
 80017d8:	4293      	cmp	r3, r2
 80017da:	d04c      	beq.n	8001876 <HAL_GPIO_Init+0xfa>
 80017dc:	4a92      	ldr	r2, [pc, #584]	; (8001a28 <HAL_GPIO_Init+0x2ac>)
 80017de:	4293      	cmp	r3, r2
 80017e0:	d863      	bhi.n	80018aa <HAL_GPIO_Init+0x12e>
 80017e2:	4a92      	ldr	r2, [pc, #584]	; (8001a2c <HAL_GPIO_Init+0x2b0>)
 80017e4:	4293      	cmp	r3, r2
 80017e6:	d046      	beq.n	8001876 <HAL_GPIO_Init+0xfa>
 80017e8:	4a90      	ldr	r2, [pc, #576]	; (8001a2c <HAL_GPIO_Init+0x2b0>)
 80017ea:	4293      	cmp	r3, r2
 80017ec:	d85d      	bhi.n	80018aa <HAL_GPIO_Init+0x12e>
 80017ee:	2b12      	cmp	r3, #18
 80017f0:	d82a      	bhi.n	8001848 <HAL_GPIO_Init+0xcc>
 80017f2:	2b12      	cmp	r3, #18
 80017f4:	d859      	bhi.n	80018aa <HAL_GPIO_Init+0x12e>
 80017f6:	a201      	add	r2, pc, #4	; (adr r2, 80017fc <HAL_GPIO_Init+0x80>)
 80017f8:	f852 f023 	ldr.w	pc, [r2, r3, lsl #2]
 80017fc:	08001877 	.word	0x08001877
 8001800:	08001851 	.word	0x08001851
 8001804:	08001863 	.word	0x08001863
 8001808:	080018a5 	.word	0x080018a5
 800180c:	080018ab 	.word	0x080018ab
 8001810:	080018ab 	.word	0x080018ab
 8001814:	080018ab 	.word	0x080018ab
 8001818:	080018ab 	.word	0x080018ab
 800181c:	080018ab 	.word	0x080018ab
 8001820:	080018ab 	.word	0x080018ab
 8001824:	080018ab 	.word	0x080018ab
 8001828:	080018ab 	.word	0x080018ab
 800182c:	080018ab 	.word	0x080018ab
 8001830:	080018ab 	.word	0x080018ab
 8001834:	080018ab 	.word	0x080018ab
 8001838:	080018ab 	.word	0x080018ab
 800183c:	080018ab 	.word	0x080018ab
 8001840:	08001859 	.word	0x08001859
 8001844:	0800186d 	.word	0x0800186d
 8001848:	4a79      	ldr	r2, [pc, #484]	; (8001a30 <HAL_GPIO_Init+0x2b4>)
 800184a:	4293      	cmp	r3, r2
 800184c:	d013      	beq.n	8001876 <HAL_GPIO_Init+0xfa>
          config = GPIO_CR_MODE_INPUT + GPIO_CR_CNF_ANALOG;
          break;

        /* Parameters are checked with assert_param */
        default:
          break;
 800184e:	e02c      	b.n	80018aa <HAL_GPIO_Init+0x12e>
          config = GPIO_Init->Speed + GPIO_CR_CNF_GP_OUTPUT_PP;
 8001850:	683b      	ldr	r3, [r7, #0]
 8001852:	68db      	ldr	r3, [r3, #12]
 8001854:	623b      	str	r3, [r7, #32]
          break;
 8001856:	e029      	b.n	80018ac <HAL_GPIO_Init+0x130>
          config = GPIO_Init->Speed + GPIO_CR_CNF_GP_OUTPUT_OD;
 8001858:	683b      	ldr	r3, [r7, #0]
 800185a:	68db      	ldr	r3, [r3, #12]
 800185c:	3304      	adds	r3, #4
 800185e:	623b      	str	r3, [r7, #32]
          break;
 8001860:	e024      	b.n	80018ac <HAL_GPIO_Init+0x130>
          config = GPIO_Init->Speed + GPIO_CR_CNF_AF_OUTPUT_PP;
 8001862:	683b      	ldr	r3, [r7, #0]
 8001864:	68db      	ldr	r3, [r3, #12]
 8001866:	3308      	adds	r3, #8
 8001868:	623b      	str	r3, [r7, #32]
          break;
 800186a:	e01f      	b.n	80018ac <HAL_GPIO_Init+0x130>
          config = GPIO_Init->Speed + GPIO_CR_CNF_AF_OUTPUT_OD;
 800186c:	683b      	ldr	r3, [r7, #0]
 800186e:	68db      	ldr	r3, [r3, #12]
 8001870:	330c      	adds	r3, #12
 8001872:	623b      	str	r3, [r7, #32]
          break;
 8001874:	e01a      	b.n	80018ac <HAL_GPIO_Init+0x130>
          if (GPIO_Init->Pull == GPIO_NOPULL)
 8001876:	683b      	ldr	r3, [r7, #0]
 8001878:	689b      	ldr	r3, [r3, #8]
 800187a:	2b00      	cmp	r3, #0
 800187c:	d102      	bne.n	8001884 <HAL_GPIO_Init+0x108>
            config = GPIO_CR_MODE_INPUT + GPIO_CR_CNF_INPUT_FLOATING;
 800187e:	2304      	movs	r3, #4
 8001880:	623b      	str	r3, [r7, #32]
          break;
 8001882:	e013      	b.n	80018ac <HAL_GPIO_Init+0x130>
          else if (GPIO_Init->Pull == GPIO_PULLUP)
 8001884:	683b      	ldr	r3, [r7, #0]
 8001886:	689b      	ldr	r3, [r3, #8]
 8001888:	2b01      	cmp	r3, #1
 800188a:	d105      	bne.n	8001898 <HAL_GPIO_Init+0x11c>
            config = GPIO_CR_MODE_INPUT + GPIO_CR_CNF_INPUT_PU_PD;
 800188c:	2308      	movs	r3, #8
 800188e:	623b      	str	r3, [r7, #32]
            GPIOx->BSRR = ioposition;
 8001890:	687b      	ldr	r3, [r7, #4]
 8001892:	69fa      	ldr	r2, [r7, #28]
 8001894:	611a      	str	r2, [r3, #16]
          break;
 8001896:	e009      	b.n	80018ac <HAL_GPIO_Init+0x130>
            config = GPIO_CR_MODE_INPUT + GPIO_CR_CNF_INPUT_PU_PD;
 8001898:	2308      	movs	r3, #8
 800189a:	623b      	str	r3, [r7, #32]
            GPIOx->BRR = ioposition;
 800189c:	687b      	ldr	r3, [r7, #4]
 800189e:	69fa      	ldr	r2, [r7, #28]
 80018a0:	615a      	str	r2, [r3, #20]
          break;
 80018a2:	e003      	b.n	80018ac <HAL_GPIO_Init+0x130>
          config = GPIO_CR_MODE_INPUT + GPIO_CR_CNF_ANALOG;
 80018a4:	2300      	movs	r3, #0
 80018a6:	623b      	str	r3, [r7, #32]
          break;
 80018a8:	e000      	b.n	80018ac <HAL_GPIO_Init+0x130>
          break;
 80018aa:	bf00      	nop
      }

      /* Check if the current bit belongs to first half or last half of the pin count number
       in order to address CRH or CRL register*/
      configregister = (iocurrent < GPIO_PIN_8) ? &GPIOx->CRL     : &GPIOx->CRH;
 80018ac:	69bb      	ldr	r3, [r7, #24]
 80018ae:	2bff      	cmp	r3, #255	; 0xff
 80018b0:	d801      	bhi.n	80018b6 <HAL_GPIO_Init+0x13a>
 80018b2:	687b      	ldr	r3, [r7, #4]
 80018b4:	e001      	b.n	80018ba <HAL_GPIO_Init+0x13e>
 80018b6:	687b      	ldr	r3, [r7, #4]
 80018b8:	3304      	adds	r3, #4
 80018ba:	617b      	str	r3, [r7, #20]
      registeroffset = (iocurrent < GPIO_PIN_8) ? (position << 2u) : ((position - 8u) << 2u);
 80018bc:	69bb      	ldr	r3, [r7, #24]
 80018be:	2bff      	cmp	r3, #255	; 0xff
 80018c0:	d802      	bhi.n	80018c8 <HAL_GPIO_Init+0x14c>
 80018c2:	6a7b      	ldr	r3, [r7, #36]	; 0x24
 80018c4:	009b      	lsls	r3, r3, #2
 80018c6:	e002      	b.n	80018ce <HAL_GPIO_Init+0x152>
 80018c8:	6a7b      	ldr	r3, [r7, #36]	; 0x24
 80018ca:	3b08      	subs	r3, #8
 80018cc:	009b      	lsls	r3, r3, #2
 80018ce:	613b      	str	r3, [r7, #16]

      /* Apply the new configuration of the pin to the register */
      MODIFY_REG((*configregister), ((GPIO_CRL_MODE0 | GPIO_CRL_CNF0) << registeroffset), (config << registeroffset));
 80018d0:	697b      	ldr	r3, [r7, #20]
 80018d2:	681a      	ldr	r2, [r3, #0]
 80018d4:	210f      	movs	r1, #15
 80018d6:	693b      	ldr	r3, [r7, #16]
 80018d8:	fa01 f303 	lsl.w	r3, r1, r3
 80018dc:	43db      	mvns	r3, r3
 80018de:	401a      	ands	r2, r3
 80018e0:	6a39      	ldr	r1, [r7, #32]
 80018e2:	693b      	ldr	r3, [r7, #16]
 80018e4:	fa01 f303 	lsl.w	r3, r1, r3
 80018e8:	431a      	orrs	r2, r3
 80018ea:	697b      	ldr	r3, [r7, #20]
 80018ec:	601a      	str	r2, [r3, #0]

      /*--------------------- EXTI Mode Configuration ------------------------*/
      /* Configure the External Interrupt or event for the current IO */
      if ((GPIO_Init->Mode & EXTI_MODE) == EXTI_MODE)
 80018ee:	683b      	ldr	r3, [r7, #0]
 80018f0:	685b      	ldr	r3, [r3, #4]
 80018f2:	f003 5380 	and.w	r3, r3, #268435456	; 0x10000000
 80018f6:	2b00      	cmp	r3, #0
 80018f8:	f000 80b1 	beq.w	8001a5e <HAL_GPIO_Init+0x2e2>
      {
        /* Enable AFIO Clock */
        __HAL_RCC_AFIO_CLK_ENABLE();
 80018fc:	4b4d      	ldr	r3, [pc, #308]	; (8001a34 <HAL_GPIO_Init+0x2b8>)
 80018fe:	699b      	ldr	r3, [r3, #24]
 8001900:	4a4c      	ldr	r2, [pc, #304]	; (8001a34 <HAL_GPIO_Init+0x2b8>)
 8001902:	f043 0301 	orr.w	r3, r3, #1
 8001906:	6193      	str	r3, [r2, #24]
 8001908:	4b4a      	ldr	r3, [pc, #296]	; (8001a34 <HAL_GPIO_Init+0x2b8>)
 800190a:	699b      	ldr	r3, [r3, #24]
 800190c:	f003 0301 	and.w	r3, r3, #1
 8001910:	60bb      	str	r3, [r7, #8]
 8001912:	68bb      	ldr	r3, [r7, #8]
        temp = AFIO->EXTICR[position >> 2u];
 8001914:	4a48      	ldr	r2, [pc, #288]	; (8001a38 <HAL_GPIO_Init+0x2bc>)
 8001916:	6a7b      	ldr	r3, [r7, #36]	; 0x24
 8001918:	089b      	lsrs	r3, r3, #2
 800191a:	3302      	adds	r3, #2
 800191c:	f852 3023 	ldr.w	r3, [r2, r3, lsl #2]
 8001920:	60fb      	str	r3, [r7, #12]
        CLEAR_BIT(temp, (0x0Fu) << (4u * (position & 0x03u)));
 8001922:	6a7b      	ldr	r3, [r7, #36]	; 0x24
 8001924:	f003 0303 	and.w	r3, r3, #3
 8001928:	009b      	lsls	r3, r3, #2
 800192a:	220f      	movs	r2, #15
 800192c:	fa02 f303 	lsl.w	r3, r2, r3
 8001930:	43db      	mvns	r3, r3
 8001932:	68fa      	ldr	r2, [r7, #12]
 8001934:	4013      	ands	r3, r2
 8001936:	60fb      	str	r3, [r7, #12]
        SET_BIT(temp, (GPIO_GET_INDEX(GPIOx)) << (4u * (position & 0x03u)));
 8001938:	687b      	ldr	r3, [r7, #4]
 800193a:	4a40      	ldr	r2, [pc, #256]	; (8001a3c <HAL_GPIO_Init+0x2c0>)
 800193c:	4293      	cmp	r3, r2
 800193e:	d013      	beq.n	8001968 <HAL_GPIO_Init+0x1ec>
 8001940:	687b      	ldr	r3, [r7, #4]
 8001942:	4a3f      	ldr	r2, [pc, #252]	; (8001a40 <HAL_GPIO_Init+0x2c4>)
 8001944:	4293      	cmp	r3, r2
 8001946:	d00d      	beq.n	8001964 <HAL_GPIO_Init+0x1e8>
 8001948:	687b      	ldr	r3, [r7, #4]
 800194a:	4a3e      	ldr	r2, [pc, #248]	; (8001a44 <HAL_GPIO_Init+0x2c8>)
 800194c:	4293      	cmp	r3, r2
 800194e:	d007      	beq.n	8001960 <HAL_GPIO_Init+0x1e4>
 8001950:	687b      	ldr	r3, [r7, #4]
 8001952:	4a3d      	ldr	r2, [pc, #244]	; (8001a48 <HAL_GPIO_Init+0x2cc>)
 8001954:	4293      	cmp	r3, r2
 8001956:	d101      	bne.n	800195c <HAL_GPIO_Init+0x1e0>
 8001958:	2303      	movs	r3, #3
 800195a:	e006      	b.n	800196a <HAL_GPIO_Init+0x1ee>
 800195c:	2304      	movs	r3, #4
 800195e:	e004      	b.n	800196a <HAL_GPIO_Init+0x1ee>
 8001960:	2302      	movs	r3, #2
 8001962:	e002      	b.n	800196a <HAL_GPIO_Init+0x1ee>
 8001964:	2301      	movs	r3, #1
 8001966:	e000      	b.n	800196a <HAL_GPIO_Init+0x1ee>
 8001968:	2300      	movs	r3, #0
 800196a:	6a7a      	ldr	r2, [r7, #36]	; 0x24
 800196c:	f002 0203 	and.w	r2, r2, #3
 8001970:	0092      	lsls	r2, r2, #2
 8001972:	4093      	lsls	r3, r2
 8001974:	68fa      	ldr	r2, [r7, #12]
 8001976:	4313      	orrs	r3, r2
 8001978:	60fb      	str	r3, [r7, #12]
        AFIO->EXTICR[position >> 2u] = temp;
 800197a:	492f      	ldr	r1, [pc, #188]	; (8001a38 <HAL_GPIO_Init+0x2bc>)
 800197c:	6a7b      	ldr	r3, [r7, #36]	; 0x24
 800197e:	089b      	lsrs	r3, r3, #2
 8001980:	3302      	adds	r3, #2
 8001982:	68fa      	ldr	r2, [r7, #12]
 8001984:	f841 2023 	str.w	r2, [r1, r3, lsl #2]


        /* Configure the interrupt mask */
        if ((GPIO_Init->Mode & GPIO_MODE_IT) == GPIO_MODE_IT)
 8001988:	683b      	ldr	r3, [r7, #0]
 800198a:	685b      	ldr	r3, [r3, #4]
 800198c:	f403 3380 	and.w	r3, r3, #65536	; 0x10000
 8001990:	2b00      	cmp	r3, #0
 8001992:	d006      	beq.n	80019a2 <HAL_GPIO_Init+0x226>
        {
          SET_BIT(EXTI->IMR, iocurrent);
 8001994:	4b2d      	ldr	r3, [pc, #180]	; (8001a4c <HAL_GPIO_Init+0x2d0>)
 8001996:	681a      	ldr	r2, [r3, #0]
 8001998:	492c      	ldr	r1, [pc, #176]	; (8001a4c <HAL_GPIO_Init+0x2d0>)
 800199a:	69bb      	ldr	r3, [r7, #24]
 800199c:	4313      	orrs	r3, r2
 800199e:	600b      	str	r3, [r1, #0]
 80019a0:	e006      	b.n	80019b0 <HAL_GPIO_Init+0x234>
        }
        else
        {
          CLEAR_BIT(EXTI->IMR, iocurrent);
 80019a2:	4b2a      	ldr	r3, [pc, #168]	; (8001a4c <HAL_GPIO_Init+0x2d0>)
 80019a4:	681a      	ldr	r2, [r3, #0]
 80019a6:	69bb      	ldr	r3, [r7, #24]
 80019a8:	43db      	mvns	r3, r3
 80019aa:	4928      	ldr	r1, [pc, #160]	; (8001a4c <HAL_GPIO_Init+0x2d0>)
 80019ac:	4013      	ands	r3, r2
 80019ae:	600b      	str	r3, [r1, #0]
        }

        /* Configure the event mask */
        if ((GPIO_Init->Mode & GPIO_MODE_EVT) == GPIO_MODE_EVT)
 80019b0:	683b      	ldr	r3, [r7, #0]
 80019b2:	685b      	ldr	r3, [r3, #4]
 80019b4:	f403 3300 	and.w	r3, r3, #131072	; 0x20000
 80019b8:	2b00      	cmp	r3, #0
 80019ba:	d006      	beq.n	80019ca <HAL_GPIO_Init+0x24e>
        {
          SET_BIT(EXTI->EMR, iocurrent);
 80019bc:	4b23      	ldr	r3, [pc, #140]	; (8001a4c <HAL_GPIO_Init+0x2d0>)
 80019be:	685a      	ldr	r2, [r3, #4]
 80019c0:	4922      	ldr	r1, [pc, #136]	; (8001a4c <HAL_GPIO_Init+0x2d0>)
 80019c2:	69bb      	ldr	r3, [r7, #24]
 80019c4:	4313      	orrs	r3, r2
 80019c6:	604b      	str	r3, [r1, #4]
 80019c8:	e006      	b.n	80019d8 <HAL_GPIO_Init+0x25c>
        }
        else
        {
          CLEAR_BIT(EXTI->EMR, iocurrent);
 80019ca:	4b20      	ldr	r3, [pc, #128]	; (8001a4c <HAL_GPIO_Init+0x2d0>)
 80019cc:	685a      	ldr	r2, [r3, #4]
 80019ce:	69bb      	ldr	r3, [r7, #24]
 80019d0:	43db      	mvns	r3, r3
 80019d2:	491e      	ldr	r1, [pc, #120]	; (8001a4c <HAL_GPIO_Init+0x2d0>)
 80019d4:	4013      	ands	r3, r2
 80019d6:	604b      	str	r3, [r1, #4]
        }

        /* Enable or disable the rising trigger */
        if ((GPIO_Init->Mode & RISING_EDGE) == RISING_EDGE)
 80019d8:	683b      	ldr	r3, [r7, #0]
 80019da:	685b      	ldr	r3, [r3, #4]
 80019dc:	f403 1380 	and.w	r3, r3, #1048576	; 0x100000
 80019e0:	2b00      	cmp	r3, #0
 80019e2:	d006      	beq.n	80019f2 <HAL_GPIO_Init+0x276>
        {
          SET_BIT(EXTI->RTSR, iocurrent);
 80019e4:	4b19      	ldr	r3, [pc, #100]	; (8001a4c <HAL_GPIO_Init+0x2d0>)
 80019e6:	689a      	ldr	r2, [r3, #8]
 80019e8:	4918      	ldr	r1, [pc, #96]	; (8001a4c <HAL_GPIO_Init+0x2d0>)
 80019ea:	69bb      	ldr	r3, [r7, #24]
 80019ec:	4313      	orrs	r3, r2
 80019ee:	608b      	str	r3, [r1, #8]
 80019f0:	e006      	b.n	8001a00 <HAL_GPIO_Init+0x284>
        }
        else
        {
          CLEAR_BIT(EXTI->RTSR, iocurrent);
 80019f2:	4b16      	ldr	r3, [pc, #88]	; (8001a4c <HAL_GPIO_Init+0x2d0>)
 80019f4:	689a      	ldr	r2, [r3, #8]
 80019f6:	69bb      	ldr	r3, [r7, #24]
 80019f8:	43db      	mvns	r3, r3
 80019fa:	4914      	ldr	r1, [pc, #80]	; (8001a4c <HAL_GPIO_Init+0x2d0>)
 80019fc:	4013      	ands	r3, r2
 80019fe:	608b      	str	r3, [r1, #8]
        }

        /* Enable or disable the falling trigger */
        if ((GPIO_Init->Mode & FALLING_EDGE) == FALLING_EDGE)
 8001a00:	683b      	ldr	r3, [r7, #0]
 8001a02:	685b      	ldr	r3, [r3, #4]
 8001a04:	f403 1300 	and.w	r3, r3, #2097152	; 0x200000
 8001a08:	2b00      	cmp	r3, #0
 8001a0a:	d021      	beq.n	8001a50 <HAL_GPIO_Init+0x2d4>
        {
          SET_BIT(EXTI->FTSR, iocurrent);
 8001a0c:	4b0f      	ldr	r3, [pc, #60]	; (8001a4c <HAL_GPIO_Init+0x2d0>)
 8001a0e:	68da      	ldr	r2, [r3, #12]
 8001a10:	490e      	ldr	r1, [pc, #56]	; (8001a4c <HAL_GPIO_Init+0x2d0>)
 8001a12:	69bb      	ldr	r3, [r7, #24]
 8001a14:	4313      	orrs	r3, r2
 8001a16:	60cb      	str	r3, [r1, #12]
 8001a18:	e021      	b.n	8001a5e <HAL_GPIO_Init+0x2e2>
 8001a1a:	bf00      	nop
 8001a1c:	10320000 	.word	0x10320000
 8001a20:	10310000 	.word	0x10310000
 8001a24:	10220000 	.word	0x10220000
 8001a28:	10210000 	.word	0x10210000
 8001a2c:	10120000 	.word	0x10120000
 8001a30:	10110000 	.word	0x10110000
 8001a34:	40021000 	.word	0x40021000
 8001a38:	40010000 	.word	0x40010000
 8001a3c:	40010800 	.word	0x40010800
 8001a40:	40010c00 	.word	0x40010c00
 8001a44:	40011000 	.word	0x40011000
 8001a48:	40011400 	.word	0x40011400
 8001a4c:	40010400 	.word	0x40010400
        }
        else
        {
          CLEAR_BIT(EXTI->FTSR, iocurrent);
 8001a50:	4b0b      	ldr	r3, [pc, #44]	; (8001a80 <HAL_GPIO_Init+0x304>)
 8001a52:	68da      	ldr	r2, [r3, #12]
 8001a54:	69bb      	ldr	r3, [r7, #24]
 8001a56:	43db      	mvns	r3, r3
 8001a58:	4909      	ldr	r1, [pc, #36]	; (8001a80 <HAL_GPIO_Init+0x304>)
 8001a5a:	4013      	ands	r3, r2
 8001a5c:	60cb      	str	r3, [r1, #12]
        }
      }
    }

	position++;
 8001a5e:	6a7b      	ldr	r3, [r7, #36]	; 0x24
 8001a60:	3301      	adds	r3, #1
 8001a62:	627b      	str	r3, [r7, #36]	; 0x24
  while (((GPIO_Init->Pin) >> position) != 0x00u)
 8001a64:	683b      	ldr	r3, [r7, #0]
 8001a66:	681a      	ldr	r2, [r3, #0]
 8001a68:	6a7b      	ldr	r3, [r7, #36]	; 0x24
 8001a6a:	fa22 f303 	lsr.w	r3, r2, r3
 8001a6e:	2b00      	cmp	r3, #0
 8001a70:	f47f ae8e 	bne.w	8001790 <HAL_GPIO_Init+0x14>
  }
}
 8001a74:	bf00      	nop
 8001a76:	bf00      	nop
 8001a78:	372c      	adds	r7, #44	; 0x2c
 8001a7a:	46bd      	mov	sp, r7
 8001a7c:	bc80      	pop	{r7}
 8001a7e:	4770      	bx	lr
 8001a80:	40010400 	.word	0x40010400

08001a84 <HAL_GPIO_WritePin>:
  *            @arg GPIO_PIN_RESET: to clear the port pin
  *            @arg GPIO_PIN_SET: to set the port pin
  * @retval None
  */
void HAL_GPIO_WritePin(GPIO_TypeDef *GPIOx, uint16_t GPIO_Pin, GPIO_PinState PinState)
{
 8001a84:	b480      	push	{r7}
 8001a86:	b083      	sub	sp, #12
 8001a88:	af00      	add	r7, sp, #0
 8001a8a:	6078      	str	r0, [r7, #4]
 8001a8c:	460b      	mov	r3, r1
 8001a8e:	807b      	strh	r3, [r7, #2]
 8001a90:	4613      	mov	r3, r2
 8001a92:	707b      	strb	r3, [r7, #1]
  /* Check the parameters */
  assert_param(IS_GPIO_PIN(GPIO_Pin));
  assert_param(IS_GPIO_PIN_ACTION(PinState));

  if (PinState != GPIO_PIN_RESET)
 8001a94:	787b      	ldrb	r3, [r7, #1]
 8001a96:	2b00      	cmp	r3, #0
 8001a98:	d003      	beq.n	8001aa2 <HAL_GPIO_WritePin+0x1e>
  {
    GPIOx->BSRR = GPIO_Pin;
 8001a9a:	887a      	ldrh	r2, [r7, #2]
 8001a9c:	687b      	ldr	r3, [r7, #4]
 8001a9e:	611a      	str	r2, [r3, #16]
  }
  else
  {
    GPIOx->BSRR = (uint32_t)GPIO_Pin << 16u;
  }
}
 8001aa0:	e003      	b.n	8001aaa <HAL_GPIO_WritePin+0x26>
    GPIOx->BSRR = (uint32_t)GPIO_Pin << 16u;
 8001aa2:	887b      	ldrh	r3, [r7, #2]
 8001aa4:	041a      	lsls	r2, r3, #16
 8001aa6:	687b      	ldr	r3, [r7, #4]
 8001aa8:	611a      	str	r2, [r3, #16]
}
 8001aaa:	bf00      	nop
 8001aac:	370c      	adds	r7, #12
 8001aae:	46bd      	mov	sp, r7
 8001ab0:	bc80      	pop	{r7}
 8001ab2:	4770      	bx	lr

08001ab4 <HAL_RCC_OscConfig>:
  *         supported by this macro. User should request a transition to HSE Off
  *         first and then HSE On or HSE Bypass.
  * @retval HAL status
  */
HAL_StatusTypeDef HAL_RCC_OscConfig(RCC_OscInitTypeDef  *RCC_OscInitStruct)
{
 8001ab4:	b580      	push	{r7, lr}
 8001ab6:	b086      	sub	sp, #24
 8001ab8:	af00      	add	r7, sp, #0
 8001aba:	6078      	str	r0, [r7, #4]
  uint32_t tickstart;
  uint32_t pll_config;

  /* Check Null pointer */
  if (RCC_OscInitStruct == NULL)
 8001abc:	687b      	ldr	r3, [r7, #4]
 8001abe:	2b00      	cmp	r3, #0
 8001ac0:	d101      	bne.n	8001ac6 <HAL_RCC_OscConfig+0x12>
  {
    return HAL_ERROR;
 8001ac2:	2301      	movs	r3, #1
 8001ac4:	e26c      	b.n	8001fa0 <HAL_RCC_OscConfig+0x4ec>

  /* Check the parameters */
  assert_param(IS_RCC_OSCILLATORTYPE(RCC_OscInitStruct->OscillatorType));

  /*------------------------------- HSE Configuration ------------------------*/
  if (((RCC_OscInitStruct->OscillatorType) & RCC_OSCILLATORTYPE_HSE) == RCC_OSCILLATORTYPE_HSE)
 8001ac6:	687b      	ldr	r3, [r7, #4]
 8001ac8:	681b      	ldr	r3, [r3, #0]
 8001aca:	f003 0301 	and.w	r3, r3, #1
 8001ace:	2b00      	cmp	r3, #0
 8001ad0:	f000 8087 	beq.w	8001be2 <HAL_RCC_OscConfig+0x12e>
  {
    /* Check the parameters */
    assert_param(IS_RCC_HSE(RCC_OscInitStruct->HSEState));

    /* When the HSE is used as system clock or clock source for PLL in these cases it is not allowed to be disabled */
    if ((__HAL_RCC_GET_SYSCLK_SOURCE() == RCC_SYSCLKSOURCE_STATUS_HSE)
 8001ad4:	4b92      	ldr	r3, [pc, #584]	; (8001d20 <HAL_RCC_OscConfig+0x26c>)
 8001ad6:	685b      	ldr	r3, [r3, #4]
 8001ad8:	f003 030c 	and.w	r3, r3, #12
 8001adc:	2b04      	cmp	r3, #4
 8001ade:	d00c      	beq.n	8001afa <HAL_RCC_OscConfig+0x46>
        || ((__HAL_RCC_GET_SYSCLK_SOURCE() == RCC_SYSCLKSOURCE_STATUS_PLLCLK) && (__HAL_RCC_GET_PLL_OSCSOURCE() == RCC_PLLSOURCE_HSE)))
 8001ae0:	4b8f      	ldr	r3, [pc, #572]	; (8001d20 <HAL_RCC_OscConfig+0x26c>)
 8001ae2:	685b      	ldr	r3, [r3, #4]
 8001ae4:	f003 030c 	and.w	r3, r3, #12
 8001ae8:	2b08      	cmp	r3, #8
 8001aea:	d112      	bne.n	8001b12 <HAL_RCC_OscConfig+0x5e>
 8001aec:	4b8c      	ldr	r3, [pc, #560]	; (8001d20 <HAL_RCC_OscConfig+0x26c>)
 8001aee:	685b      	ldr	r3, [r3, #4]
 8001af0:	f403 3380 	and.w	r3, r3, #65536	; 0x10000
 8001af4:	f5b3 3f80 	cmp.w	r3, #65536	; 0x10000
 8001af8:	d10b      	bne.n	8001b12 <HAL_RCC_OscConfig+0x5e>
    {
      if ((__HAL_RCC_GET_FLAG(RCC_FLAG_HSERDY) != RESET) && (RCC_OscInitStruct->HSEState == RCC_HSE_OFF))
 8001afa:	4b89      	ldr	r3, [pc, #548]	; (8001d20 <HAL_RCC_OscConfig+0x26c>)
 8001afc:	681b      	ldr	r3, [r3, #0]
 8001afe:	f403 3300 	and.w	r3, r3, #131072	; 0x20000
 8001b02:	2b00      	cmp	r3, #0
 8001b04:	d06c      	beq.n	8001be0 <HAL_RCC_OscConfig+0x12c>
 8001b06:	687b      	ldr	r3, [r7, #4]
 8001b08:	685b      	ldr	r3, [r3, #4]
 8001b0a:	2b00      	cmp	r3, #0
 8001b0c:	d168      	bne.n	8001be0 <HAL_RCC_OscConfig+0x12c>
      {
        return HAL_ERROR;
 8001b0e:	2301      	movs	r3, #1
 8001b10:	e246      	b.n	8001fa0 <HAL_RCC_OscConfig+0x4ec>
      }
    }
    else
    {
      /* Set the new HSE configuration ---------------------------------------*/
      __HAL_RCC_HSE_CONFIG(RCC_OscInitStruct->HSEState);
 8001b12:	687b      	ldr	r3, [r7, #4]
 8001b14:	685b      	ldr	r3, [r3, #4]
 8001b16:	f5b3 3f80 	cmp.w	r3, #65536	; 0x10000
 8001b1a:	d106      	bne.n	8001b2a <HAL_RCC_OscConfig+0x76>
 8001b1c:	4b80      	ldr	r3, [pc, #512]	; (8001d20 <HAL_RCC_OscConfig+0x26c>)
 8001b1e:	681b      	ldr	r3, [r3, #0]
 8001b20:	4a7f      	ldr	r2, [pc, #508]	; (8001d20 <HAL_RCC_OscConfig+0x26c>)
 8001b22:	f443 3380 	orr.w	r3, r3, #65536	; 0x10000
 8001b26:	6013      	str	r3, [r2, #0]
 8001b28:	e02e      	b.n	8001b88 <HAL_RCC_OscConfig+0xd4>
 8001b2a:	687b      	ldr	r3, [r7, #4]
 8001b2c:	685b      	ldr	r3, [r3, #4]
 8001b2e:	2b00      	cmp	r3, #0
 8001b30:	d10c      	bne.n	8001b4c <HAL_RCC_OscConfig+0x98>
 8001b32:	4b7b      	ldr	r3, [pc, #492]	; (8001d20 <HAL_RCC_OscConfig+0x26c>)
 8001b34:	681b      	ldr	r3, [r3, #0]
 8001b36:	4a7a      	ldr	r2, [pc, #488]	; (8001d20 <HAL_RCC_OscConfig+0x26c>)
 8001b38:	f423 3380 	bic.w	r3, r3, #65536	; 0x10000
 8001b3c:	6013      	str	r3, [r2, #0]
 8001b3e:	4b78      	ldr	r3, [pc, #480]	; (8001d20 <HAL_RCC_OscConfig+0x26c>)
 8001b40:	681b      	ldr	r3, [r3, #0]
 8001b42:	4a77      	ldr	r2, [pc, #476]	; (8001d20 <HAL_RCC_OscConfig+0x26c>)
 8001b44:	f423 2380 	bic.w	r3, r3, #262144	; 0x40000
 8001b48:	6013      	str	r3, [r2, #0]
 8001b4a:	e01d      	b.n	8001b88 <HAL_RCC_OscConfig+0xd4>
 8001b4c:	687b      	ldr	r3, [r7, #4]
 8001b4e:	685b      	ldr	r3, [r3, #4]
 8001b50:	f5b3 2fa0 	cmp.w	r3, #327680	; 0x50000
 8001b54:	d10c      	bne.n	8001b70 <HAL_RCC_OscConfig+0xbc>
 8001b56:	4b72      	ldr	r3, [pc, #456]	; (8001d20 <HAL_RCC_OscConfig+0x26c>)
 8001b58:	681b      	ldr	r3, [r3, #0]
 8001b5a:	4a71      	ldr	r2, [pc, #452]	; (8001d20 <HAL_RCC_OscConfig+0x26c>)
 8001b5c:	f443 2380 	orr.w	r3, r3, #262144	; 0x40000
 8001b60:	6013      	str	r3, [r2, #0]
 8001b62:	4b6f      	ldr	r3, [pc, #444]	; (8001d20 <HAL_RCC_OscConfig+0x26c>)
 8001b64:	681b      	ldr	r3, [r3, #0]
 8001b66:	4a6e      	ldr	r2, [pc, #440]	; (8001d20 <HAL_RCC_OscConfig+0x26c>)
 8001b68:	f443 3380 	orr.w	r3, r3, #65536	; 0x10000
 8001b6c:	6013      	str	r3, [r2, #0]
 8001b6e:	e00b      	b.n	8001b88 <HAL_RCC_OscConfig+0xd4>
 8001b70:	4b6b      	ldr	r3, [pc, #428]	; (8001d20 <HAL_RCC_OscConfig+0x26c>)
 8001b72:	681b      	ldr	r3, [r3, #0]
 8001b74:	4a6a      	ldr	r2, [pc, #424]	; (8001d20 <HAL_RCC_OscConfig+0x26c>)
 8001b76:	f423 3380 	bic.w	r3, r3, #65536	; 0x10000
 8001b7a:	6013      	str	r3, [r2, #0]
 8001b7c:	4b68      	ldr	r3, [pc, #416]	; (8001d20 <HAL_RCC_OscConfig+0x26c>)
 8001b7e:	681b      	ldr	r3, [r3, #0]
 8001b80:	4a67      	ldr	r2, [pc, #412]	; (8001d20 <HAL_RCC_OscConfig+0x26c>)
 8001b82:	f423 2380 	bic.w	r3, r3, #262144	; 0x40000
 8001b86:	6013      	str	r3, [r2, #0]


      /* Check the HSE State */
      if (RCC_OscInitStruct->HSEState != RCC_HSE_OFF)
 8001b88:	687b      	ldr	r3, [r7, #4]
 8001b8a:	685b      	ldr	r3, [r3, #4]
 8001b8c:	2b00      	cmp	r3, #0
 8001b8e:	d013      	beq.n	8001bb8 <HAL_RCC_OscConfig+0x104>
      {
        /* Get Start Tick */
        tickstart = HAL_GetTick();
 8001b90:	f7ff fc42 	bl	8001418 <HAL_GetTick>
 8001b94:	6138      	str	r0, [r7, #16]

        /* Wait till HSE is ready */
        while (__HAL_RCC_GET_FLAG(RCC_FLAG_HSERDY) == RESET)
 8001b96:	e008      	b.n	8001baa <HAL_RCC_OscConfig+0xf6>
        {
          if ((HAL_GetTick() - tickstart) > HSE_TIMEOUT_VALUE)
 8001b98:	f7ff fc3e 	bl	8001418 <HAL_GetTick>
 8001b9c:	4602      	mov	r2, r0
 8001b9e:	693b      	ldr	r3, [r7, #16]
 8001ba0:	1ad3      	subs	r3, r2, r3
 8001ba2:	2b64      	cmp	r3, #100	; 0x64
 8001ba4:	d901      	bls.n	8001baa <HAL_RCC_OscConfig+0xf6>
          {
            return HAL_TIMEOUT;
 8001ba6:	2303      	movs	r3, #3
 8001ba8:	e1fa      	b.n	8001fa0 <HAL_RCC_OscConfig+0x4ec>
        while (__HAL_RCC_GET_FLAG(RCC_FLAG_HSERDY) == RESET)
 8001baa:	4b5d      	ldr	r3, [pc, #372]	; (8001d20 <HAL_RCC_OscConfig+0x26c>)
 8001bac:	681b      	ldr	r3, [r3, #0]
 8001bae:	f403 3300 	and.w	r3, r3, #131072	; 0x20000
 8001bb2:	2b00      	cmp	r3, #0
 8001bb4:	d0f0      	beq.n	8001b98 <HAL_RCC_OscConfig+0xe4>
 8001bb6:	e014      	b.n	8001be2 <HAL_RCC_OscConfig+0x12e>
        }
      }
      else
      {
        /* Get Start Tick */
        tickstart = HAL_GetTick();
 8001bb8:	f7ff fc2e 	bl	8001418 <HAL_GetTick>
 8001bbc:	6138      	str	r0, [r7, #16]

        /* Wait till HSE is disabled */
        while (__HAL_RCC_GET_FLAG(RCC_FLAG_HSERDY) != RESET)
 8001bbe:	e008      	b.n	8001bd2 <HAL_RCC_OscConfig+0x11e>
        {
          if ((HAL_GetTick() - tickstart) > HSE_TIMEOUT_VALUE)
 8001bc0:	f7ff fc2a 	bl	8001418 <HAL_GetTick>
 8001bc4:	4602      	mov	r2, r0
 8001bc6:	693b      	ldr	r3, [r7, #16]
 8001bc8:	1ad3      	subs	r3, r2, r3
 8001bca:	2b64      	cmp	r3, #100	; 0x64
 8001bcc:	d901      	bls.n	8001bd2 <HAL_RCC_OscConfig+0x11e>
          {
            return HAL_TIMEOUT;
 8001bce:	2303      	movs	r3, #3
 8001bd0:	e1e6      	b.n	8001fa0 <HAL_RCC_OscConfig+0x4ec>
        while (__HAL_RCC_GET_FLAG(RCC_FLAG_HSERDY) != RESET)
 8001bd2:	4b53      	ldr	r3, [pc, #332]	; (8001d20 <HAL_RCC_OscConfig+0x26c>)
 8001bd4:	681b      	ldr	r3, [r3, #0]
 8001bd6:	f403 3300 	and.w	r3, r3, #131072	; 0x20000
 8001bda:	2b00      	cmp	r3, #0
 8001bdc:	d1f0      	bne.n	8001bc0 <HAL_RCC_OscConfig+0x10c>
 8001bde:	e000      	b.n	8001be2 <HAL_RCC_OscConfig+0x12e>
      if ((__HAL_RCC_GET_FLAG(RCC_FLAG_HSERDY) != RESET) && (RCC_OscInitStruct->HSEState == RCC_HSE_OFF))
 8001be0:	bf00      	nop
        }
      }
    }
  }
  /*----------------------------- HSI Configuration --------------------------*/
  if (((RCC_OscInitStruct->OscillatorType) & RCC_OSCILLATORTYPE_HSI) == RCC_OSCILLATORTYPE_HSI)
 8001be2:	687b      	ldr	r3, [r7, #4]
 8001be4:	681b      	ldr	r3, [r3, #0]
 8001be6:	f003 0302 	and.w	r3, r3, #2
 8001bea:	2b00      	cmp	r3, #0
 8001bec:	d063      	beq.n	8001cb6 <HAL_RCC_OscConfig+0x202>
    /* Check the parameters */
    assert_param(IS_RCC_HSI(RCC_OscInitStruct->HSIState));
    assert_param(IS_RCC_CALIBRATION_VALUE(RCC_OscInitStruct->HSICalibrationValue));

    /* Check if HSI is used as system clock or as PLL source when PLL is selected as system clock */
    if ((__HAL_RCC_GET_SYSCLK_SOURCE() == RCC_SYSCLKSOURCE_STATUS_HSI)
 8001bee:	4b4c      	ldr	r3, [pc, #304]	; (8001d20 <HAL_RCC_OscConfig+0x26c>)
 8001bf0:	685b      	ldr	r3, [r3, #4]
 8001bf2:	f003 030c 	and.w	r3, r3, #12
 8001bf6:	2b00      	cmp	r3, #0
 8001bf8:	d00b      	beq.n	8001c12 <HAL_RCC_OscConfig+0x15e>
        || ((__HAL_RCC_GET_SYSCLK_SOURCE() == RCC_SYSCLKSOURCE_STATUS_PLLCLK) && (__HAL_RCC_GET_PLL_OSCSOURCE() == RCC_PLLSOURCE_HSI_DIV2)))
 8001bfa:	4b49      	ldr	r3, [pc, #292]	; (8001d20 <HAL_RCC_OscConfig+0x26c>)
 8001bfc:	685b      	ldr	r3, [r3, #4]
 8001bfe:	f003 030c 	and.w	r3, r3, #12
 8001c02:	2b08      	cmp	r3, #8
 8001c04:	d11c      	bne.n	8001c40 <HAL_RCC_OscConfig+0x18c>
 8001c06:	4b46      	ldr	r3, [pc, #280]	; (8001d20 <HAL_RCC_OscConfig+0x26c>)
 8001c08:	685b      	ldr	r3, [r3, #4]
 8001c0a:	f403 3380 	and.w	r3, r3, #65536	; 0x10000
 8001c0e:	2b00      	cmp	r3, #0
 8001c10:	d116      	bne.n	8001c40 <HAL_RCC_OscConfig+0x18c>
    {
      /* When HSI is used as system clock it will not disabled */
      if ((__HAL_RCC_GET_FLAG(RCC_FLAG_HSIRDY) != RESET) && (RCC_OscInitStruct->HSIState != RCC_HSI_ON))
 8001c12:	4b43      	ldr	r3, [pc, #268]	; (8001d20 <HAL_RCC_OscConfig+0x26c>)
 8001c14:	681b      	ldr	r3, [r3, #0]
 8001c16:	f003 0302 	and.w	r3, r3, #2
 8001c1a:	2b00      	cmp	r3, #0
 8001c1c:	d005      	beq.n	8001c2a <HAL_RCC_OscConfig+0x176>
 8001c1e:	687b      	ldr	r3, [r7, #4]
 8001c20:	691b      	ldr	r3, [r3, #16]
 8001c22:	2b01      	cmp	r3, #1
 8001c24:	d001      	beq.n	8001c2a <HAL_RCC_OscConfig+0x176>
      {
        return HAL_ERROR;
 8001c26:	2301      	movs	r3, #1
 8001c28:	e1ba      	b.n	8001fa0 <HAL_RCC_OscConfig+0x4ec>
      }
      /* Otherwise, just the calibration is allowed */
      else
      {
        /* Adjusts the Internal High Speed oscillator (HSI) calibration value.*/
        __HAL_RCC_HSI_CALIBRATIONVALUE_ADJUST(RCC_OscInitStruct->HSICalibrationValue);
 8001c2a:	4b3d      	ldr	r3, [pc, #244]	; (8001d20 <HAL_RCC_OscConfig+0x26c>)
 8001c2c:	681b      	ldr	r3, [r3, #0]
 8001c2e:	f023 02f8 	bic.w	r2, r3, #248	; 0xf8
 8001c32:	687b      	ldr	r3, [r7, #4]
 8001c34:	695b      	ldr	r3, [r3, #20]
 8001c36:	00db      	lsls	r3, r3, #3
 8001c38:	4939      	ldr	r1, [pc, #228]	; (8001d20 <HAL_RCC_OscConfig+0x26c>)
 8001c3a:	4313      	orrs	r3, r2
 8001c3c:	600b      	str	r3, [r1, #0]
      if ((__HAL_RCC_GET_FLAG(RCC_FLAG_HSIRDY) != RESET) && (RCC_OscInitStruct->HSIState != RCC_HSI_ON))
 8001c3e:	e03a      	b.n	8001cb6 <HAL_RCC_OscConfig+0x202>
      }
    }
    else
    {
      /* Check the HSI State */
      if (RCC_OscInitStruct->HSIState != RCC_HSI_OFF)
 8001c40:	687b      	ldr	r3, [r7, #4]
 8001c42:	691b      	ldr	r3, [r3, #16]
 8001c44:	2b00      	cmp	r3, #0
 8001c46:	d020      	beq.n	8001c8a <HAL_RCC_OscConfig+0x1d6>
      {
        /* Enable the Internal High Speed oscillator (HSI). */
        __HAL_RCC_HSI_ENABLE();
 8001c48:	4b36      	ldr	r3, [pc, #216]	; (8001d24 <HAL_RCC_OscConfig+0x270>)
 8001c4a:	2201      	movs	r2, #1
 8001c4c:	601a      	str	r2, [r3, #0]

        /* Get Start Tick */
        tickstart = HAL_GetTick();
 8001c4e:	f7ff fbe3 	bl	8001418 <HAL_GetTick>
 8001c52:	6138      	str	r0, [r7, #16]

        /* Wait till HSI is ready */
        while (__HAL_RCC_GET_FLAG(RCC_FLAG_HSIRDY) == RESET)
 8001c54:	e008      	b.n	8001c68 <HAL_RCC_OscConfig+0x1b4>
        {
          if ((HAL_GetTick() - tickstart) > HSI_TIMEOUT_VALUE)
 8001c56:	f7ff fbdf 	bl	8001418 <HAL_GetTick>
 8001c5a:	4602      	mov	r2, r0
 8001c5c:	693b      	ldr	r3, [r7, #16]
 8001c5e:	1ad3      	subs	r3, r2, r3
 8001c60:	2b02      	cmp	r3, #2
 8001c62:	d901      	bls.n	8001c68 <HAL_RCC_OscConfig+0x1b4>
          {
            return HAL_TIMEOUT;
 8001c64:	2303      	movs	r3, #3
 8001c66:	e19b      	b.n	8001fa0 <HAL_RCC_OscConfig+0x4ec>
        while (__HAL_RCC_GET_FLAG(RCC_FLAG_HSIRDY) == RESET)
 8001c68:	4b2d      	ldr	r3, [pc, #180]	; (8001d20 <HAL_RCC_OscConfig+0x26c>)
 8001c6a:	681b      	ldr	r3, [r3, #0]
 8001c6c:	f003 0302 	and.w	r3, r3, #2
 8001c70:	2b00      	cmp	r3, #0
 8001c72:	d0f0      	beq.n	8001c56 <HAL_RCC_OscConfig+0x1a2>
          }
        }

        /* Adjusts the Internal High Speed oscillator (HSI) calibration value.*/
        __HAL_RCC_HSI_CALIBRATIONVALUE_ADJUST(RCC_OscInitStruct->HSICalibrationValue);
 8001c74:	4b2a      	ldr	r3, [pc, #168]	; (8001d20 <HAL_RCC_OscConfig+0x26c>)
 8001c76:	681b      	ldr	r3, [r3, #0]
 8001c78:	f023 02f8 	bic.w	r2, r3, #248	; 0xf8
 8001c7c:	687b      	ldr	r3, [r7, #4]
 8001c7e:	695b      	ldr	r3, [r3, #20]
 8001c80:	00db      	lsls	r3, r3, #3
 8001c82:	4927      	ldr	r1, [pc, #156]	; (8001d20 <HAL_RCC_OscConfig+0x26c>)
 8001c84:	4313      	orrs	r3, r2
 8001c86:	600b      	str	r3, [r1, #0]
 8001c88:	e015      	b.n	8001cb6 <HAL_RCC_OscConfig+0x202>
      }
      else
      {
        /* Disable the Internal High Speed oscillator (HSI). */
        __HAL_RCC_HSI_DISABLE();
 8001c8a:	4b26      	ldr	r3, [pc, #152]	; (8001d24 <HAL_RCC_OscConfig+0x270>)
 8001c8c:	2200      	movs	r2, #0
 8001c8e:	601a      	str	r2, [r3, #0]

        /* Get Start Tick */
        tickstart = HAL_GetTick();
 8001c90:	f7ff fbc2 	bl	8001418 <HAL_GetTick>
 8001c94:	6138      	str	r0, [r7, #16]

        /* Wait till HSI is disabled */
        while (__HAL_RCC_GET_FLAG(RCC_FLAG_HSIRDY) != RESET)
 8001c96:	e008      	b.n	8001caa <HAL_RCC_OscConfig+0x1f6>
        {
          if ((HAL_GetTick() - tickstart) > HSI_TIMEOUT_VALUE)
 8001c98:	f7ff fbbe 	bl	8001418 <HAL_GetTick>
 8001c9c:	4602      	mov	r2, r0
 8001c9e:	693b      	ldr	r3, [r7, #16]
 8001ca0:	1ad3      	subs	r3, r2, r3
 8001ca2:	2b02      	cmp	r3, #2
 8001ca4:	d901      	bls.n	8001caa <HAL_RCC_OscConfig+0x1f6>
          {
            return HAL_TIMEOUT;
 8001ca6:	2303      	movs	r3, #3
 8001ca8:	e17a      	b.n	8001fa0 <HAL_RCC_OscConfig+0x4ec>
        while (__HAL_RCC_GET_FLAG(RCC_FLAG_HSIRDY) != RESET)
 8001caa:	4b1d      	ldr	r3, [pc, #116]	; (8001d20 <HAL_RCC_OscConfig+0x26c>)
 8001cac:	681b      	ldr	r3, [r3, #0]
 8001cae:	f003 0302 	and.w	r3, r3, #2
 8001cb2:	2b00      	cmp	r3, #0
 8001cb4:	d1f0      	bne.n	8001c98 <HAL_RCC_OscConfig+0x1e4>
        }
      }
    }
  }
  /*------------------------------ LSI Configuration -------------------------*/
  if (((RCC_OscInitStruct->OscillatorType) & RCC_OSCILLATORTYPE_LSI) == RCC_OSCILLATORTYPE_LSI)
 8001cb6:	687b      	ldr	r3, [r7, #4]
 8001cb8:	681b      	ldr	r3, [r3, #0]
 8001cba:	f003 0308 	and.w	r3, r3, #8
 8001cbe:	2b00      	cmp	r3, #0
 8001cc0:	d03a      	beq.n	8001d38 <HAL_RCC_OscConfig+0x284>
  {
    /* Check the parameters */
    assert_param(IS_RCC_LSI(RCC_OscInitStruct->LSIState));

    /* Check the LSI State */
    if (RCC_OscInitStruct->LSIState != RCC_LSI_OFF)
 8001cc2:	687b      	ldr	r3, [r7, #4]
 8001cc4:	699b      	ldr	r3, [r3, #24]
 8001cc6:	2b00      	cmp	r3, #0
 8001cc8:	d019      	beq.n	8001cfe <HAL_RCC_OscConfig+0x24a>
    {
      /* Enable the Internal Low Speed oscillator (LSI). */
      __HAL_RCC_LSI_ENABLE();
 8001cca:	4b17      	ldr	r3, [pc, #92]	; (8001d28 <HAL_RCC_OscConfig+0x274>)
 8001ccc:	2201      	movs	r2, #1
 8001cce:	601a      	str	r2, [r3, #0]

      /* Get Start Tick */
      tickstart = HAL_GetTick();
 8001cd0:	f7ff fba2 	bl	8001418 <HAL_GetTick>
 8001cd4:	6138      	str	r0, [r7, #16]

      /* Wait till LSI is ready */
      while (__HAL_RCC_GET_FLAG(RCC_FLAG_LSIRDY) == RESET)
 8001cd6:	e008      	b.n	8001cea <HAL_RCC_OscConfig+0x236>
      {
        if ((HAL_GetTick() - tickstart) > LSI_TIMEOUT_VALUE)
 8001cd8:	f7ff fb9e 	bl	8001418 <HAL_GetTick>
 8001cdc:	4602      	mov	r2, r0
 8001cde:	693b      	ldr	r3, [r7, #16]
 8001ce0:	1ad3      	subs	r3, r2, r3
 8001ce2:	2b02      	cmp	r3, #2
 8001ce4:	d901      	bls.n	8001cea <HAL_RCC_OscConfig+0x236>
        {
          return HAL_TIMEOUT;
 8001ce6:	2303      	movs	r3, #3
 8001ce8:	e15a      	b.n	8001fa0 <HAL_RCC_OscConfig+0x4ec>
      while (__HAL_RCC_GET_FLAG(RCC_FLAG_LSIRDY) == RESET)
 8001cea:	4b0d      	ldr	r3, [pc, #52]	; (8001d20 <HAL_RCC_OscConfig+0x26c>)
 8001cec:	6a5b      	ldr	r3, [r3, #36]	; 0x24
 8001cee:	f003 0302 	and.w	r3, r3, #2
 8001cf2:	2b00      	cmp	r3, #0
 8001cf4:	d0f0      	beq.n	8001cd8 <HAL_RCC_OscConfig+0x224>
        }
      }
      /*  To have a fully stabilized clock in the specified range, a software delay of 1ms
          should be added.*/
      RCC_Delay(1);
 8001cf6:	2001      	movs	r0, #1
 8001cf8:	f000 fad8 	bl	80022ac <RCC_Delay>
 8001cfc:	e01c      	b.n	8001d38 <HAL_RCC_OscConfig+0x284>
    }
    else
    {
      /* Disable the Internal Low Speed oscillator (LSI). */
      __HAL_RCC_LSI_DISABLE();
 8001cfe:	4b0a      	ldr	r3, [pc, #40]	; (8001d28 <HAL_RCC_OscConfig+0x274>)
 8001d00:	2200      	movs	r2, #0
 8001d02:	601a      	str	r2, [r3, #0]

      /* Get Start Tick */
      tickstart = HAL_GetTick();
 8001d04:	f7ff fb88 	bl	8001418 <HAL_GetTick>
 8001d08:	6138      	str	r0, [r7, #16]

      /* Wait till LSI is disabled */
      while (__HAL_RCC_GET_FLAG(RCC_FLAG_LSIRDY) != RESET)
 8001d0a:	e00f      	b.n	8001d2c <HAL_RCC_OscConfig+0x278>
      {
        if ((HAL_GetTick() - tickstart) > LSI_TIMEOUT_VALUE)
 8001d0c:	f7ff fb84 	bl	8001418 <HAL_GetTick>
 8001d10:	4602      	mov	r2, r0
 8001d12:	693b      	ldr	r3, [r7, #16]
 8001d14:	1ad3      	subs	r3, r2, r3
 8001d16:	2b02      	cmp	r3, #2
 8001d18:	d908      	bls.n	8001d2c <HAL_RCC_OscConfig+0x278>
        {
          return HAL_TIMEOUT;
 8001d1a:	2303      	movs	r3, #3
 8001d1c:	e140      	b.n	8001fa0 <HAL_RCC_OscConfig+0x4ec>
 8001d1e:	bf00      	nop
 8001d20:	40021000 	.word	0x40021000
 8001d24:	42420000 	.word	0x42420000
 8001d28:	42420480 	.word	0x42420480
      while (__HAL_RCC_GET_FLAG(RCC_FLAG_LSIRDY) != RESET)
 8001d2c:	4b9e      	ldr	r3, [pc, #632]	; (8001fa8 <HAL_RCC_OscConfig+0x4f4>)
 8001d2e:	6a5b      	ldr	r3, [r3, #36]	; 0x24
 8001d30:	f003 0302 	and.w	r3, r3, #2
 8001d34:	2b00      	cmp	r3, #0
 8001d36:	d1e9      	bne.n	8001d0c <HAL_RCC_OscConfig+0x258>
        }
      }
    }
  }
  /*------------------------------ LSE Configuration -------------------------*/
  if (((RCC_OscInitStruct->OscillatorType) & RCC_OSCILLATORTYPE_LSE) == RCC_OSCILLATORTYPE_LSE)
 8001d38:	687b      	ldr	r3, [r7, #4]
 8001d3a:	681b      	ldr	r3, [r3, #0]
 8001d3c:	f003 0304 	and.w	r3, r3, #4
 8001d40:	2b00      	cmp	r3, #0
 8001d42:	f000 80a6 	beq.w	8001e92 <HAL_RCC_OscConfig+0x3de>
  {
    FlagStatus       pwrclkchanged = RESET;
 8001d46:	2300      	movs	r3, #0
 8001d48:	75fb      	strb	r3, [r7, #23]
    /* Check the parameters */
    assert_param(IS_RCC_LSE(RCC_OscInitStruct->LSEState));

    /* Update LSE configuration in Backup Domain control register    */
    /* Requires to enable write access to Backup Domain of necessary */
    if (__HAL_RCC_PWR_IS_CLK_DISABLED())
 8001d4a:	4b97      	ldr	r3, [pc, #604]	; (8001fa8 <HAL_RCC_OscConfig+0x4f4>)
 8001d4c:	69db      	ldr	r3, [r3, #28]
 8001d4e:	f003 5380 	and.w	r3, r3, #268435456	; 0x10000000
 8001d52:	2b00      	cmp	r3, #0
 8001d54:	d10d      	bne.n	8001d72 <HAL_RCC_OscConfig+0x2be>
    {
      __HAL_RCC_PWR_CLK_ENABLE();
 8001d56:	4b94      	ldr	r3, [pc, #592]	; (8001fa8 <HAL_RCC_OscConfig+0x4f4>)
 8001d58:	69db      	ldr	r3, [r3, #28]
 8001d5a:	4a93      	ldr	r2, [pc, #588]	; (8001fa8 <HAL_RCC_OscConfig+0x4f4>)
 8001d5c:	f043 5380 	orr.w	r3, r3, #268435456	; 0x10000000
 8001d60:	61d3      	str	r3, [r2, #28]
 8001d62:	4b91      	ldr	r3, [pc, #580]	; (8001fa8 <HAL_RCC_OscConfig+0x4f4>)
 8001d64:	69db      	ldr	r3, [r3, #28]
 8001d66:	f003 5380 	and.w	r3, r3, #268435456	; 0x10000000
 8001d6a:	60bb      	str	r3, [r7, #8]
 8001d6c:	68bb      	ldr	r3, [r7, #8]
      pwrclkchanged = SET;
 8001d6e:	2301      	movs	r3, #1
 8001d70:	75fb      	strb	r3, [r7, #23]
    }

    if (HAL_IS_BIT_CLR(PWR->CR, PWR_CR_DBP))
 8001d72:	4b8e      	ldr	r3, [pc, #568]	; (8001fac <HAL_RCC_OscConfig+0x4f8>)
 8001d74:	681b      	ldr	r3, [r3, #0]
 8001d76:	f403 7380 	and.w	r3, r3, #256	; 0x100
 8001d7a:	2b00      	cmp	r3, #0
 8001d7c:	d118      	bne.n	8001db0 <HAL_RCC_OscConfig+0x2fc>
    {
      /* Enable write access to Backup domain */
      SET_BIT(PWR->CR, PWR_CR_DBP);
 8001d7e:	4b8b      	ldr	r3, [pc, #556]	; (8001fac <HAL_RCC_OscConfig+0x4f8>)
 8001d80:	681b      	ldr	r3, [r3, #0]
 8001d82:	4a8a      	ldr	r2, [pc, #552]	; (8001fac <HAL_RCC_OscConfig+0x4f8>)
 8001d84:	f443 7380 	orr.w	r3, r3, #256	; 0x100
 8001d88:	6013      	str	r3, [r2, #0]

      /* Wait for Backup domain Write protection disable */
      tickstart = HAL_GetTick();
 8001d8a:	f7ff fb45 	bl	8001418 <HAL_GetTick>
 8001d8e:	6138      	str	r0, [r7, #16]

      while (HAL_IS_BIT_CLR(PWR->CR, PWR_CR_DBP))
 8001d90:	e008      	b.n	8001da4 <HAL_RCC_OscConfig+0x2f0>
      {
        if ((HAL_GetTick() - tickstart) > RCC_DBP_TIMEOUT_VALUE)
 8001d92:	f7ff fb41 	bl	8001418 <HAL_GetTick>
 8001d96:	4602      	mov	r2, r0
 8001d98:	693b      	ldr	r3, [r7, #16]
 8001d9a:	1ad3      	subs	r3, r2, r3
 8001d9c:	2b64      	cmp	r3, #100	; 0x64
 8001d9e:	d901      	bls.n	8001da4 <HAL_RCC_OscConfig+0x2f0>
        {
          return HAL_TIMEOUT;
 8001da0:	2303      	movs	r3, #3
 8001da2:	e0fd      	b.n	8001fa0 <HAL_RCC_OscConfig+0x4ec>
      while (HAL_IS_BIT_CLR(PWR->CR, PWR_CR_DBP))
 8001da4:	4b81      	ldr	r3, [pc, #516]	; (8001fac <HAL_RCC_OscConfig+0x4f8>)
 8001da6:	681b      	ldr	r3, [r3, #0]
 8001da8:	f403 7380 	and.w	r3, r3, #256	; 0x100
 8001dac:	2b00      	cmp	r3, #0
 8001dae:	d0f0      	beq.n	8001d92 <HAL_RCC_OscConfig+0x2de>
        }
      }
    }

    /* Set the new LSE configuration -----------------------------------------*/
    __HAL_RCC_LSE_CONFIG(RCC_OscInitStruct->LSEState);
 8001db0:	687b      	ldr	r3, [r7, #4]
 8001db2:	68db      	ldr	r3, [r3, #12]
 8001db4:	2b01      	cmp	r3, #1
 8001db6:	d106      	bne.n	8001dc6 <HAL_RCC_OscConfig+0x312>
 8001db8:	4b7b      	ldr	r3, [pc, #492]	; (8001fa8 <HAL_RCC_OscConfig+0x4f4>)
 8001dba:	6a1b      	ldr	r3, [r3, #32]
 8001dbc:	4a7a      	ldr	r2, [pc, #488]	; (8001fa8 <HAL_RCC_OscConfig+0x4f4>)
 8001dbe:	f043 0301 	orr.w	r3, r3, #1
 8001dc2:	6213      	str	r3, [r2, #32]
 8001dc4:	e02d      	b.n	8001e22 <HAL_RCC_OscConfig+0x36e>
 8001dc6:	687b      	ldr	r3, [r7, #4]
 8001dc8:	68db      	ldr	r3, [r3, #12]
 8001dca:	2b00      	cmp	r3, #0
 8001dcc:	d10c      	bne.n	8001de8 <HAL_RCC_OscConfig+0x334>
 8001dce:	4b76      	ldr	r3, [pc, #472]	; (8001fa8 <HAL_RCC_OscConfig+0x4f4>)
 8001dd0:	6a1b      	ldr	r3, [r3, #32]
 8001dd2:	4a75      	ldr	r2, [pc, #468]	; (8001fa8 <HAL_RCC_OscConfig+0x4f4>)
 8001dd4:	f023 0301 	bic.w	r3, r3, #1
 8001dd8:	6213      	str	r3, [r2, #32]
 8001dda:	4b73      	ldr	r3, [pc, #460]	; (8001fa8 <HAL_RCC_OscConfig+0x4f4>)
 8001ddc:	6a1b      	ldr	r3, [r3, #32]
 8001dde:	4a72      	ldr	r2, [pc, #456]	; (8001fa8 <HAL_RCC_OscConfig+0x4f4>)
 8001de0:	f023 0304 	bic.w	r3, r3, #4
 8001de4:	6213      	str	r3, [r2, #32]
 8001de6:	e01c      	b.n	8001e22 <HAL_RCC_OscConfig+0x36e>
 8001de8:	687b      	ldr	r3, [r7, #4]
 8001dea:	68db      	ldr	r3, [r3, #12]
 8001dec:	2b05      	cmp	r3, #5
 8001dee:	d10c      	bne.n	8001e0a <HAL_RCC_OscConfig+0x356>
 8001df0:	4b6d      	ldr	r3, [pc, #436]	; (8001fa8 <HAL_RCC_OscConfig+0x4f4>)
 8001df2:	6a1b      	ldr	r3, [r3, #32]
 8001df4:	4a6c      	ldr	r2, [pc, #432]	; (8001fa8 <HAL_RCC_OscConfig+0x4f4>)
 8001df6:	f043 0304 	orr.w	r3, r3, #4
 8001dfa:	6213      	str	r3, [r2, #32]
 8001dfc:	4b6a      	ldr	r3, [pc, #424]	; (8001fa8 <HAL_RCC_OscConfig+0x4f4>)
 8001dfe:	6a1b      	ldr	r3, [r3, #32]
 8001e00:	4a69      	ldr	r2, [pc, #420]	; (8001fa8 <HAL_RCC_OscConfig+0x4f4>)
 8001e02:	f043 0301 	orr.w	r3, r3, #1
 8001e06:	6213      	str	r3, [r2, #32]
 8001e08:	e00b      	b.n	8001e22 <HAL_RCC_OscConfig+0x36e>
 8001e0a:	4b67      	ldr	r3, [pc, #412]	; (8001fa8 <HAL_RCC_OscConfig+0x4f4>)
 8001e0c:	6a1b      	ldr	r3, [r3, #32]
 8001e0e:	4a66      	ldr	r2, [pc, #408]	; (8001fa8 <HAL_RCC_OscConfig+0x4f4>)
 8001e10:	f023 0301 	bic.w	r3, r3, #1
 8001e14:	6213      	str	r3, [r2, #32]
 8001e16:	4b64      	ldr	r3, [pc, #400]	; (8001fa8 <HAL_RCC_OscConfig+0x4f4>)
 8001e18:	6a1b      	ldr	r3, [r3, #32]
 8001e1a:	4a63      	ldr	r2, [pc, #396]	; (8001fa8 <HAL_RCC_OscConfig+0x4f4>)
 8001e1c:	f023 0304 	bic.w	r3, r3, #4
 8001e20:	6213      	str	r3, [r2, #32]
    /* Check the LSE State */
    if (RCC_OscInitStruct->LSEState != RCC_LSE_OFF)
 8001e22:	687b      	ldr	r3, [r7, #4]
 8001e24:	68db      	ldr	r3, [r3, #12]
 8001e26:	2b00      	cmp	r3, #0
 8001e28:	d015      	beq.n	8001e56 <HAL_RCC_OscConfig+0x3a2>
    {
      /* Get Start Tick */
      tickstart = HAL_GetTick();
 8001e2a:	f7ff faf5 	bl	8001418 <HAL_GetTick>
 8001e2e:	6138      	str	r0, [r7, #16]

      /* Wait till LSE is ready */
      while (__HAL_RCC_GET_FLAG(RCC_FLAG_LSERDY) == RESET)
 8001e30:	e00a      	b.n	8001e48 <HAL_RCC_OscConfig+0x394>
      {
        if ((HAL_GetTick() - tickstart) > RCC_LSE_TIMEOUT_VALUE)
 8001e32:	f7ff faf1 	bl	8001418 <HAL_GetTick>
 8001e36:	4602      	mov	r2, r0
 8001e38:	693b      	ldr	r3, [r7, #16]
 8001e3a:	1ad3      	subs	r3, r2, r3
 8001e3c:	f241 3288 	movw	r2, #5000	; 0x1388
 8001e40:	4293      	cmp	r3, r2
 8001e42:	d901      	bls.n	8001e48 <HAL_RCC_OscConfig+0x394>
        {
          return HAL_TIMEOUT;
 8001e44:	2303      	movs	r3, #3
 8001e46:	e0ab      	b.n	8001fa0 <HAL_RCC_OscConfig+0x4ec>
      while (__HAL_RCC_GET_FLAG(RCC_FLAG_LSERDY) == RESET)
 8001e48:	4b57      	ldr	r3, [pc, #348]	; (8001fa8 <HAL_RCC_OscConfig+0x4f4>)
 8001e4a:	6a1b      	ldr	r3, [r3, #32]
 8001e4c:	f003 0302 	and.w	r3, r3, #2
 8001e50:	2b00      	cmp	r3, #0
 8001e52:	d0ee      	beq.n	8001e32 <HAL_RCC_OscConfig+0x37e>
 8001e54:	e014      	b.n	8001e80 <HAL_RCC_OscConfig+0x3cc>
      }
    }
    else
    {
      /* Get Start Tick */
      tickstart = HAL_GetTick();
 8001e56:	f7ff fadf 	bl	8001418 <HAL_GetTick>
 8001e5a:	6138      	str	r0, [r7, #16]

      /* Wait till LSE is disabled */
      while (__HAL_RCC_GET_FLAG(RCC_FLAG_LSERDY) != RESET)
 8001e5c:	e00a      	b.n	8001e74 <HAL_RCC_OscConfig+0x3c0>
      {
        if ((HAL_GetTick() - tickstart) > RCC_LSE_TIMEOUT_VALUE)
 8001e5e:	f7ff fadb 	bl	8001418 <HAL_GetTick>
 8001e62:	4602      	mov	r2, r0
 8001e64:	693b      	ldr	r3, [r7, #16]
 8001e66:	1ad3      	subs	r3, r2, r3
 8001e68:	f241 3288 	movw	r2, #5000	; 0x1388
 8001e6c:	4293      	cmp	r3, r2
 8001e6e:	d901      	bls.n	8001e74 <HAL_RCC_OscConfig+0x3c0>
        {
          return HAL_TIMEOUT;
 8001e70:	2303      	movs	r3, #3
 8001e72:	e095      	b.n	8001fa0 <HAL_RCC_OscConfig+0x4ec>
      while (__HAL_RCC_GET_FLAG(RCC_FLAG_LSERDY) != RESET)
 8001e74:	4b4c      	ldr	r3, [pc, #304]	; (8001fa8 <HAL_RCC_OscConfig+0x4f4>)
 8001e76:	6a1b      	ldr	r3, [r3, #32]
 8001e78:	f003 0302 	and.w	r3, r3, #2
 8001e7c:	2b00      	cmp	r3, #0
 8001e7e:	d1ee      	bne.n	8001e5e <HAL_RCC_OscConfig+0x3aa>
        }
      }
    }

    /* Require to disable power clock if necessary */
    if (pwrclkchanged == SET)
 8001e80:	7dfb      	ldrb	r3, [r7, #23]
 8001e82:	2b01      	cmp	r3, #1
 8001e84:	d105      	bne.n	8001e92 <HAL_RCC_OscConfig+0x3de>
    {
      __HAL_RCC_PWR_CLK_DISABLE();
 8001e86:	4b48      	ldr	r3, [pc, #288]	; (8001fa8 <HAL_RCC_OscConfig+0x4f4>)
 8001e88:	69db      	ldr	r3, [r3, #28]
 8001e8a:	4a47      	ldr	r2, [pc, #284]	; (8001fa8 <HAL_RCC_OscConfig+0x4f4>)
 8001e8c:	f023 5380 	bic.w	r3, r3, #268435456	; 0x10000000
 8001e90:	61d3      	str	r3, [r2, #28]

#endif /* RCC_CR_PLL2ON */
  /*-------------------------------- PLL Configuration -----------------------*/
  /* Check the parameters */
  assert_param(IS_RCC_PLL(RCC_OscInitStruct->PLL.PLLState));
  if ((RCC_OscInitStruct->PLL.PLLState) != RCC_PLL_NONE)
 8001e92:	687b      	ldr	r3, [r7, #4]
 8001e94:	69db      	ldr	r3, [r3, #28]
 8001e96:	2b00      	cmp	r3, #0
 8001e98:	f000 8081 	beq.w	8001f9e <HAL_RCC_OscConfig+0x4ea>
  {
    /* Check if the PLL is used as system clock or not */
    if (__HAL_RCC_GET_SYSCLK_SOURCE() != RCC_SYSCLKSOURCE_STATUS_PLLCLK)
 8001e9c:	4b42      	ldr	r3, [pc, #264]	; (8001fa8 <HAL_RCC_OscConfig+0x4f4>)
 8001e9e:	685b      	ldr	r3, [r3, #4]
 8001ea0:	f003 030c 	and.w	r3, r3, #12
 8001ea4:	2b08      	cmp	r3, #8
 8001ea6:	d061      	beq.n	8001f6c <HAL_RCC_OscConfig+0x4b8>
    {
      if ((RCC_OscInitStruct->PLL.PLLState) == RCC_PLL_ON)
 8001ea8:	687b      	ldr	r3, [r7, #4]
 8001eaa:	69db      	ldr	r3, [r3, #28]
 8001eac:	2b02      	cmp	r3, #2
 8001eae:	d146      	bne.n	8001f3e <HAL_RCC_OscConfig+0x48a>
        /* Check the parameters */
        assert_param(IS_RCC_PLLSOURCE(RCC_OscInitStruct->PLL.PLLSource));
        assert_param(IS_RCC_PLL_MUL(RCC_OscInitStruct->PLL.PLLMUL));

        /* Disable the main PLL. */
        __HAL_RCC_PLL_DISABLE();
 8001eb0:	4b3f      	ldr	r3, [pc, #252]	; (8001fb0 <HAL_RCC_OscConfig+0x4fc>)
 8001eb2:	2200      	movs	r2, #0
 8001eb4:	601a      	str	r2, [r3, #0]

        /* Get Start Tick */
        tickstart = HAL_GetTick();
 8001eb6:	f7ff faaf 	bl	8001418 <HAL_GetTick>
 8001eba:	6138      	str	r0, [r7, #16]

        /* Wait till PLL is disabled */
        while (__HAL_RCC_GET_FLAG(RCC_FLAG_PLLRDY)  != RESET)
 8001ebc:	e008      	b.n	8001ed0 <HAL_RCC_OscConfig+0x41c>
        {
          if ((HAL_GetTick() - tickstart) > PLL_TIMEOUT_VALUE)
 8001ebe:	f7ff faab 	bl	8001418 <HAL_GetTick>
 8001ec2:	4602      	mov	r2, r0
 8001ec4:	693b      	ldr	r3, [r7, #16]
 8001ec6:	1ad3      	subs	r3, r2, r3
 8001ec8:	2b02      	cmp	r3, #2
 8001eca:	d901      	bls.n	8001ed0 <HAL_RCC_OscConfig+0x41c>
          {
            return HAL_TIMEOUT;
 8001ecc:	2303      	movs	r3, #3
 8001ece:	e067      	b.n	8001fa0 <HAL_RCC_OscConfig+0x4ec>
        while (__HAL_RCC_GET_FLAG(RCC_FLAG_PLLRDY)  != RESET)
 8001ed0:	4b35      	ldr	r3, [pc, #212]	; (8001fa8 <HAL_RCC_OscConfig+0x4f4>)
 8001ed2:	681b      	ldr	r3, [r3, #0]
 8001ed4:	f003 7300 	and.w	r3, r3, #33554432	; 0x2000000
 8001ed8:	2b00      	cmp	r3, #0
 8001eda:	d1f0      	bne.n	8001ebe <HAL_RCC_OscConfig+0x40a>
          }
        }

        /* Configure the HSE prediv factor --------------------------------*/
        /* It can be written only when the PLL is disabled. Not used in PLL source is different than HSE */
        if (RCC_OscInitStruct->PLL.PLLSource == RCC_PLLSOURCE_HSE)
 8001edc:	687b      	ldr	r3, [r7, #4]
 8001ede:	6a1b      	ldr	r3, [r3, #32]
 8001ee0:	f5b3 3f80 	cmp.w	r3, #65536	; 0x10000
 8001ee4:	d108      	bne.n	8001ef8 <HAL_RCC_OscConfig+0x444>
          /* Set PREDIV1 source */
          SET_BIT(RCC->CFGR2, RCC_OscInitStruct->Prediv1Source);
#endif /* RCC_CFGR2_PREDIV1SRC */

          /* Set PREDIV1 Value */
          __HAL_RCC_HSE_PREDIV_CONFIG(RCC_OscInitStruct->HSEPredivValue);
 8001ee6:	4b30      	ldr	r3, [pc, #192]	; (8001fa8 <HAL_RCC_OscConfig+0x4f4>)
 8001ee8:	685b      	ldr	r3, [r3, #4]
 8001eea:	f423 3200 	bic.w	r2, r3, #131072	; 0x20000
 8001eee:	687b      	ldr	r3, [r7, #4]
 8001ef0:	689b      	ldr	r3, [r3, #8]
 8001ef2:	492d      	ldr	r1, [pc, #180]	; (8001fa8 <HAL_RCC_OscConfig+0x4f4>)
 8001ef4:	4313      	orrs	r3, r2
 8001ef6:	604b      	str	r3, [r1, #4]
        }

        /* Configure the main PLL clock source and multiplication factors. */
        __HAL_RCC_PLL_CONFIG(RCC_OscInitStruct->PLL.PLLSource,
 8001ef8:	4b2b      	ldr	r3, [pc, #172]	; (8001fa8 <HAL_RCC_OscConfig+0x4f4>)
 8001efa:	685b      	ldr	r3, [r3, #4]
 8001efc:	f423 1274 	bic.w	r2, r3, #3997696	; 0x3d0000
 8001f00:	687b      	ldr	r3, [r7, #4]
 8001f02:	6a19      	ldr	r1, [r3, #32]
 8001f04:	687b      	ldr	r3, [r7, #4]
 8001f06:	6a5b      	ldr	r3, [r3, #36]	; 0x24
 8001f08:	430b      	orrs	r3, r1
 8001f0a:	4927      	ldr	r1, [pc, #156]	; (8001fa8 <HAL_RCC_OscConfig+0x4f4>)
 8001f0c:	4313      	orrs	r3, r2
 8001f0e:	604b      	str	r3, [r1, #4]
                             RCC_OscInitStruct->PLL.PLLMUL);
        /* Enable the main PLL. */
        __HAL_RCC_PLL_ENABLE();
 8001f10:	4b27      	ldr	r3, [pc, #156]	; (8001fb0 <HAL_RCC_OscConfig+0x4fc>)
 8001f12:	2201      	movs	r2, #1
 8001f14:	601a      	str	r2, [r3, #0]

        /* Get Start Tick */
        tickstart = HAL_GetTick();
 8001f16:	f7ff fa7f 	bl	8001418 <HAL_GetTick>
 8001f1a:	6138      	str	r0, [r7, #16]

        /* Wait till PLL is ready */
        while (__HAL_RCC_GET_FLAG(RCC_FLAG_PLLRDY)  == RESET)
 8001f1c:	e008      	b.n	8001f30 <HAL_RCC_OscConfig+0x47c>
        {
          if ((HAL_GetTick() - tickstart) > PLL_TIMEOUT_VALUE)
 8001f1e:	f7ff fa7b 	bl	8001418 <HAL_GetTick>
 8001f22:	4602      	mov	r2, r0
 8001f24:	693b      	ldr	r3, [r7, #16]
 8001f26:	1ad3      	subs	r3, r2, r3
 8001f28:	2b02      	cmp	r3, #2
 8001f2a:	d901      	bls.n	8001f30 <HAL_RCC_OscConfig+0x47c>
          {
            return HAL_TIMEOUT;
 8001f2c:	2303      	movs	r3, #3
 8001f2e:	e037      	b.n	8001fa0 <HAL_RCC_OscConfig+0x4ec>
        while (__HAL_RCC_GET_FLAG(RCC_FLAG_PLLRDY)  == RESET)
 8001f30:	4b1d      	ldr	r3, [pc, #116]	; (8001fa8 <HAL_RCC_OscConfig+0x4f4>)
 8001f32:	681b      	ldr	r3, [r3, #0]
 8001f34:	f003 7300 	and.w	r3, r3, #33554432	; 0x2000000
 8001f38:	2b00      	cmp	r3, #0
 8001f3a:	d0f0      	beq.n	8001f1e <HAL_RCC_OscConfig+0x46a>
 8001f3c:	e02f      	b.n	8001f9e <HAL_RCC_OscConfig+0x4ea>
        }
      }
      else
      {
        /* Disable the main PLL. */
        __HAL_RCC_PLL_DISABLE();
 8001f3e:	4b1c      	ldr	r3, [pc, #112]	; (8001fb0 <HAL_RCC_OscConfig+0x4fc>)
 8001f40:	2200      	movs	r2, #0
 8001f42:	601a      	str	r2, [r3, #0]

        /* Get Start Tick */
        tickstart = HAL_GetTick();
 8001f44:	f7ff fa68 	bl	8001418 <HAL_GetTick>
 8001f48:	6138      	str	r0, [r7, #16]

        /* Wait till PLL is disabled */
        while (__HAL_RCC_GET_FLAG(RCC_FLAG_PLLRDY)  != RESET)
 8001f4a:	e008      	b.n	8001f5e <HAL_RCC_OscConfig+0x4aa>
        {
          if ((HAL_GetTick() - tickstart) > PLL_TIMEOUT_VALUE)
 8001f4c:	f7ff fa64 	bl	8001418 <HAL_GetTick>
 8001f50:	4602      	mov	r2, r0
 8001f52:	693b      	ldr	r3, [r7, #16]
 8001f54:	1ad3      	subs	r3, r2, r3
 8001f56:	2b02      	cmp	r3, #2
 8001f58:	d901      	bls.n	8001f5e <HAL_RCC_OscConfig+0x4aa>
          {
            return HAL_TIMEOUT;
 8001f5a:	2303      	movs	r3, #3
 8001f5c:	e020      	b.n	8001fa0 <HAL_RCC_OscConfig+0x4ec>
        while (__HAL_RCC_GET_FLAG(RCC_FLAG_PLLRDY)  != RESET)
 8001f5e:	4b12      	ldr	r3, [pc, #72]	; (8001fa8 <HAL_RCC_OscConfig+0x4f4>)
 8001f60:	681b      	ldr	r3, [r3, #0]
 8001f62:	f003 7300 	and.w	r3, r3, #33554432	; 0x2000000
 8001f66:	2b00      	cmp	r3, #0
 8001f68:	d1f0      	bne.n	8001f4c <HAL_RCC_OscConfig+0x498>
 8001f6a:	e018      	b.n	8001f9e <HAL_RCC_OscConfig+0x4ea>
      }
    }
    else
    {
      /* Check if there is a request to disable the PLL used as System clock source */
      if ((RCC_OscInitStruct->PLL.PLLState) == RCC_PLL_OFF)
 8001f6c:	687b      	ldr	r3, [r7, #4]
 8001f6e:	69db      	ldr	r3, [r3, #28]
 8001f70:	2b01      	cmp	r3, #1
 8001f72:	d101      	bne.n	8001f78 <HAL_RCC_OscConfig+0x4c4>
      {
        return HAL_ERROR;
 8001f74:	2301      	movs	r3, #1
 8001f76:	e013      	b.n	8001fa0 <HAL_RCC_OscConfig+0x4ec>
      }
      else
      {
        /* Do not return HAL_ERROR if request repeats the current configuration */
        pll_config = RCC->CFGR;
 8001f78:	4b0b      	ldr	r3, [pc, #44]	; (8001fa8 <HAL_RCC_OscConfig+0x4f4>)
 8001f7a:	685b      	ldr	r3, [r3, #4]
 8001f7c:	60fb      	str	r3, [r7, #12]
        if ((READ_BIT(pll_config, RCC_CFGR_PLLSRC) != RCC_OscInitStruct->PLL.PLLSource) ||
 8001f7e:	68fb      	ldr	r3, [r7, #12]
 8001f80:	f403 3280 	and.w	r2, r3, #65536	; 0x10000
 8001f84:	687b      	ldr	r3, [r7, #4]
 8001f86:	6a1b      	ldr	r3, [r3, #32]
 8001f88:	429a      	cmp	r2, r3
 8001f8a:	d106      	bne.n	8001f9a <HAL_RCC_OscConfig+0x4e6>
            (READ_BIT(pll_config, RCC_CFGR_PLLMULL) != RCC_OscInitStruct->PLL.PLLMUL))
 8001f8c:	68fb      	ldr	r3, [r7, #12]
 8001f8e:	f403 1270 	and.w	r2, r3, #3932160	; 0x3c0000
 8001f92:	687b      	ldr	r3, [r7, #4]
 8001f94:	6a5b      	ldr	r3, [r3, #36]	; 0x24
        if ((READ_BIT(pll_config, RCC_CFGR_PLLSRC) != RCC_OscInitStruct->PLL.PLLSource) ||
 8001f96:	429a      	cmp	r2, r3
 8001f98:	d001      	beq.n	8001f9e <HAL_RCC_OscConfig+0x4ea>
        {
          return HAL_ERROR;
 8001f9a:	2301      	movs	r3, #1
 8001f9c:	e000      	b.n	8001fa0 <HAL_RCC_OscConfig+0x4ec>
        }
      }
    }
  }

  return HAL_OK;
 8001f9e:	2300      	movs	r3, #0
}
 8001fa0:	4618      	mov	r0, r3
 8001fa2:	3718      	adds	r7, #24
 8001fa4:	46bd      	mov	sp, r7
 8001fa6:	bd80      	pop	{r7, pc}
 8001fa8:	40021000 	.word	0x40021000
 8001fac:	40007000 	.word	0x40007000
 8001fb0:	42420060 	.word	0x42420060

08001fb4 <HAL_RCC_ClockConfig>:
  *         You can use @ref HAL_RCC_GetClockConfig() function to know which clock is
  *         currently used as system clock source.
  * @retval HAL status
  */
HAL_StatusTypeDef HAL_RCC_ClockConfig(RCC_ClkInitTypeDef  *RCC_ClkInitStruct, uint32_t FLatency)
{
 8001fb4:	b580      	push	{r7, lr}
 8001fb6:	b084      	sub	sp, #16
 8001fb8:	af00      	add	r7, sp, #0
 8001fba:	6078      	str	r0, [r7, #4]
 8001fbc:	6039      	str	r1, [r7, #0]
  uint32_t tickstart;

  /* Check Null pointer */
  if (RCC_ClkInitStruct == NULL)
 8001fbe:	687b      	ldr	r3, [r7, #4]
 8001fc0:	2b00      	cmp	r3, #0
 8001fc2:	d101      	bne.n	8001fc8 <HAL_RCC_ClockConfig+0x14>
  {
    return HAL_ERROR;
 8001fc4:	2301      	movs	r3, #1
 8001fc6:	e0d0      	b.n	800216a <HAL_RCC_ClockConfig+0x1b6>
  must be correctly programmed according to the frequency of the CPU clock
    (HCLK) of the device. */

#if defined(FLASH_ACR_LATENCY)
  /* Increasing the number of wait states because of higher CPU frequency */
  if (FLatency > __HAL_FLASH_GET_LATENCY())
 8001fc8:	4b6a      	ldr	r3, [pc, #424]	; (8002174 <HAL_RCC_ClockConfig+0x1c0>)
 8001fca:	681b      	ldr	r3, [r3, #0]
 8001fcc:	f003 0307 	and.w	r3, r3, #7
 8001fd0:	683a      	ldr	r2, [r7, #0]
 8001fd2:	429a      	cmp	r2, r3
 8001fd4:	d910      	bls.n	8001ff8 <HAL_RCC_ClockConfig+0x44>
  {
    /* Program the new number of wait states to the LATENCY bits in the FLASH_ACR register */
