
UNIT_MUX.elf:     file format elf32-littlearm

Sections:
Idx Name          Size      VMA       LMA       File off  Algn
  0 .isr_vector   0000010c  08000000  08000000  00010000  2**0
                  CONTENTS, ALLOC, LOAD, READONLY, DATA
  1 .text         00002a10  0800010c  0800010c  0001010c  2**2
                  CONTENTS, ALLOC, LOAD, READONLY, CODE
  2 .rodata       000002e4  08002b1c  08002b1c  00012b1c  2**2
                  CONTENTS, ALLOC, LOAD, READONLY, DATA
  3 .ARM.extab    00000000  08002e00  08002e00  00020074  2**0
                  CONTENTS
  4 .ARM          00000000  08002e00  08002e00  00020074  2**0
                  CONTENTS
  5 .preinit_array 00000000  08002e00  08002e00  00020074  2**0
                  CONTENTS, ALLOC, LOAD, DATA
  6 .init_array   00000004  08002e00  08002e00  00012e00  2**2
                  CONTENTS, ALLOC, LOAD, DATA
  7 .fini_array   00000004  08002e04  08002e04  00012e04  2**2
                  CONTENTS, ALLOC, LOAD, DATA
  8 .data         00000074  20000000  08002e08  00020000  2**2
                  CONTENTS, ALLOC, LOAD, DATA
  9 .bss          00000358  20000074  08002e7c  00020074  2**2
                  ALLOC
 10 ._user_heap_stack 00000604  200003cc  08002e7c  000203cc  2**0
                  ALLOC
 11 .ARM.attributes 00000029  00000000  00000000  00020074  2**0
                  CONTENTS, READONLY
 12 .debug_info   000081c8  00000000  00000000  0002009d  2**0
                  CONTENTS, READONLY, DEBUGGING, OCTETS
 13 .debug_abbrev 00001805  00000000  00000000  00028265  2**0
                  CONTENTS, READONLY, DEBUGGING, OCTETS
 14 .debug_aranges 00000788  00000000  00000000  00029a70  2**3
                  CONTENTS, READONLY, DEBUGGING, OCTETS
 15 .debug_ranges 000006f0  00000000  00000000  0002a1f8  2**3
                  CONTENTS, READONLY, DEBUGGING, OCTETS
 16 .debug_macro  000172b6  00000000  00000000  0002a8e8  2**0
                  CONTENTS, READONLY, DEBUGGING, OCTETS
 17 .debug_line   00008764  00000000  00000000  00041b9e  2**0
                  CONTENTS, READONLY, DEBUGGING, OCTETS
 18 .debug_str    00085220  00000000  00000000  0004a302  2**0
                  CONTENTS, READONLY, DEBUGGING, OCTETS
 19 .comment      00000053  00000000  00000000  000cf522  2**0
                  CONTENTS, READONLY
 20 .debug_frame  0000215c  00000000  00000000  000cf578  2**2
                  CONTENTS, READONLY, DEBUGGING, OCTETS

Disassembly of section .text:

0800010c <__do_global_dtors_aux>:
 800010c:	b510      	push	{r4, lr}
 800010e:	4c05      	ldr	r4, [pc, #20]	; (8000124 <__do_global_dtors_aux+0x18>)
 8000110:	7823      	ldrb	r3, [r4, #0]
 8000112:	b933      	cbnz	r3, 8000122 <__do_global_dtors_aux+0x16>
 8000114:	4b04      	ldr	r3, [pc, #16]	; (8000128 <__do_global_dtors_aux+0x1c>)
 8000116:	b113      	cbz	r3, 800011e <__do_global_dtors_aux+0x12>
 8000118:	4804      	ldr	r0, [pc, #16]	; (800012c <__do_global_dtors_aux+0x20>)
 800011a:	f3af 8000 	nop.w
 800011e:	2301      	movs	r3, #1
 8000120:	7023      	strb	r3, [r4, #0]
 8000122:	bd10      	pop	{r4, pc}
 8000124:	20000074 	.word	0x20000074
 8000128:	00000000 	.word	0x00000000
 800012c:	08002b04 	.word	0x08002b04

08000130 <frame_dummy>:
 8000130:	b508      	push	{r3, lr}
 8000132:	4b03      	ldr	r3, [pc, #12]	; (8000140 <frame_dummy+0x10>)
 8000134:	b11b      	cbz	r3, 800013e <frame_dummy+0xe>
 8000136:	4903      	ldr	r1, [pc, #12]	; (8000144 <frame_dummy+0x14>)
 8000138:	4803      	ldr	r0, [pc, #12]	; (8000148 <frame_dummy+0x18>)
 800013a:	f3af 8000 	nop.w
 800013e:	bd08      	pop	{r3, pc}
 8000140:	00000000 	.word	0x00000000
 8000144:	20000078 	.word	0x20000078
 8000148:	08002b04 	.word	0x08002b04

0800014c <updateMux4>:

/*
 * Function to read analog signal from multiplexer 1
 * return none
 */
void updateMux4(){
 800014c:	b5f0      	push	{r4, r5, r6, r7, lr}
 800014e:	b099      	sub	sp, #100	; 0x64
 8000150:	af0e      	add	r7, sp, #56	; 0x38
	static int a = 0;
	int channel_max = 16;
 8000152:	2310      	movs	r3, #16
 8000154:	623b      	str	r3, [r7, #32]

	ADC2_Select_CH3();
 8000156:	f000 f8df 	bl	8000318 <ADC2_Select_CH3>
	for(int i=0; i<channel_max; i++){
 800015a:	2300      	movs	r3, #0
 800015c:	627b      	str	r3, [r7, #36]	; 0x24
 800015e:	e0c0      	b.n	80002e2 <updateMux4+0x196>
		HAL_GPIO_WritePin(GPIOB, GPIO_PIN_12, SET && (i & 0b00000001));
 8000160:	6a7b      	ldr	r3, [r7, #36]	; 0x24
 8000162:	f003 0301 	and.w	r3, r3, #1
 8000166:	2b00      	cmp	r3, #0
 8000168:	bf14      	ite	ne
 800016a:	2301      	movne	r3, #1
 800016c:	2300      	moveq	r3, #0
 800016e:	b2db      	uxtb	r3, r3
 8000170:	461a      	mov	r2, r3
 8000172:	f44f 5180 	mov.w	r1, #4096	; 0x1000
 8000176:	4860      	ldr	r0, [pc, #384]	; (80002f8 <updateMux4+0x1ac>)
 8000178:	f001 f9b8 	bl	80014ec <HAL_GPIO_WritePin>
		//HAL_Delay(50);
		HAL_GPIO_WritePin(GPIOB, GPIO_PIN_13, SET && (i & 0b00000010));
 800017c:	6a7b      	ldr	r3, [r7, #36]	; 0x24
 800017e:	f003 0302 	and.w	r3, r3, #2
 8000182:	2b00      	cmp	r3, #0
 8000184:	bf14      	ite	ne
 8000186:	2301      	movne	r3, #1
 8000188:	2300      	moveq	r3, #0
 800018a:	b2db      	uxtb	r3, r3
 800018c:	461a      	mov	r2, r3
 800018e:	f44f 5100 	mov.w	r1, #8192	; 0x2000
 8000192:	4859      	ldr	r0, [pc, #356]	; (80002f8 <updateMux4+0x1ac>)
 8000194:	f001 f9aa 	bl	80014ec <HAL_GPIO_WritePin>
		//HAL_Delay(50);
		HAL_GPIO_WritePin(GPIOB, GPIO_PIN_14, SET && (i & 0b00000100));
 8000198:	6a7b      	ldr	r3, [r7, #36]	; 0x24
 800019a:	f003 0304 	and.w	r3, r3, #4
 800019e:	2b00      	cmp	r3, #0
 80001a0:	bf14      	ite	ne
 80001a2:	2301      	movne	r3, #1
 80001a4:	2300      	moveq	r3, #0
 80001a6:	b2db      	uxtb	r3, r3
 80001a8:	461a      	mov	r2, r3
 80001aa:	f44f 4180 	mov.w	r1, #16384	; 0x4000
 80001ae:	4852      	ldr	r0, [pc, #328]	; (80002f8 <updateMux4+0x1ac>)
 80001b0:	f001 f99c 	bl	80014ec <HAL_GPIO_WritePin>
		//HAL_Delay(50);
		HAL_GPIO_WritePin(GPIOB, GPIO_PIN_15, SET && (i & 0b00001000));
 80001b4:	6a7b      	ldr	r3, [r7, #36]	; 0x24
 80001b6:	f003 0308 	and.w	r3, r3, #8
 80001ba:	2b00      	cmp	r3, #0
 80001bc:	bf14      	ite	ne
 80001be:	2301      	movne	r3, #1
 80001c0:	2300      	moveq	r3, #0
 80001c2:	b2db      	uxtb	r3, r3
 80001c4:	461a      	mov	r2, r3
 80001c6:	f44f 4100 	mov.w	r1, #32768	; 0x8000
 80001ca:	484b      	ldr	r0, [pc, #300]	; (80002f8 <updateMux4+0x1ac>)
 80001cc:	f001 f98e 	bl	80014ec <HAL_GPIO_WritePin>
		//HAL_Delay(50);
		a = ((a+1)%channel_max);
 80001d0:	4b4a      	ldr	r3, [pc, #296]	; (80002fc <updateMux4+0x1b0>)
 80001d2:	681b      	ldr	r3, [r3, #0]
 80001d4:	3301      	adds	r3, #1
 80001d6:	6a3a      	ldr	r2, [r7, #32]
 80001d8:	fb93 f2f2 	sdiv	r2, r3, r2
 80001dc:	6a39      	ldr	r1, [r7, #32]
 80001de:	fb01 f202 	mul.w	r2, r1, r2
 80001e2:	1a9b      	subs	r3, r3, r2
 80001e4:	4a45      	ldr	r2, [pc, #276]	; (80002fc <updateMux4+0x1b0>)
 80001e6:	6013      	str	r3, [r2, #0]
		if(a == channel_max-1){
 80001e8:	6a3b      	ldr	r3, [r7, #32]
 80001ea:	1e5a      	subs	r2, r3, #1
 80001ec:	4b43      	ldr	r3, [pc, #268]	; (80002fc <updateMux4+0x1b0>)
 80001ee:	681b      	ldr	r3, [r3, #0]
 80001f0:	429a      	cmp	r2, r3
 80001f2:	d173      	bne.n	80002dc <updateMux4+0x190>
			StructMux4 = (data_mux *) buffer_mux4;
 80001f4:	4b42      	ldr	r3, [pc, #264]	; (8000300 <updateMux4+0x1b4>)
 80001f6:	4a43      	ldr	r2, [pc, #268]	; (8000304 <updateMux4+0x1b8>)
 80001f8:	601a      	str	r2, [r3, #0]
			sprintf(SaveDataMux4, "J49: %u | J50: %u | J51: %u | J52: %u | J53: %u | J54: %u | J55 : %u | J56: %u "
					"| J57: %u | J58: %u | J59: %u | J60: %u | J61: %u | J62: %u | J63: %u | J64: %u \r\n\r\n",
					StructMux4->J49, StructMux4->J50, StructMux4->J51, StructMux4->J52,
 80001fa:	4b41      	ldr	r3, [pc, #260]	; (8000300 <updateMux4+0x1b4>)
 80001fc:	681b      	ldr	r3, [r3, #0]
 80001fe:	f8b3 3060 	ldrh.w	r3, [r3, #96]	; 0x60
			sprintf(SaveDataMux4, "J49: %u | J50: %u | J51: %u | J52: %u | J53: %u | J54: %u | J55 : %u | J56: %u "
 8000202:	469c      	mov	ip, r3
					StructMux4->J49, StructMux4->J50, StructMux4->J51, StructMux4->J52,
 8000204:	4b3e      	ldr	r3, [pc, #248]	; (8000300 <updateMux4+0x1b4>)
 8000206:	681b      	ldr	r3, [r3, #0]
 8000208:	f8b3 3062 	ldrh.w	r3, [r3, #98]	; 0x62
			sprintf(SaveDataMux4, "J49: %u | J50: %u | J51: %u | J52: %u | J53: %u | J54: %u | J55 : %u | J56: %u "
 800020c:	469e      	mov	lr, r3
					StructMux4->J49, StructMux4->J50, StructMux4->J51, StructMux4->J52,
 800020e:	4b3c      	ldr	r3, [pc, #240]	; (8000300 <updateMux4+0x1b4>)
 8000210:	681b      	ldr	r3, [r3, #0]
 8000212:	f8b3 3064 	ldrh.w	r3, [r3, #100]	; 0x64
			sprintf(SaveDataMux4, "J49: %u | J50: %u | J51: %u | J52: %u | J53: %u | J54: %u | J55 : %u | J56: %u "
 8000216:	4618      	mov	r0, r3
					StructMux4->J49, StructMux4->J50, StructMux4->J51, StructMux4->J52,
 8000218:	4b39      	ldr	r3, [pc, #228]	; (8000300 <updateMux4+0x1b4>)
 800021a:	681b      	ldr	r3, [r3, #0]
 800021c:	f8b3 3066 	ldrh.w	r3, [r3, #102]	; 0x66
			sprintf(SaveDataMux4, "J49: %u | J50: %u | J51: %u | J52: %u | J53: %u | J54: %u | J55 : %u | J56: %u "
 8000220:	461c      	mov	r4, r3
					StructMux4->J53, StructMux4->J54, StructMux4->J55, StructMux4->J56,
 8000222:	4b37      	ldr	r3, [pc, #220]	; (8000300 <updateMux4+0x1b4>)
 8000224:	681b      	ldr	r3, [r3, #0]
 8000226:	f8b3 3068 	ldrh.w	r3, [r3, #104]	; 0x68
			sprintf(SaveDataMux4, "J49: %u | J50: %u | J51: %u | J52: %u | J53: %u | J54: %u | J55 : %u | J56: %u "
 800022a:	461d      	mov	r5, r3
					StructMux4->J53, StructMux4->J54, StructMux4->J55, StructMux4->J56,
 800022c:	4b34      	ldr	r3, [pc, #208]	; (8000300 <updateMux4+0x1b4>)
 800022e:	681b      	ldr	r3, [r3, #0]
 8000230:	f8b3 306a 	ldrh.w	r3, [r3, #106]	; 0x6a
			sprintf(SaveDataMux4, "J49: %u | J50: %u | J51: %u | J52: %u | J53: %u | J54: %u | J55 : %u | J56: %u "
 8000234:	461e      	mov	r6, r3
					StructMux4->J53, StructMux4->J54, StructMux4->J55, StructMux4->J56,
 8000236:	4b32      	ldr	r3, [pc, #200]	; (8000300 <updateMux4+0x1b4>)
 8000238:	681b      	ldr	r3, [r3, #0]
 800023a:	f8b3 306c 	ldrh.w	r3, [r3, #108]	; 0x6c
			sprintf(SaveDataMux4, "J49: %u | J50: %u | J51: %u | J52: %u | J53: %u | J54: %u | J55 : %u | J56: %u "
 800023e:	61fb      	str	r3, [r7, #28]
					StructMux4->J53, StructMux4->J54, StructMux4->J55, StructMux4->J56,
 8000240:	4b2f      	ldr	r3, [pc, #188]	; (8000300 <updateMux4+0x1b4>)
 8000242:	681b      	ldr	r3, [r3, #0]
 8000244:	f8b3 306e 	ldrh.w	r3, [r3, #110]	; 0x6e
			sprintf(SaveDataMux4, "J49: %u | J50: %u | J51: %u | J52: %u | J53: %u | J54: %u | J55 : %u | J56: %u "
 8000248:	61bb      	str	r3, [r7, #24]
					StructMux4->J57, StructMux4->J58, StructMux4->J59, StructMux4->J60,
 800024a:	4b2d      	ldr	r3, [pc, #180]	; (8000300 <updateMux4+0x1b4>)
 800024c:	681b      	ldr	r3, [r3, #0]
 800024e:	f8b3 3070 	ldrh.w	r3, [r3, #112]	; 0x70
			sprintf(SaveDataMux4, "J49: %u | J50: %u | J51: %u | J52: %u | J53: %u | J54: %u | J55 : %u | J56: %u "
 8000252:	617b      	str	r3, [r7, #20]
					StructMux4->J57, StructMux4->J58, StructMux4->J59, StructMux4->J60,
 8000254:	4b2a      	ldr	r3, [pc, #168]	; (8000300 <updateMux4+0x1b4>)
 8000256:	681b      	ldr	r3, [r3, #0]
 8000258:	f8b3 3072 	ldrh.w	r3, [r3, #114]	; 0x72
			sprintf(SaveDataMux4, "J49: %u | J50: %u | J51: %u | J52: %u | J53: %u | J54: %u | J55 : %u | J56: %u "
 800025c:	613b      	str	r3, [r7, #16]
					StructMux4->J57, StructMux4->J58, StructMux4->J59, StructMux4->J60,
 800025e:	4b28      	ldr	r3, [pc, #160]	; (8000300 <updateMux4+0x1b4>)
 8000260:	681b      	ldr	r3, [r3, #0]
 8000262:	f8b3 3074 	ldrh.w	r3, [r3, #116]	; 0x74
			sprintf(SaveDataMux4, "J49: %u | J50: %u | J51: %u | J52: %u | J53: %u | J54: %u | J55 : %u | J56: %u "
 8000266:	60fb      	str	r3, [r7, #12]
					StructMux4->J57, StructMux4->J58, StructMux4->J59, StructMux4->J60,
 8000268:	4b25      	ldr	r3, [pc, #148]	; (8000300 <updateMux4+0x1b4>)
 800026a:	681b      	ldr	r3, [r3, #0]
 800026c:	f8b3 3076 	ldrh.w	r3, [r3, #118]	; 0x76
			sprintf(SaveDataMux4, "J49: %u | J50: %u | J51: %u | J52: %u | J53: %u | J54: %u | J55 : %u | J56: %u "
 8000270:	60bb      	str	r3, [r7, #8]
					StructMux4->J61, StructMux4->J62, StructMux4->J63, StructMux4->J64);
 8000272:	4b23      	ldr	r3, [pc, #140]	; (8000300 <updateMux4+0x1b4>)
 8000274:	681b      	ldr	r3, [r3, #0]
 8000276:	f8b3 3078 	ldrh.w	r3, [r3, #120]	; 0x78
			sprintf(SaveDataMux4, "J49: %u | J50: %u | J51: %u | J52: %u | J53: %u | J54: %u | J55 : %u | J56: %u "
 800027a:	607b      	str	r3, [r7, #4]
					StructMux4->J61, StructMux4->J62, StructMux4->J63, StructMux4->J64);
 800027c:	4b20      	ldr	r3, [pc, #128]	; (8000300 <updateMux4+0x1b4>)
 800027e:	681b      	ldr	r3, [r3, #0]
 8000280:	f8b3 307a 	ldrh.w	r3, [r3, #122]	; 0x7a
			sprintf(SaveDataMux4, "J49: %u | J50: %u | J51: %u | J52: %u | J53: %u | J54: %u | J55 : %u | J56: %u "
 8000284:	4619      	mov	r1, r3
					StructMux4->J61, StructMux4->J62, StructMux4->J63, StructMux4->J64);
 8000286:	4b1e      	ldr	r3, [pc, #120]	; (8000300 <updateMux4+0x1b4>)
 8000288:	681b      	ldr	r3, [r3, #0]
 800028a:	f8b3 307c 	ldrh.w	r3, [r3, #124]	; 0x7c
			sprintf(SaveDataMux4, "J49: %u | J50: %u | J51: %u | J52: %u | J53: %u | J54: %u | J55 : %u | J56: %u "
 800028e:	461a      	mov	r2, r3
					StructMux4->J61, StructMux4->J62, StructMux4->J63, StructMux4->J64);
 8000290:	4b1b      	ldr	r3, [pc, #108]	; (8000300 <updateMux4+0x1b4>)
 8000292:	681b      	ldr	r3, [r3, #0]
 8000294:	f8b3 307e 	ldrh.w	r3, [r3, #126]	; 0x7e
			sprintf(SaveDataMux4, "J49: %u | J50: %u | J51: %u | J52: %u | J53: %u | J54: %u | J55 : %u | J56: %u "
 8000298:	930d      	str	r3, [sp, #52]	; 0x34
 800029a:	920c      	str	r2, [sp, #48]	; 0x30
 800029c:	910b      	str	r1, [sp, #44]	; 0x2c
 800029e:	687a      	ldr	r2, [r7, #4]
 80002a0:	920a      	str	r2, [sp, #40]	; 0x28
 80002a2:	68ba      	ldr	r2, [r7, #8]
 80002a4:	9209      	str	r2, [sp, #36]	; 0x24
 80002a6:	68fa      	ldr	r2, [r7, #12]
 80002a8:	9208      	str	r2, [sp, #32]
 80002aa:	693a      	ldr	r2, [r7, #16]
 80002ac:	9207      	str	r2, [sp, #28]
 80002ae:	697a      	ldr	r2, [r7, #20]
 80002b0:	9206      	str	r2, [sp, #24]
 80002b2:	69ba      	ldr	r2, [r7, #24]
 80002b4:	9205      	str	r2, [sp, #20]
 80002b6:	69fb      	ldr	r3, [r7, #28]
 80002b8:	9304      	str	r3, [sp, #16]
 80002ba:	9603      	str	r6, [sp, #12]
 80002bc:	9502      	str	r5, [sp, #8]
 80002be:	9401      	str	r4, [sp, #4]
 80002c0:	9000      	str	r0, [sp, #0]
 80002c2:	4673      	mov	r3, lr
 80002c4:	4662      	mov	r2, ip
 80002c6:	4910      	ldr	r1, [pc, #64]	; (8000308 <updateMux4+0x1bc>)
 80002c8:	4810      	ldr	r0, [pc, #64]	; (800030c <updateMux4+0x1c0>)
 80002ca:	f001 ffe1 	bl	8002290 <siprintf>
			HAL_UART_Transmit(&huart1, (uint8_t *)SaveDataMux4, sizeof(SaveDataMux4), Timeout);
 80002ce:	4b10      	ldr	r3, [pc, #64]	; (8000310 <updateMux4+0x1c4>)
 80002d0:	681b      	ldr	r3, [r3, #0]
 80002d2:	22c8      	movs	r2, #200	; 0xc8
 80002d4:	490d      	ldr	r1, [pc, #52]	; (800030c <updateMux4+0x1c0>)
 80002d6:	480f      	ldr	r0, [pc, #60]	; (8000314 <updateMux4+0x1c8>)
 80002d8:	f001 fe3d 	bl	8001f56 <HAL_UART_Transmit>
	for(int i=0; i<channel_max; i++){
 80002dc:	6a7b      	ldr	r3, [r7, #36]	; 0x24
 80002de:	3301      	adds	r3, #1
 80002e0:	627b      	str	r3, [r7, #36]	; 0x24
 80002e2:	6a7a      	ldr	r2, [r7, #36]	; 0x24
 80002e4:	6a3b      	ldr	r3, [r7, #32]
 80002e6:	429a      	cmp	r2, r3
 80002e8:	f6ff af3a 	blt.w	8000160 <updateMux4+0x14>
		}
	}
}
 80002ec:	bf00      	nop
 80002ee:	bf00      	nop
 80002f0:	372c      	adds	r7, #44	; 0x2c
 80002f2:	46bd      	mov	sp, r7
 80002f4:	bdf0      	pop	{r4, r5, r6, r7, pc}
 80002f6:	bf00      	nop
 80002f8:	40010c00 	.word	0x40010c00
 80002fc:	200002e8 	.word	0x200002e8
 8000300:	200003b0 	.word	0x200003b0
 8000304:	20000158 	.word	0x20000158
 8000308:	08002d00 	.word	0x08002d00
 800030c:	20000090 	.word	0x20000090
 8000310:	20000000 	.word	0x20000000
 8000314:	20000368 	.word	0x20000368

08000318 <ADC2_Select_CH3>:
	{
	Error_Handler();
	}
}

void ADC2_Select_CH3(void){
 8000318:	b580      	push	{r7, lr}
 800031a:	b084      	sub	sp, #16
 800031c:	af00      	add	r7, sp, #0
	ADC_ChannelConfTypeDef sConfig = {0};
 800031e:	1d3b      	adds	r3, r7, #4
 8000320:	2200      	movs	r2, #0
 8000322:	601a      	str	r2, [r3, #0]
 8000324:	605a      	str	r2, [r3, #4]
 8000326:	609a      	str	r2, [r3, #8]
	sConfig.Channel = ADC_CHANNEL_3;
 8000328:	2303      	movs	r3, #3
 800032a:	607b      	str	r3, [r7, #4]
	sConfig.Rank = ADC_REGULAR_RANK_1;
 800032c:	2301      	movs	r3, #1
 800032e:	60bb      	str	r3, [r7, #8]
	sConfig.SamplingTime = ADC_SAMPLETIME_1CYCLE_5;
 8000330:	2300      	movs	r3, #0
 8000332:	60fb      	str	r3, [r7, #12]
	if (HAL_ADC_ConfigChannel(&hadc2, &sConfig) != HAL_OK)
 8000334:	1d3b      	adds	r3, r7, #4
 8000336:	4619      	mov	r1, r3
 8000338:	4805      	ldr	r0, [pc, #20]	; (8000350 <ADC2_Select_CH3+0x38>)
 800033a:	f000 fce5 	bl	8000d08 <HAL_ADC_ConfigChannel>
 800033e:	4603      	mov	r3, r0
 8000340:	2b00      	cmp	r3, #0
 8000342:	d001      	beq.n	8000348 <ADC2_Select_CH3+0x30>
	{
	Error_Handler();
 8000344:	f000 f95e 	bl	8000604 <Error_Handler>
	}
}
 8000348:	bf00      	nop
 800034a:	3710      	adds	r7, #16
 800034c:	46bd      	mov	sp, r7
 800034e:	bd80      	pop	{r7, pc}
 8000350:	200002fc 	.word	0x200002fc

08000354 <main>:
/**
  * @brief  The application entry point.
  * @retval int
  */
int main(void)
{
 8000354:	b580      	push	{r7, lr}
 8000356:	af00      	add	r7, sp, #0
  /* USER CODE END 1 */

  /* MCU Configuration--------------------------------------------------------*/

  /* Reset of all peripherals, Initializes the Flash interface and the Systick. */
  HAL_Init();
 8000358:	f000 faca 	bl	80008f0 <HAL_Init>
  /* USER CODE BEGIN Init */

  /* USER CODE END Init */

  /* Configure the system clock */
  SystemClock_Config();
 800035c:	f000 f81a 	bl	8000394 <SystemClock_Config>
  /* USER CODE BEGIN SysInit */

  /* USER CODE END SysInit */

  /* Initialize all configured peripherals */
  MX_GPIO_Init();
 8000360:	f000 f8e2 	bl	8000528 <MX_GPIO_Init>
  MX_ADC1_Init();
 8000364:	f000 f866 	bl	8000434 <MX_ADC1_Init>
  MX_USART1_UART_Init();
 8000368:	f000 f8b4 	bl	80004d4 <MX_USART1_UART_Init>
  MX_ADC2_Init();
 800036c:	f000 f88a 	bl	8000484 <MX_ADC2_Init>
  /* USER CODE BEGIN 2 */
  HAL_ADC_Start(&hadc1);
 8000370:	4806      	ldr	r0, [pc, #24]	; (800038c <main+0x38>)
 8000372:	f000 fc1b 	bl	8000bac <HAL_ADC_Start>
  HAL_ADC_Start(&hadc2);
 8000376:	4806      	ldr	r0, [pc, #24]	; (8000390 <main+0x3c>)
 8000378:	f000 fc18 	bl	8000bac <HAL_ADC_Start>
	  //HAL_Delay(500);
	  //updateMux2();
	  //HAL_Delay(500);
	  //updateMux3();
	  //HAL_Delay(500);
	  updateMux4();
 800037c:	f7ff fee6 	bl	800014c <updateMux4>
	  //HAL_Delay(500);
    /* USER CODE END WHILE */

    /* USER CODE BEGIN 3 */
	  HAL_Delay(500);
 8000380:	f44f 70fa 	mov.w	r0, #500	; 0x1f4
 8000384:	f000 fb16 	bl	80009b4 <HAL_Delay>
	  updateMux4();
 8000388:	e7f8      	b.n	800037c <main+0x28>
 800038a:	bf00      	nop
 800038c:	20000334 	.word	0x20000334
 8000390:	200002fc 	.word	0x200002fc

08000394 <SystemClock_Config>:
/**
  * @brief System Clock Configuration
  * @retval None
  */
void SystemClock_Config(void)
{
 8000394:	b580      	push	{r7, lr}
 8000396:	b094      	sub	sp, #80	; 0x50
 8000398:	af00      	add	r7, sp, #0
  RCC_OscInitTypeDef RCC_OscInitStruct = {0};
 800039a:	f107 0328 	add.w	r3, r7, #40	; 0x28
 800039e:	2228      	movs	r2, #40	; 0x28
 80003a0:	2100      	movs	r1, #0
 80003a2:	4618      	mov	r0, r3
 80003a4:	f001 ff6c 	bl	8002280 <memset>
  RCC_ClkInitTypeDef RCC_ClkInitStruct = {0};
 80003a8:	f107 0314 	add.w	r3, r7, #20
 80003ac:	2200      	movs	r2, #0
 80003ae:	601a      	str	r2, [r3, #0]
 80003b0:	605a      	str	r2, [r3, #4]
 80003b2:	609a      	str	r2, [r3, #8]
 80003b4:	60da      	str	r2, [r3, #12]
 80003b6:	611a      	str	r2, [r3, #16]
  RCC_PeriphCLKInitTypeDef PeriphClkInit = {0};
 80003b8:	1d3b      	adds	r3, r7, #4
 80003ba:	2200      	movs	r2, #0
 80003bc:	601a      	str	r2, [r3, #0]
 80003be:	605a      	str	r2, [r3, #4]
 80003c0:	609a      	str	r2, [r3, #8]
 80003c2:	60da      	str	r2, [r3, #12]

  /** Initializes the RCC Oscillators according to the specified parameters
  * in the RCC_OscInitTypeDef structure.
  */
  RCC_OscInitStruct.OscillatorType = RCC_OSCILLATORTYPE_HSI;
 80003c4:	2302      	movs	r3, #2
 80003c6:	62bb      	str	r3, [r7, #40]	; 0x28
  RCC_OscInitStruct.HSIState = RCC_HSI_ON;
 80003c8:	2301      	movs	r3, #1
 80003ca:	63bb      	str	r3, [r7, #56]	; 0x38
  RCC_OscInitStruct.HSICalibrationValue = RCC_HSICALIBRATION_DEFAULT;
 80003cc:	2310      	movs	r3, #16
 80003ce:	63fb      	str	r3, [r7, #60]	; 0x3c
  RCC_OscInitStruct.PLL.PLLState = RCC_PLL_NONE;
 80003d0:	2300      	movs	r3, #0
 80003d2:	647b      	str	r3, [r7, #68]	; 0x44
  if (HAL_RCC_OscConfig(&RCC_OscInitStruct) != HAL_OK)
 80003d4:	f107 0328 	add.w	r3, r7, #40	; 0x28
 80003d8:	4618      	mov	r0, r3
 80003da:	f001 f89f 	bl	800151c <HAL_RCC_OscConfig>
 80003de:	4603      	mov	r3, r0
 80003e0:	2b00      	cmp	r3, #0
 80003e2:	d001      	beq.n	80003e8 <SystemClock_Config+0x54>
  {
    Error_Handler();
 80003e4:	f000 f90e 	bl	8000604 <Error_Handler>
  }
  /** Initializes the CPU, AHB and APB buses clocks
  */
  RCC_ClkInitStruct.ClockType = RCC_CLOCKTYPE_HCLK|RCC_CLOCKTYPE_SYSCLK
 80003e8:	230f      	movs	r3, #15
 80003ea:	617b      	str	r3, [r7, #20]
                              |RCC_CLOCKTYPE_PCLK1|RCC_CLOCKTYPE_PCLK2;
  RCC_ClkInitStruct.SYSCLKSource = RCC_SYSCLKSOURCE_HSI;
 80003ec:	2300      	movs	r3, #0
 80003ee:	61bb      	str	r3, [r7, #24]
  RCC_ClkInitStruct.AHBCLKDivider = RCC_SYSCLK_DIV1;
 80003f0:	2300      	movs	r3, #0
 80003f2:	61fb      	str	r3, [r7, #28]
  RCC_ClkInitStruct.APB1CLKDivider = RCC_HCLK_DIV1;
 80003f4:	2300      	movs	r3, #0
 80003f6:	623b      	str	r3, [r7, #32]
  RCC_ClkInitStruct.APB2CLKDivider = RCC_HCLK_DIV1;
 80003f8:	2300      	movs	r3, #0
 80003fa:	627b      	str	r3, [r7, #36]	; 0x24

  if (HAL_RCC_ClockConfig(&RCC_ClkInitStruct, FLASH_LATENCY_0) != HAL_OK)
 80003fc:	f107 0314 	add.w	r3, r7, #20
 8000400:	2100      	movs	r1, #0
 8000402:	4618      	mov	r0, r3
 8000404:	f001 fb0a 	bl	8001a1c <HAL_RCC_ClockConfig>
 8000408:	4603      	mov	r3, r0
 800040a:	2b00      	cmp	r3, #0
 800040c:	d001      	beq.n	8000412 <SystemClock_Config+0x7e>
  {
    Error_Handler();
 800040e:	f000 f8f9 	bl	8000604 <Error_Handler>
  }
  PeriphClkInit.PeriphClockSelection = RCC_PERIPHCLK_ADC;
 8000412:	2302      	movs	r3, #2
 8000414:	607b      	str	r3, [r7, #4]
  PeriphClkInit.AdcClockSelection = RCC_ADCPCLK2_DIV2;
 8000416:	2300      	movs	r3, #0
 8000418:	60fb      	str	r3, [r7, #12]
  if (HAL_RCCEx_PeriphCLKConfig(&PeriphClkInit) != HAL_OK)
 800041a:	1d3b      	adds	r3, r7, #4
 800041c:	4618      	mov	r0, r3
 800041e:	f001 fc97 	bl	8001d50 <HAL_RCCEx_PeriphCLKConfig>
 8000422:	4603      	mov	r3, r0
 8000424:	2b00      	cmp	r3, #0
 8000426:	d001      	beq.n	800042c <SystemClock_Config+0x98>
  {
    Error_Handler();
 8000428:	f000 f8ec 	bl	8000604 <Error_Handler>
  }
}
 800042c:	bf00      	nop
 800042e:	3750      	adds	r7, #80	; 0x50
 8000430:	46bd      	mov	sp, r7
 8000432:	bd80      	pop	{r7, pc}

08000434 <MX_ADC1_Init>:
  * @brief ADC1 Initialization Function
  * @param None
  * @retval None
  */
static void MX_ADC1_Init(void)
{
 8000434:	b580      	push	{r7, lr}
 8000436:	af00      	add	r7, sp, #0
  /* USER CODE BEGIN ADC1_Init 1 */

  /* USER CODE END ADC1_Init 1 */
  /** Common config
  */
  hadc1.Instance = ADC1;
 8000438:	4b10      	ldr	r3, [pc, #64]	; (800047c <MX_ADC1_Init+0x48>)
 800043a:	4a11      	ldr	r2, [pc, #68]	; (8000480 <MX_ADC1_Init+0x4c>)
 800043c:	601a      	str	r2, [r3, #0]
  hadc1.Init.ScanConvMode = ADC_SCAN_ENABLE;
 800043e:	4b0f      	ldr	r3, [pc, #60]	; (800047c <MX_ADC1_Init+0x48>)
 8000440:	f44f 7280 	mov.w	r2, #256	; 0x100
 8000444:	609a      	str	r2, [r3, #8]
  hadc1.Init.ContinuousConvMode = ENABLE;
 8000446:	4b0d      	ldr	r3, [pc, #52]	; (800047c <MX_ADC1_Init+0x48>)
 8000448:	2201      	movs	r2, #1
 800044a:	731a      	strb	r2, [r3, #12]
  hadc1.Init.DiscontinuousConvMode = DISABLE;
 800044c:	4b0b      	ldr	r3, [pc, #44]	; (800047c <MX_ADC1_Init+0x48>)
 800044e:	2200      	movs	r2, #0
 8000450:	751a      	strb	r2, [r3, #20]
  hadc1.Init.ExternalTrigConv = ADC_SOFTWARE_START;
 8000452:	4b0a      	ldr	r3, [pc, #40]	; (800047c <MX_ADC1_Init+0x48>)
 8000454:	f44f 2260 	mov.w	r2, #917504	; 0xe0000
 8000458:	61da      	str	r2, [r3, #28]
  hadc1.Init.DataAlign = ADC_DATAALIGN_RIGHT;
 800045a:	4b08      	ldr	r3, [pc, #32]	; (800047c <MX_ADC1_Init+0x48>)
 800045c:	2200      	movs	r2, #0
 800045e:	605a      	str	r2, [r3, #4]
  hadc1.Init.NbrOfConversion = 2;
 8000460:	4b06      	ldr	r3, [pc, #24]	; (800047c <MX_ADC1_Init+0x48>)
 8000462:	2202      	movs	r2, #2
 8000464:	611a      	str	r2, [r3, #16]
  if (HAL_ADC_Init(&hadc1) != HAL_OK)
 8000466:	4805      	ldr	r0, [pc, #20]	; (800047c <MX_ADC1_Init+0x48>)
 8000468:	f000 fac8 	bl	80009fc <HAL_ADC_Init>
 800046c:	4603      	mov	r3, r0
 800046e:	2b00      	cmp	r3, #0
 8000470:	d001      	beq.n	8000476 <MX_ADC1_Init+0x42>
  {
    Error_Handler();
 8000472:	f000 f8c7 	bl	8000604 <Error_Handler>
//  }
  /* USER CODE BEGIN ADC1_Init 2 */

  /* USER CODE END ADC1_Init 2 */

}
 8000476:	bf00      	nop
 8000478:	bd80      	pop	{r7, pc}
 800047a:	bf00      	nop
 800047c:	20000334 	.word	0x20000334
 8000480:	40012400 	.word	0x40012400

08000484 <MX_ADC2_Init>:
  * @brief ADC2 Initialization Function
  * @param None
  * @retval None
  */
static void MX_ADC2_Init(void)
{
 8000484:	b580      	push	{r7, lr}
 8000486:	af00      	add	r7, sp, #0
  /* USER CODE BEGIN ADC2_Init 1 */

  /* USER CODE END ADC2_Init 1 */
  /** Common config
  */
  hadc2.Instance = ADC2;
 8000488:	4b10      	ldr	r3, [pc, #64]	; (80004cc <MX_ADC2_Init+0x48>)
 800048a:	4a11      	ldr	r2, [pc, #68]	; (80004d0 <MX_ADC2_Init+0x4c>)
 800048c:	601a      	str	r2, [r3, #0]
  hadc2.Init.ScanConvMode = ADC_SCAN_ENABLE;
 800048e:	4b0f      	ldr	r3, [pc, #60]	; (80004cc <MX_ADC2_Init+0x48>)
 8000490:	f44f 7280 	mov.w	r2, #256	; 0x100
 8000494:	609a      	str	r2, [r3, #8]
  hadc2.Init.ContinuousConvMode = ENABLE;
 8000496:	4b0d      	ldr	r3, [pc, #52]	; (80004cc <MX_ADC2_Init+0x48>)
 8000498:	2201      	movs	r2, #1
 800049a:	731a      	strb	r2, [r3, #12]
  hadc2.Init.DiscontinuousConvMode = DISABLE;
 800049c:	4b0b      	ldr	r3, [pc, #44]	; (80004cc <MX_ADC2_Init+0x48>)
 800049e:	2200      	movs	r2, #0
 80004a0:	751a      	strb	r2, [r3, #20]
  hadc2.Init.ExternalTrigConv = ADC_SOFTWARE_START;
 80004a2:	4b0a      	ldr	r3, [pc, #40]	; (80004cc <MX_ADC2_Init+0x48>)
 80004a4:	f44f 2260 	mov.w	r2, #917504	; 0xe0000
 80004a8:	61da      	str	r2, [r3, #28]
  hadc2.Init.DataAlign = ADC_DATAALIGN_RIGHT;
 80004aa:	4b08      	ldr	r3, [pc, #32]	; (80004cc <MX_ADC2_Init+0x48>)
 80004ac:	2200      	movs	r2, #0
 80004ae:	605a      	str	r2, [r3, #4]
  hadc2.Init.NbrOfConversion = 2;
 80004b0:	4b06      	ldr	r3, [pc, #24]	; (80004cc <MX_ADC2_Init+0x48>)
 80004b2:	2202      	movs	r2, #2
 80004b4:	611a      	str	r2, [r3, #16]
  if (HAL_ADC_Init(&hadc2) != HAL_OK)
 80004b6:	4805      	ldr	r0, [pc, #20]	; (80004cc <MX_ADC2_Init+0x48>)
 80004b8:	f000 faa0 	bl	80009fc <HAL_ADC_Init>
 80004bc:	4603      	mov	r3, r0
 80004be:	2b00      	cmp	r3, #0
 80004c0:	d001      	beq.n	80004c6 <MX_ADC2_Init+0x42>
  {
    Error_Handler();
 80004c2:	f000 f89f 	bl	8000604 <Error_Handler>
//  }
  /* USER CODE BEGIN ADC2_Init 2 */

  /* USER CODE END ADC2_Init 2 */

}
 80004c6:	bf00      	nop
 80004c8:	bd80      	pop	{r7, pc}
 80004ca:	bf00      	nop
 80004cc:	200002fc 	.word	0x200002fc
 80004d0:	40012800 	.word	0x40012800

080004d4 <MX_USART1_UART_Init>:
  * @brief USART1 Initialization Function
  * @param None
  * @retval None
  */
static void MX_USART1_UART_Init(void)
{
 80004d4:	b580      	push	{r7, lr}
 80004d6:	af00      	add	r7, sp, #0
  /* USER CODE END USART1_Init 0 */

  /* USER CODE BEGIN USART1_Init 1 */

  /* USER CODE END USART1_Init 1 */
  huart1.Instance = USART1;
 80004d8:	4b11      	ldr	r3, [pc, #68]	; (8000520 <MX_USART1_UART_Init+0x4c>)
 80004da:	4a12      	ldr	r2, [pc, #72]	; (8000524 <MX_USART1_UART_Init+0x50>)
 80004dc:	601a      	str	r2, [r3, #0]
  huart1.Init.BaudRate = 115200;
 80004de:	4b10      	ldr	r3, [pc, #64]	; (8000520 <MX_USART1_UART_Init+0x4c>)
 80004e0:	f44f 32e1 	mov.w	r2, #115200	; 0x1c200
 80004e4:	605a      	str	r2, [r3, #4]
  huart1.Init.WordLength = UART_WORDLENGTH_8B;
 80004e6:	4b0e      	ldr	r3, [pc, #56]	; (8000520 <MX_USART1_UART_Init+0x4c>)
 80004e8:	2200      	movs	r2, #0
 80004ea:	609a      	str	r2, [r3, #8]
  huart1.Init.StopBits = UART_STOPBITS_1;
 80004ec:	4b0c      	ldr	r3, [pc, #48]	; (8000520 <MX_USART1_UART_Init+0x4c>)
 80004ee:	2200      	movs	r2, #0
 80004f0:	60da      	str	r2, [r3, #12]
  huart1.Init.Parity = UART_PARITY_NONE;
 80004f2:	4b0b      	ldr	r3, [pc, #44]	; (8000520 <MX_USART1_UART_Init+0x4c>)
 80004f4:	2200      	movs	r2, #0
 80004f6:	611a      	str	r2, [r3, #16]
  huart1.Init.Mode = UART_MODE_TX_RX;
 80004f8:	4b09      	ldr	r3, [pc, #36]	; (8000520 <MX_USART1_UART_Init+0x4c>)
 80004fa:	220c      	movs	r2, #12
 80004fc:	615a      	str	r2, [r3, #20]
  huart1.Init.HwFlowCtl = UART_HWCONTROL_NONE;
 80004fe:	4b08      	ldr	r3, [pc, #32]	; (8000520 <MX_USART1_UART_Init+0x4c>)
 8000500:	2200      	movs	r2, #0
 8000502:	619a      	str	r2, [r3, #24]
  huart1.Init.OverSampling = UART_OVERSAMPLING_16;
 8000504:	4b06      	ldr	r3, [pc, #24]	; (8000520 <MX_USART1_UART_Init+0x4c>)
 8000506:	2200      	movs	r2, #0
 8000508:	61da      	str	r2, [r3, #28]
  if (HAL_UART_Init(&huart1) != HAL_OK)
 800050a:	4805      	ldr	r0, [pc, #20]	; (8000520 <MX_USART1_UART_Init+0x4c>)
 800050c:	f001 fcd6 	bl	8001ebc <HAL_UART_Init>
 8000510:	4603      	mov	r3, r0
 8000512:	2b00      	cmp	r3, #0
 8000514:	d001      	beq.n	800051a <MX_USART1_UART_Init+0x46>
  {
    Error_Handler();
 8000516:	f000 f875 	bl	8000604 <Error_Handler>
  }
  /* USER CODE BEGIN USART1_Init 2 */

  /* USER CODE END USART1_Init 2 */

}
 800051a:	bf00      	nop
 800051c:	bd80      	pop	{r7, pc}
 800051e:	bf00      	nop
 8000520:	20000368 	.word	0x20000368
 8000524:	40013800 	.word	0x40013800

08000528 <MX_GPIO_Init>:
  * @brief GPIO Initialization Function
  * @param None
  * @retval None
  */
static void MX_GPIO_Init(void)
{
 8000528:	b580      	push	{r7, lr}
 800052a:	b088      	sub	sp, #32
 800052c:	af00      	add	r7, sp, #0
  GPIO_InitTypeDef GPIO_InitStruct = {0};
 800052e:	f107 0310 	add.w	r3, r7, #16
 8000532:	2200      	movs	r2, #0
 8000534:	601a      	str	r2, [r3, #0]
 8000536:	605a      	str	r2, [r3, #4]
 8000538:	609a      	str	r2, [r3, #8]
 800053a:	60da      	str	r2, [r3, #12]

  /* GPIO Ports Clock Enable */
  __HAL_RCC_GPIOC_CLK_ENABLE();
 800053c:	4b2e      	ldr	r3, [pc, #184]	; (80005f8 <MX_GPIO_Init+0xd0>)
 800053e:	699b      	ldr	r3, [r3, #24]
 8000540:	4a2d      	ldr	r2, [pc, #180]	; (80005f8 <MX_GPIO_Init+0xd0>)
 8000542:	f043 0310 	orr.w	r3, r3, #16
 8000546:	6193      	str	r3, [r2, #24]
 8000548:	4b2b      	ldr	r3, [pc, #172]	; (80005f8 <MX_GPIO_Init+0xd0>)
 800054a:	699b      	ldr	r3, [r3, #24]
 800054c:	f003 0310 	and.w	r3, r3, #16
 8000550:	60fb      	str	r3, [r7, #12]
 8000552:	68fb      	ldr	r3, [r7, #12]
  __HAL_RCC_GPIOD_CLK_ENABLE();
 8000554:	4b28      	ldr	r3, [pc, #160]	; (80005f8 <MX_GPIO_Init+0xd0>)
 8000556:	699b      	ldr	r3, [r3, #24]
 8000558:	4a27      	ldr	r2, [pc, #156]	; (80005f8 <MX_GPIO_Init+0xd0>)
 800055a:	f043 0320 	orr.w	r3, r3, #32
 800055e:	6193      	str	r3, [r2, #24]
 8000560:	4b25      	ldr	r3, [pc, #148]	; (80005f8 <MX_GPIO_Init+0xd0>)
 8000562:	699b      	ldr	r3, [r3, #24]
 8000564:	f003 0320 	and.w	r3, r3, #32
 8000568:	60bb      	str	r3, [r7, #8]
 800056a:	68bb      	ldr	r3, [r7, #8]
  __HAL_RCC_GPIOA_CLK_ENABLE();
 800056c:	4b22      	ldr	r3, [pc, #136]	; (80005f8 <MX_GPIO_Init+0xd0>)
 800056e:	699b      	ldr	r3, [r3, #24]
 8000570:	4a21      	ldr	r2, [pc, #132]	; (80005f8 <MX_GPIO_Init+0xd0>)
 8000572:	f043 0304 	orr.w	r3, r3, #4
 8000576:	6193      	str	r3, [r2, #24]
 8000578:	4b1f      	ldr	r3, [pc, #124]	; (80005f8 <MX_GPIO_Init+0xd0>)
 800057a:	699b      	ldr	r3, [r3, #24]
 800057c:	f003 0304 	and.w	r3, r3, #4
 8000580:	607b      	str	r3, [r7, #4]
 8000582:	687b      	ldr	r3, [r7, #4]
  __HAL_RCC_GPIOB_CLK_ENABLE();
 8000584:	4b1c      	ldr	r3, [pc, #112]	; (80005f8 <MX_GPIO_Init+0xd0>)
 8000586:	699b      	ldr	r3, [r3, #24]
 8000588:	4a1b      	ldr	r2, [pc, #108]	; (80005f8 <MX_GPIO_Init+0xd0>)
 800058a:	f043 0308 	orr.w	r3, r3, #8
 800058e:	6193      	str	r3, [r2, #24]
 8000590:	4b19      	ldr	r3, [pc, #100]	; (80005f8 <MX_GPIO_Init+0xd0>)
 8000592:	699b      	ldr	r3, [r3, #24]
 8000594:	f003 0308 	and.w	r3, r3, #8
 8000598:	603b      	str	r3, [r7, #0]
 800059a:	683b      	ldr	r3, [r7, #0]

  /*Configure GPIO pin Output Level */
  HAL_GPIO_WritePin(GPIOC, GPIO_PIN_13, GPIO_PIN_RESET);
 800059c:	2200      	movs	r2, #0
 800059e:	f44f 5100 	mov.w	r1, #8192	; 0x2000
 80005a2:	4816      	ldr	r0, [pc, #88]	; (80005fc <MX_GPIO_Init+0xd4>)
 80005a4:	f000 ffa2 	bl	80014ec <HAL_GPIO_WritePin>

  /*Configure GPIO pin Output Level */
  HAL_GPIO_WritePin(GPIOB, GPIO_PIN_0|GPIO_PIN_1|GPIO_PIN_2|GPIO_PIN_10
 80005a8:	2200      	movs	r2, #0
 80005aa:	f64f 71ff 	movw	r1, #65535	; 0xffff
 80005ae:	4814      	ldr	r0, [pc, #80]	; (8000600 <MX_GPIO_Init+0xd8>)
 80005b0:	f000 ff9c 	bl	80014ec <HAL_GPIO_WritePin>
                          |GPIO_PIN_11|GPIO_PIN_12|GPIO_PIN_13|GPIO_PIN_14
                          |GPIO_PIN_15|GPIO_PIN_3|GPIO_PIN_4|GPIO_PIN_5
                          |GPIO_PIN_6|GPIO_PIN_7|GPIO_PIN_8|GPIO_PIN_9, GPIO_PIN_RESET);

  /*Configure GPIO pin : PC13 */
  GPIO_InitStruct.Pin = GPIO_PIN_13;
 80005b4:	f44f 5300 	mov.w	r3, #8192	; 0x2000
 80005b8:	613b      	str	r3, [r7, #16]
  GPIO_InitStruct.Mode = GPIO_MODE_OUTPUT_PP;
 80005ba:	2301      	movs	r3, #1
 80005bc:	617b      	str	r3, [r7, #20]
  GPIO_InitStruct.Pull = GPIO_NOPULL;
 80005be:	2300      	movs	r3, #0
 80005c0:	61bb      	str	r3, [r7, #24]
  GPIO_InitStruct.Speed = GPIO_SPEED_FREQ_LOW;
 80005c2:	2302      	movs	r3, #2
 80005c4:	61fb      	str	r3, [r7, #28]
  HAL_GPIO_Init(GPIOC, &GPIO_InitStruct);
 80005c6:	f107 0310 	add.w	r3, r7, #16
 80005ca:	4619      	mov	r1, r3
 80005cc:	480b      	ldr	r0, [pc, #44]	; (80005fc <MX_GPIO_Init+0xd4>)
 80005ce:	f000 fe13 	bl	80011f8 <HAL_GPIO_Init>

  /*Configure GPIO pins : PB0 PB1 PB2 PB10
                           PB11 PB12 PB13 PB14
                           PB15 PB3 PB4 PB5
                           PB6 PB7 PB8 PB9 */
  GPIO_InitStruct.Pin = GPIO_PIN_0|GPIO_PIN_1|GPIO_PIN_2|GPIO_PIN_10
 80005d2:	f64f 73ff 	movw	r3, #65535	; 0xffff
 80005d6:	613b      	str	r3, [r7, #16]
                          |GPIO_PIN_11|GPIO_PIN_12|GPIO_PIN_13|GPIO_PIN_14
                          |GPIO_PIN_15|GPIO_PIN_3|GPIO_PIN_4|GPIO_PIN_5
                          |GPIO_PIN_6|GPIO_PIN_7|GPIO_PIN_8|GPIO_PIN_9;
  GPIO_InitStruct.Mode = GPIO_MODE_OUTPUT_PP;
 80005d8:	2301      	movs	r3, #1
 80005da:	617b      	str	r3, [r7, #20]
  GPIO_InitStruct.Pull = GPIO_NOPULL;
 80005dc:	2300      	movs	r3, #0
 80005de:	61bb      	str	r3, [r7, #24]
  GPIO_InitStruct.Speed = GPIO_SPEED_FREQ_LOW;
 80005e0:	2302      	movs	r3, #2
 80005e2:	61fb      	str	r3, [r7, #28]
  HAL_GPIO_Init(GPIOB, &GPIO_InitStruct);
 80005e4:	f107 0310 	add.w	r3, r7, #16
 80005e8:	4619      	mov	r1, r3
 80005ea:	4805      	ldr	r0, [pc, #20]	; (8000600 <MX_GPIO_Init+0xd8>)
 80005ec:	f000 fe04 	bl	80011f8 <HAL_GPIO_Init>

}
 80005f0:	bf00      	nop
 80005f2:	3720      	adds	r7, #32
 80005f4:	46bd      	mov	sp, r7
 80005f6:	bd80      	pop	{r7, pc}
 80005f8:	40021000 	.word	0x40021000
 80005fc:	40011000 	.word	0x40011000
 8000600:	40010c00 	.word	0x40010c00

08000604 <Error_Handler>:
/**
  * @brief  This function is executed in case of error occurrence.
  * @retval None
  */
void Error_Handler(void)
{
 8000604:	b480      	push	{r7}
 8000606:	af00      	add	r7, sp, #0
  /* USER CODE BEGIN Error_Handler_Debug */
  /* User can add his own implementation to report the HAL error return state */

  /* USER CODE END Error_Handler_Debug */
}
 8000608:	bf00      	nop
 800060a:	46bd      	mov	sp, r7
 800060c:	bc80      	pop	{r7}
 800060e:	4770      	bx	lr

08000610 <HAL_MspInit>:
/* USER CODE END 0 */
/**
  * Initializes the Global MSP.
  */
void HAL_MspInit(void)
{
 8000610:	b480      	push	{r7}
 8000612:	b085      	sub	sp, #20
 8000614:	af00      	add	r7, sp, #0
  /* USER CODE BEGIN MspInit 0 */

  /* USER CODE END MspInit 0 */

  __HAL_RCC_AFIO_CLK_ENABLE();
 8000616:	4b15      	ldr	r3, [pc, #84]	; (800066c <HAL_MspInit+0x5c>)
 8000618:	699b      	ldr	r3, [r3, #24]
 800061a:	4a14      	ldr	r2, [pc, #80]	; (800066c <HAL_MspInit+0x5c>)
 800061c:	f043 0301 	orr.w	r3, r3, #1
 8000620:	6193      	str	r3, [r2, #24]
 8000622:	4b12      	ldr	r3, [pc, #72]	; (800066c <HAL_MspInit+0x5c>)
 8000624:	699b      	ldr	r3, [r3, #24]
 8000626:	f003 0301 	and.w	r3, r3, #1
 800062a:	60bb      	str	r3, [r7, #8]
 800062c:	68bb      	ldr	r3, [r7, #8]
  __HAL_RCC_PWR_CLK_ENABLE();
 800062e:	4b0f      	ldr	r3, [pc, #60]	; (800066c <HAL_MspInit+0x5c>)
 8000630:	69db      	ldr	r3, [r3, #28]
 8000632:	4a0e      	ldr	r2, [pc, #56]	; (800066c <HAL_MspInit+0x5c>)
 8000634:	f043 5380 	orr.w	r3, r3, #268435456	; 0x10000000
 8000638:	61d3      	str	r3, [r2, #28]
 800063a:	4b0c      	ldr	r3, [pc, #48]	; (800066c <HAL_MspInit+0x5c>)
 800063c:	69db      	ldr	r3, [r3, #28]
 800063e:	f003 5380 	and.w	r3, r3, #268435456	; 0x10000000
 8000642:	607b      	str	r3, [r7, #4]
 8000644:	687b      	ldr	r3, [r7, #4]

  /* System interrupt init*/

  /** DISABLE: JTAG-DP Disabled and SW-DP Disabled
  */
  __HAL_AFIO_REMAP_SWJ_DISABLE();
 8000646:	4b0a      	ldr	r3, [pc, #40]	; (8000670 <HAL_MspInit+0x60>)
 8000648:	685b      	ldr	r3, [r3, #4]
 800064a:	60fb      	str	r3, [r7, #12]
 800064c:	68fb      	ldr	r3, [r7, #12]
 800064e:	f023 63e0 	bic.w	r3, r3, #117440512	; 0x7000000
 8000652:	60fb      	str	r3, [r7, #12]
 8000654:	68fb      	ldr	r3, [r7, #12]
 8000656:	f043 6380 	orr.w	r3, r3, #67108864	; 0x4000000
 800065a:	60fb      	str	r3, [r7, #12]
 800065c:	4a04      	ldr	r2, [pc, #16]	; (8000670 <HAL_MspInit+0x60>)
 800065e:	68fb      	ldr	r3, [r7, #12]
 8000660:	6053      	str	r3, [r2, #4]

  /* USER CODE BEGIN MspInit 1 */

  /* USER CODE END MspInit 1 */
}
 8000662:	bf00      	nop
 8000664:	3714      	adds	r7, #20
 8000666:	46bd      	mov	sp, r7
 8000668:	bc80      	pop	{r7}
 800066a:	4770      	bx	lr
 800066c:	40021000 	.word	0x40021000
 8000670:	40010000 	.word	0x40010000

08000674 <HAL_ADC_MspInit>:
* This function configures the hardware resources used in this example
* @param hadc: ADC handle pointer
* @retval None
*/
void HAL_ADC_MspInit(ADC_HandleTypeDef* hadc)
{
 8000674:	b580      	push	{r7, lr}
 8000676:	b08a      	sub	sp, #40	; 0x28
 8000678:	af00      	add	r7, sp, #0
 800067a:	6078      	str	r0, [r7, #4]
  GPIO_InitTypeDef GPIO_InitStruct = {0};
 800067c:	f107 0318 	add.w	r3, r7, #24
 8000680:	2200      	movs	r2, #0
 8000682:	601a      	str	r2, [r3, #0]
 8000684:	605a      	str	r2, [r3, #4]
 8000686:	609a      	str	r2, [r3, #8]
 8000688:	60da      	str	r2, [r3, #12]
  if(hadc->Instance==ADC1)
 800068a:	687b      	ldr	r3, [r7, #4]
 800068c:	681b      	ldr	r3, [r3, #0]
 800068e:	4a28      	ldr	r2, [pc, #160]	; (8000730 <HAL_ADC_MspInit+0xbc>)
 8000690:	4293      	cmp	r3, r2
 8000692:	d122      	bne.n	80006da <HAL_ADC_MspInit+0x66>
  {
  /* USER CODE BEGIN ADC1_MspInit 0 */

  /* USER CODE END ADC1_MspInit 0 */
    /* Peripheral clock enable */
    __HAL_RCC_ADC1_CLK_ENABLE();
 8000694:	4b27      	ldr	r3, [pc, #156]	; (8000734 <HAL_ADC_MspInit+0xc0>)
 8000696:	699b      	ldr	r3, [r3, #24]
 8000698:	4a26      	ldr	r2, [pc, #152]	; (8000734 <HAL_ADC_MspInit+0xc0>)
 800069a:	f443 7300 	orr.w	r3, r3, #512	; 0x200
 800069e:	6193      	str	r3, [r2, #24]
 80006a0:	4b24      	ldr	r3, [pc, #144]	; (8000734 <HAL_ADC_MspInit+0xc0>)
 80006a2:	699b      	ldr	r3, [r3, #24]
 80006a4:	f403 7300 	and.w	r3, r3, #512	; 0x200
 80006a8:	617b      	str	r3, [r7, #20]
 80006aa:	697b      	ldr	r3, [r7, #20]

    __HAL_RCC_GPIOA_CLK_ENABLE();
 80006ac:	4b21      	ldr	r3, [pc, #132]	; (8000734 <HAL_ADC_MspInit+0xc0>)
 80006ae:	699b      	ldr	r3, [r3, #24]
 80006b0:	4a20      	ldr	r2, [pc, #128]	; (8000734 <HAL_ADC_MspInit+0xc0>)
 80006b2:	f043 0304 	orr.w	r3, r3, #4
 80006b6:	6193      	str	r3, [r2, #24]
 80006b8:	4b1e      	ldr	r3, [pc, #120]	; (8000734 <HAL_ADC_MspInit+0xc0>)
 80006ba:	699b      	ldr	r3, [r3, #24]
 80006bc:	f003 0304 	and.w	r3, r3, #4
 80006c0:	613b      	str	r3, [r7, #16]
 80006c2:	693b      	ldr	r3, [r7, #16]
    /**ADC1 GPIO Configuration
    PA0-WKUP     ------> ADC1_IN0
    PA1     ------> ADC1_IN1
    */
    GPIO_InitStruct.Pin = GPIO_PIN_0|GPIO_PIN_1;
 80006c4:	2303      	movs	r3, #3
 80006c6:	61bb      	str	r3, [r7, #24]
    GPIO_InitStruct.Mode = GPIO_MODE_ANALOG;
 80006c8:	2303      	movs	r3, #3
 80006ca:	61fb      	str	r3, [r7, #28]
    HAL_GPIO_Init(GPIOA, &GPIO_InitStruct);
 80006cc:	f107 0318 	add.w	r3, r7, #24
 80006d0:	4619      	mov	r1, r3
 80006d2:	4819      	ldr	r0, [pc, #100]	; (8000738 <HAL_ADC_MspInit+0xc4>)
 80006d4:	f000 fd90 	bl	80011f8 <HAL_GPIO_Init>
  /* USER CODE BEGIN ADC2_MspInit 1 */

  /* USER CODE END ADC2_MspInit 1 */
  }

}
 80006d8:	e026      	b.n	8000728 <HAL_ADC_MspInit+0xb4>
  else if(hadc->Instance==ADC2)
 80006da:	687b      	ldr	r3, [r7, #4]
 80006dc:	681b      	ldr	r3, [r3, #0]
 80006de:	4a17      	ldr	r2, [pc, #92]	; (800073c <HAL_ADC_MspInit+0xc8>)
 80006e0:	4293      	cmp	r3, r2
 80006e2:	d121      	bne.n	8000728 <HAL_ADC_MspInit+0xb4>
    __HAL_RCC_ADC2_CLK_ENABLE();
 80006e4:	4b13      	ldr	r3, [pc, #76]	; (8000734 <HAL_ADC_MspInit+0xc0>)
 80006e6:	699b      	ldr	r3, [r3, #24]
 80006e8:	4a12      	ldr	r2, [pc, #72]	; (8000734 <HAL_ADC_MspInit+0xc0>)
 80006ea:	f443 6380 	orr.w	r3, r3, #1024	; 0x400
 80006ee:	6193      	str	r3, [r2, #24]
 80006f0:	4b10      	ldr	r3, [pc, #64]	; (8000734 <HAL_ADC_MspInit+0xc0>)
 80006f2:	699b      	ldr	r3, [r3, #24]
 80006f4:	f403 6380 	and.w	r3, r3, #1024	; 0x400
 80006f8:	60fb      	str	r3, [r7, #12]
 80006fa:	68fb      	ldr	r3, [r7, #12]
    __HAL_RCC_GPIOA_CLK_ENABLE();
 80006fc:	4b0d      	ldr	r3, [pc, #52]	; (8000734 <HAL_ADC_MspInit+0xc0>)
 80006fe:	699b      	ldr	r3, [r3, #24]
 8000700:	4a0c      	ldr	r2, [pc, #48]	; (8000734 <HAL_ADC_MspInit+0xc0>)
 8000702:	f043 0304 	orr.w	r3, r3, #4
 8000706:	6193      	str	r3, [r2, #24]
 8000708:	4b0a      	ldr	r3, [pc, #40]	; (8000734 <HAL_ADC_MspInit+0xc0>)
 800070a:	699b      	ldr	r3, [r3, #24]
 800070c:	f003 0304 	and.w	r3, r3, #4
 8000710:	60bb      	str	r3, [r7, #8]
 8000712:	68bb      	ldr	r3, [r7, #8]
    GPIO_InitStruct.Pin = GPIO_PIN_2|GPIO_PIN_3;
 8000714:	230c      	movs	r3, #12
 8000716:	61bb      	str	r3, [r7, #24]
    GPIO_InitStruct.Mode = GPIO_MODE_ANALOG;
 8000718:	2303      	movs	r3, #3
 800071a:	61fb      	str	r3, [r7, #28]
    HAL_GPIO_Init(GPIOA, &GPIO_InitStruct);
 800071c:	f107 0318 	add.w	r3, r7, #24
 8000720:	4619      	mov	r1, r3
 8000722:	4805      	ldr	r0, [pc, #20]	; (8000738 <HAL_ADC_MspInit+0xc4>)
 8000724:	f000 fd68 	bl	80011f8 <HAL_GPIO_Init>
}
 8000728:	bf00      	nop
 800072a:	3728      	adds	r7, #40	; 0x28
 800072c:	46bd      	mov	sp, r7
 800072e:	bd80      	pop	{r7, pc}
 8000730:	40012400 	.word	0x40012400
 8000734:	40021000 	.word	0x40021000
 8000738:	40010800 	.word	0x40010800
 800073c:	40012800 	.word	0x40012800

08000740 <HAL_UART_MspInit>:
* This function configures the hardware resources used in this example
* @param huart: UART handle pointer
* @retval None
*/
void HAL_UART_MspInit(UART_HandleTypeDef* huart)
{
 8000740:	b580      	push	{r7, lr}
 8000742:	b088      	sub	sp, #32
 8000744:	af00      	add	r7, sp, #0
 8000746:	6078      	str	r0, [r7, #4]
  GPIO_InitTypeDef GPIO_InitStruct = {0};
 8000748:	f107 0310 	add.w	r3, r7, #16
 800074c:	2200      	movs	r2, #0
 800074e:	601a      	str	r2, [r3, #0]
 8000750:	605a      	str	r2, [r3, #4]
 8000752:	609a      	str	r2, [r3, #8]
 8000754:	60da      	str	r2, [r3, #12]
  if(huart->Instance==USART1)
 8000756:	687b      	ldr	r3, [r7, #4]
 8000758:	681b      	ldr	r3, [r3, #0]
 800075a:	4a1c      	ldr	r2, [pc, #112]	; (80007cc <HAL_UART_MspInit+0x8c>)
 800075c:	4293      	cmp	r3, r2
 800075e:	d131      	bne.n	80007c4 <HAL_UART_MspInit+0x84>
  {
  /* USER CODE BEGIN USART1_MspInit 0 */

  /* USER CODE END USART1_MspInit 0 */
    /* Peripheral clock enable */
    __HAL_RCC_USART1_CLK_ENABLE();
 8000760:	4b1b      	ldr	r3, [pc, #108]	; (80007d0 <HAL_UART_MspInit+0x90>)
 8000762:	699b      	ldr	r3, [r3, #24]
 8000764:	4a1a      	ldr	r2, [pc, #104]	; (80007d0 <HAL_UART_MspInit+0x90>)
 8000766:	f443 4380 	orr.w	r3, r3, #16384	; 0x4000
 800076a:	6193      	str	r3, [r2, #24]
 800076c:	4b18      	ldr	r3, [pc, #96]	; (80007d0 <HAL_UART_MspInit+0x90>)
 800076e:	699b      	ldr	r3, [r3, #24]
 8000770:	f403 4380 	and.w	r3, r3, #16384	; 0x4000
 8000774:	60fb      	str	r3, [r7, #12]
 8000776:	68fb      	ldr	r3, [r7, #12]

    __HAL_RCC_GPIOA_CLK_ENABLE();
 8000778:	4b15      	ldr	r3, [pc, #84]	; (80007d0 <HAL_UART_MspInit+0x90>)
 800077a:	699b      	ldr	r3, [r3, #24]
 800077c:	4a14      	ldr	r2, [pc, #80]	; (80007d0 <HAL_UART_MspInit+0x90>)
 800077e:	f043 0304 	orr.w	r3, r3, #4
 8000782:	6193      	str	r3, [r2, #24]
 8000784:	4b12      	ldr	r3, [pc, #72]	; (80007d0 <HAL_UART_MspInit+0x90>)
 8000786:	699b      	ldr	r3, [r3, #24]
 8000788:	f003 0304 	and.w	r3, r3, #4
 800078c:	60bb      	str	r3, [r7, #8]
 800078e:	68bb      	ldr	r3, [r7, #8]
    /**USART1 GPIO Configuration
    PA9     ------> USART1_TX
    PA10     ------> USART1_RX
    */
    GPIO_InitStruct.Pin = GPIO_PIN_9;
 8000790:	f44f 7300 	mov.w	r3, #512	; 0x200
 8000794:	613b      	str	r3, [r7, #16]
    GPIO_InitStruct.Mode = GPIO_MODE_AF_PP;
 8000796:	2302      	movs	r3, #2
 8000798:	617b      	str	r3, [r7, #20]
    GPIO_InitStruct.Speed = GPIO_SPEED_FREQ_HIGH;
 800079a:	2303      	movs	r3, #3
 800079c:	61fb      	str	r3, [r7, #28]
    HAL_GPIO_Init(GPIOA, &GPIO_InitStruct);
 800079e:	f107 0310 	add.w	r3, r7, #16
 80007a2:	4619      	mov	r1, r3
 80007a4:	480b      	ldr	r0, [pc, #44]	; (80007d4 <HAL_UART_MspInit+0x94>)
 80007a6:	f000 fd27 	bl	80011f8 <HAL_GPIO_Init>

    GPIO_InitStruct.Pin = GPIO_PIN_10;
 80007aa:	f44f 6380 	mov.w	r3, #1024	; 0x400
 80007ae:	613b      	str	r3, [r7, #16]
    GPIO_InitStruct.Mode = GPIO_MODE_INPUT;
 80007b0:	2300      	movs	r3, #0
 80007b2:	617b      	str	r3, [r7, #20]
    GPIO_InitStruct.Pull = GPIO_NOPULL;
 80007b4:	2300      	movs	r3, #0
 80007b6:	61bb      	str	r3, [r7, #24]
    HAL_GPIO_Init(GPIOA, &GPIO_InitStruct);
 80007b8:	f107 0310 	add.w	r3, r7, #16
 80007bc:	4619      	mov	r1, r3
 80007be:	4805      	ldr	r0, [pc, #20]	; (80007d4 <HAL_UART_MspInit+0x94>)
 80007c0:	f000 fd1a 	bl	80011f8 <HAL_GPIO_Init>
  /* USER CODE BEGIN USART1_MspInit 1 */

  /* USER CODE END USART1_MspInit 1 */
  }

}
 80007c4:	bf00      	nop
 80007c6:	3720      	adds	r7, #32
 80007c8:	46bd      	mov	sp, r7
 80007ca:	bd80      	pop	{r7, pc}
 80007cc:	40013800 	.word	0x40013800
 80007d0:	40021000 	.word	0x40021000
 80007d4:	40010800 	.word	0x40010800

080007d8 <NMI_Handler>:
/******************************************************************************/
/**
  * @brief This function handles Non maskable interrupt.
  */
void NMI_Handler(void)
{
 80007d8:	b480      	push	{r7}
 80007da:	af00      	add	r7, sp, #0

  /* USER CODE END NonMaskableInt_IRQn 0 */
  /* USER CODE BEGIN NonMaskableInt_IRQn 1 */

  /* USER CODE END NonMaskableInt_IRQn 1 */
}
 80007dc:	bf00      	nop
 80007de:	46bd      	mov	sp, r7
 80007e0:	bc80      	pop	{r7}
 80007e2:	4770      	bx	lr

080007e4 <HardFault_Handler>:

/**
  * @brief This function handles Hard fault interrupt.
  */
void HardFault_Handler(void)
{
 80007e4:	b480      	push	{r7}
 80007e6:	af00      	add	r7, sp, #0
  /* USER CODE BEGIN HardFault_IRQn 0 */

  /* USER CODE END HardFault_IRQn 0 */
  while (1)
 80007e8:	e7fe      	b.n	80007e8 <HardFault_Handler+0x4>

080007ea <MemManage_Handler>:

/**
  * @brief This function handles Memory management fault.
  */
void MemManage_Handler(void)
{
 80007ea:	b480      	push	{r7}
 80007ec:	af00      	add	r7, sp, #0
  /* USER CODE BEGIN MemoryManagement_IRQn 0 */

  /* USER CODE END MemoryManagement_IRQn 0 */
  while (1)
 80007ee:	e7fe      	b.n	80007ee <MemManage_Handler+0x4>

080007f0 <BusFault_Handler>:

/**
  * @brief This function handles Prefetch fault, memory access fault.
  */
void BusFault_Handler(void)
{
 80007f0:	b480      	push	{r7}
 80007f2:	af00      	add	r7, sp, #0
  /* USER CODE BEGIN BusFault_IRQn 0 */

  /* USER CODE END BusFault_IRQn 0 */
  while (1)
 80007f4:	e7fe      	b.n	80007f4 <BusFault_Handler+0x4>

080007f6 <UsageFault_Handler>:

/**
  * @brief This function handles Undefined instruction or illegal state.
  */
void UsageFault_Handler(void)
{
 80007f6:	b480      	push	{r7}
 80007f8:	af00      	add	r7, sp, #0
  /* USER CODE BEGIN UsageFault_IRQn 0 */

  /* USER CODE END UsageFault_IRQn 0 */
  while (1)
 80007fa:	e7fe      	b.n	80007fa <UsageFault_Handler+0x4>

080007fc <SVC_Handler>:

/**
  * @brief This function handles System service call via SWI instruction.
  */
void SVC_Handler(void)
{
 80007fc:	b480      	push	{r7}
 80007fe:	af00      	add	r7, sp, #0

  /* USER CODE END SVCall_IRQn 0 */
  /* USER CODE BEGIN SVCall_IRQn 1 */

  /* USER CODE END SVCall_IRQn 1 */
}
 8000800:	bf00      	nop
 8000802:	46bd      	mov	sp, r7
 8000804:	bc80      	pop	{r7}
 8000806:	4770      	bx	lr

08000808 <DebugMon_Handler>:

/**
  * @brief This function handles Debug monitor.
  */
void DebugMon_Handler(void)
{
 8000808:	b480      	push	{r7}
 800080a:	af00      	add	r7, sp, #0

  /* USER CODE END DebugMonitor_IRQn 0 */
  /* USER CODE BEGIN DebugMonitor_IRQn 1 */

  /* USER CODE END DebugMonitor_IRQn 1 */
}
 800080c:	bf00      	nop
 800080e:	46bd      	mov	sp, r7
 8000810:	bc80      	pop	{r7}
 8000812:	4770      	bx	lr

08000814 <PendSV_Handler>:

/**
  * @brief This function handles Pendable request for system service.
  */
void PendSV_Handler(void)
{
 8000814:	b480      	push	{r7}
 8000816:	af00      	add	r7, sp, #0

  /* USER CODE END PendSV_IRQn 0 */
  /* USER CODE BEGIN PendSV_IRQn 1 */

  /* USER CODE END PendSV_IRQn 1 */
}
 8000818:	bf00      	nop
 800081a:	46bd      	mov	sp, r7
 800081c:	bc80      	pop	{r7}
 800081e:	4770      	bx	lr

08000820 <SysTick_Handler>:

/**
  * @brief This function handles System tick timer.
  */
void SysTick_Handler(void)
{
 8000820:	b580      	push	{r7, lr}
 8000822:	af00      	add	r7, sp, #0
  /* USER CODE BEGIN SysTick_IRQn 0 */

  /* USER CODE END SysTick_IRQn 0 */
  HAL_IncTick();
 8000824:	f000 f8aa 	bl	800097c <HAL_IncTick>
  /* USER CODE BEGIN SysTick_IRQn 1 */

  /* USER CODE END SysTick_IRQn 1 */
}
 8000828:	bf00      	nop
 800082a:	bd80      	pop	{r7, pc}

0800082c <_sbrk>:
 *
 * @param incr Memory size
 * @return Pointer to allocated memory
 */
void *_sbrk(ptrdiff_t incr)
{
 800082c:	b580      	push	{r7, lr}
 800082e:	b086      	sub	sp, #24
 8000830:	af00      	add	r7, sp, #0
 8000832:	6078      	str	r0, [r7, #4]
  extern uint8_t _end; /* Symbol defined in the linker script */
  extern uint8_t _estack; /* Symbol defined in the linker script */
  extern uint32_t _Min_Stack_Size; /* Symbol defined in the linker script */
  const uint32_t stack_limit = (uint32_t)&_estack - (uint32_t)&_Min_Stack_Size;
 8000834:	4a14      	ldr	r2, [pc, #80]	; (8000888 <_sbrk+0x5c>)
 8000836:	4b15      	ldr	r3, [pc, #84]	; (800088c <_sbrk+0x60>)
 8000838:	1ad3      	subs	r3, r2, r3
 800083a:	617b      	str	r3, [r7, #20]
  const uint8_t *max_heap = (uint8_t *)stack_limit;
 800083c:	697b      	ldr	r3, [r7, #20]
 800083e:	613b      	str	r3, [r7, #16]
  uint8_t *prev_heap_end;

  /* Initalize heap end at first call */
  if (NULL == __sbrk_heap_end)
 8000840:	4b13      	ldr	r3, [pc, #76]	; (8000890 <_sbrk+0x64>)
 8000842:	681b      	ldr	r3, [r3, #0]
 8000844:	2b00      	cmp	r3, #0
 8000846:	d102      	bne.n	800084e <_sbrk+0x22>
  {
    __sbrk_heap_end = &_end;
 8000848:	4b11      	ldr	r3, [pc, #68]	; (8000890 <_sbrk+0x64>)
 800084a:	4a12      	ldr	r2, [pc, #72]	; (8000894 <_sbrk+0x68>)
 800084c:	601a      	str	r2, [r3, #0]
  }

  /* Protect heap from growing into the reserved MSP stack */
  if (__sbrk_heap_end + incr > max_heap)
 800084e:	4b10      	ldr	r3, [pc, #64]	; (8000890 <_sbrk+0x64>)
 8000850:	681a      	ldr	r2, [r3, #0]
 8000852:	687b      	ldr	r3, [r7, #4]
 8000854:	4413      	add	r3, r2
 8000856:	693a      	ldr	r2, [r7, #16]
 8000858:	429a      	cmp	r2, r3
 800085a:	d207      	bcs.n	800086c <_sbrk+0x40>
  {
    errno = ENOMEM;
 800085c:	f001 fce6 	bl	800222c <__errno>
 8000860:	4603      	mov	r3, r0
 8000862:	220c      	movs	r2, #12
 8000864:	601a      	str	r2, [r3, #0]
    return (void *)-1;
 8000866:	f04f 33ff 	mov.w	r3, #4294967295
 800086a:	e009      	b.n	8000880 <_sbrk+0x54>
  }

  prev_heap_end = __sbrk_heap_end;
 800086c:	4b08      	ldr	r3, [pc, #32]	; (8000890 <_sbrk+0x64>)
 800086e:	681b      	ldr	r3, [r3, #0]
 8000870:	60fb      	str	r3, [r7, #12]
  __sbrk_heap_end += incr;
 8000872:	4b07      	ldr	r3, [pc, #28]	; (8000890 <_sbrk+0x64>)
 8000874:	681a      	ldr	r2, [r3, #0]
 8000876:	687b      	ldr	r3, [r7, #4]
 8000878:	4413      	add	r3, r2
 800087a:	4a05      	ldr	r2, [pc, #20]	; (8000890 <_sbrk+0x64>)
 800087c:	6013      	str	r3, [r2, #0]

  return (void *)prev_heap_end;
 800087e:	68fb      	ldr	r3, [r7, #12]
}
 8000880:	4618      	mov	r0, r3
 8000882:	3718      	adds	r7, #24
 8000884:	46bd      	mov	sp, r7
 8000886:	bd80      	pop	{r7, pc}
 8000888:	20002800 	.word	0x20002800
 800088c:	00000400 	.word	0x00000400
 8000890:	200002ec 	.word	0x200002ec
 8000894:	200003d0 	.word	0x200003d0

08000898 <SystemInit>:
  * @note   This function should be used only after reset.
  * @param  None
  * @retval None
  */
void SystemInit (void)
{
 8000898:	b480      	push	{r7}
 800089a:	af00      	add	r7, sp, #0

  /* Configure the Vector Table location -------------------------------------*/
#if defined(USER_VECT_TAB_ADDRESS)
  SCB->VTOR = VECT_TAB_BASE_ADDRESS | VECT_TAB_OFFSET; /* Vector Table Relocation in Internal SRAM. */
#endif /* USER_VECT_TAB_ADDRESS */
}
 800089c:	bf00      	nop
 800089e:	46bd      	mov	sp, r7
 80008a0:	bc80      	pop	{r7}
 80008a2:	4770      	bx	lr

080008a4 <Reset_Handler>:
  .weak Reset_Handler
  .type Reset_Handler, %function
Reset_Handler:

/* Copy the data segment initializers from flash to SRAM */
  ldr r0, =_sdata
 80008a4:	480c      	ldr	r0, [pc, #48]	; (80008d8 <LoopFillZerobss+0x12>)
  ldr r1, =_edata
 80008a6:	490d      	ldr	r1, [pc, #52]	; (80008dc <LoopFillZerobss+0x16>)
  ldr r2, =_sidata
 80008a8:	4a0d      	ldr	r2, [pc, #52]	; (80008e0 <LoopFillZerobss+0x1a>)
  movs r3, #0
 80008aa:	2300      	movs	r3, #0
  b LoopCopyDataInit
 80008ac:	e002      	b.n	80008b4 <LoopCopyDataInit>

080008ae <CopyDataInit>:

CopyDataInit:
  ldr r4, [r2, r3]
 80008ae:	58d4      	ldr	r4, [r2, r3]
  str r4, [r0, r3]
 80008b0:	50c4      	str	r4, [r0, r3]
  adds r3, r3, #4
 80008b2:	3304      	adds	r3, #4

080008b4 <LoopCopyDataInit>:

LoopCopyDataInit:
  adds r4, r0, r3
 80008b4:	18c4      	adds	r4, r0, r3
  cmp r4, r1
 80008b6:	428c      	cmp	r4, r1
  bcc CopyDataInit
 80008b8:	d3f9      	bcc.n	80008ae <CopyDataInit>
  
/* Zero fill the bss segment. */
  ldr r2, =_sbss
 80008ba:	4a0a      	ldr	r2, [pc, #40]	; (80008e4 <LoopFillZerobss+0x1e>)
  ldr r4, =_ebss
 80008bc:	4c0a      	ldr	r4, [pc, #40]	; (80008e8 <LoopFillZerobss+0x22>)
  movs r3, #0
 80008be:	2300      	movs	r3, #0
  b LoopFillZerobss
 80008c0:	e001      	b.n	80008c6 <LoopFillZerobss>

080008c2 <FillZerobss>:

FillZerobss:
  str  r3, [r2]
 80008c2:	6013      	str	r3, [r2, #0]
  adds r2, r2, #4
 80008c4:	3204      	adds	r2, #4

080008c6 <LoopFillZerobss>:

LoopFillZerobss:
  cmp r2, r4
 80008c6:	42a2      	cmp	r2, r4
  bcc FillZerobss
 80008c8:	d3fb      	bcc.n	80008c2 <FillZerobss>

/* Call the clock system intitialization function.*/
    bl  SystemInit
 80008ca:	f7ff ffe5 	bl	8000898 <SystemInit>
/* Call static constructors */
    bl __libc_init_array
 80008ce:	f001 fcb3 	bl	8002238 <__libc_init_array>
/* Call the application's entry point.*/
  bl main
 80008d2:	f7ff fd3f 	bl	8000354 <main>
  bx lr
 80008d6:	4770      	bx	lr
  ldr r0, =_sdata
 80008d8:	20000000 	.word	0x20000000
  ldr r1, =_edata
 80008dc:	20000074 	.word	0x20000074
  ldr r2, =_sidata
 80008e0:	08002e08 	.word	0x08002e08
  ldr r2, =_sbss
 80008e4:	20000074 	.word	0x20000074
  ldr r4, =_ebss
 80008e8:	200003cc 	.word	0x200003cc

080008ec <ADC1_2_IRQHandler>:
 * @retval : None
*/
    .section .text.Default_Handler,"ax",%progbits
Default_Handler:
Infinite_Loop:
  b Infinite_Loop
 80008ec:	e7fe      	b.n	80008ec <ADC1_2_IRQHandler>
	...

080008f0 <HAL_Init>:
  *         need to ensure that the SysTick time base is always set to 1 millisecond
  *         to have correct HAL operation.
  * @retval HAL status
  */
HAL_StatusTypeDef HAL_Init(void)
{
 80008f0:	b580      	push	{r7, lr}
 80008f2:	af00      	add	r7, sp, #0
    defined(STM32F102x6) || defined(STM32F102xB) || \
    defined(STM32F103x6) || defined(STM32F103xB) || defined(STM32F103xE) || defined(STM32F103xG) || \
    defined(STM32F105xC) || defined(STM32F107xC)

  /* Prefetch buffer is not available on value line devices */
  __HAL_FLASH_PREFETCH_BUFFER_ENABLE();
 80008f4:	4b08      	ldr	r3, [pc, #32]	; (8000918 <HAL_Init+0x28>)
 80008f6:	681b      	ldr	r3, [r3, #0]
 80008f8:	4a07      	ldr	r2, [pc, #28]	; (8000918 <HAL_Init+0x28>)
 80008fa:	f043 0310 	orr.w	r3, r3, #16
 80008fe:	6013      	str	r3, [r2, #0]
#endif
#endif /* PREFETCH_ENABLE */

  /* Set Interrupt Group Priority */
  HAL_NVIC_SetPriorityGrouping(NVIC_PRIORITYGROUP_4);
 8000900:	2003      	movs	r0, #3
 8000902:	f000 fc45 	bl	8001190 <HAL_NVIC_SetPriorityGrouping>

  /* Use systick as time base source and configure 1ms tick (default clock after Reset is HSI) */
  HAL_InitTick(TICK_INT_PRIORITY);
 8000906:	2000      	movs	r0, #0
 8000908:	f000 f808 	bl	800091c <HAL_InitTick>

  /* Init the low level hardware */
  HAL_MspInit();
 800090c:	f7ff fe80 	bl	8000610 <HAL_MspInit>

  /* Return function status */
  return HAL_OK;
 8000910:	2300      	movs	r3, #0
}
 8000912:	4618      	mov	r0, r3
 8000914:	bd80      	pop	{r7, pc}
 8000916:	bf00      	nop
 8000918:	40022000 	.word	0x40022000

0800091c <HAL_InitTick>:
  *       implementation  in user file.
  * @param TickPriority Tick interrupt priority.
  * @retval HAL status
  */
__weak HAL_StatusTypeDef HAL_InitTick(uint32_t TickPriority)
{
 800091c:	b580      	push	{r7, lr}
 800091e:	b082      	sub	sp, #8
 8000920:	af00      	add	r7, sp, #0
 8000922:	6078      	str	r0, [r7, #4]
  /* Configure the SysTick to have interrupt in 1ms time basis*/
  if (HAL_SYSTICK_Config(SystemCoreClock / (1000U / uwTickFreq)) > 0U)
 8000924:	4b12      	ldr	r3, [pc, #72]	; (8000970 <HAL_InitTick+0x54>)
 8000926:	681a      	ldr	r2, [r3, #0]
 8000928:	4b12      	ldr	r3, [pc, #72]	; (8000974 <HAL_InitTick+0x58>)
 800092a:	781b      	ldrb	r3, [r3, #0]
 800092c:	4619      	mov	r1, r3
 800092e:	f44f 737a 	mov.w	r3, #1000	; 0x3e8
 8000932:	fbb3 f3f1 	udiv	r3, r3, r1
 8000936:	fbb2 f3f3 	udiv	r3, r2, r3
 800093a:	4618      	mov	r0, r3
 800093c:	f000 fc4f 	bl	80011de <HAL_SYSTICK_Config>
 8000940:	4603      	mov	r3, r0
 8000942:	2b00      	cmp	r3, #0
 8000944:	d001      	beq.n	800094a <HAL_InitTick+0x2e>
  {
    return HAL_ERROR;
 8000946:	2301      	movs	r3, #1
 8000948:	e00e      	b.n	8000968 <HAL_InitTick+0x4c>
  }

  /* Configure the SysTick IRQ priority */
  if (TickPriority < (1UL << __NVIC_PRIO_BITS))
 800094a:	687b      	ldr	r3, [r7, #4]
 800094c:	2b0f      	cmp	r3, #15
 800094e:	d80a      	bhi.n	8000966 <HAL_InitTick+0x4a>
  {
    HAL_NVIC_SetPriority(SysTick_IRQn, TickPriority, 0U);
 8000950:	2200      	movs	r2, #0
 8000952:	6879      	ldr	r1, [r7, #4]
 8000954:	f04f 30ff 	mov.w	r0, #4294967295
 8000958:	f000 fc25 	bl	80011a6 <HAL_NVIC_SetPriority>
    uwTickPrio = TickPriority;
 800095c:	4a06      	ldr	r2, [pc, #24]	; (8000978 <HAL_InitTick+0x5c>)
 800095e:	687b      	ldr	r3, [r7, #4]
 8000960:	6013      	str	r3, [r2, #0]
  {
    return HAL_ERROR;
  }

  /* Return function status */
  return HAL_OK;
 8000962:	2300      	movs	r3, #0
 8000964:	e000      	b.n	8000968 <HAL_InitTick+0x4c>
    return HAL_ERROR;
 8000966:	2301      	movs	r3, #1
}
 8000968:	4618      	mov	r0, r3
 800096a:	3708      	adds	r7, #8
 800096c:	46bd      	mov	sp, r7
 800096e:	bd80      	pop	{r7, pc}
 8000970:	20000004 	.word	0x20000004
 8000974:	2000000c 	.word	0x2000000c
 8000978:	20000008 	.word	0x20000008

0800097c <HAL_IncTick>:
  * @note This function is declared as __weak to be overwritten in case of other
  *      implementations in user file.
  * @retval None
  */
__weak void HAL_IncTick(void)
{
 800097c:	b480      	push	{r7}
 800097e:	af00      	add	r7, sp, #0
  uwTick += uwTickFreq;
 8000980:	4b05      	ldr	r3, [pc, #20]	; (8000998 <HAL_IncTick+0x1c>)
 8000982:	781b      	ldrb	r3, [r3, #0]
 8000984:	461a      	mov	r2, r3
 8000986:	4b05      	ldr	r3, [pc, #20]	; (800099c <HAL_IncTick+0x20>)
 8000988:	681b      	ldr	r3, [r3, #0]
 800098a:	4413      	add	r3, r2
 800098c:	4a03      	ldr	r2, [pc, #12]	; (800099c <HAL_IncTick+0x20>)
 800098e:	6013      	str	r3, [r2, #0]
}
 8000990:	bf00      	nop
 8000992:	46bd      	mov	sp, r7
 8000994:	bc80      	pop	{r7}
 8000996:	4770      	bx	lr
 8000998:	2000000c 	.word	0x2000000c
 800099c:	200003b8 	.word	0x200003b8

080009a0 <HAL_GetTick>:
  * @note  This function is declared as __weak to be overwritten in case of other
  *       implementations in user file.
  * @retval tick value
  */
__weak uint32_t HAL_GetTick(void)
{
 80009a0:	b480      	push	{r7}
 80009a2:	af00      	add	r7, sp, #0
  return uwTick;
 80009a4:	4b02      	ldr	r3, [pc, #8]	; (80009b0 <HAL_GetTick+0x10>)
 80009a6:	681b      	ldr	r3, [r3, #0]
}
 80009a8:	4618      	mov	r0, r3
 80009aa:	46bd      	mov	sp, r7
 80009ac:	bc80      	pop	{r7}
 80009ae:	4770      	bx	lr
 80009b0:	200003b8 	.word	0x200003b8

080009b4 <HAL_Delay>:
  *       implementations in user file.
  * @param Delay specifies the delay time length, in milliseconds.
  * @retval None
  */
__weak void HAL_Delay(uint32_t Delay)
{
 80009b4:	b580      	push	{r7, lr}
 80009b6:	b084      	sub	sp, #16
 80009b8:	af00      	add	r7, sp, #0
 80009ba:	6078      	str	r0, [r7, #4]
  uint32_t tickstart = HAL_GetTick();
 80009bc:	f7ff fff0 	bl	80009a0 <HAL_GetTick>
 80009c0:	60b8      	str	r0, [r7, #8]
  uint32_t wait = Delay;
 80009c2:	687b      	ldr	r3, [r7, #4]
 80009c4:	60fb      	str	r3, [r7, #12]

  /* Add a freq to guarantee minimum wait */
  if (wait < HAL_MAX_DELAY)
 80009c6:	68fb      	ldr	r3, [r7, #12]
 80009c8:	f1b3 3fff 	cmp.w	r3, #4294967295
 80009cc:	d005      	beq.n	80009da <HAL_Delay+0x26>
  {
    wait += (uint32_t)(uwTickFreq);
 80009ce:	4b0a      	ldr	r3, [pc, #40]	; (80009f8 <HAL_Delay+0x44>)
 80009d0:	781b      	ldrb	r3, [r3, #0]
 80009d2:	461a      	mov	r2, r3
 80009d4:	68fb      	ldr	r3, [r7, #12]
 80009d6:	4413      	add	r3, r2
 80009d8:	60fb      	str	r3, [r7, #12]
  }

  while ((HAL_GetTick() - tickstart) < wait)
 80009da:	bf00      	nop
 80009dc:	f7ff ffe0 	bl	80009a0 <HAL_GetTick>
 80009e0:	4602      	mov	r2, r0
 80009e2:	68bb      	ldr	r3, [r7, #8]
 80009e4:	1ad3      	subs	r3, r2, r3
 80009e6:	68fa      	ldr	r2, [r7, #12]
 80009e8:	429a      	cmp	r2, r3
 80009ea:	d8f7      	bhi.n	80009dc <HAL_Delay+0x28>
  {
  }
}
 80009ec:	bf00      	nop
 80009ee:	bf00      	nop
 80009f0:	3710      	adds	r7, #16
 80009f2:	46bd      	mov	sp, r7
 80009f4:	bd80      	pop	{r7, pc}
 80009f6:	bf00      	nop
 80009f8:	2000000c 	.word	0x2000000c

080009fc <HAL_ADC_Init>:
  *         of structure "ADC_InitTypeDef".
  * @param  hadc: ADC handle
  * @retval HAL status
  */
HAL_StatusTypeDef HAL_ADC_Init(ADC_HandleTypeDef* hadc)
{
 80009fc:	b580      	push	{r7, lr}
 80009fe:	b086      	sub	sp, #24
 8000a00:	af00      	add	r7, sp, #0
 8000a02:	6078      	str	r0, [r7, #4]
  HAL_StatusTypeDef tmp_hal_status = HAL_OK;
 8000a04:	2300      	movs	r3, #0
 8000a06:	75fb      	strb	r3, [r7, #23]
  uint32_t tmp_cr1 = 0U;
 8000a08:	2300      	movs	r3, #0
 8000a0a:	613b      	str	r3, [r7, #16]
  uint32_t tmp_cr2 = 0U;
 8000a0c:	2300      	movs	r3, #0
 8000a0e:	60bb      	str	r3, [r7, #8]
  uint32_t tmp_sqr1 = 0U;
 8000a10:	2300      	movs	r3, #0
 8000a12:	60fb      	str	r3, [r7, #12]
  
  /* Check ADC handle */
  if(hadc == NULL)
 8000a14:	687b      	ldr	r3, [r7, #4]
 8000a16:	2b00      	cmp	r3, #0
 8000a18:	d101      	bne.n	8000a1e <HAL_ADC_Init+0x22>
  {
    return HAL_ERROR;
 8000a1a:	2301      	movs	r3, #1
 8000a1c:	e0be      	b.n	8000b9c <HAL_ADC_Init+0x1a0>
  assert_param(IS_ADC_DATA_ALIGN(hadc->Init.DataAlign));
  assert_param(IS_ADC_SCAN_MODE(hadc->Init.ScanConvMode));
  assert_param(IS_FUNCTIONAL_STATE(hadc->Init.ContinuousConvMode));
  assert_param(IS_ADC_EXTTRIG(hadc->Init.ExternalTrigConv));
  
  if(hadc->Init.ScanConvMode != ADC_SCAN_DISABLE)
 8000a1e:	687b      	ldr	r3, [r7, #4]
 8000a20:	689b      	ldr	r3, [r3, #8]
 8000a22:	2b00      	cmp	r3, #0
  /* Refer to header of this file for more details on clock enabling          */
  /* procedure.                                                               */

  /* Actions performed only if ADC is coming from state reset:                */
  /* - Initialization of ADC MSP                                              */
  if (hadc->State == HAL_ADC_STATE_RESET)
 8000a24:	687b      	ldr	r3, [r7, #4]
 8000a26:	6a9b      	ldr	r3, [r3, #40]	; 0x28
 8000a28:	2b00      	cmp	r3, #0
 8000a2a:	d109      	bne.n	8000a40 <HAL_ADC_Init+0x44>
  {
    /* Initialize ADC error code */
    ADC_CLEAR_ERRORCODE(hadc);
 8000a2c:	687b      	ldr	r3, [r7, #4]
 8000a2e:	2200      	movs	r2, #0
 8000a30:	62da      	str	r2, [r3, #44]	; 0x2c
    
    /* Allocate lock resource and initialize it */
    hadc->Lock = HAL_UNLOCKED;
 8000a32:	687b      	ldr	r3, [r7, #4]
 8000a34:	2200      	movs	r2, #0
 8000a36:	f883 2024 	strb.w	r2, [r3, #36]	; 0x24
    
    /* Init the low level hardware */
    hadc->MspInitCallback(hadc);
#else
    /* Init the low level hardware */
    HAL_ADC_MspInit(hadc);
 8000a3a:	6878      	ldr	r0, [r7, #4]
 8000a3c:	f7ff fe1a 	bl	8000674 <HAL_ADC_MspInit>
  /* Stop potential conversion on going, on regular and injected groups */
  /* Disable ADC peripheral */
  /* Note: In case of ADC already enabled, precaution to not launch an        */
  /*       unwanted conversion while modifying register CR2 by writing 1 to   */
  /*       bit ADON.                                                          */
  tmp_hal_status = ADC_ConversionStop_Disable(hadc);
 8000a40:	6878      	ldr	r0, [r7, #4]
 8000a42:	f000 fab3 	bl	8000fac <ADC_ConversionStop_Disable>
 8000a46:	4603      	mov	r3, r0
 8000a48:	75fb      	strb	r3, [r7, #23]
  
  
  /* Configuration of ADC parameters if previous preliminary actions are      */ 
  /* correctly completed.                                                     */
  if (HAL_IS_BIT_CLR(hadc->State, HAL_ADC_STATE_ERROR_INTERNAL) &&
 8000a4a:	687b      	ldr	r3, [r7, #4]
 8000a4c:	6a9b      	ldr	r3, [r3, #40]	; 0x28
 8000a4e:	f003 0310 	and.w	r3, r3, #16
 8000a52:	2b00      	cmp	r3, #0
 8000a54:	f040 8099 	bne.w	8000b8a <HAL_ADC_Init+0x18e>
 8000a58:	7dfb      	ldrb	r3, [r7, #23]
 8000a5a:	2b00      	cmp	r3, #0
 8000a5c:	f040 8095 	bne.w	8000b8a <HAL_ADC_Init+0x18e>
      (tmp_hal_status == HAL_OK)                                  )
  {
    /* Set ADC state */
    ADC_STATE_CLR_SET(hadc->State,
 8000a60:	687b      	ldr	r3, [r7, #4]
 8000a62:	6a9b      	ldr	r3, [r3, #40]	; 0x28
 8000a64:	f423 5388 	bic.w	r3, r3, #4352	; 0x1100
 8000a68:	f023 0302 	bic.w	r3, r3, #2
 8000a6c:	f043 0202 	orr.w	r2, r3, #2
 8000a70:	687b      	ldr	r3, [r7, #4]
 8000a72:	629a      	str	r2, [r3, #40]	; 0x28
    /*  - continuous conversion mode                                          */
    /* Note: External trigger polarity (ADC_CR2_EXTTRIG) is set into          */
    /*       HAL_ADC_Start_xxx functions because if set in this function,     */
    /*       a conversion on injected group would start a conversion also on  */
    /*       regular group after ADC enabling.                                */
    tmp_cr2 |= (hadc->Init.DataAlign                                          |
 8000a74:	687b      	ldr	r3, [r7, #4]
 8000a76:	685a      	ldr	r2, [r3, #4]
                ADC_CFGR_EXTSEL(hadc, hadc->Init.ExternalTrigConv)            |
 8000a78:	687b      	ldr	r3, [r7, #4]
 8000a7a:	69db      	ldr	r3, [r3, #28]
    tmp_cr2 |= (hadc->Init.DataAlign                                          |
 8000a7c:	431a      	orrs	r2, r3
                ADC_CR2_CONTINUOUS((uint32_t)hadc->Init.ContinuousConvMode)   );
 8000a7e:	687b      	ldr	r3, [r7, #4]
 8000a80:	7b1b      	ldrb	r3, [r3, #12]
 8000a82:	005b      	lsls	r3, r3, #1
                ADC_CFGR_EXTSEL(hadc, hadc->Init.ExternalTrigConv)            |
 8000a84:	4313      	orrs	r3, r2
    tmp_cr2 |= (hadc->Init.DataAlign                                          |
 8000a86:	68ba      	ldr	r2, [r7, #8]
 8000a88:	4313      	orrs	r3, r2
 8000a8a:	60bb      	str	r3, [r7, #8]

    /* Configuration of ADC:                                                  */
    /*  - scan mode                                                           */
    /*  - discontinuous mode disable/enable                                   */
    /*  - discontinuous mode number of conversions                            */
    tmp_cr1 |= (ADC_CR1_SCAN_SET(hadc->Init.ScanConvMode));
 8000a8c:	687b      	ldr	r3, [r7, #4]
 8000a8e:	689b      	ldr	r3, [r3, #8]
 8000a90:	f5b3 7f80 	cmp.w	r3, #256	; 0x100
 8000a94:	d003      	beq.n	8000a9e <HAL_ADC_Init+0xa2>
 8000a96:	687b      	ldr	r3, [r7, #4]
 8000a98:	689b      	ldr	r3, [r3, #8]
 8000a9a:	2b01      	cmp	r3, #1
 8000a9c:	d102      	bne.n	8000aa4 <HAL_ADC_Init+0xa8>
 8000a9e:	f44f 7380 	mov.w	r3, #256	; 0x100
 8000aa2:	e000      	b.n	8000aa6 <HAL_ADC_Init+0xaa>
 8000aa4:	2300      	movs	r3, #0
 8000aa6:	693a      	ldr	r2, [r7, #16]
 8000aa8:	4313      	orrs	r3, r2
 8000aaa:	613b      	str	r3, [r7, #16]
    
    /* Enable discontinuous mode only if continuous mode is disabled */
    /* Note: If parameter "Init.ScanConvMode" is set to disable, parameter    */
    /*       discontinuous is set anyway, but will have no effect on ADC HW.  */
    if (hadc->Init.DiscontinuousConvMode == ENABLE)
 8000aac:	687b      	ldr	r3, [r7, #4]
 8000aae:	7d1b      	ldrb	r3, [r3, #20]
 8000ab0:	2b01      	cmp	r3, #1
 8000ab2:	d119      	bne.n	8000ae8 <HAL_ADC_Init+0xec>
    {
      if (hadc->Init.ContinuousConvMode == DISABLE)
 8000ab4:	687b      	ldr	r3, [r7, #4]
 8000ab6:	7b1b      	ldrb	r3, [r3, #12]
 8000ab8:	2b00      	cmp	r3, #0
 8000aba:	d109      	bne.n	8000ad0 <HAL_ADC_Init+0xd4>
      {
        /* Enable the selected ADC regular discontinuous mode */
        /* Set the number of channels to be converted in discontinuous mode */
        SET_BIT(tmp_cr1, ADC_CR1_DISCEN                                            |
 8000abc:	687b      	ldr	r3, [r7, #4]
 8000abe:	699b      	ldr	r3, [r3, #24]
 8000ac0:	3b01      	subs	r3, #1
 8000ac2:	035a      	lsls	r2, r3, #13
 8000ac4:	693b      	ldr	r3, [r7, #16]
 8000ac6:	4313      	orrs	r3, r2
 8000ac8:	f443 6300 	orr.w	r3, r3, #2048	; 0x800
 8000acc:	613b      	str	r3, [r7, #16]
 8000ace:	e00b      	b.n	8000ae8 <HAL_ADC_Init+0xec>
      {
        /* ADC regular group settings continuous and sequencer discontinuous*/
        /* cannot be enabled simultaneously.                                */
        
        /* Update ADC state machine to error */
        SET_BIT(hadc->State, HAL_ADC_STATE_ERROR_CONFIG);
 8000ad0:	687b      	ldr	r3, [r7, #4]
 8000ad2:	6a9b      	ldr	r3, [r3, #40]	; 0x28
 8000ad4:	f043 0220 	orr.w	r2, r3, #32
 8000ad8:	687b      	ldr	r3, [r7, #4]
 8000ada:	629a      	str	r2, [r3, #40]	; 0x28
        
        /* Set ADC error code to ADC IP internal error */
        SET_BIT(hadc->ErrorCode, HAL_ADC_ERROR_INTERNAL);
 8000adc:	687b      	ldr	r3, [r7, #4]
 8000ade:	6adb      	ldr	r3, [r3, #44]	; 0x2c
 8000ae0:	f043 0201 	orr.w	r2, r3, #1
 8000ae4:	687b      	ldr	r3, [r7, #4]
 8000ae6:	62da      	str	r2, [r3, #44]	; 0x2c
      }
    }
    
    /* Update ADC configuration register CR1 with previous settings */
      MODIFY_REG(hadc->Instance->CR1,
 8000ae8:	687b      	ldr	r3, [r7, #4]
 8000aea:	681b      	ldr	r3, [r3, #0]
 8000aec:	685b      	ldr	r3, [r3, #4]
 8000aee:	f423 4169 	bic.w	r1, r3, #59648	; 0xe900
 8000af2:	687b      	ldr	r3, [r7, #4]
 8000af4:	681b      	ldr	r3, [r3, #0]
 8000af6:	693a      	ldr	r2, [r7, #16]
 8000af8:	430a      	orrs	r2, r1
 8000afa:	605a      	str	r2, [r3, #4]
                 ADC_CR1_DISCEN  |
                 ADC_CR1_DISCNUM    ,
                 tmp_cr1             );
    
    /* Update ADC configuration register CR2 with previous settings */
      MODIFY_REG(hadc->Instance->CR2,
 8000afc:	687b      	ldr	r3, [r7, #4]
 8000afe:	681b      	ldr	r3, [r3, #0]
 8000b00:	689a      	ldr	r2, [r3, #8]
 8000b02:	4b28      	ldr	r3, [pc, #160]	; (8000ba4 <HAL_ADC_Init+0x1a8>)
 8000b04:	4013      	ands	r3, r2
 8000b06:	687a      	ldr	r2, [r7, #4]
 8000b08:	6812      	ldr	r2, [r2, #0]
 8000b0a:	68b9      	ldr	r1, [r7, #8]
 8000b0c:	430b      	orrs	r3, r1
 8000b0e:	6093      	str	r3, [r2, #8]
    /*   Note: Scan mode is present by hardware on this device and, if        */
    /*   disabled, discards automatically nb of conversions. Anyway, nb of    */
    /*   conversions is forced to 0x00 for alignment over all STM32 devices.  */
    /* - if scan mode is enabled, regular channels sequence length is set to  */
    /*   parameter "NbrOfConversion"                                          */
    if (ADC_CR1_SCAN_SET(hadc->Init.ScanConvMode) == ADC_SCAN_ENABLE)
 8000b10:	687b      	ldr	r3, [r7, #4]
 8000b12:	689b      	ldr	r3, [r3, #8]
 8000b14:	f5b3 7f80 	cmp.w	r3, #256	; 0x100
 8000b18:	d003      	beq.n	8000b22 <HAL_ADC_Init+0x126>
 8000b1a:	687b      	ldr	r3, [r7, #4]
 8000b1c:	689b      	ldr	r3, [r3, #8]
 8000b1e:	2b01      	cmp	r3, #1
 8000b20:	d104      	bne.n	8000b2c <HAL_ADC_Init+0x130>
    {
      tmp_sqr1 = ADC_SQR1_L_SHIFT(hadc->Init.NbrOfConversion);
 8000b22:	687b      	ldr	r3, [r7, #4]
 8000b24:	691b      	ldr	r3, [r3, #16]
 8000b26:	3b01      	subs	r3, #1
 8000b28:	051b      	lsls	r3, r3, #20
 8000b2a:	60fb      	str	r3, [r7, #12]
    }
      
    MODIFY_REG(hadc->Instance->SQR1,
 8000b2c:	687b      	ldr	r3, [r7, #4]
 8000b2e:	681b      	ldr	r3, [r3, #0]
 8000b30:	6adb      	ldr	r3, [r3, #44]	; 0x2c
 8000b32:	f423 0170 	bic.w	r1, r3, #15728640	; 0xf00000
 8000b36:	687b      	ldr	r3, [r7, #4]
 8000b38:	681b      	ldr	r3, [r3, #0]
 8000b3a:	68fa      	ldr	r2, [r7, #12]
 8000b3c:	430a      	orrs	r2, r1
 8000b3e:	62da      	str	r2, [r3, #44]	; 0x2c
    /* ensure of no potential problem of ADC core IP clocking.                */
    /* Check through register CR2 (excluding bits set in other functions:     */
    /* execution control bits (ADON, JSWSTART, SWSTART), regular group bits   */
    /* (DMA), injected group bits (JEXTTRIG and JEXTSEL), channel internal    */
    /* measurement path bit (TSVREFE).                                        */
    if (READ_BIT(hadc->Instance->CR2, ~(ADC_CR2_ADON | ADC_CR2_DMA |
 8000b40:	687b      	ldr	r3, [r7, #4]
 8000b42:	681b      	ldr	r3, [r3, #0]
 8000b44:	689a      	ldr	r2, [r3, #8]
 8000b46:	4b18      	ldr	r3, [pc, #96]	; (8000ba8 <HAL_ADC_Init+0x1ac>)
 8000b48:	4013      	ands	r3, r2
 8000b4a:	68ba      	ldr	r2, [r7, #8]
 8000b4c:	429a      	cmp	r2, r3
 8000b4e:	d10b      	bne.n	8000b68 <HAL_ADC_Init+0x16c>
                                        ADC_CR2_JEXTTRIG | ADC_CR2_JEXTSEL |
                                        ADC_CR2_TSVREFE                     ))
         == tmp_cr2)
    {
      /* Set ADC error code to none */
      ADC_CLEAR_ERRORCODE(hadc);
 8000b50:	687b      	ldr	r3, [r7, #4]
 8000b52:	2200      	movs	r2, #0
 8000b54:	62da      	str	r2, [r3, #44]	; 0x2c
      
      /* Set the ADC state */
      ADC_STATE_CLR_SET(hadc->State,
 8000b56:	687b      	ldr	r3, [r7, #4]
 8000b58:	6a9b      	ldr	r3, [r3, #40]	; 0x28
 8000b5a:	f023 0303 	bic.w	r3, r3, #3
 8000b5e:	f043 0201 	orr.w	r2, r3, #1
 8000b62:	687b      	ldr	r3, [r7, #4]
 8000b64:	629a      	str	r2, [r3, #40]	; 0x28
    if (READ_BIT(hadc->Instance->CR2, ~(ADC_CR2_ADON | ADC_CR2_DMA |
 8000b66:	e018      	b.n	8000b9a <HAL_ADC_Init+0x19e>
                        HAL_ADC_STATE_READY);
    }
    else
    {
      /* Update ADC state machine to error */
      ADC_STATE_CLR_SET(hadc->State,
 8000b68:	687b      	ldr	r3, [r7, #4]
 8000b6a:	6a9b      	ldr	r3, [r3, #40]	; 0x28
 8000b6c:	f023 0312 	bic.w	r3, r3, #18
 8000b70:	f043 0210 	orr.w	r2, r3, #16
 8000b74:	687b      	ldr	r3, [r7, #4]
 8000b76:	629a      	str	r2, [r3, #40]	; 0x28
                        HAL_ADC_STATE_BUSY_INTERNAL,
                        HAL_ADC_STATE_ERROR_INTERNAL);
      
      /* Set ADC error code to ADC IP internal error */
      SET_BIT(hadc->ErrorCode, HAL_ADC_ERROR_INTERNAL);
 8000b78:	687b      	ldr	r3, [r7, #4]
 8000b7a:	6adb      	ldr	r3, [r3, #44]	; 0x2c
 8000b7c:	f043 0201 	orr.w	r2, r3, #1
 8000b80:	687b      	ldr	r3, [r7, #4]
 8000b82:	62da      	str	r2, [r3, #44]	; 0x2c
      
      tmp_hal_status = HAL_ERROR;
 8000b84:	2301      	movs	r3, #1
 8000b86:	75fb      	strb	r3, [r7, #23]
    if (READ_BIT(hadc->Instance->CR2, ~(ADC_CR2_ADON | ADC_CR2_DMA |
 8000b88:	e007      	b.n	8000b9a <HAL_ADC_Init+0x19e>
  
  }
  else
  {
    /* Update ADC state machine to error */
    SET_BIT(hadc->State, HAL_ADC_STATE_ERROR_INTERNAL);
 8000b8a:	687b      	ldr	r3, [r7, #4]
 8000b8c:	6a9b      	ldr	r3, [r3, #40]	; 0x28
 8000b8e:	f043 0210 	orr.w	r2, r3, #16
 8000b92:	687b      	ldr	r3, [r7, #4]
 8000b94:	629a      	str	r2, [r3, #40]	; 0x28
        
    tmp_hal_status = HAL_ERROR;
 8000b96:	2301      	movs	r3, #1
 8000b98:	75fb      	strb	r3, [r7, #23]
  }
  
  /* Return function status */
  return tmp_hal_status;
 8000b9a:	7dfb      	ldrb	r3, [r7, #23]
}
 8000b9c:	4618      	mov	r0, r3
 8000b9e:	3718      	adds	r7, #24
 8000ba0:	46bd      	mov	sp, r7
 8000ba2:	bd80      	pop	{r7, pc}
 8000ba4:	ffe1f7fd 	.word	0xffe1f7fd
 8000ba8:	ff1f0efe 	.word	0xff1f0efe

08000bac <HAL_ADC_Start>:
  *         Interruptions enabled in this function: None.
  * @param  hadc: ADC handle
  * @retval HAL status
  */
HAL_StatusTypeDef HAL_ADC_Start(ADC_HandleTypeDef* hadc)
{
 8000bac:	b580      	push	{r7, lr}
 8000bae:	b084      	sub	sp, #16
 8000bb0:	af00      	add	r7, sp, #0
 8000bb2:	6078      	str	r0, [r7, #4]
  HAL_StatusTypeDef tmp_hal_status = HAL_OK;
 8000bb4:	2300      	movs	r3, #0
 8000bb6:	73fb      	strb	r3, [r7, #15]
  
  /* Check the parameters */
  assert_param(IS_ADC_ALL_INSTANCE(hadc->Instance));
  
  /* Process locked */
  __HAL_LOCK(hadc);
 8000bb8:	687b      	ldr	r3, [r7, #4]
 8000bba:	f893 3024 	ldrb.w	r3, [r3, #36]	; 0x24
 8000bbe:	2b01      	cmp	r3, #1
 8000bc0:	d101      	bne.n	8000bc6 <HAL_ADC_Start+0x1a>
 8000bc2:	2302      	movs	r3, #2
 8000bc4:	e098      	b.n	8000cf8 <HAL_ADC_Start+0x14c>
 8000bc6:	687b      	ldr	r3, [r7, #4]
 8000bc8:	2201      	movs	r2, #1
 8000bca:	f883 2024 	strb.w	r2, [r3, #36]	; 0x24
   
  /* Enable the ADC peripheral */
  tmp_hal_status = ADC_Enable(hadc);
 8000bce:	6878      	ldr	r0, [r7, #4]
 8000bd0:	f000 f992 	bl	8000ef8 <ADC_Enable>
 8000bd4:	4603      	mov	r3, r0
 8000bd6:	73fb      	strb	r3, [r7, #15]
  
  /* Start conversion if ADC is effectively enabled */
  if (tmp_hal_status == HAL_OK)
 8000bd8:	7bfb      	ldrb	r3, [r7, #15]
 8000bda:	2b00      	cmp	r3, #0
 8000bdc:	f040 8087 	bne.w	8000cee <HAL_ADC_Start+0x142>
  {
    /* Set ADC state                                                          */
    /* - Clear state bitfield related to regular group conversion results     */
    /* - Set state bitfield related to regular operation                      */
    ADC_STATE_CLR_SET(hadc->State,
 8000be0:	687b      	ldr	r3, [r7, #4]
 8000be2:	6a9b      	ldr	r3, [r3, #40]	; 0x28
 8000be4:	f423 7340 	bic.w	r3, r3, #768	; 0x300
 8000be8:	f023 0301 	bic.w	r3, r3, #1
 8000bec:	f443 7280 	orr.w	r2, r3, #256	; 0x100
 8000bf0:	687b      	ldr	r3, [r7, #4]
 8000bf2:	629a      	str	r2, [r3, #40]	; 0x28
                      HAL_ADC_STATE_REG_BUSY);
    
    /* Set group injected state (from auto-injection) and multimode state     */
    /* for all cases of multimode: independent mode, multimode ADC master     */
    /* or multimode ADC slave (for devices with several ADCs):                */
    if (ADC_NONMULTIMODE_OR_MULTIMODEMASTER(hadc))
 8000bf4:	687b      	ldr	r3, [r7, #4]
 8000bf6:	681b      	ldr	r3, [r3, #0]
 8000bf8:	4a41      	ldr	r2, [pc, #260]	; (8000d00 <HAL_ADC_Start+0x154>)
 8000bfa:	4293      	cmp	r3, r2
 8000bfc:	d105      	bne.n	8000c0a <HAL_ADC_Start+0x5e>
 8000bfe:	4b41      	ldr	r3, [pc, #260]	; (8000d04 <HAL_ADC_Start+0x158>)
 8000c00:	685b      	ldr	r3, [r3, #4]
 8000c02:	f403 2370 	and.w	r3, r3, #983040	; 0xf0000
 8000c06:	2b00      	cmp	r3, #0
 8000c08:	d115      	bne.n	8000c36 <HAL_ADC_Start+0x8a>
    {
      /* Set ADC state (ADC independent or master) */
      CLEAR_BIT(hadc->State, HAL_ADC_STATE_MULTIMODE_SLAVE);
 8000c0a:	687b      	ldr	r3, [r7, #4]
 8000c0c:	6a9b      	ldr	r3, [r3, #40]	; 0x28
 8000c0e:	f423 1280 	bic.w	r2, r3, #1048576	; 0x100000
 8000c12:	687b      	ldr	r3, [r7, #4]
 8000c14:	629a      	str	r2, [r3, #40]	; 0x28
      
      /* If conversions on group regular are also triggering group injected,  */
      /* update ADC state.                                                    */
      if (READ_BIT(hadc->Instance->CR1, ADC_CR1_JAUTO) != RESET)
 8000c16:	687b      	ldr	r3, [r7, #4]
 8000c18:	681b      	ldr	r3, [r3, #0]
 8000c1a:	685b      	ldr	r3, [r3, #4]
 8000c1c:	f403 6380 	and.w	r3, r3, #1024	; 0x400
 8000c20:	2b00      	cmp	r3, #0
 8000c22:	d026      	beq.n	8000c72 <HAL_ADC_Start+0xc6>
      {
        ADC_STATE_CLR_SET(hadc->State, HAL_ADC_STATE_INJ_EOC, HAL_ADC_STATE_INJ_BUSY);  
 8000c24:	687b      	ldr	r3, [r7, #4]
 8000c26:	6a9b      	ldr	r3, [r3, #40]	; 0x28
 8000c28:	f423 5340 	bic.w	r3, r3, #12288	; 0x3000
 8000c2c:	f443 5280 	orr.w	r2, r3, #4096	; 0x1000
 8000c30:	687b      	ldr	r3, [r7, #4]
 8000c32:	629a      	str	r2, [r3, #40]	; 0x28
      if (READ_BIT(hadc->Instance->CR1, ADC_CR1_JAUTO) != RESET)
 8000c34:	e01d      	b.n	8000c72 <HAL_ADC_Start+0xc6>
      }
    }
    else
    {
      /* Set ADC state (ADC slave) */
      SET_BIT(hadc->State, HAL_ADC_STATE_MULTIMODE_SLAVE);
 8000c36:	687b      	ldr	r3, [r7, #4]
 8000c38:	6a9b      	ldr	r3, [r3, #40]	; 0x28
 8000c3a:	f443 1280 	orr.w	r2, r3, #1048576	; 0x100000
 8000c3e:	687b      	ldr	r3, [r7, #4]
 8000c40:	629a      	str	r2, [r3, #40]	; 0x28
      
      /* If conversions on group regular are also triggering group injected,  */
      /* update ADC state.                                                    */
      if (ADC_MULTIMODE_AUTO_INJECTED(hadc))
 8000c42:	687b      	ldr	r3, [r7, #4]
 8000c44:	681b      	ldr	r3, [r3, #0]
 8000c46:	4a2f      	ldr	r2, [pc, #188]	; (8000d04 <HAL_ADC_Start+0x158>)
 8000c48:	4293      	cmp	r3, r2
 8000c4a:	d004      	beq.n	8000c56 <HAL_ADC_Start+0xaa>
 8000c4c:	687b      	ldr	r3, [r7, #4]
 8000c4e:	681b      	ldr	r3, [r3, #0]
 8000c50:	4a2b      	ldr	r2, [pc, #172]	; (8000d00 <HAL_ADC_Start+0x154>)
 8000c52:	4293      	cmp	r3, r2
 8000c54:	d10d      	bne.n	8000c72 <HAL_ADC_Start+0xc6>
 8000c56:	4b2b      	ldr	r3, [pc, #172]	; (8000d04 <HAL_ADC_Start+0x158>)
 8000c58:	685b      	ldr	r3, [r3, #4]
 8000c5a:	f403 6380 	and.w	r3, r3, #1024	; 0x400
 8000c5e:	2b00      	cmp	r3, #0
 8000c60:	d007      	beq.n	8000c72 <HAL_ADC_Start+0xc6>
      {
        ADC_STATE_CLR_SET(hadc->State, HAL_ADC_STATE_INJ_EOC, HAL_ADC_STATE_INJ_BUSY);
 8000c62:	687b      	ldr	r3, [r7, #4]
 8000c64:	6a9b      	ldr	r3, [r3, #40]	; 0x28
 8000c66:	f423 5340 	bic.w	r3, r3, #12288	; 0x3000
 8000c6a:	f443 5280 	orr.w	r2, r3, #4096	; 0x1000
 8000c6e:	687b      	ldr	r3, [r7, #4]
 8000c70:	629a      	str	r2, [r3, #40]	; 0x28
      }
    }
    
    /* State machine update: Check if an injected conversion is ongoing */
    if (HAL_IS_BIT_SET(hadc->State, HAL_ADC_STATE_INJ_BUSY))
 8000c72:	687b      	ldr	r3, [r7, #4]
 8000c74:	6a9b      	ldr	r3, [r3, #40]	; 0x28
 8000c76:	f403 5380 	and.w	r3, r3, #4096	; 0x1000
 8000c7a:	2b00      	cmp	r3, #0
 8000c7c:	d006      	beq.n	8000c8c <HAL_ADC_Start+0xe0>
    {
      /* Reset ADC error code fields related to conversions on group regular */
      CLEAR_BIT(hadc->ErrorCode, (HAL_ADC_ERROR_OVR | HAL_ADC_ERROR_DMA));         
 8000c7e:	687b      	ldr	r3, [r7, #4]
 8000c80:	6adb      	ldr	r3, [r3, #44]	; 0x2c
 8000c82:	f023 0206 	bic.w	r2, r3, #6
 8000c86:	687b      	ldr	r3, [r7, #4]
 8000c88:	62da      	str	r2, [r3, #44]	; 0x2c
 8000c8a:	e002      	b.n	8000c92 <HAL_ADC_Start+0xe6>
    }
    else
    {
      /* Reset ADC all error code fields */
      ADC_CLEAR_ERRORCODE(hadc);
 8000c8c:	687b      	ldr	r3, [r7, #4]
 8000c8e:	2200      	movs	r2, #0
 8000c90:	62da      	str	r2, [r3, #44]	; 0x2c
    }
    
    /* Process unlocked */
    /* Unlock before starting ADC conversions: in case of potential           */
    /* interruption, to let the process to ADC IRQ Handler.                   */
    __HAL_UNLOCK(hadc);
 8000c92:	687b      	ldr	r3, [r7, #4]
 8000c94:	2200      	movs	r2, #0
 8000c96:	f883 2024 	strb.w	r2, [r3, #36]	; 0x24
  
    /* Clear regular group conversion flag */
    /* (To ensure of no unknown state from potential previous ADC operations) */
    __HAL_ADC_CLEAR_FLAG(hadc, ADC_FLAG_EOC);
 8000c9a:	687b      	ldr	r3, [r7, #4]
 8000c9c:	681b      	ldr	r3, [r3, #0]
 8000c9e:	f06f 0202 	mvn.w	r2, #2
 8000ca2:	601a      	str	r2, [r3, #0]
    /*  - if ADC is slave, ADC is enabled only (conversion is not started).   */
    /*  - if ADC is master, ADC is enabled and conversion is started.         */
    /* If ADC is master, ADC is enabled and conversion is started.            */
    /* Note: Alternate trigger for single conversion could be to force an     */
    /*       additional set of bit ADON "hadc->Instance->CR2 |= ADC_CR2_ADON;"*/
    if (ADC_IS_SOFTWARE_START_REGULAR(hadc)      &&
 8000ca4:	687b      	ldr	r3, [r7, #4]
 8000ca6:	681b      	ldr	r3, [r3, #0]
 8000ca8:	689b      	ldr	r3, [r3, #8]
 8000caa:	f403 2360 	and.w	r3, r3, #917504	; 0xe0000
 8000cae:	f5b3 2f60 	cmp.w	r3, #917504	; 0xe0000
 8000cb2:	d113      	bne.n	8000cdc <HAL_ADC_Start+0x130>
        ADC_NONMULTIMODE_OR_MULTIMODEMASTER(hadc)  )
 8000cb4:	687b      	ldr	r3, [r7, #4]
 8000cb6:	681b      	ldr	r3, [r3, #0]
    if (ADC_IS_SOFTWARE_START_REGULAR(hadc)      &&
 8000cb8:	4a11      	ldr	r2, [pc, #68]	; (8000d00 <HAL_ADC_Start+0x154>)
 8000cba:	4293      	cmp	r3, r2
 8000cbc:	d105      	bne.n	8000cca <HAL_ADC_Start+0x11e>
        ADC_NONMULTIMODE_OR_MULTIMODEMASTER(hadc)  )
 8000cbe:	4b11      	ldr	r3, [pc, #68]	; (8000d04 <HAL_ADC_Start+0x158>)
 8000cc0:	685b      	ldr	r3, [r3, #4]
 8000cc2:	f403 2370 	and.w	r3, r3, #983040	; 0xf0000
    if (ADC_IS_SOFTWARE_START_REGULAR(hadc)      &&
 8000cc6:	2b00      	cmp	r3, #0
 8000cc8:	d108      	bne.n	8000cdc <HAL_ADC_Start+0x130>
    {
      /* Start ADC conversion on regular group with SW start */
      SET_BIT(hadc->Instance->CR2, (ADC_CR2_SWSTART | ADC_CR2_EXTTRIG));
 8000cca:	687b      	ldr	r3, [r7, #4]
 8000ccc:	681b      	ldr	r3, [r3, #0]
 8000cce:	689a      	ldr	r2, [r3, #8]
 8000cd0:	687b      	ldr	r3, [r7, #4]
 8000cd2:	681b      	ldr	r3, [r3, #0]
 8000cd4:	f442 02a0 	orr.w	r2, r2, #5242880	; 0x500000
 8000cd8:	609a      	str	r2, [r3, #8]
 8000cda:	e00c      	b.n	8000cf6 <HAL_ADC_Start+0x14a>
    }
    else
    {
      /* Start ADC conversion on regular group with external trigger */
      SET_BIT(hadc->Instance->CR2, ADC_CR2_EXTTRIG);
 8000cdc:	687b      	ldr	r3, [r7, #4]
 8000cde:	681b      	ldr	r3, [r3, #0]
 8000ce0:	689a      	ldr	r2, [r3, #8]
 8000ce2:	687b      	ldr	r3, [r7, #4]
 8000ce4:	681b      	ldr	r3, [r3, #0]
 8000ce6:	f442 1280 	orr.w	r2, r2, #1048576	; 0x100000
 8000cea:	609a      	str	r2, [r3, #8]
 8000cec:	e003      	b.n	8000cf6 <HAL_ADC_Start+0x14a>
    }
  }
  else
  {
    /* Process unlocked */
    __HAL_UNLOCK(hadc);
 8000cee:	687b      	ldr	r3, [r7, #4]
 8000cf0:	2200      	movs	r2, #0
 8000cf2:	f883 2024 	strb.w	r2, [r3, #36]	; 0x24
  }
    
  /* Return function status */
  return tmp_hal_status;
 8000cf6:	7bfb      	ldrb	r3, [r7, #15]
}
 8000cf8:	4618      	mov	r0, r3
 8000cfa:	3710      	adds	r7, #16
 8000cfc:	46bd      	mov	sp, r7
 8000cfe:	bd80      	pop	{r7, pc}
 8000d00:	40012800 	.word	0x40012800
 8000d04:	40012400 	.word	0x40012400

08000d08 <HAL_ADC_ConfigChannel>:
  * @param  hadc: ADC handle
  * @param  sConfig: Structure of ADC channel for regular group.
  * @retval HAL status
  */
HAL_StatusTypeDef HAL_ADC_ConfigChannel(ADC_HandleTypeDef* hadc, ADC_ChannelConfTypeDef* sConfig)
{ 
 8000d08:	b480      	push	{r7}
 8000d0a:	b085      	sub	sp, #20
 8000d0c:	af00      	add	r7, sp, #0
 8000d0e:	6078      	str	r0, [r7, #4]
 8000d10:	6039      	str	r1, [r7, #0]
  HAL_StatusTypeDef tmp_hal_status = HAL_OK;
 8000d12:	2300      	movs	r3, #0
 8000d14:	73fb      	strb	r3, [r7, #15]
  __IO uint32_t wait_loop_index = 0U;
 8000d16:	2300      	movs	r3, #0
 8000d18:	60bb      	str	r3, [r7, #8]
  assert_param(IS_ADC_CHANNEL(sConfig->Channel));
  assert_param(IS_ADC_REGULAR_RANK(sConfig->Rank));
  assert_param(IS_ADC_SAMPLE_TIME(sConfig->SamplingTime));
  
  /* Process locked */
  __HAL_LOCK(hadc);
 8000d1a:	687b      	ldr	r3, [r7, #4]
 8000d1c:	f893 3024 	ldrb.w	r3, [r3, #36]	; 0x24
 8000d20:	2b01      	cmp	r3, #1
 8000d22:	d101      	bne.n	8000d28 <HAL_ADC_ConfigChannel+0x20>
 8000d24:	2302      	movs	r3, #2
 8000d26:	e0dc      	b.n	8000ee2 <HAL_ADC_ConfigChannel+0x1da>
 8000d28:	687b      	ldr	r3, [r7, #4]
 8000d2a:	2201      	movs	r2, #1
 8000d2c:	f883 2024 	strb.w	r2, [r3, #36]	; 0x24
  
  
  /* Regular sequence configuration */
  /* For Rank 1 to 6 */
  if (sConfig->Rank < 7U)
 8000d30:	683b      	ldr	r3, [r7, #0]
 8000d32:	685b      	ldr	r3, [r3, #4]
 8000d34:	2b06      	cmp	r3, #6
 8000d36:	d81c      	bhi.n	8000d72 <HAL_ADC_ConfigChannel+0x6a>
  {
    MODIFY_REG(hadc->Instance->SQR3                        ,
 8000d38:	687b      	ldr	r3, [r7, #4]
 8000d3a:	681b      	ldr	r3, [r3, #0]
 8000d3c:	6b59      	ldr	r1, [r3, #52]	; 0x34
 8000d3e:	683b      	ldr	r3, [r7, #0]
 8000d40:	685a      	ldr	r2, [r3, #4]
 8000d42:	4613      	mov	r3, r2
 8000d44:	009b      	lsls	r3, r3, #2
 8000d46:	4413      	add	r3, r2
 8000d48:	3b05      	subs	r3, #5
 8000d4a:	221f      	movs	r2, #31
 8000d4c:	fa02 f303 	lsl.w	r3, r2, r3
 8000d50:	43db      	mvns	r3, r3
 8000d52:	4019      	ands	r1, r3
 8000d54:	683b      	ldr	r3, [r7, #0]
 8000d56:	6818      	ldr	r0, [r3, #0]
 8000d58:	683b      	ldr	r3, [r7, #0]
 8000d5a:	685a      	ldr	r2, [r3, #4]
 8000d5c:	4613      	mov	r3, r2
 8000d5e:	009b      	lsls	r3, r3, #2
 8000d60:	4413      	add	r3, r2
 8000d62:	3b05      	subs	r3, #5
 8000d64:	fa00 f203 	lsl.w	r2, r0, r3
 8000d68:	687b      	ldr	r3, [r7, #4]
 8000d6a:	681b      	ldr	r3, [r3, #0]
 8000d6c:	430a      	orrs	r2, r1
 8000d6e:	635a      	str	r2, [r3, #52]	; 0x34
 8000d70:	e03c      	b.n	8000dec <HAL_ADC_ConfigChannel+0xe4>
               ADC_SQR3_RK(ADC_SQR3_SQ1, sConfig->Rank)    ,
               ADC_SQR3_RK(sConfig->Channel, sConfig->Rank) );
  }
  /* For Rank 7 to 12 */
  else if (sConfig->Rank < 13U)
 8000d72:	683b      	ldr	r3, [r7, #0]
 8000d74:	685b      	ldr	r3, [r3, #4]
 8000d76:	2b0c      	cmp	r3, #12
 8000d78:	d81c      	bhi.n	8000db4 <HAL_ADC_ConfigChannel+0xac>
  {
    MODIFY_REG(hadc->Instance->SQR2                        ,
 8000d7a:	687b      	ldr	r3, [r7, #4]
 8000d7c:	681b      	ldr	r3, [r3, #0]
 8000d7e:	6b19      	ldr	r1, [r3, #48]	; 0x30
 8000d80:	683b      	ldr	r3, [r7, #0]
 8000d82:	685a      	ldr	r2, [r3, #4]
 8000d84:	4613      	mov	r3, r2
 8000d86:	009b      	lsls	r3, r3, #2
 8000d88:	4413      	add	r3, r2
 8000d8a:	3b23      	subs	r3, #35	; 0x23
 8000d8c:	221f      	movs	r2, #31
 8000d8e:	fa02 f303 	lsl.w	r3, r2, r3
 8000d92:	43db      	mvns	r3, r3
 8000d94:	4019      	ands	r1, r3
 8000d96:	683b      	ldr	r3, [r7, #0]
 8000d98:	6818      	ldr	r0, [r3, #0]
 8000d9a:	683b      	ldr	r3, [r7, #0]
 8000d9c:	685a      	ldr	r2, [r3, #4]
 8000d9e:	4613      	mov	r3, r2
 8000da0:	009b      	lsls	r3, r3, #2
 8000da2:	4413      	add	r3, r2
 8000da4:	3b23      	subs	r3, #35	; 0x23
 8000da6:	fa00 f203 	lsl.w	r2, r0, r3
 8000daa:	687b      	ldr	r3, [r7, #4]
 8000dac:	681b      	ldr	r3, [r3, #0]
 8000dae:	430a      	orrs	r2, r1
 8000db0:	631a      	str	r2, [r3, #48]	; 0x30
 8000db2:	e01b      	b.n	8000dec <HAL_ADC_ConfigChannel+0xe4>
               ADC_SQR2_RK(sConfig->Channel, sConfig->Rank) );
  }
  /* For Rank 13 to 16 */
  else
  {
    MODIFY_REG(hadc->Instance->SQR1                        ,
 8000db4:	687b      	ldr	r3, [r7, #4]
 8000db6:	681b      	ldr	r3, [r3, #0]
 8000db8:	6ad9      	ldr	r1, [r3, #44]	; 0x2c
 8000dba:	683b      	ldr	r3, [r7, #0]
 8000dbc:	685a      	ldr	r2, [r3, #4]
 8000dbe:	4613      	mov	r3, r2
 8000dc0:	009b      	lsls	r3, r3, #2
 8000dc2:	4413      	add	r3, r2
 8000dc4:	3b41      	subs	r3, #65	; 0x41
 8000dc6:	221f      	movs	r2, #31
 8000dc8:	fa02 f303 	lsl.w	r3, r2, r3
 8000dcc:	43db      	mvns	r3, r3
 8000dce:	4019      	ands	r1, r3
 8000dd0:	683b      	ldr	r3, [r7, #0]
 8000dd2:	6818      	ldr	r0, [r3, #0]
 8000dd4:	683b      	ldr	r3, [r7, #0]
 8000dd6:	685a      	ldr	r2, [r3, #4]
 8000dd8:	4613      	mov	r3, r2
 8000dda:	009b      	lsls	r3, r3, #2
 8000ddc:	4413      	add	r3, r2
 8000dde:	3b41      	subs	r3, #65	; 0x41
 8000de0:	fa00 f203 	lsl.w	r2, r0, r3
 8000de4:	687b      	ldr	r3, [r7, #4]
 8000de6:	681b      	ldr	r3, [r3, #0]
 8000de8:	430a      	orrs	r2, r1
 8000dea:	62da      	str	r2, [r3, #44]	; 0x2c
  }
  
  
  /* Channel sampling time configuration */
  /* For channels 10 to 17 */
  if (sConfig->Channel >= ADC_CHANNEL_10)
 8000dec:	683b      	ldr	r3, [r7, #0]
 8000dee:	681b      	ldr	r3, [r3, #0]
 8000df0:	2b09      	cmp	r3, #9
 8000df2:	d91c      	bls.n	8000e2e <HAL_ADC_ConfigChannel+0x126>
  {
    MODIFY_REG(hadc->Instance->SMPR1                             ,
 8000df4:	687b      	ldr	r3, [r7, #4]
 8000df6:	681b      	ldr	r3, [r3, #0]
 8000df8:	68d9      	ldr	r1, [r3, #12]
 8000dfa:	683b      	ldr	r3, [r7, #0]
 8000dfc:	681a      	ldr	r2, [r3, #0]
 8000dfe:	4613      	mov	r3, r2
 8000e00:	005b      	lsls	r3, r3, #1
 8000e02:	4413      	add	r3, r2
 8000e04:	3b1e      	subs	r3, #30
 8000e06:	2207      	movs	r2, #7
 8000e08:	fa02 f303 	lsl.w	r3, r2, r3
 8000e0c:	43db      	mvns	r3, r3
 8000e0e:	4019      	ands	r1, r3
 8000e10:	683b      	ldr	r3, [r7, #0]
 8000e12:	6898      	ldr	r0, [r3, #8]
 8000e14:	683b      	ldr	r3, [r7, #0]
 8000e16:	681a      	ldr	r2, [r3, #0]
 8000e18:	4613      	mov	r3, r2
 8000e1a:	005b      	lsls	r3, r3, #1
 8000e1c:	4413      	add	r3, r2
 8000e1e:	3b1e      	subs	r3, #30
 8000e20:	fa00 f203 	lsl.w	r2, r0, r3
 8000e24:	687b      	ldr	r3, [r7, #4]
 8000e26:	681b      	ldr	r3, [r3, #0]
 8000e28:	430a      	orrs	r2, r1
 8000e2a:	60da      	str	r2, [r3, #12]
 8000e2c:	e019      	b.n	8000e62 <HAL_ADC_ConfigChannel+0x15a>
               ADC_SMPR1(ADC_SMPR1_SMP10, sConfig->Channel)      ,
               ADC_SMPR1(sConfig->SamplingTime, sConfig->Channel) );
  }
  else /* For channels 0 to 9 */
  {
    MODIFY_REG(hadc->Instance->SMPR2                             ,
 8000e2e:	687b      	ldr	r3, [r7, #4]
 8000e30:	681b      	ldr	r3, [r3, #0]
 8000e32:	6919      	ldr	r1, [r3, #16]
 8000e34:	683b      	ldr	r3, [r7, #0]
 8000e36:	681a      	ldr	r2, [r3, #0]
 8000e38:	4613      	mov	r3, r2
 8000e3a:	005b      	lsls	r3, r3, #1
 8000e3c:	4413      	add	r3, r2
 8000e3e:	2207      	movs	r2, #7
 8000e40:	fa02 f303 	lsl.w	r3, r2, r3
 8000e44:	43db      	mvns	r3, r3
 8000e46:	4019      	ands	r1, r3
 8000e48:	683b      	ldr	r3, [r7, #0]
 8000e4a:	6898      	ldr	r0, [r3, #8]
 8000e4c:	683b      	ldr	r3, [r7, #0]
 8000e4e:	681a      	ldr	r2, [r3, #0]
 8000e50:	4613      	mov	r3, r2
 8000e52:	005b      	lsls	r3, r3, #1
 8000e54:	4413      	add	r3, r2
 8000e56:	fa00 f203 	lsl.w	r2, r0, r3
 8000e5a:	687b      	ldr	r3, [r7, #4]
 8000e5c:	681b      	ldr	r3, [r3, #0]
 8000e5e:	430a      	orrs	r2, r1
 8000e60:	611a      	str	r2, [r3, #16]
               ADC_SMPR2(sConfig->SamplingTime, sConfig->Channel) );
  }
  
  /* If ADC1 Channel_16 or Channel_17 is selected, enable Temperature sensor  */
  /* and VREFINT measurement path.                                            */
  if ((sConfig->Channel == ADC_CHANNEL_TEMPSENSOR) ||
 8000e62:	683b      	ldr	r3, [r7, #0]
 8000e64:	681b      	ldr	r3, [r3, #0]
 8000e66:	2b10      	cmp	r3, #16
 8000e68:	d003      	beq.n	8000e72 <HAL_ADC_ConfigChannel+0x16a>
      (sConfig->Channel == ADC_CHANNEL_VREFINT)      )
 8000e6a:	683b      	ldr	r3, [r7, #0]
 8000e6c:	681b      	ldr	r3, [r3, #0]
  if ((sConfig->Channel == ADC_CHANNEL_TEMPSENSOR) ||
 8000e6e:	2b11      	cmp	r3, #17
 8000e70:	d132      	bne.n	8000ed8 <HAL_ADC_ConfigChannel+0x1d0>
  {
    /* For STM32F1 devices with several ADC: Only ADC1 can access internal    */
    /* measurement channels (VrefInt/TempSensor). If these channels are       */
    /* intended to be set on other ADC instances, an error is reported.       */
    if (hadc->Instance == ADC1)
 8000e72:	687b      	ldr	r3, [r7, #4]
 8000e74:	681b      	ldr	r3, [r3, #0]
 8000e76:	4a1d      	ldr	r2, [pc, #116]	; (8000eec <HAL_ADC_ConfigChannel+0x1e4>)
 8000e78:	4293      	cmp	r3, r2
 8000e7a:	d125      	bne.n	8000ec8 <HAL_ADC_ConfigChannel+0x1c0>
    {
      if (READ_BIT(hadc->Instance->CR2, ADC_CR2_TSVREFE) == RESET)
 8000e7c:	687b      	ldr	r3, [r7, #4]
 8000e7e:	681b      	ldr	r3, [r3, #0]
 8000e80:	689b      	ldr	r3, [r3, #8]
 8000e82:	f403 0300 	and.w	r3, r3, #8388608	; 0x800000
 8000e86:	2b00      	cmp	r3, #0
 8000e88:	d126      	bne.n	8000ed8 <HAL_ADC_ConfigChannel+0x1d0>
      {
        SET_BIT(hadc->Instance->CR2, ADC_CR2_TSVREFE);
 8000e8a:	687b      	ldr	r3, [r7, #4]
 8000e8c:	681b      	ldr	r3, [r3, #0]
 8000e8e:	689a      	ldr	r2, [r3, #8]
 8000e90:	687b      	ldr	r3, [r7, #4]
 8000e92:	681b      	ldr	r3, [r3, #0]
 8000e94:	f442 0200 	orr.w	r2, r2, #8388608	; 0x800000
 8000e98:	609a      	str	r2, [r3, #8]
        
        if (sConfig->Channel == ADC_CHANNEL_TEMPSENSOR)
 8000e9a:	683b      	ldr	r3, [r7, #0]
 8000e9c:	681b      	ldr	r3, [r3, #0]
 8000e9e:	2b10      	cmp	r3, #16
 8000ea0:	d11a      	bne.n	8000ed8 <HAL_ADC_ConfigChannel+0x1d0>
        {
          /* Delay for temperature sensor stabilization time */
          /* Compute number of CPU cycles to wait for */
          wait_loop_index = (ADC_TEMPSENSOR_DELAY_US * (SystemCoreClock / 1000000U));
 8000ea2:	4b13      	ldr	r3, [pc, #76]	; (8000ef0 <HAL_ADC_ConfigChannel+0x1e8>)
 8000ea4:	681b      	ldr	r3, [r3, #0]
 8000ea6:	4a13      	ldr	r2, [pc, #76]	; (8000ef4 <HAL_ADC_ConfigChannel+0x1ec>)
 8000ea8:	fba2 2303 	umull	r2, r3, r2, r3
 8000eac:	0c9a      	lsrs	r2, r3, #18
 8000eae:	4613      	mov	r3, r2
 8000eb0:	009b      	lsls	r3, r3, #2
 8000eb2:	4413      	add	r3, r2
 8000eb4:	005b      	lsls	r3, r3, #1
 8000eb6:	60bb      	str	r3, [r7, #8]
          while(wait_loop_index != 0U)
 8000eb8:	e002      	b.n	8000ec0 <HAL_ADC_ConfigChannel+0x1b8>
          {
            wait_loop_index--;
 8000eba:	68bb      	ldr	r3, [r7, #8]
 8000ebc:	3b01      	subs	r3, #1
 8000ebe:	60bb      	str	r3, [r7, #8]
          while(wait_loop_index != 0U)
 8000ec0:	68bb      	ldr	r3, [r7, #8]
 8000ec2:	2b00      	cmp	r3, #0
 8000ec4:	d1f9      	bne.n	8000eba <HAL_ADC_ConfigChannel+0x1b2>
 8000ec6:	e007      	b.n	8000ed8 <HAL_ADC_ConfigChannel+0x1d0>
      }
    }
    else
    {
      /* Update ADC state machine to error */
      SET_BIT(hadc->State, HAL_ADC_STATE_ERROR_CONFIG);
 8000ec8:	687b      	ldr	r3, [r7, #4]
 8000eca:	6a9b      	ldr	r3, [r3, #40]	; 0x28
 8000ecc:	f043 0220 	orr.w	r2, r3, #32
 8000ed0:	687b      	ldr	r3, [r7, #4]
 8000ed2:	629a      	str	r2, [r3, #40]	; 0x28
      
      tmp_hal_status = HAL_ERROR;
 8000ed4:	2301      	movs	r3, #1
 8000ed6:	73fb      	strb	r3, [r7, #15]
    }
  }
  
  /* Process unlocked */
  __HAL_UNLOCK(hadc);
 8000ed8:	687b      	ldr	r3, [r7, #4]
 8000eda:	2200      	movs	r2, #0
 8000edc:	f883 2024 	strb.w	r2, [r3, #36]	; 0x24
  
  /* Return function status */
  return tmp_hal_status;
 8000ee0:	7bfb      	ldrb	r3, [r7, #15]
}
 8000ee2:	4618      	mov	r0, r3
 8000ee4:	3714      	adds	r7, #20
 8000ee6:	46bd      	mov	sp, r7
 8000ee8:	bc80      	pop	{r7}
 8000eea:	4770      	bx	lr
 8000eec:	40012400 	.word	0x40012400
 8000ef0:	20000004 	.word	0x20000004
 8000ef4:	431bde83 	.word	0x431bde83

08000ef8 <ADC_Enable>:
  *         and voltage regulator must be enabled (done into HAL_ADC_Init()).
  * @param  hadc: ADC handle
  * @retval HAL status.
  */
HAL_StatusTypeDef ADC_Enable(ADC_HandleTypeDef* hadc)
{
 8000ef8:	b580      	push	{r7, lr}
 8000efa:	b084      	sub	sp, #16
 8000efc:	af00      	add	r7, sp, #0
 8000efe:	6078      	str	r0, [r7, #4]
  uint32_t tickstart = 0U;
 8000f00:	2300      	movs	r3, #0
 8000f02:	60fb      	str	r3, [r7, #12]
  __IO uint32_t wait_loop_index = 0U;
 8000f04:	2300      	movs	r3, #0
 8000f06:	60bb      	str	r3, [r7, #8]
  
  /* ADC enable and wait for ADC ready (in case of ADC is disabled or         */
  /* enabling phase not yet completed: flag ADC ready not yet set).           */
  /* Timeout implemented to not be stuck if ADC cannot be enabled (possible   */
  /* causes: ADC clock not running, ...).                                     */
  if (ADC_IS_ENABLE(hadc) == RESET)
 8000f08:	687b      	ldr	r3, [r7, #4]
 8000f0a:	681b      	ldr	r3, [r3, #0]
 8000f0c:	689b      	ldr	r3, [r3, #8]
 8000f0e:	f003 0301 	and.w	r3, r3, #1
 8000f12:	2b01      	cmp	r3, #1
 8000f14:	d040      	beq.n	8000f98 <ADC_Enable+0xa0>
  {
    /* Enable the Peripheral */
    __HAL_ADC_ENABLE(hadc);
 8000f16:	687b      	ldr	r3, [r7, #4]
 8000f18:	681b      	ldr	r3, [r3, #0]
 8000f1a:	689a      	ldr	r2, [r3, #8]
 8000f1c:	687b      	ldr	r3, [r7, #4]
 8000f1e:	681b      	ldr	r3, [r3, #0]
 8000f20:	f042 0201 	orr.w	r2, r2, #1
 8000f24:	609a      	str	r2, [r3, #8]
    
    /* Delay for ADC stabilization time */
    /* Compute number of CPU cycles to wait for */
    wait_loop_index = (ADC_STAB_DELAY_US * (SystemCoreClock / 1000000U));
 8000f26:	4b1f      	ldr	r3, [pc, #124]	; (8000fa4 <ADC_Enable+0xac>)
 8000f28:	681b      	ldr	r3, [r3, #0]
 8000f2a:	4a1f      	ldr	r2, [pc, #124]	; (8000fa8 <ADC_Enable+0xb0>)
 8000f2c:	fba2 2303 	umull	r2, r3, r2, r3
 8000f30:	0c9b      	lsrs	r3, r3, #18
 8000f32:	60bb      	str	r3, [r7, #8]
    while(wait_loop_index != 0U)
 8000f34:	e002      	b.n	8000f3c <ADC_Enable+0x44>
    {
      wait_loop_index--;
 8000f36:	68bb      	ldr	r3, [r7, #8]
 8000f38:	3b01      	subs	r3, #1
 8000f3a:	60bb      	str	r3, [r7, #8]
    while(wait_loop_index != 0U)
 8000f3c:	68bb      	ldr	r3, [r7, #8]
 8000f3e:	2b00      	cmp	r3, #0
 8000f40:	d1f9      	bne.n	8000f36 <ADC_Enable+0x3e>
    }
    
    /* Get tick count */
    tickstart = HAL_GetTick();
 8000f42:	f7ff fd2d 	bl	80009a0 <HAL_GetTick>
 8000f46:	60f8      	str	r0, [r7, #12]

    /* Wait for ADC effectively enabled */
    while(ADC_IS_ENABLE(hadc) == RESET)
 8000f48:	e01f      	b.n	8000f8a <ADC_Enable+0x92>
    {
      if((HAL_GetTick() - tickstart) > ADC_ENABLE_TIMEOUT)
 8000f4a:	f7ff fd29 	bl	80009a0 <HAL_GetTick>
 8000f4e:	4602      	mov	r2, r0
 8000f50:	68fb      	ldr	r3, [r7, #12]
 8000f52:	1ad3      	subs	r3, r2, r3
 8000f54:	2b02      	cmp	r3, #2
 8000f56:	d918      	bls.n	8000f8a <ADC_Enable+0x92>
      {
        /* New check to avoid false timeout detection in case of preemption */
        if(ADC_IS_ENABLE(hadc) == RESET)
 8000f58:	687b      	ldr	r3, [r7, #4]
 8000f5a:	681b      	ldr	r3, [r3, #0]
 8000f5c:	689b      	ldr	r3, [r3, #8]
 8000f5e:	f003 0301 	and.w	r3, r3, #1
 8000f62:	2b01      	cmp	r3, #1
 8000f64:	d011      	beq.n	8000f8a <ADC_Enable+0x92>
        {
          /* Update ADC state machine to error */
          SET_BIT(hadc->State, HAL_ADC_STATE_ERROR_INTERNAL);
 8000f66:	687b      	ldr	r3, [r7, #4]
 8000f68:	6a9b      	ldr	r3, [r3, #40]	; 0x28
 8000f6a:	f043 0210 	orr.w	r2, r3, #16
 8000f6e:	687b      	ldr	r3, [r7, #4]
 8000f70:	629a      	str	r2, [r3, #40]	; 0x28

          /* Set ADC error code to ADC IP internal error */
          SET_BIT(hadc->ErrorCode, HAL_ADC_ERROR_INTERNAL);
 8000f72:	687b      	ldr	r3, [r7, #4]
 8000f74:	6adb      	ldr	r3, [r3, #44]	; 0x2c
 8000f76:	f043 0201 	orr.w	r2, r3, #1
 8000f7a:	687b      	ldr	r3, [r7, #4]
 8000f7c:	62da      	str	r2, [r3, #44]	; 0x2c

          /* Process unlocked */
          __HAL_UNLOCK(hadc);
 8000f7e:	687b      	ldr	r3, [r7, #4]
 8000f80:	2200      	movs	r2, #0
 8000f82:	f883 2024 	strb.w	r2, [r3, #36]	; 0x24

          return HAL_ERROR;
 8000f86:	2301      	movs	r3, #1
 8000f88:	e007      	b.n	8000f9a <ADC_Enable+0xa2>
    while(ADC_IS_ENABLE(hadc) == RESET)
 8000f8a:	687b      	ldr	r3, [r7, #4]
 8000f8c:	681b      	ldr	r3, [r3, #0]
 8000f8e:	689b      	ldr	r3, [r3, #8]
 8000f90:	f003 0301 	and.w	r3, r3, #1
 8000f94:	2b01      	cmp	r3, #1
 8000f96:	d1d8      	bne.n	8000f4a <ADC_Enable+0x52>
      }
    }
  }
   
  /* Return HAL status */
  return HAL_OK;
 8000f98:	2300      	movs	r3, #0
}
 8000f9a:	4618      	mov	r0, r3
 8000f9c:	3710      	adds	r7, #16
 8000f9e:	46bd      	mov	sp, r7
 8000fa0:	bd80      	pop	{r7, pc}
 8000fa2:	bf00      	nop
 8000fa4:	20000004 	.word	0x20000004
 8000fa8:	431bde83 	.word	0x431bde83

08000fac <ADC_ConversionStop_Disable>:
  *         stopped to disable the ADC.
  * @param  hadc: ADC handle
  * @retval HAL status.
  */
HAL_StatusTypeDef ADC_ConversionStop_Disable(ADC_HandleTypeDef* hadc)
{
 8000fac:	b580      	push	{r7, lr}
 8000fae:	b084      	sub	sp, #16
 8000fb0:	af00      	add	r7, sp, #0
 8000fb2:	6078      	str	r0, [r7, #4]
  uint32_t tickstart = 0U;
 8000fb4:	2300      	movs	r3, #0
 8000fb6:	60fb      	str	r3, [r7, #12]
  
  /* Verification if ADC is not already disabled */
  if (ADC_IS_ENABLE(hadc) != RESET)
 8000fb8:	687b      	ldr	r3, [r7, #4]
 8000fba:	681b      	ldr	r3, [r3, #0]
 8000fbc:	689b      	ldr	r3, [r3, #8]
 8000fbe:	f003 0301 	and.w	r3, r3, #1
 8000fc2:	2b01      	cmp	r3, #1
 8000fc4:	d12e      	bne.n	8001024 <ADC_ConversionStop_Disable+0x78>
  {
    /* Disable the ADC peripheral */
    __HAL_ADC_DISABLE(hadc);
 8000fc6:	687b      	ldr	r3, [r7, #4]
 8000fc8:	681b      	ldr	r3, [r3, #0]
 8000fca:	689a      	ldr	r2, [r3, #8]
 8000fcc:	687b      	ldr	r3, [r7, #4]
 8000fce:	681b      	ldr	r3, [r3, #0]
 8000fd0:	f022 0201 	bic.w	r2, r2, #1
 8000fd4:	609a      	str	r2, [r3, #8]
     
    /* Get tick count */
    tickstart = HAL_GetTick();
 8000fd6:	f7ff fce3 	bl	80009a0 <HAL_GetTick>
 8000fda:	60f8      	str	r0, [r7, #12]
    
    /* Wait for ADC effectively disabled */
    while(ADC_IS_ENABLE(hadc) != RESET)
 8000fdc:	e01b      	b.n	8001016 <ADC_ConversionStop_Disable+0x6a>
    {
      if((HAL_GetTick() - tickstart) > ADC_DISABLE_TIMEOUT)
 8000fde:	f7ff fcdf 	bl	80009a0 <HAL_GetTick>
 8000fe2:	4602      	mov	r2, r0
 8000fe4:	68fb      	ldr	r3, [r7, #12]
 8000fe6:	1ad3      	subs	r3, r2, r3
 8000fe8:	2b02      	cmp	r3, #2
 8000fea:	d914      	bls.n	8001016 <ADC_ConversionStop_Disable+0x6a>
      {
        /* New check to avoid false timeout detection in case of preemption */
        if(ADC_IS_ENABLE(hadc) != RESET)
 8000fec:	687b      	ldr	r3, [r7, #4]
 8000fee:	681b      	ldr	r3, [r3, #0]
 8000ff0:	689b      	ldr	r3, [r3, #8]
 8000ff2:	f003 0301 	and.w	r3, r3, #1
 8000ff6:	2b01      	cmp	r3, #1
 8000ff8:	d10d      	bne.n	8001016 <ADC_ConversionStop_Disable+0x6a>
        {
          /* Update ADC state machine to error */
          SET_BIT(hadc->State, HAL_ADC_STATE_ERROR_INTERNAL);
 8000ffa:	687b      	ldr	r3, [r7, #4]
 8000ffc:	6a9b      	ldr	r3, [r3, #40]	; 0x28
 8000ffe:	f043 0210 	orr.w	r2, r3, #16
 8001002:	687b      	ldr	r3, [r7, #4]
 8001004:	629a      	str	r2, [r3, #40]	; 0x28

          /* Set ADC error code to ADC IP internal error */
          SET_BIT(hadc->ErrorCode, HAL_ADC_ERROR_INTERNAL);
 8001006:	687b      	ldr	r3, [r7, #4]
 8001008:	6adb      	ldr	r3, [r3, #44]	; 0x2c
 800100a:	f043 0201 	orr.w	r2, r3, #1
 800100e:	687b      	ldr	r3, [r7, #4]
 8001010:	62da      	str	r2, [r3, #44]	; 0x2c

          return HAL_ERROR;
 8001012:	2301      	movs	r3, #1
 8001014:	e007      	b.n	8001026 <ADC_ConversionStop_Disable+0x7a>
    while(ADC_IS_ENABLE(hadc) != RESET)
 8001016:	687b      	ldr	r3, [r7, #4]
 8001018:	681b      	ldr	r3, [r3, #0]
 800101a:	689b      	ldr	r3, [r3, #8]
 800101c:	f003 0301 	and.w	r3, r3, #1
 8001020:	2b01      	cmp	r3, #1
 8001022:	d0dc      	beq.n	8000fde <ADC_ConversionStop_Disable+0x32>
      }
    }
  }
  
  /* Return HAL status */
  return HAL_OK;
 8001024:	2300      	movs	r3, #0
}
 8001026:	4618      	mov	r0, r3
 8001028:	3710      	adds	r7, #16
 800102a:	46bd      	mov	sp, r7
 800102c:	bd80      	pop	{r7, pc}
	...

08001030 <__NVIC_SetPriorityGrouping>:
           In case of a conflict between priority grouping and available
           priority bits (__NVIC_PRIO_BITS), the smallest possible priority group is set.
  \param [in]      PriorityGroup  Priority grouping field.
 */
__STATIC_INLINE void __NVIC_SetPriorityGrouping(uint32_t PriorityGroup)
{
 8001030:	b480      	push	{r7}
 8001032:	b085      	sub	sp, #20
 8001034:	af00      	add	r7, sp, #0
 8001036:	6078      	str	r0, [r7, #4]
  uint32_t reg_value;
  uint32_t PriorityGroupTmp = (PriorityGroup & (uint32_t)0x07UL);             /* only values 0..7 are used          */
 8001038:	687b      	ldr	r3, [r7, #4]
 800103a:	f003 0307 	and.w	r3, r3, #7
 800103e:	60fb      	str	r3, [r7, #12]

  reg_value  =  SCB->AIRCR;                                                   /* read old register configuration    */
 8001040:	4b0c      	ldr	r3, [pc, #48]	; (8001074 <__NVIC_SetPriorityGrouping+0x44>)
 8001042:	68db      	ldr	r3, [r3, #12]
 8001044:	60bb      	str	r3, [r7, #8]
  reg_value &= ~((uint32_t)(SCB_AIRCR_VECTKEY_Msk | SCB_AIRCR_PRIGROUP_Msk)); /* clear bits to change               */
 8001046:	68ba      	ldr	r2, [r7, #8]
 8001048:	f64f 03ff 	movw	r3, #63743	; 0xf8ff
 800104c:	4013      	ands	r3, r2
 800104e:	60bb      	str	r3, [r7, #8]
  reg_value  =  (reg_value                                   |
                ((uint32_t)0x5FAUL << SCB_AIRCR_VECTKEY_Pos) |
                (PriorityGroupTmp << SCB_AIRCR_PRIGROUP_Pos) );               /* Insert write key and priority group */
 8001050:	68fb      	ldr	r3, [r7, #12]
 8001052:	021a      	lsls	r2, r3, #8
                ((uint32_t)0x5FAUL << SCB_AIRCR_VECTKEY_Pos) |
 8001054:	68bb      	ldr	r3, [r7, #8]
 8001056:	4313      	orrs	r3, r2
  reg_value  =  (reg_value                                   |
 8001058:	f043 63bf 	orr.w	r3, r3, #100139008	; 0x5f80000
 800105c:	f443 3300 	orr.w	r3, r3, #131072	; 0x20000
 8001060:	60bb      	str	r3, [r7, #8]
  SCB->AIRCR =  reg_value;
 8001062:	4a04      	ldr	r2, [pc, #16]	; (8001074 <__NVIC_SetPriorityGrouping+0x44>)
 8001064:	68bb      	ldr	r3, [r7, #8]
 8001066:	60d3      	str	r3, [r2, #12]
}
 8001068:	bf00      	nop
 800106a:	3714      	adds	r7, #20
 800106c:	46bd      	mov	sp, r7
 800106e:	bc80      	pop	{r7}
 8001070:	4770      	bx	lr
 8001072:	bf00      	nop
 8001074:	e000ed00 	.word	0xe000ed00

08001078 <__NVIC_GetPriorityGrouping>:
  \brief   Get Priority Grouping
  \details Reads the priority grouping field from the NVIC Interrupt Controller.
  \return                Priority grouping field (SCB->AIRCR [10:8] PRIGROUP field).
 */
__STATIC_INLINE uint32_t __NVIC_GetPriorityGrouping(void)
{
 8001078:	b480      	push	{r7}
 800107a:	af00      	add	r7, sp, #0
  return ((uint32_t)((SCB->AIRCR & SCB_AIRCR_PRIGROUP_Msk) >> SCB_AIRCR_PRIGROUP_Pos));
 800107c:	4b04      	ldr	r3, [pc, #16]	; (8001090 <__NVIC_GetPriorityGrouping+0x18>)
 800107e:	68db      	ldr	r3, [r3, #12]
 8001080:	0a1b      	lsrs	r3, r3, #8
 8001082:	f003 0307 	and.w	r3, r3, #7
}
 8001086:	4618      	mov	r0, r3
 8001088:	46bd      	mov	sp, r7
 800108a:	bc80      	pop	{r7}
 800108c:	4770      	bx	lr
 800108e:	bf00      	nop
 8001090:	e000ed00 	.word	0xe000ed00

08001094 <__NVIC_SetPriority>:
  \param [in]      IRQn  Interrupt number.
  \param [in]  priority  Priority to set.
  \note    The priority cannot be set for every processor exception.
 */
__STATIC_INLINE void __NVIC_SetPriority(IRQn_Type IRQn, uint32_t priority)
{
 8001094:	b480      	push	{r7}
 8001096:	b083      	sub	sp, #12
 8001098:	af00      	add	r7, sp, #0
 800109a:	4603      	mov	r3, r0
 800109c:	6039      	str	r1, [r7, #0]
 800109e:	71fb      	strb	r3, [r7, #7]
  if ((int32_t)(IRQn) >= 0)
 80010a0:	f997 3007 	ldrsb.w	r3, [r7, #7]
 80010a4:	2b00      	cmp	r3, #0
 80010a6:	db0a      	blt.n	80010be <__NVIC_SetPriority+0x2a>
  {
    NVIC->IP[((uint32_t)IRQn)]               = (uint8_t)((priority << (8U - __NVIC_PRIO_BITS)) & (uint32_t)0xFFUL);
 80010a8:	683b      	ldr	r3, [r7, #0]
 80010aa:	b2da      	uxtb	r2, r3
 80010ac:	490c      	ldr	r1, [pc, #48]	; (80010e0 <__NVIC_SetPriority+0x4c>)
 80010ae:	f997 3007 	ldrsb.w	r3, [r7, #7]
 80010b2:	0112      	lsls	r2, r2, #4
 80010b4:	b2d2      	uxtb	r2, r2
 80010b6:	440b      	add	r3, r1
 80010b8:	f883 2300 	strb.w	r2, [r3, #768]	; 0x300
  }
  else
  {
    SCB->SHP[(((uint32_t)IRQn) & 0xFUL)-4UL] = (uint8_t)((priority << (8U - __NVIC_PRIO_BITS)) & (uint32_t)0xFFUL);
  }
}
 80010bc:	e00a      	b.n	80010d4 <__NVIC_SetPriority+0x40>
    SCB->SHP[(((uint32_t)IRQn) & 0xFUL)-4UL] = (uint8_t)((priority << (8U - __NVIC_PRIO_BITS)) & (uint32_t)0xFFUL);
 80010be:	683b      	ldr	r3, [r7, #0]
 80010c0:	b2da      	uxtb	r2, r3
 80010c2:	4908      	ldr	r1, [pc, #32]	; (80010e4 <__NVIC_SetPriority+0x50>)
 80010c4:	79fb      	ldrb	r3, [r7, #7]
 80010c6:	f003 030f 	and.w	r3, r3, #15
 80010ca:	3b04      	subs	r3, #4
 80010cc:	0112      	lsls	r2, r2, #4
 80010ce:	b2d2      	uxtb	r2, r2
 80010d0:	440b      	add	r3, r1
 80010d2:	761a      	strb	r2, [r3, #24]
}
 80010d4:	bf00      	nop
 80010d6:	370c      	adds	r7, #12
 80010d8:	46bd      	mov	sp, r7
 80010da:	bc80      	pop	{r7}
 80010dc:	4770      	bx	lr
 80010de:	bf00      	nop
 80010e0:	e000e100 	.word	0xe000e100
 80010e4:	e000ed00 	.word	0xe000ed00

080010e8 <NVIC_EncodePriority>:
  \param [in]   PreemptPriority  Preemptive priority value (starting from 0).
  \param [in]       SubPriority  Subpriority value (starting from 0).
  \return                        Encoded priority. Value can be used in the function \ref NVIC_SetPriority().
 */
__STATIC_INLINE uint32_t NVIC_EncodePriority (uint32_t PriorityGroup, uint32_t PreemptPriority, uint32_t SubPriority)
{
 80010e8:	b480      	push	{r7}
 80010ea:	b089      	sub	sp, #36	; 0x24
 80010ec:	af00      	add	r7, sp, #0
 80010ee:	60f8      	str	r0, [r7, #12]
 80010f0:	60b9      	str	r1, [r7, #8]
 80010f2:	607a      	str	r2, [r7, #4]
  uint32_t PriorityGroupTmp = (PriorityGroup & (uint32_t)0x07UL);   /* only values 0..7 are used          */
 80010f4:	68fb      	ldr	r3, [r7, #12]
 80010f6:	f003 0307 	and.w	r3, r3, #7
 80010fa:	61fb      	str	r3, [r7, #28]
  uint32_t PreemptPriorityBits;
  uint32_t SubPriorityBits;

  PreemptPriorityBits = ((7UL - PriorityGroupTmp) > (uint32_t)(__NVIC_PRIO_BITS)) ? (uint32_t)(__NVIC_PRIO_BITS) : (uint32_t)(7UL - PriorityGroupTmp);
 80010fc:	69fb      	ldr	r3, [r7, #28]
 80010fe:	f1c3 0307 	rsb	r3, r3, #7
 8001102:	2b04      	cmp	r3, #4
 8001104:	bf28      	it	cs
 8001106:	2304      	movcs	r3, #4
 8001108:	61bb      	str	r3, [r7, #24]
  SubPriorityBits     = ((PriorityGroupTmp + (uint32_t)(__NVIC_PRIO_BITS)) < (uint32_t)7UL) ? (uint32_t)0UL : (uint32_t)((PriorityGroupTmp - 7UL) + (uint32_t)(__NVIC_PRIO_BITS));
 800110a:	69fb      	ldr	r3, [r7, #28]
 800110c:	3304      	adds	r3, #4
 800110e:	2b06      	cmp	r3, #6
 8001110:	d902      	bls.n	8001118 <NVIC_EncodePriority+0x30>
 8001112:	69fb      	ldr	r3, [r7, #28]
 8001114:	3b03      	subs	r3, #3
 8001116:	e000      	b.n	800111a <NVIC_EncodePriority+0x32>
 8001118:	2300      	movs	r3, #0
 800111a:	617b      	str	r3, [r7, #20]

  return (
           ((PreemptPriority & (uint32_t)((1UL << (PreemptPriorityBits)) - 1UL)) << SubPriorityBits) |
 800111c:	f04f 32ff 	mov.w	r2, #4294967295
 8001120:	69bb      	ldr	r3, [r7, #24]
 8001122:	fa02 f303 	lsl.w	r3, r2, r3
 8001126:	43da      	mvns	r2, r3
 8001128:	68bb      	ldr	r3, [r7, #8]
 800112a:	401a      	ands	r2, r3
 800112c:	697b      	ldr	r3, [r7, #20]
 800112e:	409a      	lsls	r2, r3
           ((SubPriority     & (uint32_t)((1UL << (SubPriorityBits    )) - 1UL)))
 8001130:	f04f 31ff 	mov.w	r1, #4294967295
 8001134:	697b      	ldr	r3, [r7, #20]
 8001136:	fa01 f303 	lsl.w	r3, r1, r3
 800113a:	43d9      	mvns	r1, r3
 800113c:	687b      	ldr	r3, [r7, #4]
 800113e:	400b      	ands	r3, r1
           ((PreemptPriority & (uint32_t)((1UL << (PreemptPriorityBits)) - 1UL)) << SubPriorityBits) |
 8001140:	4313      	orrs	r3, r2
         );
}
 8001142:	4618      	mov	r0, r3
 8001144:	3724      	adds	r7, #36	; 0x24
 8001146:	46bd      	mov	sp, r7
 8001148:	bc80      	pop	{r7}
 800114a:	4770      	bx	lr

0800114c <SysTick_Config>:
  \note    When the variable <b>__Vendor_SysTickConfig</b> is set to 1, then the
           function <b>SysTick_Config</b> is not included. In this case, the file <b><i>device</i>.h</b>
           must contain a vendor-specific implementation of this function.
 */
__STATIC_INLINE uint32_t SysTick_Config(uint32_t ticks)
{
 800114c:	b580      	push	{r7, lr}
 800114e:	b082      	sub	sp, #8
 8001150:	af00      	add	r7, sp, #0
 8001152:	6078      	str	r0, [r7, #4]
  if ((ticks - 1UL) > SysTick_LOAD_RELOAD_Msk)
 8001154:	687b      	ldr	r3, [r7, #4]
 8001156:	3b01      	subs	r3, #1
 8001158:	f1b3 7f80 	cmp.w	r3, #16777216	; 0x1000000
 800115c:	d301      	bcc.n	8001162 <SysTick_Config+0x16>
  {
    return (1UL);                                                   /* Reload value impossible */
 800115e:	2301      	movs	r3, #1
 8001160:	e00f      	b.n	8001182 <SysTick_Config+0x36>
  }

  SysTick->LOAD  = (uint32_t)(ticks - 1UL);                         /* set reload register */
 8001162:	4a0a      	ldr	r2, [pc, #40]	; (800118c <SysTick_Config+0x40>)
 8001164:	687b      	ldr	r3, [r7, #4]
 8001166:	3b01      	subs	r3, #1
 8001168:	6053      	str	r3, [r2, #4]
  NVIC_SetPriority (SysTick_IRQn, (1UL << __NVIC_PRIO_BITS) - 1UL); /* set Priority for Systick Interrupt */
 800116a:	210f      	movs	r1, #15
 800116c:	f04f 30ff 	mov.w	r0, #4294967295
 8001170:	f7ff ff90 	bl	8001094 <__NVIC_SetPriority>
  SysTick->VAL   = 0UL;                                             /* Load the SysTick Counter Value */
 8001174:	4b05      	ldr	r3, [pc, #20]	; (800118c <SysTick_Config+0x40>)
 8001176:	2200      	movs	r2, #0
 8001178:	609a      	str	r2, [r3, #8]
  SysTick->CTRL  = SysTick_CTRL_CLKSOURCE_Msk |
 800117a:	4b04      	ldr	r3, [pc, #16]	; (800118c <SysTick_Config+0x40>)
 800117c:	2207      	movs	r2, #7
 800117e:	601a      	str	r2, [r3, #0]
                   SysTick_CTRL_TICKINT_Msk   |
                   SysTick_CTRL_ENABLE_Msk;                         /* Enable SysTick IRQ and SysTick Timer */
  return (0UL);                                                     /* Function successful */
 8001180:	2300      	movs	r3, #0
}
 8001182:	4618      	mov	r0, r3
 8001184:	3708      	adds	r7, #8
 8001186:	46bd      	mov	sp, r7
 8001188:	bd80      	pop	{r7, pc}
 800118a:	bf00      	nop
 800118c:	e000e010 	.word	0xe000e010

08001190 <HAL_NVIC_SetPriorityGrouping>:
  * @note   When the NVIC_PriorityGroup_0 is selected, IRQ preemption is no more possible. 
  *         The pending IRQ priority will be managed only by the subpriority. 
  * @retval None
  */
void HAL_NVIC_SetPriorityGrouping(uint32_t PriorityGroup)
{
 8001190:	b580      	push	{r7, lr}
 8001192:	b082      	sub	sp, #8
 8001194:	af00      	add	r7, sp, #0
 8001196:	6078      	str	r0, [r7, #4]
  /* Check the parameters */
  assert_param(IS_NVIC_PRIORITY_GROUP(PriorityGroup));
  
  /* Set the PRIGROUP[10:8] bits according to the PriorityGroup parameter value */
  NVIC_SetPriorityGrouping(PriorityGroup);
 8001198:	6878      	ldr	r0, [r7, #4]
 800119a:	f7ff ff49 	bl	8001030 <__NVIC_SetPriorityGrouping>
}
 800119e:	bf00      	nop
 80011a0:	3708      	adds	r7, #8
 80011a2:	46bd      	mov	sp, r7
 80011a4:	bd80      	pop	{r7, pc}

080011a6 <HAL_NVIC_SetPriority>:
  *         This parameter can be a value between 0 and 15
  *         A lower priority value indicates a higher priority.          
  * @retval None
  */
void HAL_NVIC_SetPriority(IRQn_Type IRQn, uint32_t PreemptPriority, uint32_t SubPriority)
{ 
 80011a6:	b580      	push	{r7, lr}
 80011a8:	b086      	sub	sp, #24
 80011aa:	af00      	add	r7, sp, #0
 80011ac:	4603      	mov	r3, r0
 80011ae:	60b9      	str	r1, [r7, #8]
 80011b0:	607a      	str	r2, [r7, #4]
 80011b2:	73fb      	strb	r3, [r7, #15]
  uint32_t prioritygroup = 0x00U;
 80011b4:	2300      	movs	r3, #0
 80011b6:	617b      	str	r3, [r7, #20]
  
  /* Check the parameters */
  assert_param(IS_NVIC_SUB_PRIORITY(SubPriority));
  assert_param(IS_NVIC_PREEMPTION_PRIORITY(PreemptPriority));
  
  prioritygroup = NVIC_GetPriorityGrouping();
 80011b8:	f7ff ff5e 	bl	8001078 <__NVIC_GetPriorityGrouping>
 80011bc:	6178      	str	r0, [r7, #20]
  
  NVIC_SetPriority(IRQn, NVIC_EncodePriority(prioritygroup, PreemptPriority, SubPriority));
 80011be:	687a      	ldr	r2, [r7, #4]
 80011c0:	68b9      	ldr	r1, [r7, #8]
 80011c2:	6978      	ldr	r0, [r7, #20]
 80011c4:	f7ff ff90 	bl	80010e8 <NVIC_EncodePriority>
 80011c8:	4602      	mov	r2, r0
 80011ca:	f997 300f 	ldrsb.w	r3, [r7, #15]
 80011ce:	4611      	mov	r1, r2
 80011d0:	4618      	mov	r0, r3
 80011d2:	f7ff ff5f 	bl	8001094 <__NVIC_SetPriority>
}
 80011d6:	bf00      	nop
 80011d8:	3718      	adds	r7, #24
 80011da:	46bd      	mov	sp, r7
 80011dc:	bd80      	pop	{r7, pc}

080011de <HAL_SYSTICK_Config>:
  * @param  TicksNumb: Specifies the ticks Number of ticks between two interrupts.
  * @retval status:  - 0  Function succeeded.
  *                  - 1  Function failed.
  */
uint32_t HAL_SYSTICK_Config(uint32_t TicksNumb)
{
 80011de:	b580      	push	{r7, lr}
 80011e0:	b082      	sub	sp, #8
 80011e2:	af00      	add	r7, sp, #0
 80011e4:	6078      	str	r0, [r7, #4]
   return SysTick_Config(TicksNumb);
 80011e6:	6878      	ldr	r0, [r7, #4]
 80011e8:	f7ff ffb0 	bl	800114c <SysTick_Config>
 80011ec:	4603      	mov	r3, r0
}
 80011ee:	4618      	mov	r0, r3
 80011f0:	3708      	adds	r7, #8
 80011f2:	46bd      	mov	sp, r7
 80011f4:	bd80      	pop	{r7, pc}
	...

080011f8 <HAL_GPIO_Init>:
  * @param  GPIO_Init: pointer to a GPIO_InitTypeDef structure that contains
  *         the configuration information for the specified GPIO peripheral.
  * @retval None
  */
void HAL_GPIO_Init(GPIO_TypeDef  *GPIOx, GPIO_InitTypeDef *GPIO_Init)
{
 80011f8:	b480      	push	{r7}
 80011fa:	b08b      	sub	sp, #44	; 0x2c
 80011fc:	af00      	add	r7, sp, #0
 80011fe:	6078      	str	r0, [r7, #4]
 8001200:	6039      	str	r1, [r7, #0]
  uint32_t position = 0x00u;
 8001202:	2300      	movs	r3, #0
 8001204:	627b      	str	r3, [r7, #36]	; 0x24
  uint32_t ioposition;
  uint32_t iocurrent;
  uint32_t temp;
  uint32_t config = 0x00u;
 8001206:	2300      	movs	r3, #0
 8001208:	623b      	str	r3, [r7, #32]
  assert_param(IS_GPIO_ALL_INSTANCE(GPIOx));
  assert_param(IS_GPIO_PIN(GPIO_Init->Pin));
  assert_param(IS_GPIO_MODE(GPIO_Init->Mode));

  /* Configure the port pins */
  while (((GPIO_Init->Pin) >> position) != 0x00u)
 800120a:	e148      	b.n	800149e <HAL_GPIO_Init+0x2a6>
  {
    /* Get the IO position */
    ioposition = (0x01uL << position);
 800120c:	2201      	movs	r2, #1
 800120e:	6a7b      	ldr	r3, [r7, #36]	; 0x24
 8001210:	fa02 f303 	lsl.w	r3, r2, r3
 8001214:	61fb      	str	r3, [r7, #28]

    /* Get the current IO position */
    iocurrent = (uint32_t)(GPIO_Init->Pin) & ioposition;
 8001216:	683b      	ldr	r3, [r7, #0]
 8001218:	681b      	ldr	r3, [r3, #0]
 800121a:	69fa      	ldr	r2, [r7, #28]
 800121c:	4013      	ands	r3, r2
 800121e:	61bb      	str	r3, [r7, #24]

    if (iocurrent == ioposition)
 8001220:	69ba      	ldr	r2, [r7, #24]
 8001222:	69fb      	ldr	r3, [r7, #28]
 8001224:	429a      	cmp	r2, r3
 8001226:	f040 8137 	bne.w	8001498 <HAL_GPIO_Init+0x2a0>
    {
      /* Check the Alternate function parameters */
      assert_param(IS_GPIO_AF_INSTANCE(GPIOx));

      /* Based on the required mode, filling config variable with MODEy[1:0] and CNFy[3:2] corresponding bits */
      switch (GPIO_Init->Mode)
 800122a:	683b      	ldr	r3, [r7, #0]
 800122c:	685b      	ldr	r3, [r3, #4]
 800122e:	4aa3      	ldr	r2, [pc, #652]	; (80014bc <HAL_GPIO_Init+0x2c4>)
 8001230:	4293      	cmp	r3, r2
 8001232:	d05e      	beq.n	80012f2 <HAL_GPIO_Init+0xfa>
 8001234:	4aa1      	ldr	r2, [pc, #644]	; (80014bc <HAL_GPIO_Init+0x2c4>)
 8001236:	4293      	cmp	r3, r2
 8001238:	d875      	bhi.n	8001326 <HAL_GPIO_Init+0x12e>
 800123a:	4aa1      	ldr	r2, [pc, #644]	; (80014c0 <HAL_GPIO_Init+0x2c8>)
 800123c:	4293      	cmp	r3, r2
 800123e:	d058      	beq.n	80012f2 <HAL_GPIO_Init+0xfa>
 8001240:	4a9f      	ldr	r2, [pc, #636]	; (80014c0 <HAL_GPIO_Init+0x2c8>)
 8001242:	4293      	cmp	r3, r2
 8001244:	d86f      	bhi.n	8001326 <HAL_GPIO_Init+0x12e>
 8001246:	4a9f      	ldr	r2, [pc, #636]	; (80014c4 <HAL_GPIO_Init+0x2cc>)
 8001248:	4293      	cmp	r3, r2
 800124a:	d052      	beq.n	80012f2 <HAL_GPIO_Init+0xfa>
 800124c:	4a9d      	ldr	r2, [pc, #628]	; (80014c4 <HAL_GPIO_Init+0x2cc>)
 800124e:	4293      	cmp	r3, r2
 8001250:	d869      	bhi.n	8001326 <HAL_GPIO_Init+0x12e>
 8001252:	4a9d      	ldr	r2, [pc, #628]	; (80014c8 <HAL_GPIO_Init+0x2d0>)
 8001254:	4293      	cmp	r3, r2
 8001256:	d04c      	beq.n	80012f2 <HAL_GPIO_Init+0xfa>
 8001258:	4a9b      	ldr	r2, [pc, #620]	; (80014c8 <HAL_GPIO_Init+0x2d0>)
 800125a:	4293      	cmp	r3, r2
 800125c:	d863      	bhi.n	8001326 <HAL_GPIO_Init+0x12e>
 800125e:	4a9b      	ldr	r2, [pc, #620]	; (80014cc <HAL_GPIO_Init+0x2d4>)
 8001260:	4293      	cmp	r3, r2
 8001262:	d046      	beq.n	80012f2 <HAL_GPIO_Init+0xfa>
 8001264:	4a99      	ldr	r2, [pc, #612]	; (80014cc <HAL_GPIO_Init+0x2d4>)
 8001266:	4293      	cmp	r3, r2
 8001268:	d85d      	bhi.n	8001326 <HAL_GPIO_Init+0x12e>
 800126a:	2b12      	cmp	r3, #18
 800126c:	d82a      	bhi.n	80012c4 <HAL_GPIO_Init+0xcc>
 800126e:	2b12      	cmp	r3, #18
 8001270:	d859      	bhi.n	8001326 <HAL_GPIO_Init+0x12e>
 8001272:	a201      	add	r2, pc, #4	; (adr r2, 8001278 <HAL_GPIO_Init+0x80>)
 8001274:	f852 f023 	ldr.w	pc, [r2, r3, lsl #2]
 8001278:	080012f3 	.word	0x080012f3
 800127c:	080012cd 	.word	0x080012cd
 8001280:	080012df 	.word	0x080012df
 8001284:	08001321 	.word	0x08001321
 8001288:	08001327 	.word	0x08001327
 800128c:	08001327 	.word	0x08001327
 8001290:	08001327 	.word	0x08001327
 8001294:	08001327 	.word	0x08001327
 8001298:	08001327 	.word	0x08001327
 800129c:	08001327 	.word	0x08001327
 80012a0:	08001327 	.word	0x08001327
 80012a4:	08001327 	.word	0x08001327
 80012a8:	08001327 	.word	0x08001327
 80012ac:	08001327 	.word	0x08001327
 80012b0:	08001327 	.word	0x08001327
 80012b4:	08001327 	.word	0x08001327
 80012b8:	08001327 	.word	0x08001327
 80012bc:	080012d5 	.word	0x080012d5
 80012c0:	080012e9 	.word	0x080012e9
 80012c4:	4a82      	ldr	r2, [pc, #520]	; (80014d0 <HAL_GPIO_Init+0x2d8>)
 80012c6:	4293      	cmp	r3, r2
 80012c8:	d013      	beq.n	80012f2 <HAL_GPIO_Init+0xfa>
          config = GPIO_CR_MODE_INPUT + GPIO_CR_CNF_ANALOG;
          break;

        /* Parameters are checked with assert_param */
        default:
          break;
 80012ca:	e02c      	b.n	8001326 <HAL_GPIO_Init+0x12e>
          config = GPIO_Init->Speed + GPIO_CR_CNF_GP_OUTPUT_PP;
 80012cc:	683b      	ldr	r3, [r7, #0]
 80012ce:	68db      	ldr	r3, [r3, #12]
 80012d0:	623b      	str	r3, [r7, #32]
          break;
 80012d2:	e029      	b.n	8001328 <HAL_GPIO_Init+0x130>
          config = GPIO_Init->Speed + GPIO_CR_CNF_GP_OUTPUT_OD;
 80012d4:	683b      	ldr	r3, [r7, #0]
 80012d6:	68db      	ldr	r3, [r3, #12]
 80012d8:	3304      	adds	r3, #4
 80012da:	623b      	str	r3, [r7, #32]
          break;
 80012dc:	e024      	b.n	8001328 <HAL_GPIO_Init+0x130>
          config = GPIO_Init->Speed + GPIO_CR_CNF_AF_OUTPUT_PP;
 80012de:	683b      	ldr	r3, [r7, #0]
 80012e0:	68db      	ldr	r3, [r3, #12]
 80012e2:	3308      	adds	r3, #8
 80012e4:	623b      	str	r3, [r7, #32]
          break;
 80012e6:	e01f      	b.n	8001328 <HAL_GPIO_Init+0x130>
          config = GPIO_Init->Speed + GPIO_CR_CNF_AF_OUTPUT_OD;
 80012e8:	683b      	ldr	r3, [r7, #0]
 80012ea:	68db      	ldr	r3, [r3, #12]
 80012ec:	330c      	adds	r3, #12
 80012ee:	623b      	str	r3, [r7, #32]
          break;
 80012f0:	e01a      	b.n	8001328 <HAL_GPIO_Init+0x130>
          if (GPIO_Init->Pull == GPIO_NOPULL)
 80012f2:	683b      	ldr	r3, [r7, #0]
 80012f4:	689b      	ldr	r3, [r3, #8]
 80012f6:	2b00      	cmp	r3, #0
 80012f8:	d102      	bne.n	8001300 <HAL_GPIO_Init+0x108>
            config = GPIO_CR_MODE_INPUT + GPIO_CR_CNF_INPUT_FLOATING;
 80012fa:	2304      	movs	r3, #4
 80012fc:	623b      	str	r3, [r7, #32]
          break;
 80012fe:	e013      	b.n	8001328 <HAL_GPIO_Init+0x130>
          else if (GPIO_Init->Pull == GPIO_PULLUP)
 8001300:	683b      	ldr	r3, [r7, #0]
 8001302:	689b      	ldr	r3, [r3, #8]
 8001304:	2b01      	cmp	r3, #1
 8001306:	d105      	bne.n	8001314 <HAL_GPIO_Init+0x11c>
            config = GPIO_CR_MODE_INPUT + GPIO_CR_CNF_INPUT_PU_PD;
 8001308:	2308      	movs	r3, #8
 800130a:	623b      	str	r3, [r7, #32]
            GPIOx->BSRR = ioposition;
 800130c:	687b      	ldr	r3, [r7, #4]
 800130e:	69fa      	ldr	r2, [r7, #28]
 8001310:	611a      	str	r2, [r3, #16]
          break;
 8001312:	e009      	b.n	8001328 <HAL_GPIO_Init+0x130>
            config = GPIO_CR_MODE_INPUT + GPIO_CR_CNF_INPUT_PU_PD;
 8001314:	2308      	movs	r3, #8
 8001316:	623b      	str	r3, [r7, #32]
            GPIOx->BRR = ioposition;
 8001318:	687b      	ldr	r3, [r7, #4]
 800131a:	69fa      	ldr	r2, [r7, #28]
 800131c:	615a      	str	r2, [r3, #20]
          break;
 800131e:	e003      	b.n	8001328 <HAL_GPIO_Init+0x130>
          config = GPIO_CR_MODE_INPUT + GPIO_CR_CNF_ANALOG;
 8001320:	2300      	movs	r3, #0
 8001322:	623b      	str	r3, [r7, #32]
          break;
 8001324:	e000      	b.n	8001328 <HAL_GPIO_Init+0x130>
          break;
 8001326:	bf00      	nop
      }

      /* Check if the current bit belongs to first half or last half of the pin count number
       in order to address CRH or CRL register*/
      configregister = (iocurrent < GPIO_PIN_8) ? &GPIOx->CRL     : &GPIOx->CRH;
 8001328:	69bb      	ldr	r3, [r7, #24]
 800132a:	2bff      	cmp	r3, #255	; 0xff
 800132c:	d801      	bhi.n	8001332 <HAL_GPIO_Init+0x13a>
 800132e:	687b      	ldr	r3, [r7, #4]
 8001330:	e001      	b.n	8001336 <HAL_GPIO_Init+0x13e>
 8001332:	687b      	ldr	r3, [r7, #4]
 8001334:	3304      	adds	r3, #4
 8001336:	617b      	str	r3, [r7, #20]
      registeroffset = (iocurrent < GPIO_PIN_8) ? (position << 2u) : ((position - 8u) << 2u);
 8001338:	69bb      	ldr	r3, [r7, #24]
 800133a:	2bff      	cmp	r3, #255	; 0xff
 800133c:	d802      	bhi.n	8001344 <HAL_GPIO_Init+0x14c>
 800133e:	6a7b      	ldr	r3, [r7, #36]	; 0x24
 8001340:	009b      	lsls	r3, r3, #2
 8001342:	e002      	b.n	800134a <HAL_GPIO_Init+0x152>
 8001344:	6a7b      	ldr	r3, [r7, #36]	; 0x24
 8001346:	3b08      	subs	r3, #8
 8001348:	009b      	lsls	r3, r3, #2
 800134a:	613b      	str	r3, [r7, #16]

      /* Apply the new configuration of the pin to the register */
      MODIFY_REG((*configregister), ((GPIO_CRL_MODE0 | GPIO_CRL_CNF0) << registeroffset), (config << registeroffset));
 800134c:	697b      	ldr	r3, [r7, #20]
 800134e:	681a      	ldr	r2, [r3, #0]
 8001350:	210f      	movs	r1, #15
 8001352:	693b      	ldr	r3, [r7, #16]
 8001354:	fa01 f303 	lsl.w	r3, r1, r3
 8001358:	43db      	mvns	r3, r3
 800135a:	401a      	ands	r2, r3
 800135c:	6a39      	ldr	r1, [r7, #32]
 800135e:	693b      	ldr	r3, [r7, #16]
 8001360:	fa01 f303 	lsl.w	r3, r1, r3
 8001364:	431a      	orrs	r2, r3
 8001366:	697b      	ldr	r3, [r7, #20]
 8001368:	601a      	str	r2, [r3, #0]

      /*--------------------- EXTI Mode Configuration ------------------------*/
      /* Configure the External Interrupt or event for the current IO */
      if ((GPIO_Init->Mode & EXTI_MODE) == EXTI_MODE)
 800136a:	683b      	ldr	r3, [r7, #0]
 800136c:	685b      	ldr	r3, [r3, #4]
 800136e:	f003 5380 	and.w	r3, r3, #268435456	; 0x10000000
 8001372:	2b00      	cmp	r3, #0
 8001374:	f000 8090 	beq.w	8001498 <HAL_GPIO_Init+0x2a0>
      {
        /* Enable AFIO Clock */
        __HAL_RCC_AFIO_CLK_ENABLE();
 8001378:	4b56      	ldr	r3, [pc, #344]	; (80014d4 <HAL_GPIO_Init+0x2dc>)
 800137a:	699b      	ldr	r3, [r3, #24]
 800137c:	4a55      	ldr	r2, [pc, #340]	; (80014d4 <HAL_GPIO_Init+0x2dc>)
 800137e:	f043 0301 	orr.w	r3, r3, #1
 8001382:	6193      	str	r3, [r2, #24]
 8001384:	4b53      	ldr	r3, [pc, #332]	; (80014d4 <HAL_GPIO_Init+0x2dc>)
 8001386:	699b      	ldr	r3, [r3, #24]
 8001388:	f003 0301 	and.w	r3, r3, #1
 800138c:	60bb      	str	r3, [r7, #8]
 800138e:	68bb      	ldr	r3, [r7, #8]
        temp = AFIO->EXTICR[position >> 2u];
 8001390:	4a51      	ldr	r2, [pc, #324]	; (80014d8 <HAL_GPIO_Init+0x2e0>)
 8001392:	6a7b      	ldr	r3, [r7, #36]	; 0x24
 8001394:	089b      	lsrs	r3, r3, #2
 8001396:	3302      	adds	r3, #2
 8001398:	f852 3023 	ldr.w	r3, [r2, r3, lsl #2]
 800139c:	60fb      	str	r3, [r7, #12]
        CLEAR_BIT(temp, (0x0Fu) << (4u * (position & 0x03u)));
 800139e:	6a7b      	ldr	r3, [r7, #36]	; 0x24
 80013a0:	f003 0303 	and.w	r3, r3, #3
 80013a4:	009b      	lsls	r3, r3, #2
 80013a6:	220f      	movs	r2, #15
 80013a8:	fa02 f303 	lsl.w	r3, r2, r3
 80013ac:	43db      	mvns	r3, r3
 80013ae:	68fa      	ldr	r2, [r7, #12]
 80013b0:	4013      	ands	r3, r2
 80013b2:	60fb      	str	r3, [r7, #12]
        SET_BIT(temp, (GPIO_GET_INDEX(GPIOx)) << (4u * (position & 0x03u)));
 80013b4:	687b      	ldr	r3, [r7, #4]
 80013b6:	4a49      	ldr	r2, [pc, #292]	; (80014dc <HAL_GPIO_Init+0x2e4>)
 80013b8:	4293      	cmp	r3, r2
 80013ba:	d00d      	beq.n	80013d8 <HAL_GPIO_Init+0x1e0>
 80013bc:	687b      	ldr	r3, [r7, #4]
 80013be:	4a48      	ldr	r2, [pc, #288]	; (80014e0 <HAL_GPIO_Init+0x2e8>)
 80013c0:	4293      	cmp	r3, r2
 80013c2:	d007      	beq.n	80013d4 <HAL_GPIO_Init+0x1dc>
 80013c4:	687b      	ldr	r3, [r7, #4]
 80013c6:	4a47      	ldr	r2, [pc, #284]	; (80014e4 <HAL_GPIO_Init+0x2ec>)
 80013c8:	4293      	cmp	r3, r2
 80013ca:	d101      	bne.n	80013d0 <HAL_GPIO_Init+0x1d8>
 80013cc:	2302      	movs	r3, #2
 80013ce:	e004      	b.n	80013da <HAL_GPIO_Init+0x1e2>
 80013d0:	2303      	movs	r3, #3
 80013d2:	e002      	b.n	80013da <HAL_GPIO_Init+0x1e2>
 80013d4:	2301      	movs	r3, #1
 80013d6:	e000      	b.n	80013da <HAL_GPIO_Init+0x1e2>
 80013d8:	2300      	movs	r3, #0
 80013da:	6a7a      	ldr	r2, [r7, #36]	; 0x24
 80013dc:	f002 0203 	and.w	r2, r2, #3
 80013e0:	0092      	lsls	r2, r2, #2
 80013e2:	4093      	lsls	r3, r2
 80013e4:	68fa      	ldr	r2, [r7, #12]
 80013e6:	4313      	orrs	r3, r2
 80013e8:	60fb      	str	r3, [r7, #12]
        AFIO->EXTICR[position >> 2u] = temp;
 80013ea:	493b      	ldr	r1, [pc, #236]	; (80014d8 <HAL_GPIO_Init+0x2e0>)
 80013ec:	6a7b      	ldr	r3, [r7, #36]	; 0x24
 80013ee:	089b      	lsrs	r3, r3, #2
 80013f0:	3302      	adds	r3, #2
 80013f2:	68fa      	ldr	r2, [r7, #12]
 80013f4:	f841 2023 	str.w	r2, [r1, r3, lsl #2]


        /* Configure the interrupt mask */
        if ((GPIO_Init->Mode & GPIO_MODE_IT) == GPIO_MODE_IT)
 80013f8:	683b      	ldr	r3, [r7, #0]
 80013fa:	685b      	ldr	r3, [r3, #4]
 80013fc:	f403 3380 	and.w	r3, r3, #65536	; 0x10000
 8001400:	2b00      	cmp	r3, #0
 8001402:	d006      	beq.n	8001412 <HAL_GPIO_Init+0x21a>
        {
          SET_BIT(EXTI->IMR, iocurrent);
 8001404:	4b38      	ldr	r3, [pc, #224]	; (80014e8 <HAL_GPIO_Init+0x2f0>)
 8001406:	681a      	ldr	r2, [r3, #0]
 8001408:	4937      	ldr	r1, [pc, #220]	; (80014e8 <HAL_GPIO_Init+0x2f0>)
 800140a:	69bb      	ldr	r3, [r7, #24]
 800140c:	4313      	orrs	r3, r2
 800140e:	600b      	str	r3, [r1, #0]
 8001410:	e006      	b.n	8001420 <HAL_GPIO_Init+0x228>
        }
        else
        {
          CLEAR_BIT(EXTI->IMR, iocurrent);
 8001412:	4b35      	ldr	r3, [pc, #212]	; (80014e8 <HAL_GPIO_Init+0x2f0>)
 8001414:	681a      	ldr	r2, [r3, #0]
 8001416:	69bb      	ldr	r3, [r7, #24]
 8001418:	43db      	mvns	r3, r3
 800141a:	4933      	ldr	r1, [pc, #204]	; (80014e8 <HAL_GPIO_Init+0x2f0>)
 800141c:	4013      	ands	r3, r2
 800141e:	600b      	str	r3, [r1, #0]
        }

        /* Configure the event mask */
        if ((GPIO_Init->Mode & GPIO_MODE_EVT) == GPIO_MODE_EVT)
 8001420:	683b      	ldr	r3, [r7, #0]
 8001422:	685b      	ldr	r3, [r3, #4]
 8001424:	f403 3300 	and.w	r3, r3, #131072	; 0x20000
 8001428:	2b00      	cmp	r3, #0
 800142a:	d006      	beq.n	800143a <HAL_GPIO_Init+0x242>
        {
          SET_BIT(EXTI->EMR, iocurrent);
 800142c:	4b2e      	ldr	r3, [pc, #184]	; (80014e8 <HAL_GPIO_Init+0x2f0>)
 800142e:	685a      	ldr	r2, [r3, #4]
 8001430:	492d      	ldr	r1, [pc, #180]	; (80014e8 <HAL_GPIO_Init+0x2f0>)
 8001432:	69bb      	ldr	r3, [r7, #24]
 8001434:	4313      	orrs	r3, r2
 8001436:	604b      	str	r3, [r1, #4]
 8001438:	e006      	b.n	8001448 <HAL_GPIO_Init+0x250>
        }
        else
        {
          CLEAR_BIT(EXTI->EMR, iocurrent);
 800143a:	4b2b      	ldr	r3, [pc, #172]	; (80014e8 <HAL_GPIO_Init+0x2f0>)
 800143c:	685a      	ldr	r2, [r3, #4]
 800143e:	69bb      	ldr	r3, [r7, #24]
 8001440:	43db      	mvns	r3, r3
 8001442:	4929      	ldr	r1, [pc, #164]	; (80014e8 <HAL_GPIO_Init+0x2f0>)
 8001444:	4013      	ands	r3, r2
 8001446:	604b      	str	r3, [r1, #4]
        }

        /* Enable or disable the rising trigger */
        if ((GPIO_Init->Mode & RISING_EDGE) == RISING_EDGE)
 8001448:	683b      	ldr	r3, [r7, #0]
 800144a:	685b      	ldr	r3, [r3, #4]
 800144c:	f403 1380 	and.w	r3, r3, #1048576	; 0x100000
 8001450:	2b00      	cmp	r3, #0
 8001452:	d006      	beq.n	8001462 <HAL_GPIO_Init+0x26a>
        {
          SET_BIT(EXTI->RTSR, iocurrent);
 8001454:	4b24      	ldr	r3, [pc, #144]	; (80014e8 <HAL_GPIO_Init+0x2f0>)
 8001456:	689a      	ldr	r2, [r3, #8]
 8001458:	4923      	ldr	r1, [pc, #140]	; (80014e8 <HAL_GPIO_Init+0x2f0>)
 800145a:	69bb      	ldr	r3, [r7, #24]
 800145c:	4313      	orrs	r3, r2
 800145e:	608b      	str	r3, [r1, #8]
 8001460:	e006      	b.n	8001470 <HAL_GPIO_Init+0x278>
        }
        else
        {
          CLEAR_BIT(EXTI->RTSR, iocurrent);
 8001462:	4b21      	ldr	r3, [pc, #132]	; (80014e8 <HAL_GPIO_Init+0x2f0>)
 8001464:	689a      	ldr	r2, [r3, #8]
 8001466:	69bb      	ldr	r3, [r7, #24]
 8001468:	43db      	mvns	r3, r3
 800146a:	491f      	ldr	r1, [pc, #124]	; (80014e8 <HAL_GPIO_Init+0x2f0>)
 800146c:	4013      	ands	r3, r2
 800146e:	608b      	str	r3, [r1, #8]
        }

        /* Enable or disable the falling trigger */
        if ((GPIO_Init->Mode & FALLING_EDGE) == FALLING_EDGE)
 8001470:	683b      	ldr	r3, [r7, #0]
 8001472:	685b      	ldr	r3, [r3, #4]
 8001474:	f403 1300 	and.w	r3, r3, #2097152	; 0x200000
 8001478:	2b00      	cmp	r3, #0
 800147a:	d006      	beq.n	800148a <HAL_GPIO_Init+0x292>
        {
          SET_BIT(EXTI->FTSR, iocurrent);
 800147c:	4b1a      	ldr	r3, [pc, #104]	; (80014e8 <HAL_GPIO_Init+0x2f0>)
 800147e:	68da      	ldr	r2, [r3, #12]
 8001480:	4919      	ldr	r1, [pc, #100]	; (80014e8 <HAL_GPIO_Init+0x2f0>)
 8001482:	69bb      	ldr	r3, [r7, #24]
 8001484:	4313      	orrs	r3, r2
 8001486:	60cb      	str	r3, [r1, #12]
 8001488:	e006      	b.n	8001498 <HAL_GPIO_Init+0x2a0>
        }
        else
        {
          CLEAR_BIT(EXTI->FTSR, iocurrent);
 800148a:	4b17      	ldr	r3, [pc, #92]	; (80014e8 <HAL_GPIO_Init+0x2f0>)
 800148c:	68da      	ldr	r2, [r3, #12]
 800148e:	69bb      	ldr	r3, [r7, #24]
 8001490:	43db      	mvns	r3, r3
 8001492:	4915      	ldr	r1, [pc, #84]	; (80014e8 <HAL_GPIO_Init+0x2f0>)
 8001494:	4013      	ands	r3, r2
 8001496:	60cb      	str	r3, [r1, #12]
        }
      }
    }

	position++;
 8001498:	6a7b      	ldr	r3, [r7, #36]	; 0x24
 800149a:	3301      	adds	r3, #1
 800149c:	627b      	str	r3, [r7, #36]	; 0x24
  while (((GPIO_Init->Pin) >> position) != 0x00u)
 800149e:	683b      	ldr	r3, [r7, #0]
 80014a0:	681a      	ldr	r2, [r3, #0]
 80014a2:	6a7b      	ldr	r3, [r7, #36]	; 0x24
 80014a4:	fa22 f303 	lsr.w	r3, r2, r3
 80014a8:	2b00      	cmp	r3, #0
 80014aa:	f47f aeaf 	bne.w	800120c <HAL_GPIO_Init+0x14>
  }
}
 80014ae:	bf00      	nop
 80014b0:	bf00      	nop
 80014b2:	372c      	adds	r7, #44	; 0x2c
 80014b4:	46bd      	mov	sp, r7
 80014b6:	bc80      	pop	{r7}
 80014b8:	4770      	bx	lr
 80014ba:	bf00      	nop
 80014bc:	10320000 	.word	0x10320000
 80014c0:	10310000 	.word	0x10310000
 80014c4:	10220000 	.word	0x10220000
 80014c8:	10210000 	.word	0x10210000
 80014cc:	10120000 	.word	0x10120000
 80014d0:	10110000 	.word	0x10110000
 80014d4:	40021000 	.word	0x40021000
 80014d8:	40010000 	.word	0x40010000
 80014dc:	40010800 	.word	0x40010800
 80014e0:	40010c00 	.word	0x40010c00
 80014e4:	40011000 	.word	0x40011000
 80014e8:	40010400 	.word	0x40010400

080014ec <HAL_GPIO_WritePin>:
  *            @arg GPIO_PIN_RESET: to clear the port pin
  *            @arg GPIO_PIN_SET: to set the port pin
  * @retval None
  */
void HAL_GPIO_WritePin(GPIO_TypeDef *GPIOx, uint16_t GPIO_Pin, GPIO_PinState PinState)
{
 80014ec:	b480      	push	{r7}
 80014ee:	b083      	sub	sp, #12
 80014f0:	af00      	add	r7, sp, #0
 80014f2:	6078      	str	r0, [r7, #4]
 80014f4:	460b      	mov	r3, r1
 80014f6:	807b      	strh	r3, [r7, #2]
 80014f8:	4613      	mov	r3, r2
 80014fa:	707b      	strb	r3, [r7, #1]
  /* Check the parameters */
  assert_param(IS_GPIO_PIN(GPIO_Pin));
  assert_param(IS_GPIO_PIN_ACTION(PinState));

  if (PinState != GPIO_PIN_RESET)
 80014fc:	787b      	ldrb	r3, [r7, #1]
 80014fe:	2b00      	cmp	r3, #0
 8001500:	d003      	beq.n	800150a <HAL_GPIO_WritePin+0x1e>
  {
    GPIOx->BSRR = GPIO_Pin;
 8001502:	887a      	ldrh	r2, [r7, #2]
 8001504:	687b      	ldr	r3, [r7, #4]
 8001506:	611a      	str	r2, [r3, #16]
  }
  else
  {
    GPIOx->BSRR = (uint32_t)GPIO_Pin << 16u;
  }
}
 8001508:	e003      	b.n	8001512 <HAL_GPIO_WritePin+0x26>
    GPIOx->BSRR = (uint32_t)GPIO_Pin << 16u;
 800150a:	887b      	ldrh	r3, [r7, #2]
 800150c:	041a      	lsls	r2, r3, #16
 800150e:	687b      	ldr	r3, [r7, #4]
 8001510:	611a      	str	r2, [r3, #16]
}
 8001512:	bf00      	nop
 8001514:	370c      	adds	r7, #12
 8001516:	46bd      	mov	sp, r7
 8001518:	bc80      	pop	{r7}
 800151a:	4770      	bx	lr

0800151c <HAL_RCC_OscConfig>:
  *         supported by this macro. User should request a transition to HSE Off
  *         first and then HSE On or HSE Bypass.
  * @retval HAL status
  */
HAL_StatusTypeDef HAL_RCC_OscConfig(RCC_OscInitTypeDef  *RCC_OscInitStruct)
{
 800151c:	b580      	push	{r7, lr}
 800151e:	b086      	sub	sp, #24
 8001520:	af00      	add	r7, sp, #0
 8001522:	6078      	str	r0, [r7, #4]
  uint32_t tickstart;
  uint32_t pll_config;

  /* Check Null pointer */
  if (RCC_OscInitStruct == NULL)
 8001524:	687b      	ldr	r3, [r7, #4]
 8001526:	2b00      	cmp	r3, #0
 8001528:	d101      	bne.n	800152e <HAL_RCC_OscConfig+0x12>
  {
    return HAL_ERROR;
 800152a:	2301      	movs	r3, #1
 800152c:	e26c      	b.n	8001a08 <HAL_RCC_OscConfig+0x4ec>

  /* Check the parameters */
  assert_param(IS_RCC_OSCILLATORTYPE(RCC_OscInitStruct->OscillatorType));

  /*------------------------------- HSE Configuration ------------------------*/
  if (((RCC_OscInitStruct->OscillatorType) & RCC_OSCILLATORTYPE_HSE) == RCC_OSCILLATORTYPE_HSE)
 800152e:	687b      	ldr	r3, [r7, #4]
 8001530:	681b      	ldr	r3, [r3, #0]
 8001532:	f003 0301 	and.w	r3, r3, #1
 8001536:	2b00      	cmp	r3, #0
 8001538:	f000 8087 	beq.w	800164a <HAL_RCC_OscConfig+0x12e>
  {
    /* Check the parameters */
    assert_param(IS_RCC_HSE(RCC_OscInitStruct->HSEState));

    /* When the HSE is used as system clock or clock source for PLL in these cases it is not allowed to be disabled */
    if ((__HAL_RCC_GET_SYSCLK_SOURCE() == RCC_SYSCLKSOURCE_STATUS_HSE)
 800153c:	4b92      	ldr	r3, [pc, #584]	; (8001788 <HAL_RCC_OscConfig+0x26c>)
 800153e:	685b      	ldr	r3, [r3, #4]
 8001540:	f003 030c 	and.w	r3, r3, #12
 8001544:	2b04      	cmp	r3, #4
 8001546:	d00c      	beq.n	8001562 <HAL_RCC_OscConfig+0x46>
        || ((__HAL_RCC_GET_SYSCLK_SOURCE() == RCC_SYSCLKSOURCE_STATUS_PLLCLK) && (__HAL_RCC_GET_PLL_OSCSOURCE() == RCC_PLLSOURCE_HSE)))
 8001548:	4b8f      	ldr	r3, [pc, #572]	; (8001788 <HAL_RCC_OscConfig+0x26c>)
 800154a:	685b      	ldr	r3, [r3, #4]
 800154c:	f003 030c 	and.w	r3, r3, #12
 8001550:	2b08      	cmp	r3, #8
 8001552:	d112      	bne.n	800157a <HAL_RCC_OscConfig+0x5e>
 8001554:	4b8c      	ldr	r3, [pc, #560]	; (8001788 <HAL_RCC_OscConfig+0x26c>)
 8001556:	685b      	ldr	r3, [r3, #4]
 8001558:	f403 3380 	and.w	r3, r3, #65536	; 0x10000
 800155c:	f5b3 3f80 	cmp.w	r3, #65536	; 0x10000
 8001560:	d10b      	bne.n	800157a <HAL_RCC_OscConfig+0x5e>
    {
      if ((__HAL_RCC_GET_FLAG(RCC_FLAG_HSERDY) != RESET) && (RCC_OscInitStruct->HSEState == RCC_HSE_OFF))
 8001562:	4b89      	ldr	r3, [pc, #548]	; (8001788 <HAL_RCC_OscConfig+0x26c>)
 8001564:	681b      	ldr	r3, [r3, #0]
 8001566:	f403 3300 	and.w	r3, r3, #131072	; 0x20000
 800156a:	2b00      	cmp	r3, #0
 800156c:	d06c      	beq.n	8001648 <HAL_RCC_OscConfig+0x12c>
 800156e:	687b      	ldr	r3, [r7, #4]
 8001570:	685b      	ldr	r3, [r3, #4]
 8001572:	2b00      	cmp	r3, #0
 8001574:	d168      	bne.n	8001648 <HAL_RCC_OscConfig+0x12c>
      {
        return HAL_ERROR;
 8001576:	2301      	movs	r3, #1
 8001578:	e246      	b.n	8001a08 <HAL_RCC_OscConfig+0x4ec>
      }
    }
    else
    {
      /* Set the new HSE configuration ---------------------------------------*/
      __HAL_RCC_HSE_CONFIG(RCC_OscInitStruct->HSEState);
 800157a:	687b      	ldr	r3, [r7, #4]
 800157c:	685b      	ldr	r3, [r3, #4]
 800157e:	f5b3 3f80 	cmp.w	r3, #65536	; 0x10000
 8001582:	d106      	bne.n	8001592 <HAL_RCC_OscConfig+0x76>
 8001584:	4b80      	ldr	r3, [pc, #512]	; (8001788 <HAL_RCC_OscConfig+0x26c>)
 8001586:	681b      	ldr	r3, [r3, #0]
 8001588:	4a7f      	ldr	r2, [pc, #508]	; (8001788 <HAL_RCC_OscConfig+0x26c>)
 800158a:	f443 3380 	orr.w	r3, r3, #65536	; 0x10000
 800158e:	6013      	str	r3, [r2, #0]
 8001590:	e02e      	b.n	80015f0 <HAL_RCC_OscConfig+0xd4>
 8001592:	687b      	ldr	r3, [r7, #4]
 8001594:	685b      	ldr	r3, [r3, #4]
 8001596:	2b00      	cmp	r3, #0
 8001598:	d10c      	bne.n	80015b4 <HAL_RCC_OscConfig+0x98>
 800159a:	4b7b      	ldr	r3, [pc, #492]	; (8001788 <HAL_RCC_OscConfig+0x26c>)
 800159c:	681b      	ldr	r3, [r3, #0]
 800159e:	4a7a      	ldr	r2, [pc, #488]	; (8001788 <HAL_RCC_OscConfig+0x26c>)
 80015a0:	f423 3380 	bic.w	r3, r3, #65536	; 0x10000
 80015a4:	6013      	str	r3, [r2, #0]
 80015a6:	4b78      	ldr	r3, [pc, #480]	; (8001788 <HAL_RCC_OscConfig+0x26c>)
 80015a8:	681b      	ldr	r3, [r3, #0]
 80015aa:	4a77      	ldr	r2, [pc, #476]	; (8001788 <HAL_RCC_OscConfig+0x26c>)
 80015ac:	f423 2380 	bic.w	r3, r3, #262144	; 0x40000
 80015b0:	6013      	str	r3, [r2, #0]
 80015b2:	e01d      	b.n	80015f0 <HAL_RCC_OscConfig+0xd4>
 80015b4:	687b      	ldr	r3, [r7, #4]
 80015b6:	685b      	ldr	r3, [r3, #4]
 80015b8:	f5b3 2fa0 	cmp.w	r3, #327680	; 0x50000
 80015bc:	d10c      	bne.n	80015d8 <HAL_RCC_OscConfig+0xbc>
 80015be:	4b72      	ldr	r3, [pc, #456]	; (8001788 <HAL_RCC_OscConfig+0x26c>)
 80015c0:	681b      	ldr	r3, [r3, #0]
 80015c2:	4a71      	ldr	r2, [pc, #452]	; (8001788 <HAL_RCC_OscConfig+0x26c>)
 80015c4:	f443 2380 	orr.w	r3, r3, #262144	; 0x40000
 80015c8:	6013      	str	r3, [r2, #0]
 80015ca:	4b6f      	ldr	r3, [pc, #444]	; (8001788 <HAL_RCC_OscConfig+0x26c>)
 80015cc:	681b      	ldr	r3, [r3, #0]
 80015ce:	4a6e      	ldr	r2, [pc, #440]	; (8001788 <HAL_RCC_OscConfig+0x26c>)
 80015d0:	f443 3380 	orr.w	r3, r3, #65536	; 0x10000
 80015d4:	6013      	str	r3, [r2, #0]
 80015d6:	e00b      	b.n	80015f0 <HAL_RCC_OscConfig+0xd4>
 80015d8:	4b6b      	ldr	r3, [pc, #428]	; (8001788 <HAL_RCC_OscConfig+0x26c>)
 80015da:	681b      	ldr	r3, [r3, #0]
 80015dc:	4a6a      	ldr	r2, [pc, #424]	; (8001788 <HAL_RCC_OscConfig+0x26c>)
 80015de:	f423 3380 	bic.w	r3, r3, #65536	; 0x10000
 80015e2:	6013      	str	r3, [r2, #0]
 80015e4:	4b68      	ldr	r3, [pc, #416]	; (8001788 <HAL_RCC_OscConfig+0x26c>)
 80015e6:	681b      	ldr	r3, [r3, #0]
 80015e8:	4a67      	ldr	r2, [pc, #412]	; (8001788 <HAL_RCC_OscConfig+0x26c>)
 80015ea:	f423 2380 	bic.w	r3, r3, #262144	; 0x40000
 80015ee:	6013      	str	r3, [r2, #0]


      /* Check the HSE State */
      if (RCC_OscInitStruct->HSEState != RCC_HSE_OFF)
 80015f0:	687b      	ldr	r3, [r7, #4]
 80015f2:	685b      	ldr	r3, [r3, #4]
 80015f4:	2b00      	cmp	r3, #0
 80015f6:	d013      	beq.n	8001620 <HAL_RCC_OscConfig+0x104>
      {
        /* Get Start Tick */
        tickstart = HAL_GetTick();
 80015f8:	f7ff f9d2 	bl	80009a0 <HAL_GetTick>
 80015fc:	6138      	str	r0, [r7, #16]

        /* Wait till HSE is ready */
        while (__HAL_RCC_GET_FLAG(RCC_FLAG_HSERDY) == RESET)
 80015fe:	e008      	b.n	8001612 <HAL_RCC_OscConfig+0xf6>
        {
          if ((HAL_GetTick() - tickstart) > HSE_TIMEOUT_VALUE)
 8001600:	f7ff f9ce 	bl	80009a0 <HAL_GetTick>
 8001604:	4602      	mov	r2, r0
 8001606:	693b      	ldr	r3, [r7, #16]
 8001608:	1ad3      	subs	r3, r2, r3
 800160a:	2b64      	cmp	r3, #100	; 0x64
 800160c:	d901      	bls.n	8001612 <HAL_RCC_OscConfig+0xf6>
          {
            return HAL_TIMEOUT;
 800160e:	2303      	movs	r3, #3
 8001610:	e1fa      	b.n	8001a08 <HAL_RCC_OscConfig+0x4ec>
        while (__HAL_RCC_GET_FLAG(RCC_FLAG_HSERDY) == RESET)
 8001612:	4b5d      	ldr	r3, [pc, #372]	; (8001788 <HAL_RCC_OscConfig+0x26c>)
 8001614:	681b      	ldr	r3, [r3, #0]
 8001616:	f403 3300 	and.w	r3, r3, #131072	; 0x20000
 800161a:	2b00      	cmp	r3, #0
 800161c:	d0f0      	beq.n	8001600 <HAL_RCC_OscConfig+0xe4>
 800161e:	e014      	b.n	800164a <HAL_RCC_OscConfig+0x12e>
        }
      }
      else
      {
        /* Get Start Tick */
        tickstart = HAL_GetTick();
 8001620:	f7ff f9be 	bl	80009a0 <HAL_GetTick>
 8001624:	6138      	str	r0, [r7, #16]

        /* Wait till HSE is disabled */
        while (__HAL_RCC_GET_FLAG(RCC_FLAG_HSERDY) != RESET)
 8001626:	e008      	b.n	800163a <HAL_RCC_OscConfig+0x11e>
        {
          if ((HAL_GetTick() - tickstart) > HSE_TIMEOUT_VALUE)
 8001628:	f7ff f9ba 	bl	80009a0 <HAL_GetTick>
 800162c:	4602      	mov	r2, r0
 800162e:	693b      	ldr	r3, [r7, #16]
 8001630:	1ad3      	subs	r3, r2, r3
 8001632:	2b64      	cmp	r3, #100	; 0x64
 8001634:	d901      	bls.n	800163a <HAL_RCC_OscConfig+0x11e>
          {
            return HAL_TIMEOUT;
 8001636:	2303      	movs	r3, #3
 8001638:	e1e6      	b.n	8001a08 <HAL_RCC_OscConfig+0x4ec>
        while (__HAL_RCC_GET_FLAG(RCC_FLAG_HSERDY) != RESET)
 800163a:	4b53      	ldr	r3, [pc, #332]	; (8001788 <HAL_RCC_OscConfig+0x26c>)
 800163c:	681b      	ldr	r3, [r3, #0]
 800163e:	f403 3300 	and.w	r3, r3, #131072	; 0x20000
 8001642:	2b00      	cmp	r3, #0
 8001644:	d1f0      	bne.n	8001628 <HAL_RCC_OscConfig+0x10c>
 8001646:	e000      	b.n	800164a <HAL_RCC_OscConfig+0x12e>
      if ((__HAL_RCC_GET_FLAG(RCC_FLAG_HSERDY) != RESET) && (RCC_OscInitStruct->HSEState == RCC_HSE_OFF))
 8001648:	bf00      	nop
        }
      }
    }
  }
  /*----------------------------- HSI Configuration --------------------------*/
  if (((RCC_OscInitStruct->OscillatorType) & RCC_OSCILLATORTYPE_HSI) == RCC_OSCILLATORTYPE_HSI)
 800164a:	687b      	ldr	r3, [r7, #4]
 800164c:	681b      	ldr	r3, [r3, #0]
 800164e:	f003 0302 	and.w	r3, r3, #2
 8001652:	2b00      	cmp	r3, #0
 8001654:	d063      	beq.n	800171e <HAL_RCC_OscConfig+0x202>
    /* Check the parameters */
    assert_param(IS_RCC_HSI(RCC_OscInitStruct->HSIState));
    assert_param(IS_RCC_CALIBRATION_VALUE(RCC_OscInitStruct->HSICalibrationValue));

    /* Check if HSI is used as system clock or as PLL source when PLL is selected as system clock */
    if ((__HAL_RCC_GET_SYSCLK_SOURCE() == RCC_SYSCLKSOURCE_STATUS_HSI)
 8001656:	4b4c      	ldr	r3, [pc, #304]	; (8001788 <HAL_RCC_OscConfig+0x26c>)
 8001658:	685b      	ldr	r3, [r3, #4]
 800165a:	f003 030c 	and.w	r3, r3, #12
 800165e:	2b00      	cmp	r3, #0
 8001660:	d00b      	beq.n	800167a <HAL_RCC_OscConfig+0x15e>
        || ((__HAL_RCC_GET_SYSCLK_SOURCE() == RCC_SYSCLKSOURCE_STATUS_PLLCLK) && (__HAL_RCC_GET_PLL_OSCSOURCE() == RCC_PLLSOURCE_HSI_DIV2)))
 8001662:	4b49      	ldr	r3, [pc, #292]	; (8001788 <HAL_RCC_OscConfig+0x26c>)
 8001664:	685b      	ldr	r3, [r3, #4]
 8001666:	f003 030c 	and.w	r3, r3, #12
 800166a:	2b08      	cmp	r3, #8
 800166c:	d11c      	bne.n	80016a8 <HAL_RCC_OscConfig+0x18c>
 800166e:	4b46      	ldr	r3, [pc, #280]	; (8001788 <HAL_RCC_OscConfig+0x26c>)
 8001670:	685b      	ldr	r3, [r3, #4]
 8001672:	f403 3380 	and.w	r3, r3, #65536	; 0x10000
 8001676:	2b00      	cmp	r3, #0
 8001678:	d116      	bne.n	80016a8 <HAL_RCC_OscConfig+0x18c>
    {
      /* When HSI is used as system clock it will not disabled */
      if ((__HAL_RCC_GET_FLAG(RCC_FLAG_HSIRDY) != RESET) && (RCC_OscInitStruct->HSIState != RCC_HSI_ON))
 800167a:	4b43      	ldr	r3, [pc, #268]	; (8001788 <HAL_RCC_OscConfig+0x26c>)
 800167c:	681b      	ldr	r3, [r3, #0]
 800167e:	f003 0302 	and.w	r3, r3, #2
 8001682:	2b00      	cmp	r3, #0
 8001684:	d005      	beq.n	8001692 <HAL_RCC_OscConfig+0x176>
 8001686:	687b      	ldr	r3, [r7, #4]
 8001688:	691b      	ldr	r3, [r3, #16]
 800168a:	2b01      	cmp	r3, #1
 800168c:	d001      	beq.n	8001692 <HAL_RCC_OscConfig+0x176>
      {
        return HAL_ERROR;
 800168e:	2301      	movs	r3, #1
 8001690:	e1ba      	b.n	8001a08 <HAL_RCC_OscConfig+0x4ec>
      }
      /* Otherwise, just the calibration is allowed */
      else
      {
        /* Adjusts the Internal High Speed oscillator (HSI) calibration value.*/
        __HAL_RCC_HSI_CALIBRATIONVALUE_ADJUST(RCC_OscInitStruct->HSICalibrationValue);
 8001692:	4b3d      	ldr	r3, [pc, #244]	; (8001788 <HAL_RCC_OscConfig+0x26c>)
 8001694:	681b      	ldr	r3, [r3, #0]
 8001696:	f023 02f8 	bic.w	r2, r3, #248	; 0xf8
 800169a:	687b      	ldr	r3, [r7, #4]
 800169c:	695b      	ldr	r3, [r3, #20]
 800169e:	00db      	lsls	r3, r3, #3
 80016a0:	4939      	ldr	r1, [pc, #228]	; (8001788 <HAL_RCC_OscConfig+0x26c>)
 80016a2:	4313      	orrs	r3, r2
 80016a4:	600b      	str	r3, [r1, #0]
      if ((__HAL_RCC_GET_FLAG(RCC_FLAG_HSIRDY) != RESET) && (RCC_OscInitStruct->HSIState != RCC_HSI_ON))
 80016a6:	e03a      	b.n	800171e <HAL_RCC_OscConfig+0x202>
      }
    }
    else
    {
      /* Check the HSI State */
      if (RCC_OscInitStruct->HSIState != RCC_HSI_OFF)
 80016a8:	687b      	ldr	r3, [r7, #4]
 80016aa:	691b      	ldr	r3, [r3, #16]
 80016ac:	2b00      	cmp	r3, #0
 80016ae:	d020      	beq.n	80016f2 <HAL_RCC_OscConfig+0x1d6>
      {
        /* Enable the Internal High Speed oscillator (HSI). */
        __HAL_RCC_HSI_ENABLE();
 80016b0:	4b36      	ldr	r3, [pc, #216]	; (800178c <HAL_RCC_OscConfig+0x270>)
 80016b2:	2201      	movs	r2, #1
 80016b4:	601a      	str	r2, [r3, #0]

        /* Get Start Tick */
        tickstart = HAL_GetTick();
 80016b6:	f7ff f973 	bl	80009a0 <HAL_GetTick>
 80016ba:	6138      	str	r0, [r7, #16]

        /* Wait till HSI is ready */
        while (__HAL_RCC_GET_FLAG(RCC_FLAG_HSIRDY) == RESET)
 80016bc:	e008      	b.n	80016d0 <HAL_RCC_OscConfig+0x1b4>
        {
          if ((HAL_GetTick() - tickstart) > HSI_TIMEOUT_VALUE)
 80016be:	f7ff f96f 	bl	80009a0 <HAL_GetTick>
 80016c2:	4602      	mov	r2, r0
 80016c4:	693b      	ldr	r3, [r7, #16]
 80016c6:	1ad3      	subs	r3, r2, r3
 80016c8:	2b02      	cmp	r3, #2
 80016ca:	d901      	bls.n	80016d0 <HAL_RCC_OscConfig+0x1b4>
          {
            return HAL_TIMEOUT;
 80016cc:	2303      	movs	r3, #3
 80016ce:	e19b      	b.n	8001a08 <HAL_RCC_OscConfig+0x4ec>
        while (__HAL_RCC_GET_FLAG(RCC_FLAG_HSIRDY) == RESET)
 80016d0:	4b2d      	ldr	r3, [pc, #180]	; (8001788 <HAL_RCC_OscConfig+0x26c>)
 80016d2:	681b      	ldr	r3, [r3, #0]
 80016d4:	f003 0302 	and.w	r3, r3, #2
 80016d8:	2b00      	cmp	r3, #0
 80016da:	d0f0      	beq.n	80016be <HAL_RCC_OscConfig+0x1a2>
          }
        }

        /* Adjusts the Internal High Speed oscillator (HSI) calibration value.*/
        __HAL_RCC_HSI_CALIBRATIONVALUE_ADJUST(RCC_OscInitStruct->HSICalibrationValue);
 80016dc:	4b2a      	ldr	r3, [pc, #168]	; (8001788 <HAL_RCC_OscConfig+0x26c>)
 80016de:	681b      	ldr	r3, [r3, #0]
 80016e0:	f023 02f8 	bic.w	r2, r3, #248	; 0xf8
 80016e4:	687b      	ldr	r3, [r7, #4]
 80016e6:	695b      	ldr	r3, [r3, #20]
 80016e8:	00db      	lsls	r3, r3, #3
 80016ea:	4927      	ldr	r1, [pc, #156]	; (8001788 <HAL_RCC_OscConfig+0x26c>)
 80016ec:	4313      	orrs	r3, r2
 80016ee:	600b      	str	r3, [r1, #0]
 80016f0:	e015      	b.n	800171e <HAL_RCC_OscConfig+0x202>
      }
      else
      {
        /* Disable the Internal High Speed oscillator (HSI). */
        __HAL_RCC_HSI_DISABLE();
 80016f2:	4b26      	ldr	r3, [pc, #152]	; (800178c <HAL_RCC_OscConfig+0x270>)
 80016f4:	2200      	movs	r2, #0
 80016f6:	601a      	str	r2, [r3, #0]

        /* Get Start Tick */
        tickstart = HAL_GetTick();
 80016f8:	f7ff f952 	bl	80009a0 <HAL_GetTick>
 80016fc:	6138      	str	r0, [r7, #16]

        /* Wait till HSI is disabled */
        while (__HAL_RCC_GET_FLAG(RCC_FLAG_HSIRDY) != RESET)
 80016fe:	e008      	b.n	8001712 <HAL_RCC_OscConfig+0x1f6>
        {
          if ((HAL_GetTick() - tickstart) > HSI_TIMEOUT_VALUE)
 8001700:	f7ff f94e 	bl	80009a0 <HAL_GetTick>
 8001704:	4602      	mov	r2, r0
 8001706:	693b      	ldr	r3, [r7, #16]
 8001708:	1ad3      	subs	r3, r2, r3
 800170a:	2b02      	cmp	r3, #2
 800170c:	d901      	bls.n	8001712 <HAL_RCC_OscConfig+0x1f6>
          {
            return HAL_TIMEOUT;
 800170e:	2303      	movs	r3, #3
 8001710:	e17a      	b.n	8001a08 <HAL_RCC_OscConfig+0x4ec>
        while (__HAL_RCC_GET_FLAG(RCC_FLAG_HSIRDY) != RESET)
 8001712:	4b1d      	ldr	r3, [pc, #116]	; (8001788 <HAL_RCC_OscConfig+0x26c>)
 8001714:	681b      	ldr	r3, [r3, #0]
 8001716:	f003 0302 	and.w	r3, r3, #2
 800171a:	2b00      	cmp	r3, #0
 800171c:	d1f0      	bne.n	8001700 <HAL_RCC_OscConfig+0x1e4>
        }
      }
    }
  }
  /*------------------------------ LSI Configuration -------------------------*/
  if (((RCC_OscInitStruct->OscillatorType) & RCC_OSCILLATORTYPE_LSI) == RCC_OSCILLATORTYPE_LSI)
 800171e:	687b      	ldr	r3, [r7, #4]
 8001720:	681b      	ldr	r3, [r3, #0]
 8001722:	f003 0308 	and.w	r3, r3, #8
 8001726:	2b00      	cmp	r3, #0
 8001728:	d03a      	beq.n	80017a0 <HAL_RCC_OscConfig+0x284>
  {
    /* Check the parameters */
    assert_param(IS_RCC_LSI(RCC_OscInitStruct->LSIState));

    /* Check the LSI State */
    if (RCC_OscInitStruct->LSIState != RCC_LSI_OFF)
 800172a:	687b      	ldr	r3, [r7, #4]
 800172c:	699b      	ldr	r3, [r3, #24]
 800172e:	2b00      	cmp	r3, #0
 8001730:	d019      	beq.n	8001766 <HAL_RCC_OscConfig+0x24a>
    {
      /* Enable the Internal Low Speed oscillator (LSI). */
      __HAL_RCC_LSI_ENABLE();
 8001732:	4b17      	ldr	r3, [pc, #92]	; (8001790 <HAL_RCC_OscConfig+0x274>)
 8001734:	2201      	movs	r2, #1
 8001736:	601a      	str	r2, [r3, #0]

      /* Get Start Tick */
      tickstart = HAL_GetTick();
 8001738:	f7ff f932 	bl	80009a0 <HAL_GetTick>
 800173c:	6138      	str	r0, [r7, #16]

      /* Wait till LSI is ready */
      while (__HAL_RCC_GET_FLAG(RCC_FLAG_LSIRDY) == RESET)
 800173e:	e008      	b.n	8001752 <HAL_RCC_OscConfig+0x236>
      {
        if ((HAL_GetTick() - tickstart) > LSI_TIMEOUT_VALUE)
 8001740:	f7ff f92e 	bl	80009a0 <HAL_GetTick>
 8001744:	4602      	mov	r2, r0
 8001746:	693b      	ldr	r3, [r7, #16]
 8001748:	1ad3      	subs	r3, r2, r3
 800174a:	2b02      	cmp	r3, #2
 800174c:	d901      	bls.n	8001752 <HAL_RCC_OscConfig+0x236>
        {
          return HAL_TIMEOUT;
 800174e:	2303      	movs	r3, #3
 8001750:	e15a      	b.n	8001a08 <HAL_RCC_OscConfig+0x4ec>
      while (__HAL_RCC_GET_FLAG(RCC_FLAG_LSIRDY) == RESET)
 8001752:	4b0d      	ldr	r3, [pc, #52]	; (8001788 <HAL_RCC_OscConfig+0x26c>)
 8001754:	6a5b      	ldr	r3, [r3, #36]	; 0x24
 8001756:	f003 0302 	and.w	r3, r3, #2
 800175a:	2b00      	cmp	r3, #0
 800175c:	d0f0      	beq.n	8001740 <HAL_RCC_OscConfig+0x224>
        }
      }
      /*  To have a fully stabilized clock in the specified range, a software delay of 1ms
          should be added.*/
      RCC_Delay(1);
 800175e:	2001      	movs	r0, #1
 8001760:	f000 fad8 	bl	8001d14 <RCC_Delay>
 8001764:	e01c      	b.n	80017a0 <HAL_RCC_OscConfig+0x284>
    }
    else
    {
      /* Disable the Internal Low Speed oscillator (LSI). */
      __HAL_RCC_LSI_DISABLE();
 8001766:	4b0a      	ldr	r3, [pc, #40]	; (8001790 <HAL_RCC_OscConfig+0x274>)
 8001768:	2200      	movs	r2, #0
 800176a:	601a      	str	r2, [r3, #0]

      /* Get Start Tick */
      tickstart = HAL_GetTick();
 800176c:	f7ff f918 	bl	80009a0 <HAL_GetTick>
 8001770:	6138      	str	r0, [r7, #16]

      /* Wait till LSI is disabled */
      while (__HAL_RCC_GET_FLAG(RCC_FLAG_LSIRDY) != RESET)
 8001772:	e00f      	b.n	8001794 <HAL_RCC_OscConfig+0x278>
      {
        if ((HAL_GetTick() - tickstart) > LSI_TIMEOUT_VALUE)
 8001774:	f7ff f914 	bl	80009a0 <HAL_GetTick>
 8001778:	4602      	mov	r2, r0
 800177a:	693b      	ldr	r3, [r7, #16]
 800177c:	1ad3      	subs	r3, r2, r3
 800177e:	2b02      	cmp	r3, #2
 8001780:	d908      	bls.n	8001794 <HAL_RCC_OscConfig+0x278>
        {
          return HAL_TIMEOUT;
 8001782:	2303      	movs	r3, #3
 8001784:	e140      	b.n	8001a08 <HAL_RCC_OscConfig+0x4ec>
 8001786:	bf00      	nop
 8001788:	40021000 	.word	0x40021000
 800178c:	42420000 	.word	0x42420000
 8001790:	42420480 	.word	0x42420480
      while (__HAL_RCC_GET_FLAG(RCC_FLAG_LSIRDY) != RESET)
 8001794:	4b9e      	ldr	r3, [pc, #632]	; (8001a10 <HAL_RCC_OscConfig+0x4f4>)
 8001796:	6a5b      	ldr	r3, [r3, #36]	; 0x24
 8001798:	f003 0302 	and.w	r3, r3, #2
 800179c:	2b00      	cmp	r3, #0
 800179e:	d1e9      	bne.n	8001774 <HAL_RCC_OscConfig+0x258>
        }
      }
    }
  }
  /*------------------------------ LSE Configuration -------------------------*/
  if (((RCC_OscInitStruct->OscillatorType) & RCC_OSCILLATORTYPE_LSE) == RCC_OSCILLATORTYPE_LSE)
 80017a0:	687b      	ldr	r3, [r7, #4]
 80017a2:	681b      	ldr	r3, [r3, #0]
 80017a4:	f003 0304 	and.w	r3, r3, #4
 80017a8:	2b00      	cmp	r3, #0
 80017aa:	f000 80a6 	beq.w	80018fa <HAL_RCC_OscConfig+0x3de>
  {
    FlagStatus       pwrclkchanged = RESET;
 80017ae:	2300      	movs	r3, #0
 80017b0:	75fb      	strb	r3, [r7, #23]
    /* Check the parameters */
    assert_param(IS_RCC_LSE(RCC_OscInitStruct->LSEState));

    /* Update LSE configuration in Backup Domain control register    */
    /* Requires to enable write access to Backup Domain of necessary */
    if (__HAL_RCC_PWR_IS_CLK_DISABLED())
 80017b2:	4b97      	ldr	r3, [pc, #604]	; (8001a10 <HAL_RCC_OscConfig+0x4f4>)
 80017b4:	69db      	ldr	r3, [r3, #28]
 80017b6:	f003 5380 	and.w	r3, r3, #268435456	; 0x10000000
 80017ba:	2b00      	cmp	r3, #0
 80017bc:	d10d      	bne.n	80017da <HAL_RCC_OscConfig+0x2be>
    {
      __HAL_RCC_PWR_CLK_ENABLE();
 80017be:	4b94      	ldr	r3, [pc, #592]	; (8001a10 <HAL_RCC_OscConfig+0x4f4>)
 80017c0:	69db      	ldr	r3, [r3, #28]
 80017c2:	4a93      	ldr	r2, [pc, #588]	; (8001a10 <HAL_RCC_OscConfig+0x4f4>)
 80017c4:	f043 5380 	orr.w	r3, r3, #268435456	; 0x10000000
 80017c8:	61d3      	str	r3, [r2, #28]
 80017ca:	4b91      	ldr	r3, [pc, #580]	; (8001a10 <HAL_RCC_OscConfig+0x4f4>)
 80017cc:	69db      	ldr	r3, [r3, #28]
 80017ce:	f003 5380 	and.w	r3, r3, #268435456	; 0x10000000
 80017d2:	60bb      	str	r3, [r7, #8]
 80017d4:	68bb      	ldr	r3, [r7, #8]
      pwrclkchanged = SET;
 80017d6:	2301      	movs	r3, #1
 80017d8:	75fb      	strb	r3, [r7, #23]
    }

    if (HAL_IS_BIT_CLR(PWR->CR, PWR_CR_DBP))
 80017da:	4b8e      	ldr	r3, [pc, #568]	; (8001a14 <HAL_RCC_OscConfig+0x4f8>)
 80017dc:	681b      	ldr	r3, [r3, #0]
 80017de:	f403 7380 	and.w	r3, r3, #256	; 0x100
 80017e2:	2b00      	cmp	r3, #0
 80017e4:	d118      	bne.n	8001818 <HAL_RCC_OscConfig+0x2fc>
    {
      /* Enable write access to Backup domain */
      SET_BIT(PWR->CR, PWR_CR_DBP);
 80017e6:	4b8b      	ldr	r3, [pc, #556]	; (8001a14 <HAL_RCC_OscConfig+0x4f8>)
 80017e8:	681b      	ldr	r3, [r3, #0]
 80017ea:	4a8a      	ldr	r2, [pc, #552]	; (8001a14 <HAL_RCC_OscConfig+0x4f8>)
 80017ec:	f443 7380 	orr.w	r3, r3, #256	; 0x100
 80017f0:	6013      	str	r3, [r2, #0]

      /* Wait for Backup domain Write protection disable */
      tickstart = HAL_GetTick();
 80017f2:	f7ff f8d5 	bl	80009a0 <HAL_GetTick>
 80017f6:	6138      	str	r0, [r7, #16]

      while (HAL_IS_BIT_CLR(PWR->CR, PWR_CR_DBP))
 80017f8:	e008      	b.n	800180c <HAL_RCC_OscConfig+0x2f0>
      {
        if ((HAL_GetTick() - tickstart) > RCC_DBP_TIMEOUT_VALUE)
 80017fa:	f7ff f8d1 	bl	80009a0 <HAL_GetTick>
 80017fe:	4602      	mov	r2, r0
 8001800:	693b      	ldr	r3, [r7, #16]
 8001802:	1ad3      	subs	r3, r2, r3
 8001804:	2b64      	cmp	r3, #100	; 0x64
 8001806:	d901      	bls.n	800180c <HAL_RCC_OscConfig+0x2f0>
        {
          return HAL_TIMEOUT;
 8001808:	2303      	movs	r3, #3
 800180a:	e0fd      	b.n	8001a08 <HAL_RCC_OscConfig+0x4ec>
      while (HAL_IS_BIT_CLR(PWR->CR, PWR_CR_DBP))
 800180c:	4b81      	ldr	r3, [pc, #516]	; (8001a14 <HAL_RCC_OscConfig+0x4f8>)
 800180e:	681b      	ldr	r3, [r3, #0]
 8001810:	f403 7380 	and.w	r3, r3, #256	; 0x100
 8001814:	2b00      	cmp	r3, #0
 8001816:	d0f0      	beq.n	80017fa <HAL_RCC_OscConfig+0x2de>
        }
      }
    }

    /* Set the new LSE configuration -----------------------------------------*/
    __HAL_RCC_LSE_CONFIG(RCC_OscInitStruct->LSEState);
 8001818:	687b      	ldr	r3, [r7, #4]
 800181a:	68db      	ldr	r3, [r3, #12]
 800181c:	2b01      	cmp	r3, #1
 800181e:	d106      	bne.n	800182e <HAL_RCC_OscConfig+0x312>
 8001820:	4b7b      	ldr	r3, [pc, #492]	; (8001a10 <HAL_RCC_OscConfig+0x4f4>)
 8001822:	6a1b      	ldr	r3, [r3, #32]
 8001824:	4a7a      	ldr	r2, [pc, #488]	; (8001a10 <HAL_RCC_OscConfig+0x4f4>)
 8001826:	f043 0301 	orr.w	r3, r3, #1
 800182a:	6213      	str	r3, [r2, #32]
 800182c:	e02d      	b.n	800188a <HAL_RCC_OscConfig+0x36e>
 800182e:	687b      	ldr	r3, [r7, #4]
 8001830:	68db      	ldr	r3, [r3, #12]
 8001832:	2b00      	cmp	r3, #0
 8001834:	d10c      	bne.n	8001850 <HAL_RCC_OscConfig+0x334>
 8001836:	4b76      	ldr	r3, [pc, #472]	; (8001a10 <HAL_RCC_OscConfig+0x4f4>)
 8001838:	6a1b      	ldr	r3, [r3, #32]
 800183a:	4a75      	ldr	r2, [pc, #468]	; (8001a10 <HAL_RCC_OscConfig+0x4f4>)
 800183c:	f023 0301 	bic.w	r3, r3, #1
 8001840:	6213      	str	r3, [r2, #32]
 8001842:	4b73      	ldr	r3, [pc, #460]	; (8001a10 <HAL_RCC_OscConfig+0x4f4>)
 8001844:	6a1b      	ldr	r3, [r3, #32]
 8001846:	4a72      	ldr	r2, [pc, #456]	; (8001a10 <HAL_RCC_OscConfig+0x4f4>)
 8001848:	f023 0304 	bic.w	r3, r3, #4
 800184c:	6213      	str	r3, [r2, #32]
 800184e:	e01c      	b.n	800188a <HAL_RCC_OscConfig+0x36e>
 8001850:	687b      	ldr	r3, [r7, #4]
 8001852:	68db      	ldr	r3, [r3, #12]
 8001854:	2b05      	cmp	r3, #5
 8001856:	d10c      	bne.n	8001872 <HAL_RCC_OscConfig+0x356>
 8001858:	4b6d      	ldr	r3, [pc, #436]	; (8001a10 <HAL_RCC_OscConfig+0x4f4>)
 800185a:	6a1b      	ldr	r3, [r3, #32]
 800185c:	4a6c      	ldr	r2, [pc, #432]	; (8001a10 <HAL_RCC_OscConfig+0x4f4>)
 800185e:	f043 0304 	orr.w	r3, r3, #4
 8001862:	6213      	str	r3, [r2, #32]
 8001864:	4b6a      	ldr	r3, [pc, #424]	; (8001a10 <HAL_RCC_OscConfig+0x4f4>)
 8001866:	6a1b      	ldr	r3, [r3, #32]
 8001868:	4a69      	ldr	r2, [pc, #420]	; (8001a10 <HAL_RCC_OscConfig+0x4f4>)
 800186a:	f043 0301 	orr.w	r3, r3, #1
 800186e:	6213      	str	r3, [r2, #32]
 8001870:	e00b      	b.n	800188a <HAL_RCC_OscConfig+0x36e>
 8001872:	4b67      	ldr	r3, [pc, #412]	; (8001a10 <HAL_RCC_OscConfig+0x4f4>)
 8001874:	6a1b      	ldr	r3, [r3, #32]
 8001876:	4a66      	ldr	r2, [pc, #408]	; (8001a10 <HAL_RCC_OscConfig+0x4f4>)
 8001878:	f023 0301 	bic.w	r3, r3, #1
 800187c:	6213      	str	r3, [r2, #32]
 800187e:	4b64      	ldr	r3, [pc, #400]	; (8001a10 <HAL_RCC_OscConfig+0x4f4>)
 8001880:	6a1b      	ldr	r3, [r3, #32]
 8001882:	4a63      	ldr	r2, [pc, #396]	; (8001a10 <HAL_RCC_OscConfig+0x4f4>)
 8001884:	f023 0304 	bic.w	r3, r3, #4
 8001888:	6213      	str	r3, [r2, #32]
    /* Check the LSE State */
    if (RCC_OscInitStruct->LSEState != RCC_LSE_OFF)
 800188a:	687b      	ldr	r3, [r7, #4]
 800188c:	68db      	ldr	r3, [r3, #12]
 800188e:	2b00      	cmp	r3, #0
 8001890:	d015      	beq.n	80018be <HAL_RCC_OscConfig+0x3a2>
    {
      /* Get Start Tick */
      tickstart = HAL_GetTick();
 8001892:	f7ff f885 	bl	80009a0 <HAL_GetTick>
 8001896:	6138      	str	r0, [r7, #16]

      /* Wait till LSE is ready */
      while (__HAL_RCC_GET_FLAG(RCC_FLAG_LSERDY) == RESET)
 8001898:	e00a      	b.n	80018b0 <HAL_RCC_OscConfig+0x394>
      {
        if ((HAL_GetTick() - tickstart) > RCC_LSE_TIMEOUT_VALUE)
 800189a:	f7ff f881 	bl	80009a0 <HAL_GetTick>
 800189e:	4602      	mov	r2, r0
 80018a0:	693b      	ldr	r3, [r7, #16]
 80018a2:	1ad3      	subs	r3, r2, r3
 80018a4:	f241 3288 	movw	r2, #5000	; 0x1388
 80018a8:	4293      	cmp	r3, r2
 80018aa:	d901      	bls.n	80018b0 <HAL_RCC_OscConfig+0x394>
        {
          return HAL_TIMEOUT;
 80018ac:	2303      	movs	r3, #3
 80018ae:	e0ab      	b.n	8001a08 <HAL_RCC_OscConfig+0x4ec>
      while (__HAL_RCC_GET_FLAG(RCC_FLAG_LSERDY) == RESET)
 80018b0:	4b57      	ldr	r3, [pc, #348]	; (8001a10 <HAL_RCC_OscConfig+0x4f4>)
 80018b2:	6a1b      	ldr	r3, [r3, #32]
 80018b4:	f003 0302 	and.w	r3, r3, #2
 80018b8:	2b00      	cmp	r3, #0
 80018ba:	d0ee      	beq.n	800189a <HAL_RCC_OscConfig+0x37e>
 80018bc:	e014      	b.n	80018e8 <HAL_RCC_OscConfig+0x3cc>
      }
    }
    else
    {
      /* Get Start Tick */
      tickstart = HAL_GetTick();
 80018be:	f7ff f86f 	bl	80009a0 <HAL_GetTick>
 80018c2:	6138      	str	r0, [r7, #16]

      /* Wait till LSE is disabled */
      while (__HAL_RCC_GET_FLAG(RCC_FLAG_LSERDY) != RESET)
 80018c4:	e00a      	b.n	80018dc <HAL_RCC_OscConfig+0x3c0>
      {
        if ((HAL_GetTick() - tickstart) > RCC_LSE_TIMEOUT_VALUE)
 80018c6:	f7ff f86b 	bl	80009a0 <HAL_GetTick>
 80018ca:	4602      	mov	r2, r0
 80018cc:	693b      	ldr	r3, [r7, #16]
 80018ce:	1ad3      	subs	r3, r2, r3
 80018d0:	f241 3288 	movw	r2, #5000	; 0x1388
 80018d4:	4293      	cmp	r3, r2
 80018d6:	d901      	bls.n	80018dc <HAL_RCC_OscConfig+0x3c0>
        {
          return HAL_TIMEOUT;
 80018d8:	2303      	movs	r3, #3
 80018da:	e095      	b.n	8001a08 <HAL_RCC_OscConfig+0x4ec>
      while (__HAL_RCC_GET_FLAG(RCC_FLAG_LSERDY) != RESET)
 80018dc:	4b4c      	ldr	r3, [pc, #304]	; (8001a10 <HAL_RCC_OscConfig+0x4f4>)
 80018de:	6a1b      	ldr	r3, [r3, #32]
 80018e0:	f003 0302 	and.w	r3, r3, #2
 80018e4:	2b00      	cmp	r3, #0
 80018e6:	d1ee      	bne.n	80018c6 <HAL_RCC_OscConfig+0x3aa>
        }
      }
    }

    /* Require to disable power clock if necessary */
    if (pwrclkchanged == SET)
 80018e8:	7dfb      	ldrb	r3, [r7, #23]
 80018ea:	2b01      	cmp	r3, #1
 80018ec:	d105      	bne.n	80018fa <HAL_RCC_OscConfig+0x3de>
    {
      __HAL_RCC_PWR_CLK_DISABLE();
 80018ee:	4b48      	ldr	r3, [pc, #288]	; (8001a10 <HAL_RCC_OscConfig+0x4f4>)
 80018f0:	69db      	ldr	r3, [r3, #28]
 80018f2:	4a47      	ldr	r2, [pc, #284]	; (8001a10 <HAL_RCC_OscConfig+0x4f4>)
 80018f4:	f023 5380 	bic.w	r3, r3, #268435456	; 0x10000000
 80018f8:	61d3      	str	r3, [r2, #28]

#endif /* RCC_CR_PLL2ON */
  /*-------------------------------- PLL Configuration -----------------------*/
  /* Check the parameters */
  assert_param(IS_RCC_PLL(RCC_OscInitStruct->PLL.PLLState));
  if ((RCC_OscInitStruct->PLL.PLLState) != RCC_PLL_NONE)
 80018fa:	687b      	ldr	r3, [r7, #4]
 80018fc:	69db      	ldr	r3, [r3, #28]
 80018fe:	2b00      	cmp	r3, #0
 8001900:	f000 8081 	beq.w	8001a06 <HAL_RCC_OscConfig+0x4ea>
  {
    /* Check if the PLL is used as system clock or not */
    if (__HAL_RCC_GET_SYSCLK_SOURCE() != RCC_SYSCLKSOURCE_STATUS_PLLCLK)
 8001904:	4b42      	ldr	r3, [pc, #264]	; (8001a10 <HAL_RCC_OscConfig+0x4f4>)
 8001906:	685b      	ldr	r3, [r3, #4]
 8001908:	f003 030c 	and.w	r3, r3, #12
 800190c:	2b08      	cmp	r3, #8
 800190e:	d061      	beq.n	80019d4 <HAL_RCC_OscConfig+0x4b8>
    {
      if ((RCC_OscInitStruct->PLL.PLLState) == RCC_PLL_ON)
 8001910:	687b      	ldr	r3, [r7, #4]
 8001912:	69db      	ldr	r3, [r3, #28]
 8001914:	2b02      	cmp	r3, #2
 8001916:	d146      	bne.n	80019a6 <HAL_RCC_OscConfig+0x48a>
        /* Check the parameters */
        assert_param(IS_RCC_PLLSOURCE(RCC_OscInitStruct->PLL.PLLSource));
        assert_param(IS_RCC_PLL_MUL(RCC_OscInitStruct->PLL.PLLMUL));

        /* Disable the main PLL. */
        __HAL_RCC_PLL_DISABLE();
 8001918:	4b3f      	ldr	r3, [pc, #252]	; (8001a18 <HAL_RCC_OscConfig+0x4fc>)
 800191a:	2200      	movs	r2, #0
 800191c:	601a      	str	r2, [r3, #0]

        /* Get Start Tick */
        tickstart = HAL_GetTick();
 800191e:	f7ff f83f 	bl	80009a0 <HAL_GetTick>
 8001922:	6138      	str	r0, [r7, #16]

        /* Wait till PLL is disabled */
        while (__HAL_RCC_GET_FLAG(RCC_FLAG_PLLRDY)  != RESET)
 8001924:	e008      	b.n	8001938 <HAL_RCC_OscConfig+0x41c>
        {
          if ((HAL_GetTick() - tickstart) > PLL_TIMEOUT_VALUE)
 8001926:	f7ff f83b 	bl	80009a0 <HAL_GetTick>
 800192a:	4602      	mov	r2, r0
 800192c:	693b      	ldr	r3, [r7, #16]
 800192e:	1ad3      	subs	r3, r2, r3
 8001930:	2b02      	cmp	r3, #2
 8001932:	d901      	bls.n	8001938 <HAL_RCC_OscConfig+0x41c>
          {
            return HAL_TIMEOUT;
 8001934:	2303      	movs	r3, #3
 8001936:	e067      	b.n	8001a08 <HAL_RCC_OscConfig+0x4ec>
        while (__HAL_RCC_GET_FLAG(RCC_FLAG_PLLRDY)  != RESET)
 8001938:	4b35      	ldr	r3, [pc, #212]	; (8001a10 <HAL_RCC_OscConfig+0x4f4>)
 800193a:	681b      	ldr	r3, [r3, #0]
 800193c:	f003 7300 	and.w	r3, r3, #33554432	; 0x2000000
 8001940:	2b00      	cmp	r3, #0
 8001942:	d1f0      	bne.n	8001926 <HAL_RCC_OscConfig+0x40a>
          }
        }

        /* Configure the HSE prediv factor --------------------------------*/
        /* It can be written only when the PLL is disabled. Not used in PLL source is different than HSE */
        if (RCC_OscInitStruct->PLL.PLLSource == RCC_PLLSOURCE_HSE)
 8001944:	687b      	ldr	r3, [r7, #4]
 8001946:	6a1b      	ldr	r3, [r3, #32]
 8001948:	f5b3 3f80 	cmp.w	r3, #65536	; 0x10000
 800194c:	d108      	bne.n	8001960 <HAL_RCC_OscConfig+0x444>
          /* Set PREDIV1 source */
          SET_BIT(RCC->CFGR2, RCC_OscInitStruct->Prediv1Source);
#endif /* RCC_CFGR2_PREDIV1SRC */

          /* Set PREDIV1 Value */
          __HAL_RCC_HSE_PREDIV_CONFIG(RCC_OscInitStruct->HSEPredivValue);
 800194e:	4b30      	ldr	r3, [pc, #192]	; (8001a10 <HAL_RCC_OscConfig+0x4f4>)
 8001950:	685b      	ldr	r3, [r3, #4]
 8001952:	f423 3200 	bic.w	r2, r3, #131072	; 0x20000
 8001956:	687b      	ldr	r3, [r7, #4]
 8001958:	689b      	ldr	r3, [r3, #8]
 800195a:	492d      	ldr	r1, [pc, #180]	; (8001a10 <HAL_RCC_OscConfig+0x4f4>)
 800195c:	4313      	orrs	r3, r2
 800195e:	604b      	str	r3, [r1, #4]
        }

        /* Configure the main PLL clock source and multiplication factors. */
        __HAL_RCC_PLL_CONFIG(RCC_OscInitStruct->PLL.PLLSource,
 8001960:	4b2b      	ldr	r3, [pc, #172]	; (8001a10 <HAL_RCC_OscConfig+0x4f4>)
 8001962:	685b      	ldr	r3, [r3, #4]
 8001964:	f423 1274 	bic.w	r2, r3, #3997696	; 0x3d0000
 8001968:	687b      	ldr	r3, [r7, #4]
 800196a:	6a19      	ldr	r1, [r3, #32]
 800196c:	687b      	ldr	r3, [r7, #4]
 800196e:	6a5b      	ldr	r3, [r3, #36]	; 0x24
 8001970:	430b      	orrs	r3, r1
 8001972:	4927      	ldr	r1, [pc, #156]	; (8001a10 <HAL_RCC_OscConfig+0x4f4>)
 8001974:	4313      	orrs	r3, r2
 8001976:	604b      	str	r3, [r1, #4]
                             RCC_OscInitStruct->PLL.PLLMUL);
        /* Enable the main PLL. */
        __HAL_RCC_PLL_ENABLE();
 8001978:	4b27      	ldr	r3, [pc, #156]	; (8001a18 <HAL_RCC_OscConfig+0x4fc>)
 800197a:	2201      	movs	r2, #1
 800197c:	601a      	str	r2, [r3, #0]

        /* Get Start Tick */
        tickstart = HAL_GetTick();
 800197e:	f7ff f80f 	bl	80009a0 <HAL_GetTick>
 8001982:	6138      	str	r0, [r7, #16]

        /* Wait till PLL is ready */
        while (__HAL_RCC_GET_FLAG(RCC_FLAG_PLLRDY)  == RESET)
 8001984:	e008      	b.n	8001998 <HAL_RCC_OscConfig+0x47c>
        {
          if ((HAL_GetTick() - tickstart) > PLL_TIMEOUT_VALUE)
 8001986:	f7ff f80b 	bl	80009a0 <HAL_GetTick>
 800198a:	4602      	mov	r2, r0
 800198c:	693b      	ldr	r3, [r7, #16]
 800198e:	1ad3      	subs	r3, r2, r3
 8001990:	2b02      	cmp	r3, #2
 8001992:	d901      	bls.n	8001998 <HAL_RCC_OscConfig+0x47c>
          {
            return HAL_TIMEOUT;
 8001994:	2303      	movs	r3, #3
 8001996:	e037      	b.n	8001a08 <HAL_RCC_OscConfig+0x4ec>
        while (__HAL_RCC_GET_FLAG(RCC_FLAG_PLLRDY)  == RESET)
 8001998:	4b1d      	ldr	r3, [pc, #116]	; (8001a10 <HAL_RCC_OscConfig+0x4f4>)
 800199a:	681b      	ldr	r3, [r3, #0]
 800199c:	f003 7300 	and.w	r3, r3, #33554432	; 0x2000000
 80019a0:	2b00      	cmp	r3, #0
 80019a2:	d0f0      	beq.n	8001986 <HAL_RCC_OscConfig+0x46a>
 80019a4:	e02f      	b.n	8001a06 <HAL_RCC_OscConfig+0x4ea>
        }
      }
      else
      {
        /* Disable the main PLL. */
        __HAL_RCC_PLL_DISABLE();
 80019a6:	4b1c      	ldr	r3, [pc, #112]	; (8001a18 <HAL_RCC_OscConfig+0x4fc>)
 80019a8:	2200      	movs	r2, #0
 80019aa:	601a      	str	r2, [r3, #0]

        /* Get Start Tick */
        tickstart = HAL_GetTick();
 80019ac:	f7fe fff8 	bl	80009a0 <HAL_GetTick>
 80019b0:	6138      	str	r0, [r7, #16]

        /* Wait till PLL is disabled */
        while (__HAL_RCC_GET_FLAG(RCC_FLAG_PLLRDY)  != RESET)
 80019b2:	e008      	b.n	80019c6 <HAL_RCC_OscConfig+0x4aa>
        {
          if ((HAL_GetTick() - tickstart) > PLL_TIMEOUT_VALUE)
 80019b4:	f7fe fff4 	bl	80009a0 <HAL_GetTick>
 80019b8:	4602      	mov	r2, r0
 80019ba:	693b      	ldr	r3, [r7, #16]
 80019bc:	1ad3      	subs	r3, r2, r3
 80019be:	2b02      	cmp	r3, #2
 80019c0:	d901      	bls.n	80019c6 <HAL_RCC_OscConfig+0x4aa>
          {
            return HAL_TIMEOUT;
 80019c2:	2303      	movs	r3, #3
 80019c4:	e020      	b.n	8001a08 <HAL_RCC_OscConfig+0x4ec>
        while (__HAL_RCC_GET_FLAG(RCC_FLAG_PLLRDY)  != RESET)
 80019c6:	4b12      	ldr	r3, [pc, #72]	; (8001a10 <HAL_RCC_OscConfig+0x4f4>)
 80019c8:	681b      	ldr	r3, [r3, #0]
 80019ca:	f003 7300 	and.w	r3, r3, #33554432	; 0x2000000
 80019ce:	2b00      	cmp	r3, #0
 80019d0:	d1f0      	bne.n	80019b4 <HAL_RCC_OscConfig+0x498>
 80019d2:	e018      	b.n	8001a06 <HAL_RCC_OscConfig+0x4ea>
      }
    }
    else
    {
      /* Check if there is a request to disable the PLL used as System clock source */
      if ((RCC_OscInitStruct->PLL.PLLState) == RCC_PLL_OFF)
 80019d4:	687b      	ldr	r3, [r7, #4]
 80019d6:	69db      	ldr	r3, [r3, #28]
 80019d8:	2b01      	cmp	r3, #1
 80019da:	d101      	bne.n	80019e0 <HAL_RCC_OscConfig+0x4c4>
      {
        return HAL_ERROR;
 80019dc:	2301      	movs	r3, #1
 80019de:	e013      	b.n	8001a08 <HAL_RCC_OscConfig+0x4ec>
      }
      else
      {
        /* Do not return HAL_ERROR if request repeats the current configuration */
        pll_config = RCC->CFGR;
 80019e0:	4b0b      	ldr	r3, [pc, #44]	; (8001a10 <HAL_RCC_OscConfig+0x4f4>)
 80019e2:	685b      	ldr	r3, [r3, #4]
 80019e4:	60fb      	str	r3, [r7, #12]
        if ((READ_BIT(pll_config, RCC_CFGR_PLLSRC) != RCC_OscInitStruct->PLL.PLLSource) ||
 80019e6:	68fb      	ldr	r3, [r7, #12]
 80019e8:	f403 3280 	and.w	r2, r3, #65536	; 0x10000
 80019ec:	687b      	ldr	r3, [r7, #4]
 80019ee:	6a1b      	ldr	r3, [r3, #32]
 80019f0:	429a      	cmp	r2, r3
 80019f2:	d106      	bne.n	8001a02 <HAL_RCC_OscConfig+0x4e6>
            (READ_BIT(pll_config, RCC_CFGR_PLLMULL) != RCC_OscInitStruct->PLL.PLLMUL))
 80019f4:	68fb      	ldr	r3, [r7, #12]
 80019f6:	f403 1270 	and.w	r2, r3, #3932160	; 0x3c0000
 80019fa:	687b      	ldr	r3, [r7, #4]
 80019fc:	6a5b      	ldr	r3, [r3, #36]	; 0x24
        if ((READ_BIT(pll_config, RCC_CFGR_PLLSRC) != RCC_OscInitStruct->PLL.PLLSource) ||
 80019fe:	429a      	cmp	r2, r3
 8001a00:	d001      	beq.n	8001a06 <HAL_RCC_OscConfig+0x4ea>
        {
          return HAL_ERROR;
 8001a02:	2301      	movs	r3, #1
 8001a04:	e000      	b.n	8001a08 <HAL_RCC_OscConfig+0x4ec>
        }
      }
    }
  }

  return HAL_OK;
 8001a06:	2300      	movs	r3, #0
}
 8001a08:	4618      	mov	r0, r3
 8001a0a:	3718      	adds	r7, #24
 8001a0c:	46bd      	mov	sp, r7
 8001a0e:	bd80      	pop	{r7, pc}
 8001a10:	40021000 	.word	0x40021000
 8001a14:	40007000 	.word	0x40007000
 8001a18:	42420060 	.word	0x42420060

08001a1c <HAL_RCC_ClockConfig>:
  *         You can use @ref HAL_RCC_GetClockConfig() function to know which clock is
  *         currently used as system clock source.
  * @retval HAL status
  */
HAL_StatusTypeDef HAL_RCC_ClockConfig(RCC_ClkInitTypeDef  *RCC_ClkInitStruct, uint32_t FLatency)
{
 8001a1c:	b580      	push	{r7, lr}
 8001a1e:	b084      	sub	sp, #16
 8001a20:	af00      	add	r7, sp, #0
 8001a22:	6078      	str	r0, [r7, #4]
 8001a24:	6039      	str	r1, [r7, #0]
  uint32_t tickstart;

  /* Check Null pointer */
  if (RCC_ClkInitStruct == NULL)
 8001a26:	687b      	ldr	r3, [r7, #4]
 8001a28:	2b00      	cmp	r3, #0
 8001a2a:	d101      	bne.n	8001a30 <HAL_RCC_ClockConfig+0x14>
  {
    return HAL_ERROR;
 8001a2c:	2301      	movs	r3, #1
 8001a2e:	e0d0      	b.n	8001bd2 <HAL_RCC_ClockConfig+0x1b6>
  must be correctly programmed according to the frequency of the CPU clock
    (HCLK) of the device. */

#if defined(FLASH_ACR_LATENCY)
  /* Increasing the number of wait states because of higher CPU frequency */
  if (FLatency > __HAL_FLASH_GET_LATENCY())
 8001a30:	4b6a      	ldr	r3, [pc, #424]	; (8001bdc <HAL_RCC_ClockConfig+0x1c0>)
 8001a32:	681b      	ldr	r3, [r3, #0]
 8001a34:	f003 0307 	and.w	r3, r3, #7
 8001a38:	683a      	ldr	r2, [r7, #0]
 8001a3a:	429a      	cmp	r2, r3
 8001a3c:	d910      	bls.n	8001a60 <HAL_RCC_ClockConfig+0x44>
  {
    /* Program the new number of wait states to the LATENCY bits in the FLASH_ACR register */
    __HAL_FLASH_SET_LATENCY(FLatency);
 8001a3e:	4b67      	ldr	r3, [pc, #412]	; (8001bdc <HAL_RCC_ClockConfig+0x1c0>)
 8001a40:	681b      	ldr	r3, [r3, #0]
 8001a42:	f023 0207 	bic.w	r2, r3, #7
 8001a46:	4965      	ldr	r1, [pc, #404]	; (8001bdc <HAL_RCC_ClockConfig+0x1c0>)
 8001a48:	683b      	ldr	r3, [r7, #0]
 8001a4a:	4313      	orrs	r3, r2
 8001a4c:	600b      	str	r3, [r1, #0]

    /* Check that the new number of wait states is taken into account to access the Flash
    memory by reading the FLASH_ACR register */
    if (__HAL_FLASH_GET_LATENCY() != FLatency)
 8001a4e:	4b63      	ldr	r3, [pc, #396]	; (8001bdc <HAL_RCC_ClockConfig+0x1c0>)
 8001a50:	681b      	ldr	r3, [r3, #0]
 8001a52:	f003 0307 	and.w	r3, r3, #7
 8001a56:	683a      	ldr	r2, [r7, #0]
 8001a58:	429a      	cmp	r2, r3
 8001a5a:	d001      	beq.n	8001a60 <HAL_RCC_ClockConfig+0x44>
  {
    return HAL_ERROR;
 8001a5c:	2301      	movs	r3, #1
 8001a5e:	e0b8      	b.n	8001bd2 <HAL_RCC_ClockConfig+0x1b6>
  }
}

#endif /* FLASH_ACR_LATENCY */
/*-------------------------- HCLK Configuration --------------------------*/
if (((RCC_ClkInitStruct->ClockType) & RCC_CLOCKTYPE_HCLK) == RCC_CLOCKTYPE_HCLK)
 8001a60:	687b      	ldr	r3, [r7, #4]
 8001a62:	681b      	ldr	r3, [r3, #0]
 8001a64:	f003 0302 	and.w	r3, r3, #2
 8001a68:	2b00      	cmp	r3, #0
 8001a6a:	d020      	beq.n	8001aae <HAL_RCC_ClockConfig+0x92>
  {
    /* Set the highest APBx dividers in order to ensure that we do not go through
    a non-spec phase whatever we decrease or increase HCLK. */
    if (((RCC_ClkInitStruct->ClockType) & RCC_CLOCKTYPE_PCLK1) == RCC_CLOCKTYPE_PCLK1)
 8001a6c:	687b      	ldr	r3, [r7, #4]
 8001a6e:	681b      	ldr	r3, [r3, #0]
 8001a70:	f003 0304 	and.w	r3, r3, #4
 8001a74:	2b00      	cmp	r3, #0
 8001a76:	d005      	beq.n	8001a84 <HAL_RCC_ClockConfig+0x68>
    {
      MODIFY_REG(RCC->CFGR, RCC_CFGR_PPRE1, RCC_HCLK_DIV16);
 8001a78:	4b59      	ldr	r3, [pc, #356]	; (8001be0 <HAL_RCC_ClockConfig+0x1c4>)
 8001a7a:	685b      	ldr	r3, [r3, #4]
 8001a7c:	4a58      	ldr	r2, [pc, #352]	; (8001be0 <HAL_RCC_ClockConfig+0x1c4>)
 8001a7e:	f443 63e0 	orr.w	r3, r3, #1792	; 0x700
 8001a82:	6053      	str	r3, [r2, #4]
    }

    if (((RCC_ClkInitStruct->ClockType) & RCC_CLOCKTYPE_PCLK2) == RCC_CLOCKTYPE_PCLK2)
 8001a84:	687b      	ldr	r3, [r7, #4]
 8001a86:	681b      	ldr	r3, [r3, #0]
 8001a88:	f003 0308 	and.w	r3, r3, #8
 8001a8c:	2b00      	cmp	r3, #0
 8001a8e:	d005      	beq.n	8001a9c <HAL_RCC_ClockConfig+0x80>
    {
      MODIFY_REG(RCC->CFGR, RCC_CFGR_PPRE2, (RCC_HCLK_DIV16 << 3));
 8001a90:	4b53      	ldr	r3, [pc, #332]	; (8001be0 <HAL_RCC_ClockConfig+0x1c4>)
 8001a92:	685b      	ldr	r3, [r3, #4]
 8001a94:	4a52      	ldr	r2, [pc, #328]	; (8001be0 <HAL_RCC_ClockConfig+0x1c4>)
 8001a96:	f443 5360 	orr.w	r3, r3, #14336	; 0x3800
 8001a9a:	6053      	str	r3, [r2, #4]
    }

    /* Set the new HCLK clock divider */
    assert_param(IS_RCC_HCLK(RCC_ClkInitStruct->AHBCLKDivider));
    MODIFY_REG(RCC->CFGR, RCC_CFGR_HPRE, RCC_ClkInitStruct->AHBCLKDivider);
 8001a9c:	4b50      	ldr	r3, [pc, #320]	; (8001be0 <HAL_RCC_ClockConfig+0x1c4>)
 8001a9e:	685b      	ldr	r3, [r3, #4]
 8001aa0:	f023 02f0 	bic.w	r2, r3, #240	; 0xf0
 8001aa4:	687b      	ldr	r3, [r7, #4]
 8001aa6:	689b      	ldr	r3, [r3, #8]
 8001aa8:	494d      	ldr	r1, [pc, #308]	; (8001be0 <HAL_RCC_ClockConfig+0x1c4>)
 8001aaa:	4313      	orrs	r3, r2
 8001aac:	604b      	str	r3, [r1, #4]
  }

  /*------------------------- SYSCLK Configuration ---------------------------*/
  if (((RCC_ClkInitStruct->ClockType) & RCC_CLOCKTYPE_SYSCLK) == RCC_CLOCKTYPE_SYSCLK)
 8001aae:	687b      	ldr	r3, [r7, #4]
 8001ab0:	681b      	ldr	r3, [r3, #0]
 8001ab2:	f003 0301 	and.w	r3, r3, #1
 8001ab6:	2b00      	cmp	r3, #0
 8001ab8:	d040      	beq.n	8001b3c <HAL_RCC_ClockConfig+0x120>
  {
    assert_param(IS_RCC_SYSCLKSOURCE(RCC_ClkInitStruct->SYSCLKSource));

    /* HSE is selected as System Clock Source */
    if (RCC_ClkInitStruct->SYSCLKSource == RCC_SYSCLKSOURCE_HSE)
 8001aba:	687b      	ldr	r3, [r7, #4]
 8001abc:	685b      	ldr	r3, [r3, #4]
 8001abe:	2b01      	cmp	r3, #1
 8001ac0:	d107      	bne.n	8001ad2 <HAL_RCC_ClockConfig+0xb6>
    {
      /* Check the HSE ready flag */
      if (__HAL_RCC_GET_FLAG(RCC_FLAG_HSERDY) == RESET)
 8001ac2:	4b47      	ldr	r3, [pc, #284]	; (8001be0 <HAL_RCC_ClockConfig+0x1c4>)
 8001ac4:	681b      	ldr	r3, [r3, #0]
 8001ac6:	f403 3300 	and.w	r3, r3, #131072	; 0x20000
 8001aca:	2b00      	cmp	r3, #0
 8001acc:	d115      	bne.n	8001afa <HAL_RCC_ClockConfig+0xde>
      {
        return HAL_ERROR;
 8001ace:	2301      	movs	r3, #1
 8001ad0:	e07f      	b.n	8001bd2 <HAL_RCC_ClockConfig+0x1b6>
      }
    }
    /* PLL is selected as System Clock Source */
    else if (RCC_ClkInitStruct->SYSCLKSource == RCC_SYSCLKSOURCE_PLLCLK)
 8001ad2:	687b      	ldr	r3, [r7, #4]
 8001ad4:	685b      	ldr	r3, [r3, #4]
 8001ad6:	2b02      	cmp	r3, #2
 8001ad8:	d107      	bne.n	8001aea <HAL_RCC_ClockConfig+0xce>
    {
      /* Check the PLL ready flag */
      if (__HAL_RCC_GET_FLAG(RCC_FLAG_PLLRDY) == RESET)
 8001ada:	4b41      	ldr	r3, [pc, #260]	; (8001be0 <HAL_RCC_ClockConfig+0x1c4>)
 8001adc:	681b      	ldr	r3, [r3, #0]
 8001ade:	f003 7300 	and.w	r3, r3, #33554432	; 0x2000000
 8001ae2:	2b00      	cmp	r3, #0
 8001ae4:	d109      	bne.n	8001afa <HAL_RCC_ClockConfig+0xde>
      {
        return HAL_ERROR;
 8001ae6:	2301      	movs	r3, #1
 8001ae8:	e073      	b.n	8001bd2 <HAL_RCC_ClockConfig+0x1b6>
    }
    /* HSI is selected as System Clock Source */
    else
    {
      /* Check the HSI ready flag */
      if (__HAL_RCC_GET_FLAG(RCC_FLAG_HSIRDY) == RESET)
 8001aea:	4b3d      	ldr	r3, [pc, #244]	; (8001be0 <HAL_RCC_ClockConfig+0x1c4>)
 8001aec:	681b      	ldr	r3, [r3, #0]
 8001aee:	f003 0302 	and.w	r3, r3, #2
 8001af2:	2b00      	cmp	r3, #0
 8001af4:	d101      	bne.n	8001afa <HAL_RCC_ClockConfig+0xde>
      {
        return HAL_ERROR;
 8001af6:	2301      	movs	r3, #1
 8001af8:	e06b      	b.n	8001bd2 <HAL_RCC_ClockConfig+0x1b6>
      }
    }
    __HAL_RCC_SYSCLK_CONFIG(RCC_ClkInitStruct->SYSCLKSource);
 8001afa:	4b39      	ldr	r3, [pc, #228]	; (8001be0 <HAL_RCC_ClockConfig+0x1c4>)
 8001afc:	685b      	ldr	r3, [r3, #4]
 8001afe:	f023 0203 	bic.w	r2, r3, #3
 8001b02:	687b      	ldr	r3, [r7, #4]
 8001b04:	685b      	ldr	r3, [r3, #4]
 8001b06:	4936      	ldr	r1, [pc, #216]	; (8001be0 <HAL_RCC_ClockConfig+0x1c4>)
 8001b08:	4313      	orrs	r3, r2
 8001b0a:	604b      	str	r3, [r1, #4]

    /* Get Start Tick */
    tickstart = HAL_GetTick();
 8001b0c:	f7fe ff48 	bl	80009a0 <HAL_GetTick>
 8001b10:	60f8      	str	r0, [r7, #12]

    while (__HAL_RCC_GET_SYSCLK_SOURCE() != (RCC_ClkInitStruct->SYSCLKSource << RCC_CFGR_SWS_Pos))
 8001b12:	e00a      	b.n	8001b2a <HAL_RCC_ClockConfig+0x10e>
    {
      if ((HAL_GetTick() - tickstart) > CLOCKSWITCH_TIMEOUT_VALUE)
 8001b14:	f7fe ff44 	bl	80009a0 <HAL_GetTick>
 8001b18:	4602      	mov	r2, r0
 8001b1a:	68fb      	ldr	r3, [r7, #12]
 8001b1c:	1ad3      	subs	r3, r2, r3
 8001b1e:	f241 3288 	movw	r2, #5000	; 0x1388
 8001b22:	4293      	cmp	r3, r2
 8001b24:	d901      	bls.n	8001b2a <HAL_RCC_ClockConfig+0x10e>
      {
        return HAL_TIMEOUT;
 8001b26:	2303      	movs	r3, #3
 8001b28:	e053      	b.n	8001bd2 <HAL_RCC_ClockConfig+0x1b6>
    while (__HAL_RCC_GET_SYSCLK_SOURCE() != (RCC_ClkInitStruct->SYSCLKSource << RCC_CFGR_SWS_Pos))
 8001b2a:	4b2d      	ldr	r3, [pc, #180]	; (8001be0 <HAL_RCC_ClockConfig+0x1c4>)
 8001b2c:	685b      	ldr	r3, [r3, #4]
 8001b2e:	f003 020c 	and.w	r2, r3, #12
 8001b32:	687b      	ldr	r3, [r7, #4]
 8001b34:	685b      	ldr	r3, [r3, #4]
 8001b36:	009b      	lsls	r3, r3, #2
 8001b38:	429a      	cmp	r2, r3
 8001b3a:	d1eb      	bne.n	8001b14 <HAL_RCC_ClockConfig+0xf8>
    }
  }

#if defined(FLASH_ACR_LATENCY)
  /* Decreasing the number of wait states because of lower CPU frequency */
  if (FLatency < __HAL_FLASH_GET_LATENCY())
 8001b3c:	4b27      	ldr	r3, [pc, #156]	; (8001bdc <HAL_RCC_ClockConfig+0x1c0>)
 8001b3e:	681b      	ldr	r3, [r3, #0]
 8001b40:	f003 0307 	and.w	r3, r3, #7
 8001b44:	683a      	ldr	r2, [r7, #0]
 8001b46:	429a      	cmp	r2, r3
 8001b48:	d210      	bcs.n	8001b6c <HAL_RCC_ClockConfig+0x150>
  {
    /* Program the new number of wait states to the LATENCY bits in the FLASH_ACR register */
    __HAL_FLASH_SET_LATENCY(FLatency);
 8001b4a:	4b24      	ldr	r3, [pc, #144]	; (8001bdc <HAL_RCC_ClockConfig+0x1c0>)
 8001b4c:	681b      	ldr	r3, [r3, #0]
 8001b4e:	f023 0207 	bic.w	r2, r3, #7
 8001b52:	4922      	ldr	r1, [pc, #136]	; (8001bdc <HAL_RCC_ClockConfig+0x1c0>)
 8001b54:	683b      	ldr	r3, [r7, #0]
 8001b56:	4313      	orrs	r3, r2
 8001b58:	600b      	str	r3, [r1, #0]

    /* Check that the new number of wait states is taken into account to access the Flash
    memory by reading the FLASH_ACR register */
    if (__HAL_FLASH_GET_LATENCY() != FLatency)
 8001b5a:	4b20      	ldr	r3, [pc, #128]	; (8001bdc <HAL_RCC_ClockConfig+0x1c0>)
 8001b5c:	681b      	ldr	r3, [r3, #0]
 8001b5e:	f003 0307 	and.w	r3, r3, #7
 8001b62:	683a      	ldr	r2, [r7, #0]
 8001b64:	429a      	cmp	r2, r3
 8001b66:	d001      	beq.n	8001b6c <HAL_RCC_ClockConfig+0x150>
  {
    return HAL_ERROR;
 8001b68:	2301      	movs	r3, #1
 8001b6a:	e032      	b.n	8001bd2 <HAL_RCC_ClockConfig+0x1b6>
  }
}
#endif /* FLASH_ACR_LATENCY */

/*-------------------------- PCLK1 Configuration ---------------------------*/
if (((RCC_ClkInitStruct->ClockType) & RCC_CLOCKTYPE_PCLK1) == RCC_CLOCKTYPE_PCLK1)
 8001b6c:	687b      	ldr	r3, [r7, #4]
 8001b6e:	681b      	ldr	r3, [r3, #0]
 8001b70:	f003 0304 	and.w	r3, r3, #4
 8001b74:	2b00      	cmp	r3, #0
 8001b76:	d008      	beq.n	8001b8a <HAL_RCC_ClockConfig+0x16e>
  {
    assert_param(IS_RCC_PCLK(RCC_ClkInitStruct->APB1CLKDivider));
    MODIFY_REG(RCC->CFGR, RCC_CFGR_PPRE1, RCC_ClkInitStruct->APB1CLKDivider);
 8001b78:	4b19      	ldr	r3, [pc, #100]	; (8001be0 <HAL_RCC_ClockConfig+0x1c4>)
 8001b7a:	685b      	ldr	r3, [r3, #4]
 8001b7c:	f423 62e0 	bic.w	r2, r3, #1792	; 0x700
 8001b80:	687b      	ldr	r3, [r7, #4]
 8001b82:	68db      	ldr	r3, [r3, #12]
 8001b84:	4916      	ldr	r1, [pc, #88]	; (8001be0 <HAL_RCC_ClockConfig+0x1c4>)
 8001b86:	4313      	orrs	r3, r2
 8001b88:	604b      	str	r3, [r1, #4]
  }

  /*-------------------------- PCLK2 Configuration ---------------------------*/
  if (((RCC_ClkInitStruct->ClockType) & RCC_CLOCKTYPE_PCLK2) == RCC_CLOCKTYPE_PCLK2)
 8001b8a:	687b      	ldr	r3, [r7, #4]
 8001b8c:	681b      	ldr	r3, [r3, #0]
 8001b8e:	f003 0308 	and.w	r3, r3, #8
 8001b92:	2b00      	cmp	r3, #0
 8001b94:	d009      	beq.n	8001baa <HAL_RCC_ClockConfig+0x18e>
  {
    assert_param(IS_RCC_PCLK(RCC_ClkInitStruct->APB2CLKDivider));
    MODIFY_REG(RCC->CFGR, RCC_CFGR_PPRE2, ((RCC_ClkInitStruct->APB2CLKDivider) << 3));
 8001b96:	4b12      	ldr	r3, [pc, #72]	; (8001be0 <HAL_RCC_ClockConfig+0x1c4>)
 8001b98:	685b      	ldr	r3, [r3, #4]
 8001b9a:	f423 5260 	bic.w	r2, r3, #14336	; 0x3800
 8001b9e:	687b      	ldr	r3, [r7, #4]
 8001ba0:	691b      	ldr	r3, [r3, #16]
 8001ba2:	00db      	lsls	r3, r3, #3
 8001ba4:	490e      	ldr	r1, [pc, #56]	; (8001be0 <HAL_RCC_ClockConfig+0x1c4>)
 8001ba6:	4313      	orrs	r3, r2
 8001ba8:	604b      	str	r3, [r1, #4]
  }

  /* Update the SystemCoreClock global variable */
  SystemCoreClock = HAL_RCC_GetSysClockFreq() >> AHBPrescTable[(RCC->CFGR & RCC_CFGR_HPRE) >> RCC_CFGR_HPRE_Pos];
 8001baa:	f000 f821 	bl	8001bf0 <HAL_RCC_GetSysClockFreq>
 8001bae:	4602      	mov	r2, r0
 8001bb0:	4b0b      	ldr	r3, [pc, #44]	; (8001be0 <HAL_RCC_ClockConfig+0x1c4>)
 8001bb2:	685b      	ldr	r3, [r3, #4]
 8001bb4:	091b      	lsrs	r3, r3, #4
 8001bb6:	f003 030f 	and.w	r3, r3, #15
 8001bba:	490a      	ldr	r1, [pc, #40]	; (8001be4 <HAL_RCC_ClockConfig+0x1c8>)
 8001bbc:	5ccb      	ldrb	r3, [r1, r3]
 8001bbe:	fa22 f303 	lsr.w	r3, r2, r3
 8001bc2:	4a09      	ldr	r2, [pc, #36]	; (8001be8 <HAL_RCC_ClockConfig+0x1cc>)
 8001bc4:	6013      	str	r3, [r2, #0]

  /* Configure the source of time base considering new system clocks settings*/
  HAL_InitTick(uwTickPrio);
 8001bc6:	4b09      	ldr	r3, [pc, #36]	; (8001bec <HAL_RCC_ClockConfig+0x1d0>)
 8001bc8:	681b      	ldr	r3, [r3, #0]
 8001bca:	4618      	mov	r0, r3
 8001bcc:	f7fe fea6 	bl	800091c <HAL_InitTick>

  return HAL_OK;
 8001bd0:	2300      	movs	r3, #0
}
 8001bd2:	4618      	mov	r0, r3
 8001bd4:	3710      	adds	r7, #16
 8001bd6:	46bd      	mov	sp, r7
 8001bd8:	bd80      	pop	{r7, pc}
 8001bda:	bf00      	nop
 8001bdc:	40022000 	.word	0x40022000
 8001be0:	40021000 	.word	0x40021000
 8001be4:	08002db4 	.word	0x08002db4
 8001be8:	20000004 	.word	0x20000004
 8001bec:	20000008 	.word	0x20000008

08001bf0 <HAL_RCC_GetSysClockFreq>:
  *         right SYSCLK value. Otherwise, any configuration based on this function will be incorrect.
  *
  * @retval SYSCLK frequency
  */
uint32_t HAL_RCC_GetSysClockFreq(void)
{
 8001bf0:	b490      	push	{r4, r7}
 8001bf2:	b08a      	sub	sp, #40	; 0x28
 8001bf4:	af00      	add	r7, sp, #0
#if defined(RCC_CFGR2_PREDIV1SRC)
  const uint8_t aPLLMULFactorTable[14] = {0, 0, 4, 5, 6, 7, 8, 9, 0, 0, 0, 0, 0, 13};
  const uint8_t aPredivFactorTable[16] = {1, 2, 3, 4, 5, 6, 7, 8, 9, 10, 11, 12, 13, 14, 15, 16};
#else
  const uint8_t aPLLMULFactorTable[16] = {2, 3, 4, 5, 6, 7, 8, 9, 10, 11, 12, 13, 14, 15, 16, 16};
 8001bf6:	4b2a      	ldr	r3, [pc, #168]	; (8001ca0 <HAL_RCC_GetSysClockFreq+0xb0>)
 8001bf8:	1d3c      	adds	r4, r7, #4
 8001bfa:	cb0f      	ldmia	r3, {r0, r1, r2, r3}
 8001bfc:	e884 000f 	stmia.w	r4, {r0, r1, r2, r3}
#if defined(RCC_CFGR2_PREDIV1)
  const uint8_t aPredivFactorTable[16] = {1, 2, 3, 4, 5, 6, 7, 8, 9, 10, 11, 12, 13, 14, 15, 16};
#else
  const uint8_t aPredivFactorTable[2] = {1, 2};
 8001c00:	f240 2301 	movw	r3, #513	; 0x201
 8001c04:	803b      	strh	r3, [r7, #0]
#endif /*RCC_CFGR2_PREDIV1*/

#endif
  uint32_t tmpreg = 0U, prediv = 0U, pllclk = 0U, pllmul = 0U;
 8001c06:	2300      	movs	r3, #0
 8001c08:	61fb      	str	r3, [r7, #28]
 8001c0a:	2300      	movs	r3, #0
 8001c0c:	61bb      	str	r3, [r7, #24]
 8001c0e:	2300      	movs	r3, #0
 8001c10:	627b      	str	r3, [r7, #36]	; 0x24
 8001c12:	2300      	movs	r3, #0
 8001c14:	617b      	str	r3, [r7, #20]
  uint32_t sysclockfreq = 0U;
 8001c16:	2300      	movs	r3, #0
 8001c18:	623b      	str	r3, [r7, #32]
#if defined(RCC_CFGR2_PREDIV1SRC)
  uint32_t prediv2 = 0U, pll2mul = 0U;
#endif /*RCC_CFGR2_PREDIV1SRC*/

  tmpreg = RCC->CFGR;
 8001c1a:	4b22      	ldr	r3, [pc, #136]	; (8001ca4 <HAL_RCC_GetSysClockFreq+0xb4>)
 8001c1c:	685b      	ldr	r3, [r3, #4]
 8001c1e:	61fb      	str	r3, [r7, #28]

  /* Get SYSCLK source -------------------------------------------------------*/
  switch (tmpreg & RCC_CFGR_SWS)
 8001c20:	69fb      	ldr	r3, [r7, #28]
 8001c22:	f003 030c 	and.w	r3, r3, #12
 8001c26:	2b04      	cmp	r3, #4
 8001c28:	d002      	beq.n	8001c30 <HAL_RCC_GetSysClockFreq+0x40>
 8001c2a:	2b08      	cmp	r3, #8
 8001c2c:	d003      	beq.n	8001c36 <HAL_RCC_GetSysClockFreq+0x46>
 8001c2e:	e02d      	b.n	8001c8c <HAL_RCC_GetSysClockFreq+0x9c>
  {
    case RCC_SYSCLKSOURCE_STATUS_HSE:  /* HSE used as system clock */
    {
      sysclockfreq = HSE_VALUE;
 8001c30:	4b1d      	ldr	r3, [pc, #116]	; (8001ca8 <HAL_RCC_GetSysClockFreq+0xb8>)
 8001c32:	623b      	str	r3, [r7, #32]
      break;
 8001c34:	e02d      	b.n	8001c92 <HAL_RCC_GetSysClockFreq+0xa2>
    }
    case RCC_SYSCLKSOURCE_STATUS_PLLCLK:  /* PLL used as system clock */
    {
      pllmul = aPLLMULFactorTable[(uint32_t)(tmpreg & RCC_CFGR_PLLMULL) >> RCC_CFGR_PLLMULL_Pos];
 8001c36:	69fb      	ldr	r3, [r7, #28]
 8001c38:	0c9b      	lsrs	r3, r3, #18
 8001c3a:	f003 030f 	and.w	r3, r3, #15
 8001c3e:	f107 0228 	add.w	r2, r7, #40	; 0x28
 8001c42:	4413      	add	r3, r2
 8001c44:	f813 3c24 	ldrb.w	r3, [r3, #-36]
 8001c48:	617b      	str	r3, [r7, #20]
      if ((tmpreg & RCC_CFGR_PLLSRC) != RCC_PLLSOURCE_HSI_DIV2)
 8001c4a:	69fb      	ldr	r3, [r7, #28]
 8001c4c:	f403 3380 	and.w	r3, r3, #65536	; 0x10000
 8001c50:	2b00      	cmp	r3, #0
 8001c52:	d013      	beq.n	8001c7c <HAL_RCC_GetSysClockFreq+0x8c>
      {
#if defined(RCC_CFGR2_PREDIV1)
        prediv = aPredivFactorTable[(uint32_t)(RCC->CFGR2 & RCC_CFGR2_PREDIV1) >> RCC_CFGR2_PREDIV1_Pos];
#else
        prediv = aPredivFactorTable[(uint32_t)(RCC->CFGR & RCC_CFGR_PLLXTPRE) >> RCC_CFGR_PLLXTPRE_Pos];
 8001c54:	4b13      	ldr	r3, [pc, #76]	; (8001ca4 <HAL_RCC_GetSysClockFreq+0xb4>)
 8001c56:	685b      	ldr	r3, [r3, #4]
 8001c58:	0c5b      	lsrs	r3, r3, #17
 8001c5a:	f003 0301 	and.w	r3, r3, #1
 8001c5e:	f107 0228 	add.w	r2, r7, #40	; 0x28
 8001c62:	4413      	add	r3, r2
 8001c64:	f813 3c28 	ldrb.w	r3, [r3, #-40]
 8001c68:	61bb      	str	r3, [r7, #24]
        {
          pllclk = pllclk / 2;
        }
#else
        /* HSE used as PLL clock source : PLLCLK = HSE/PREDIV1 * PLLMUL */
        pllclk = (uint32_t)((HSE_VALUE  * pllmul) / prediv);
 8001c6a:	697b      	ldr	r3, [r7, #20]
 8001c6c:	4a0e      	ldr	r2, [pc, #56]	; (8001ca8 <HAL_RCC_GetSysClockFreq+0xb8>)
 8001c6e:	fb02 f203 	mul.w	r2, r2, r3
 8001c72:	69bb      	ldr	r3, [r7, #24]
 8001c74:	fbb2 f3f3 	udiv	r3, r2, r3
 8001c78:	627b      	str	r3, [r7, #36]	; 0x24
 8001c7a:	e004      	b.n	8001c86 <HAL_RCC_GetSysClockFreq+0x96>
#endif /*RCC_CFGR2_PREDIV1SRC*/
      }
      else
      {
        /* HSI used as PLL clock source : PLLCLK = HSI/2 * PLLMUL */
        pllclk = (uint32_t)((HSI_VALUE >> 1) * pllmul);
 8001c7c:	697b      	ldr	r3, [r7, #20]
 8001c7e:	4a0b      	ldr	r2, [pc, #44]	; (8001cac <HAL_RCC_GetSysClockFreq+0xbc>)
 8001c80:	fb02 f303 	mul.w	r3, r2, r3
 8001c84:	627b      	str	r3, [r7, #36]	; 0x24
      }
      sysclockfreq = pllclk;
 8001c86:	6a7b      	ldr	r3, [r7, #36]	; 0x24
 8001c88:	623b      	str	r3, [r7, #32]
      break;
 8001c8a:	e002      	b.n	8001c92 <HAL_RCC_GetSysClockFreq+0xa2>
    }
    case RCC_SYSCLKSOURCE_STATUS_HSI:  /* HSI used as system clock source */
    default: /* HSI used as system clock */
    {
      sysclockfreq = HSI_VALUE;
 8001c8c:	4b06      	ldr	r3, [pc, #24]	; (8001ca8 <HAL_RCC_GetSysClockFreq+0xb8>)
